{
  "contractName": "AnyCallReceiver",
  "abi": [
    {
      "inputs": [
        {
          "internalType": "address",
          "name": "collection",
          "type": "address"
        }
      ],
      "stateMutability": "nonpayable",
      "type": "constructor"
    },
    {
      "inputs": [
        {
          "internalType": "bytes",
          "name": "_data",
          "type": "bytes"
        }
      ],
      "name": "anyExecute",
      "outputs": [
        {
          "internalType": "bool",
          "name": "success",
          "type": "bool"
        },
        {
          "internalType": "bytes",
          "name": "result",
          "type": "bytes"
        }
      ],
      "stateMutability": "nonpayable",
      "type": "function"
    }
  ],
  "bytecode": "0x608060405234801561001057600080fd5b5060405161074e38038061074e83398101604081905261002f91610054565b600080546001600160a01b0319166001600160a01b0392909216919091179055610084565b60006020828403121561006657600080fd5b81516001600160a01b038116811461007d57600080fd5b9392505050565b6106bb806100936000396000f3fe608060405234801561001057600080fd5b506004361061002b5760003560e01c80639abaf47914610030575b600080fd5b61004361003e3660046101e6565b61005a565b6040516100519291906102b6565b60405180910390f35b6000606060008060008060008060008060008060008d80602001905181019061008391906103c7565b9a509a509a509a509a509a509a509a509a509a509a5060008054906101000a900473ffffffffffffffffffffffffffffffffffffffff1673ffffffffffffffffffffffffffffffffffffffff16634740abe58c8c8c8c8c8c8c8c8c8c8c6040518c63ffffffff1660e01b81526004016101069b9a99989796959493929190610584565b600060405180830381600087803b15801561012057600080fd5b505af1158015610134573d6000803e3d6000fd5b5050505060019c50604051806020016040528060008152509b505050505050505050505050915091565b7f4e487b7100000000000000000000000000000000000000000000000000000000600052604160045260246000fd5b604051601f8201601f1916810167ffffffffffffffff811182821017156101b6576101b661015e565b604052919050565b600067ffffffffffffffff8211156101d8576101d861015e565b50601f01601f191660200190565b6000602082840312156101f857600080fd5b813567ffffffffffffffff81111561020f57600080fd5b8201601f8101841361022057600080fd5b803561023361022e826101be565b61018d565b81815285602083850101111561024857600080fd5b81602084016020830137600091810160200191909152949350505050565b60005b83811015610281578181015183820152602001610269565b50506000910152565b600081518084526102a2816020860160208601610266565b601f01601f19169290920160200192915050565b82151581526040602082015260006102d1604083018461028a565b949350505050565b805173ffffffffffffffffffffffffffffffffffffffff811681146102fd57600080fd5b919050565b600082601f83011261031357600080fd5b815161032161022e826101be565b81815284602083860101111561033657600080fd5b6102d1826020830160208701610266565b600082601f83011261035857600080fd5b8151602067ffffffffffffffff8211156103745761037461015e565b8160051b61038382820161018d565b928352848101820192828101908785111561039d57600080fd5b83870192505b848310156103bc578251825291830191908301906103a3565b979650505050505050565b60008060008060008060008060008060006101608c8e0312156103e957600080fd5b6103f28c6102d9565b9a5060208c015167ffffffffffffffff81111561040e57600080fd5b61041a8e828f01610302565b9a505060408c015167ffffffffffffffff81111561043757600080fd5b6104438e828f01610302565b99505060608c015167ffffffffffffffff81111561046057600080fd5b61046c8e828f01610302565b98505060808c015167ffffffffffffffff81111561048957600080fd5b6104958e828f01610347565b9750506104a460a08d016102d9565b955060c08c015194506104b960e08d016102d9565b93506101008c015167ffffffffffffffff8111156104d657600080fd5b6104e28e828f01610347565b9350506101208c015167ffffffffffffffff81111561050057600080fd5b61050c8e828f01610302565b9250506101408c015167ffffffffffffffff81111561052a57600080fd5b6105368e828f01610302565b9150509295989b509295989b9093969950565b600081518084526020808501945080840160005b838110156105795781518752958201959082019060010161055d565b509495945050505050565b73ffffffffffffffffffffffffffffffffffffffff8c16815260006101608060208401526105b48184018e61028a565b905082810360408401526105c8818d61028a565b905082810360608401526105dc818c61028a565b905082810360808401526105f0818b610549565b73ffffffffffffffffffffffffffffffffffffffff8a1660a085015290508760c084015261063660e084018873ffffffffffffffffffffffffffffffffffffffff169052565b8281036101008401526106498187610549565b905082810361012084015261065e818661028a565b9050828103610140840152610673818561028a565b9e9d505050505050505050505050505056fea26469706673582212208d1458eefc8f9547bc27d2134f9b7df077c55aa6eb26012421f5fa9dee8a80d364736f6c63430008100033",
  "immutableReferences": {},
  "source": "// SPDX-License-Identifier: GPL-3.0\npragma solidity >=0.7.0 <0.9.0;\n\nimport {AnycallCollection} from \"./AnycallCollection.sol\";\n\ncontract AnyCallReceiver {\n    AnycallCollection private _collection;\n\n    constructor(address collection) {\n        _collection = AnycallCollection(collection);\n    }\n\n    function anyExecute(\n        bytes memory _data\n    ) external returns (bool success, bytes memory result) {\n        (\n            address sourceAddress,\n            string memory uri,\n            string memory name, // related for non existing nft\n            string memory symbol, // related for non existing nft\n            uint[] memory supportedChains, // related for non existing nft\n            address creator, // related for non existing nft\n            uint256 tokenID,\n            address holder,\n            uint[] memory history,\n            string memory cover,\n            string memory avatar\n        ) = abi.decode(\n                _data,\n                (\n                    address,\n                    string,\n                    string,\n                    string,\n                    uint[],\n                    address,\n                    uint256,\n                    address,\n                    uint[],\n                    string,\n                    string\n                )\n            );\n\n        _collection.execute(\n            sourceAddress,\n            uri,\n            name,\n            symbol,\n            supportedChains,\n            creator,\n            tokenID,\n            holder,\n            history,\n            cover,\n            avatar\n        );\n\n        success = true;\n        result = \"\";\n    }\n}\n",
  "sourcePath": "C:\\Users\\Arogundade Ibrahim\\documents\\web3\\crossart\\contracts\\AnycallReceiver.sol",
  "compiler": {
    "name": "solc",
    "version": "0.8.16+commit.07a7930e.Emscripten.clang"
  },
  "schemaVersion": "3.4.10",
  "updatedAt": "2022-12-17T06:42:15.492Z",
  "networkType": "ethereum",
  "devdoc": {
    "kind": "dev",
    "methods": {},
    "version": 1
  },
  "userdoc": {
    "kind": "user",
    "methods": {},
    "version": 1
  }
}