{
  "contractName": "AnycallCollection",
  "abi": [
    {
      "inputs": [
        {
          "internalType": "address",
          "name": "anycallcontract",
          "type": "address"
        },
        {
          "internalType": "uint256",
          "name": "chainId",
          "type": "uint256"
        }
      ],
      "stateMutability": "nonpayable",
      "type": "constructor"
    },
    {
      "inputs": [],
      "name": "_anycallcontract",
      "outputs": [
        {
          "internalType": "address",
          "name": "",
          "type": "address"
        }
      ],
      "stateMutability": "view",
      "type": "function",
      "constant": true
    },
    {
      "inputs": [
        {
          "internalType": "address",
          "name": "",
          "type": "address"
        }
      ],
      "name": "collections",
      "outputs": [
        {
          "internalType": "bool",
          "name": "isWhiteSystem",
          "type": "bool"
        },
        {
          "internalType": "uint256",
          "name": "mintPrice",
          "type": "uint256"
        },
        {
          "internalType": "uint256",
          "name": "chainId",
          "type": "uint256"
        },
        {
          "internalType": "address",
          "name": "creator",
          "type": "address"
        }
      ],
      "stateMutability": "view",
      "type": "function",
      "constant": true
    },
    {
      "inputs": [
        {
          "internalType": "address",
          "name": "",
          "type": "address"
        },
        {
          "internalType": "uint256",
          "name": "",
          "type": "uint256"
        }
      ],
      "name": "creators",
      "outputs": [
        {
          "internalType": "address",
          "name": "",
          "type": "address"
        }
      ],
      "stateMutability": "view",
      "type": "function",
      "constant": true
    },
    {
      "inputs": [
        {
          "internalType": "uint256",
          "name": "",
          "type": "uint256"
        }
      ],
      "name": "receivers",
      "outputs": [
        {
          "internalType": "address",
          "name": "",
          "type": "address"
        }
      ],
      "stateMutability": "view",
      "type": "function",
      "constant": true
    },
    {
      "inputs": [
        {
          "internalType": "string",
          "name": "name",
          "type": "string"
        },
        {
          "internalType": "string",
          "name": "symbol",
          "type": "string"
        },
        {
          "internalType": "uint256[]",
          "name": "supportedChains",
          "type": "uint256[]"
        },
        {
          "internalType": "string",
          "name": "cover",
          "type": "string"
        },
        {
          "internalType": "string",
          "name": "avatar",
          "type": "string"
        }
      ],
      "name": "createCollection",
      "outputs": [],
      "stateMutability": "nonpayable",
      "type": "function"
    },
    {
      "inputs": [
        {
          "internalType": "address[]",
          "name": "whiteList",
          "type": "address[]"
        },
        {
          "internalType": "address[]",
          "name": "blackList",
          "type": "address[]"
        },
        {
          "internalType": "bool",
          "name": "isWhiteSystem",
          "type": "bool"
        },
        {
          "internalType": "uint256",
          "name": "mintPrice",
          "type": "uint256"
        },
        {
          "internalType": "address",
          "name": "contractAddress",
          "type": "address"
        }
      ],
      "name": "updateCollection",
      "outputs": [],
      "stateMutability": "nonpayable",
      "type": "function"
    },
    {
      "inputs": [
        {
          "internalType": "string",
          "name": "uri",
          "type": "string"
        },
        {
          "internalType": "address",
          "name": "contractAddress",
          "type": "address"
        }
      ],
      "name": "mint",
      "outputs": [],
      "stateMutability": "payable",
      "type": "function",
      "payable": true
    },
    {
      "inputs": [
        {
          "internalType": "address",
          "name": "contractAddress",
          "type": "address"
        }
      ],
      "name": "buy",
      "outputs": [],
      "stateMutability": "payable",
      "type": "function",
      "payable": true
    },
    {
      "inputs": [
        {
          "internalType": "uint256",
          "name": "tokenID",
          "type": "uint256"
        },
        {
          "internalType": "address",
          "name": "contractAddress",
          "type": "address"
        },
        {
          "internalType": "uint256",
          "name": "receiverChainId",
          "type": "uint256"
        }
      ],
      "name": "bridge",
      "outputs": [],
      "stateMutability": "payable",
      "type": "function",
      "payable": true
    },
    {
      "inputs": [
        {
          "internalType": "address",
          "name": "sourceAddress",
          "type": "address"
        },
        {
          "internalType": "string",
          "name": "uri",
          "type": "string"
        },
        {
          "internalType": "string",
          "name": "name",
          "type": "string"
        },
        {
          "internalType": "string",
          "name": "symbol",
          "type": "string"
        },
        {
          "internalType": "uint256[]",
          "name": "supportedChains",
          "type": "uint256[]"
        },
        {
          "internalType": "address",
          "name": "creator",
          "type": "address"
        },
        {
          "internalType": "uint256",
          "name": "tokenID",
          "type": "uint256"
        },
        {
          "internalType": "address",
          "name": "holder",
          "type": "address"
        },
        {
          "internalType": "uint256[]",
          "name": "history",
          "type": "uint256[]"
        },
        {
          "internalType": "string",
          "name": "cover",
          "type": "string"
        },
        {
          "internalType": "string",
          "name": "avatar",
          "type": "string"
        }
      ],
      "name": "execute",
      "outputs": [],
      "stateMutability": "nonpayable",
      "type": "function"
    },
    {
      "inputs": [
        {
          "internalType": "uint256",
          "name": "chainId",
          "type": "uint256"
        },
        {
          "internalType": "address",
          "name": "contractAddress",
          "type": "address"
        }
      ],
      "name": "addChain",
      "outputs": [],
      "stateMutability": "nonpayable",
      "type": "function"
    }
  ],
  "bytecode": "0x60806040523480156200001157600080fd5b506040516200502438038062005024833981016040819052620000349162000066565b600155600280546001600160a01b039092166001600160a01b03199283161790556000805490911633179055620000a2565b600080604083850312156200007a57600080fd5b82516001600160a01b03811681146200009257600080fd5b6020939093015192949293505050565b614f7280620000b26000396000f3fe608060405260043610620000cb5760003560e01c806377ca6c80116200007d578063e514040b1162000054578063e514040b146200026f578063f088d5471462000294578063fef54ec814620002ab57600080fd5b806377ca6c8014620001d2578063a445434014620001f7578063bfd772fc146200023557600080fd5b806343add2e611620000b257806343add2e614620001005780634740abe514620001885780635303942b14620001ad57600080fd5b80631c351a9d14620000d05780632f820a5f14620000e9575b600080fd5b620000e7620000e136600462001f46565b620002cd565b005b620000e7620000fa36600462001f9e565b620004c5565b3480156200010d57600080fd5b50620001586200011f36600462001fd9565b6005602081905260009182526040909120600281015460038201546004830154929093015460ff9091169291906001600160a01b031684565b6040805194151585526020850193909352918301526001600160a01b031660608201526080015b60405180910390f35b3480156200019557600080fd5b50620000e7620001a73660046200208d565b62000c65565b348015620001ba57600080fd5b50620000e7620001cc3660046200220e565b62000e35565b348015620001df57600080fd5b50620000e7620001f136600462002236565b62000ecc565b3480156200020457600080fd5b506200021c6200021636600462002318565b620014d9565b6040516001600160a01b0390911681526020016200017f565b3480156200024257600080fd5b506200021c6200025436600462002347565b6003602052600090815260409020546001600160a01b031681565b3480156200027c57600080fd5b50620000e76200028e366004620023dd565b62001512565b620000e7620002a536600462001fd9565b620019e9565b348015620002b857600080fd5b506002546200021c906001600160a01b031681565b6000819050806001600160a01b03166302d05d3f6040518163ffffffff1660e01b8152600401602060405180830381865afa15801562000311573d6000803e3d6000fd5b505050506040513d601f19601f820116820180604052508101906200033791906200247d565b6001600160a01b0316336001600160a01b031614620003c35760405162461bcd60e51b815260206004820152602160248201527f4f6e6c792063726561746f722063616e2063616c6c2074686973206d6574686f60448201527f640000000000000000000000000000000000000000000000000000000000000060648201526084015b60405180910390fd5b60006001600160a01b03821663a45885eb8533848060405190808252806020026020018201604052801562000402578160200160208202803683370190505b506040518563ffffffff1660e01b81526004016200042494939291906200252e565b6020604051808303816000875af115801562000444573d6000803e3d6000fd5b505050506040513d601f19601f820116820180604052508101906200046a919062002577565b600154604080518381523360208201526001600160a01b038616818301526060810192909252519192507f974f6ea350c6cbd05ba44bd2e61ede013cdfdfbea82bdb72e5be02e8ccee4d47919081900360800190a150505050565b6040517f5221c1f00000000000000000000000000000000000000000000000000000000081526004810182905282906001600160a01b03821690635221c1f090602401602060405180830381865afa15801562000526573d6000803e3d6000fd5b505050506040513d601f19601f820116820180604052508101906200054c919062002591565b6200059a5760405162461bcd60e51b815260206004820152601d60248201527f756e737570706f727465642064657374696e6174696f6e20636861696e0000006044820152606401620003ba565b60405163dbacc23760e01b8152600481018590526001600160a01b0382169063dbacc23790602401602060405180830381865afa158015620005e0573d6000803e3d6000fd5b505050506040513d601f19601f820116820180604052508101906200060691906200247d565b6001600160a01b0316336001600160a01b031614620006685760405162461bcd60e51b815260206004820152601a60248201527f796f752063616e7420627269646765207468697320746f6b656e0000000000006044820152606401620003ba565b6000816001600160a01b031663b0fa84446040518163ffffffff1660e01b8152600401602060405180830381865afa158015620006a9573d6000803e3d6000fd5b505050506040513d601f19601f82011682018060405250810190620006cf91906200247d565b6040517fc87b56dd000000000000000000000000000000000000000000000000000000008152600481018790526001600160a01b0384169063c87b56dd90602401600060405180830381865afa1580156200072e573d6000803e3d6000fd5b505050506040513d6000823e601f3d908101601f19168201604052620007589190810190620025b1565b836001600160a01b03166306fdde036040518163ffffffff1660e01b8152600401600060405180830381865afa15801562000797573d6000803e3d6000fd5b505050506040513d6000823e601f3d908101601f19168201604052620007c19190810190620025b1565b846001600160a01b03166395d89b416040518163ffffffff1660e01b8152600401600060405180830381865afa15801562000800573d6000803e3d6000fd5b505050506040513d6000823e601f3d908101601f191682016040526200082a9190810190620025b1565b856001600160a01b031663816949b56040518163ffffffff1660e01b8152600401600060405180830381865afa15801562000869573d6000803e3d6000fd5b505050506040513d6000823e601f3d908101601f1916820160405262000893919081019062002631565b866001600160a01b03166302d05d3f6040518163ffffffff1660e01b8152600401602060405180830381865afa158015620008d2573d6000803e3d6000fd5b505050506040513d601f19601f82011682018060405250810190620008f891906200247d565b60405163dbacc23760e01b8152600481018c90528b906001600160a01b038a169063dbacc23790602401602060405180830381865afa15801562000940573d6000803e3d6000fd5b505050506040513d601f19601f820116820180604052508101906200096691906200247d565b6040517fa7a38f0b000000000000000000000000000000000000000000000000000000008152600481018e90526001600160a01b038b169063a7a38f0b90602401600060405180830381865afa158015620009c5573d6000803e3d6000fd5b505050506040513d6000823e601f3d908101601f19168201604052620009ef919081019062002631565b8a6001600160a01b031663e7d931e46040518163ffffffff1660e01b8152600401600060405180830381865afa15801562000a2e573d6000803e3d6000fd5b505050506040513d6000823e601f3d908101601f1916820160405262000a589190810190620025b1565b8b6001600160a01b0316635aef7de66040518163ffffffff1660e01b8152600401600060405180830381865afa15801562000a97573d6000803e3d6000fd5b505050506040513d6000823e601f3d908101601f1916820160405262000ac19190810190620025b1565b60405160200162000add9b9a99989796959493929190620026c0565b60408051601f198184030181529181526000858152600360205220549091506001600160a01b031662000b535760405162461bcd60e51b815260206004820152601c60248201527f506c65617365206164642064657374696e6174696f6e20636861696e000000006044820152606401620003ba565b6040517f42966c68000000000000000000000000000000000000000000000000000000008152600481018690526001600160a01b038316906342966c6890602401600060405180830381600087803b15801562000baf57600080fd5b505af115801562000bc4573d6000803e3d6000fd5b50506002546000868152600360205260408082205490517f1979a2840000000000000000000000000000000000000000000000000000000081526001600160a01b039384169550631979a2849450349362000c2a9392169187918a9190600401620027a9565b6000604051808303818588803b15801562000c4457600080fd5b505af115801562000c59573d6000803e3d6000fd5b50505050505050505050565b6001600160a01b038b8116600090815260066020526040812054909116158015919062000cae57506001600160a01b03808d166000908152600660205260409020541662000d92565b8a8a85858c6001548d60405162000cc59062001dae565b62000cd79796959493929190620027f4565b604051809103906000f08015801562000cf4573d6000803e3d6000fd5b506040516322fd66c760e11b81526001600160a01b038f81166004830152919250908216906345facd8e90602401600060405180830381600087803b15801562000d3d57600080fd5b505af115801562000d52573d6000803e3d6000fd5b505050506001600160a01b038d81166000908152600660205260409020805473ffffffffffffffffffffffffffffffffffffffff19169183169190911790555b6040517fa45885eb0000000000000000000000000000000000000000000000000000000081526001600160a01b0382169063a45885eb9062000ddf908f908a908c908b906004016200252e565b6020604051808303816000875af115801562000dff573d6000803e3d6000fd5b505050506040513d601f19601f8201168201806040525081019062000e25919062002577565b5050505050505050505050505050565b6000546001600160a01b0316331462000e915760405162461bcd60e51b815260206004820152601f60248201527f6f6e6c79206f776e65722063616e2063616c6c2074686973206d6574686f64006044820152606401620003ba565b600091825260036020526040909120805473ffffffffffffffffffffffffffffffffffffffff19166001600160a01b03909216919091179055565b600085858484876001543360405162000ee59062001dae565b62000ef79796959493929190620027f4565b604051809103906000f08015801562000f14573d6000803e3d6000fd5b506040516322fd66c760e11b81526001600160a01b038216600482018190529192508291906345facd8e90602401600060405180830381600087803b15801562000f5d57600080fd5b505af115801562000f72573d6000803e3d6000fd5b5050506001600160a01b0382166000818152600660209081526040808320805473ffffffffffffffffffffffffffffffffffffffff191690941790935582516005825291839020805460e09281028401830190945260c08301848152929450849390918401828280156200101057602002820191906000526020600020905b81546001600160a01b0316815260019091019060200180831162000ff1575b50505091835250506001600160a01b03831660009081526005602090815260409182902060010180548351818402810184019094528084529382019390918301828280156200108957602002820191906000526020600020905b81546001600160a01b031681526001909101906020018083116200106a575b50505050508152602001600015158152602001600081526020016001548152602001836001600160a01b03166302d05d3f6040518163ffffffff1660e01b8152600401602060405180830381865afa158015620010ea573d6000803e3d6000fd5b505050506040513d601f19601f820116820180604052508101906200111091906200247d565b6001600160a01b0390811690915282166000908152600560209081526040909120825180519192620011489284929091019062001dbc565b50602082810151805162001163926001850192019062001dbc565b5060408281015160028301805460ff191691151591909117905560608301516003830155608083015160048084019190915560a0909301516005909201805473ffffffffffffffffffffffffffffffffffffffff19166001600160a01b0393841617905580516306fdde0360e01b815290517f707549c2a9a70b590212db4a3745231cd2aacd26eb60ddd1c82954df2fa15fde93928616926306fdde03928082019260009290918290030181865afa15801562001224573d6000803e3d6000fd5b505050506040513d6000823e601f3d908101601f191682016040526200124e9190810190620025b1565b836001600160a01b03166395d89b416040518163ffffffff1660e01b8152600401600060405180830381865afa1580156200128d573d6000803e3d6000fd5b505050506040513d6000823e601f3d908101601f19168201604052620012b79190810190620025b1565b846001600160a01b031663e7d931e46040518163ffffffff1660e01b8152600401600060405180830381865afa158015620012f6573d6000803e3d6000fd5b505050506040513d6000823e601f3d908101601f19168201604052620013209190810190620025b1565b856001600160a01b0316635aef7de66040518163ffffffff1660e01b8152600401600060405180830381865afa1580156200135f573d6000803e3d6000fd5b505050506040513d6000823e601f3d908101601f19168201604052620013899190810190620025b1565b866001600160a01b03166302d05d3f6040518163ffffffff1660e01b8152600401602060405180830381865afa158015620013c8573d6000803e3d6000fd5b505050506040513d601f19601f82011682018060405250810190620013ee91906200247d565b8660056000896001600160a01b03166001600160a01b03168152602001908152602001600020600001600560008a6001600160a01b03166001600160a01b031681526020019081526020016000206001016000806001548d6001600160a01b031663816949b56040518163ffffffff1660e01b8152600401600060405180830381865afa15801562001484573d6000803e3d6000fd5b505050506040513d6000823e601f3d908101601f19168201604052620014ae919081019062002631565b604051620014c89c9b9a99989796959493929190620028c3565b60405180910390a150505050505050565b60046020528160005260406000208181548110620014f657600080fd5b6000918252602090912001546001600160a01b03169150829050565b6000819050806001600160a01b03166302d05d3f6040518163ffffffff1660e01b8152600401602060405180830381865afa15801562001556573d6000803e3d6000fd5b505050506040513d601f19601f820116820180604052508101906200157c91906200247d565b6001600160a01b0316336001600160a01b031614620015de5760405162461bcd60e51b815260206004820152600b60248201527f556e6174686f72697a65640000000000000000000000000000000000000000006044820152606401620003ba565b6040518060c0016040528087815260200186815260200185151581526020018481526020016001548152602001826001600160a01b03166302d05d3f6040518163ffffffff1660e01b8152600401602060405180830381865afa1580156200164a573d6000803e3d6000fd5b505050506040513d601f19601f820116820180604052508101906200167091906200247d565b6001600160a01b0390811690915283166000908152600560209081526040909120825180519192620016a89284929091019062001dbc565b506020828101518051620016c3926001850192019062001dbc565b5060408281015160028301805460ff191691151591909117905560608301516003830155608083015160048084019190915560a0909301516005909201805473ffffffffffffffffffffffffffffffffffffffff19166001600160a01b0393841617905580516306fdde0360e01b815290517f707549c2a9a70b590212db4a3745231cd2aacd26eb60ddd1c82954df2fa15fde93928516926306fdde03928082019260009290918290030181865afa15801562001784573d6000803e3d6000fd5b505050506040513d6000823e601f3d908101601f19168201604052620017ae9190810190620025b1565b826001600160a01b03166395d89b416040518163ffffffff1660e01b8152600401600060405180830381865afa158015620017ed573d6000803e3d6000fd5b505050506040513d6000823e601f3d908101601f19168201604052620018179190810190620025b1565b836001600160a01b031663e7d931e46040518163ffffffff1660e01b8152600401600060405180830381865afa15801562001856573d6000803e3d6000fd5b505050506040513d6000823e601f3d908101601f19168201604052620018809190810190620025b1565b846001600160a01b0316635aef7de66040518163ffffffff1660e01b8152600401600060405180830381865afa158015620018bf573d6000803e3d6000fd5b505050506040513d6000823e601f3d908101601f19168201604052620018e99190810190620025b1565b856001600160a01b03166302d05d3f6040518163ffffffff1660e01b8152600401602060405180830381865afa15801562001928573d6000803e3d6000fd5b505050506040513d601f19601f820116820180604052508101906200194e91906200247d565b868c8c8c8c6001548c6001600160a01b031663816949b56040518163ffffffff1660e01b8152600401600060405180830381865afa15801562001995573d6000803e3d6000fd5b505050506040513d6000823e601f3d908101601f19168201604052620019bf919081019062002631565b604051620019d99c9b9a99989796959493929190620029e0565b60405180910390a1505050505050565b6001600160a01b03811660009081526005602090815260408083208151815460e09481028201850190935260c081018381528695949193849284919084018282801562001a6057602002820191906000526020600020905b81546001600160a01b0316815260019091019060200180831162001a41575b505050505081526020016001820180548060200260200160405190810160405280929190818152602001828054801562001ac457602002820191906000526020600020905b81546001600160a01b0316815260019091019060200180831162001aa5575b5050509183525050600282015460ff161515602080830191909152600383015460408084019190915260048085015460608501526005909401546001600160a01b0390811660809094019390935280517f02d05d3f0000000000000000000000000000000000000000000000000000000081529051949550918616936302d05d3f93838101938290030181865afa15801562001b64573d6000803e3d6000fd5b505050506040513d601f19601f8201168201806040525081019062001b8a91906200247d565b6001600160a01b0316330362001c095760405162461bcd60e51b815260206004820152602560248201527f4f6e6c79206e6f6e2063726561746f722063616e2063616c6c2074686973206d60448201527f6574686f640000000000000000000000000000000000000000000000000000006064820152608401620003ba565b806060015134101562001c5f5760405162461bcd60e51b815260206004820152601760248201527f496e737566696369656e74204d696e7420416d6f756e740000000000000000006044820152606401620003ba565b80604001511562001cd457600062001c81338360000151846020015162001cd9565b90508062001cd25760405162461bcd60e51b815260206004820152601360248201527f596f75277265206e6f7420656c696769626c65000000000000000000000000006044820152606401620003ba565b505b505050565b6000805b825181101562001d3d5782818151811062001cfc5762001cfc62002a81565b60200260200101516001600160a01b0316856001600160a01b03160362001d2857600091505062001da7565b8062001d348162002a97565b91505062001cdd565b5060005b835181101562001da15783818151811062001d605762001d6062002a81565b60200260200101516001600160a01b0316856001600160a01b03160362001d8c57600191505062001da7565b8062001d988162002a97565b91505062001d41565b50600090505b9392505050565b61247d8062002ac083390190565b82805482825590600052602060002090810192821562001e21579160200282015b8281111562001e21578251825473ffffffffffffffffffffffffffffffffffffffff19166001600160a01b0390911617825560209092019160019091019062001ddd565b5062001e2f92915062001e33565b5090565b5b8082111562001e2f576000815560010162001e34565b634e487b7160e01b600052604160045260246000fd5b604051601f8201601f1916810167ffffffffffffffff8111828210171562001e8c5762001e8c62001e4a565b604052919050565b600067ffffffffffffffff82111562001eb15762001eb162001e4a565b50601f01601f191660200190565b600082601f83011262001ed157600080fd5b813562001ee862001ee28262001e94565b62001e60565b81815284602083860101111562001efe57600080fd5b816020850160208301376000918101602001919091529392505050565b6001600160a01b038116811462001f3157600080fd5b50565b803562001f418162001f1b565b919050565b6000806040838503121562001f5a57600080fd5b823567ffffffffffffffff81111562001f7257600080fd5b62001f808582860162001ebf565b925050602083013562001f938162001f1b565b809150509250929050565b60008060006060848603121562001fb457600080fd5b83359250602084013562001fc88162001f1b565b929592945050506040919091013590565b60006020828403121562001fec57600080fd5b813562001da78162001f1b565b600067ffffffffffffffff82111562002016576200201662001e4a565b5060051b60200190565b600082601f8301126200203257600080fd5b813560206200204562001ee28362001ff9565b82815260059290921b840181019181810190868411156200206557600080fd5b8286015b8481101562002082578035835291830191830162002069565b509695505050505050565b60008060008060008060008060008060006101608c8e031215620020b057600080fd5b620020bb8c62001f34565b9a5067ffffffffffffffff8060208e01351115620020d857600080fd5b620020ea8e60208f01358f0162001ebf565b9a508060408e01351115620020fe57600080fd5b620021108e60408f01358f0162001ebf565b99508060608e013511156200212457600080fd5b620021368e60608f01358f0162001ebf565b98508060808e013511156200214a57600080fd5b6200215c8e60808f01358f0162002020565b97506200216c60a08e0162001f34565b965060c08d013595506200218360e08e0162001f34565b9450806101008e013511156200219857600080fd5b620021ab8e6101008f01358f0162002020565b9350806101208e01351115620021c057600080fd5b620021d38e6101208f01358f0162001ebf565b9250806101408e01351115620021e857600080fd5b50620021fc8d6101408e01358e0162001ebf565b90509295989b509295989b9093969950565b600080604083850312156200222257600080fd5b82359150602083013562001f938162001f1b565b600080600080600060a086880312156200224f57600080fd5b853567ffffffffffffffff808211156200226857600080fd5b6200227689838a0162001ebf565b965060208801359150808211156200228d57600080fd5b6200229b89838a0162001ebf565b95506040880135915080821115620022b257600080fd5b620022c089838a0162002020565b94506060880135915080821115620022d757600080fd5b620022e589838a0162001ebf565b93506080880135915080821115620022fc57600080fd5b506200230b8882890162001ebf565b9150509295509295909350565b600080604083850312156200232c57600080fd5b8235620023398162001f1b565b946020939093013593505050565b6000602082840312156200235a57600080fd5b5035919050565b600082601f8301126200237357600080fd5b813560206200238662001ee28362001ff9565b82815260059290921b84018101918181019086841115620023a657600080fd5b8286015b8481101562002082578035620023c08162001f1b565b8352918301918301620023aa565b801515811462001f3157600080fd5b600080600080600060a08688031215620023f657600080fd5b853567ffffffffffffffff808211156200240f57600080fd5b6200241d89838a0162002361565b965060208801359150808211156200243457600080fd5b50620024438882890162002361565b94505060408601356200245681620023ce565b92506060860135915060808601356200246f8162001f1b565b809150509295509295909350565b6000602082840312156200249057600080fd5b815162001da78162001f1b565b60005b83811015620024ba578181015183820152602001620024a0565b50506000910152565b60008151808452620024dd8160208601602086016200249d565b601f01601f19169290920160200192915050565b600081518084526020808501945080840160005b83811015620025235781518752958201959082019060010162002505565b509495945050505050565b608081526000620025436080830187620024c3565b6001600160a01b038616602084015284604084015282810360608401526200256c8185620024f1565b979650505050505050565b6000602082840312156200258a57600080fd5b5051919050565b600060208284031215620025a457600080fd5b815162001da781620023ce565b600060208284031215620025c457600080fd5b815167ffffffffffffffff811115620025dc57600080fd5b8201601f81018413620025ee57600080fd5b8051620025ff62001ee28262001e94565b8181528560208385010111156200261557600080fd5b620026288260208301602086016200249d565b95945050505050565b600060208083850312156200264557600080fd5b825167ffffffffffffffff8111156200265d57600080fd5b8301601f810185136200266f57600080fd5b80516200268062001ee28262001ff9565b81815260059190911b82018301908381019087831115620026a057600080fd5b928401925b828410156200256c57835182529284019290840190620026a5565b6001600160a01b038c1681526000610160806020840152620026e58184018e620024c3565b90508281036040840152620026fb818d620024c3565b9050828103606084015262002711818c620024c3565b9050828103608084015262002727818b620024f1565b6001600160a01b038a1660a085015290508760c08401526200275460e08401886001600160a01b03169052565b828103610100840152620027698187620024f1565b9050828103610120840152620027808186620024c3565b9050828103610140840152620027978185620024c3565b9e9d5050505050505050505050505050565b6001600160a01b038516815260a060208201526000620027cd60a0830186620024c3565b60408301949094525060608101919091528082036080909101526000815260200192915050565b60e0815260006200280960e083018a620024c3565b82810360208401526200281d818a620024c3565b90508281036040840152620028338189620024c3565b90508281036060840152620028498188620024c3565b905082810360808401526200285f8187620024f1565b9150508360a08301526001600160a01b03831660c083015298975050505050505050565b6000815480845260208085019450836000528060002060005b83811015620025235781546001600160a01b0316875295820195600191820191016200289c565b61018081526000620028da61018083018f620024c3565b8281036020840152620028ee818f620024c3565b9050828103604084015262002904818e620024c3565b905082810360608401526200291a818d620024c3565b6001600160a01b038c16608085015290506001600160a01b038a1660a084015282810360c08401526200294e818a62002883565b905082810360e084015262002964818962002883565b87151561010085015290508561012084015284610140840152828103610160840152620029928185620024f1565b9f9e505050505050505050505050505050565b600081518084526020808501945080840160005b83811015620025235781516001600160a01b031687529582019590820190600101620029b9565b61018081526000620029f761018083018f620024c3565b828103602084015262002a0b818f620024c3565b9050828103604084015262002a21818e620024c3565b9050828103606084015262002a37818d620024c3565b6001600160a01b038c16608085015290506001600160a01b038a1660a084015282810360c084015262002a6b818a620029a5565b905082810360e0840152620029648189620029a5565b634e487b7160e01b600052603260045260246000fd5b60006001820162002ab857634e487b7160e01b600052601160045260246000fd5b506001019056fe608060405260006007553480156200001657600080fd5b506040516200247d3803806200247d8339810160408190526200003991620002a0565b868660006200004983826200042c565b5060016200005882826200042c565b50600a91506200006b905086826200042c565b50600b6200007a85826200042c565b50600680546001600160a01b0319166001600160a01b038316179055600c8290558251620000b090600e906020860190620000be565b5050505050505050620004f8565b828054828255906000526020600020908101928215620000fc579160200282015b82811115620000fc578251825591602001919060010190620000df565b506200010a9291506200010e565b5090565b5b808211156200010a57600081556001016200010f565b634e487b7160e01b600052604160045260246000fd5b604051601f8201601f191681016001600160401b038111828210171562000166576200016662000125565b604052919050565b600082601f8301126200018057600080fd5b81516001600160401b038111156200019c576200019c62000125565b6020620001b2601f8301601f191682016200013b565b8281528582848701011115620001c757600080fd5b60005b83811015620001e7578581018301518282018401528201620001ca565b506000928101909101919091529392505050565b600082601f8301126200020d57600080fd5b815160206001600160401b038211156200022b576200022b62000125565b8160051b6200023c8282016200013b565b92835284810182019282810190878511156200025757600080fd5b83870192505b8483101562000278578251825291830191908301906200025d565b979650505050505050565b80516001600160a01b03811681146200029b57600080fd5b919050565b600080600080600080600060e0888a031215620002bc57600080fd5b87516001600160401b0380821115620002d457600080fd5b620002e28b838c016200016e565b985060208a0151915080821115620002f957600080fd5b620003078b838c016200016e565b975060408a01519150808211156200031e57600080fd5b6200032c8b838c016200016e565b965060608a01519150808211156200034357600080fd5b620003518b838c016200016e565b955060808a01519150808211156200036857600080fd5b50620003778a828b01620001fb565b93505060a088015191506200038f60c0890162000283565b905092959891949750929550565b600181811c90821680620003b257607f821691505b602082108103620003d357634e487b7160e01b600052602260045260246000fd5b50919050565b601f8211156200042757600081815260208120601f850160051c81016020861015620004025750805b601f850160051c820191505b8181101562000423578281556001016200040e565b5050505b505050565b81516001600160401b0381111562000448576200044862000125565b62000460816200045984546200039d565b84620003d9565b602080601f8311600181146200049857600084156200047f5750858301515b600019600386901b1c1916600185901b17855562000423565b600085815260208120601f198616915b82811015620004c957888601518255948401946001909101908401620004a8565b5085821015620004e85787850151600019600388901b60f8161c191681555b5050505050600190811b01905550565b611f7580620005086000396000f3fe608060405234801561001057600080fd5b50600436106101b95760003560e01c806370a08231116100f9578063b325d85d11610097578063dbacc23711610071578063dbacc237146103cd578063de16017a146103e0578063e7d931e4146103f3578063e985e9c5146103fb57600080fd5b8063b325d85d14610387578063b88d4fde146103a7578063c87b56dd146103ba57600080fd5b8063a22cb465116100d3578063a22cb4651461033d578063a45885eb14610350578063a7a38f0b14610363578063b0fa84441461037657600080fd5b806370a08231146102ff578063816949b51461032057806395d89b411461033557600080fd5b806342842e0e116101665780635221c1f0116101405780635221c1f0146102be57806355f804b3146102d15780635aef7de6146102e45780636352211e146102ec57600080fd5b806342842e0e1461025b57806342966c681461026e57806345facd8e1461028157600080fd5b8063081812fc11610197578063081812fc14610220578063095ea7b31461023357806323b872dd1461024857600080fd5b806301ffc9a7146101be57806302d05d3f146101e657806306fdde031461020b575b600080fd5b6101d16101cc3660046118a0565b610437565b60405190151581526020015b60405180910390f35b6006546001600160a01b03165b6040516001600160a01b0390911681526020016101dd565b6102136104d4565b6040516101dd9190611914565b6101f361022e366004611927565b610566565b61024661024136600461195c565b61058d565b005b610246610256366004611986565b6106e1565b610246610269366004611986565b610768565b61024661027c366004611927565b610783565b61024661028f3660046119c2565b600d805473ffffffffffffffffffffffffffffffffffffffff19166001600160a01b0392909216919091179055565b6101d16102cc366004611927565b61078f565b6102466102df366004611a9c565b6107f7565b610213610861565b6101f36102fa366004611927565b610870565b61031261030d3660046119c2565b6108d5565b6040519081526020016101dd565b61032861096f565b6040516101dd9190611ad1565b6102136109c6565b61024661034b366004611b15565b6109d5565b61031261035e366004611b51565b6109e0565b610328610371366004611927565b610a6e565b600d546001600160a01b03166101f3565b610312610395366004611927565b60106020526000908152604090205481565b6102466103b5366004611c33565b610ad0565b6102136103c8366004611927565b610b5e565b6101f36103db366004611927565b610cc7565b6103126103ee366004611caf565b610ce4565b610213610d15565b6101d1610409366004611cd1565b6001600160a01b03918216600090815260056020908152604080832093909416825291909152205460ff1690565b60006001600160e01b031982167f80ac58cd00000000000000000000000000000000000000000000000000000000148061049a57506001600160e01b031982167f5b5e139f00000000000000000000000000000000000000000000000000000000145b806104ce57507f01ffc9a7000000000000000000000000000000000000000000000000000000006001600160e01b03198316145b92915050565b6060600080546104e390611d04565b80601f016020809104026020016040519081016040528092919081815260200182805461050f90611d04565b801561055c5780601f106105315761010080835404028352916020019161055c565b820191906000526020600020905b81548152906001019060200180831161053f57829003601f168201915b5050505050905090565b600061057182610d24565b506000908152600460205260409020546001600160a01b031690565b600061059882610870565b9050806001600160a01b0316836001600160a01b0316036106265760405162461bcd60e51b815260206004820152602160248201527f4552433732313a20617070726f76616c20746f2063757272656e74206f776e6560448201527f720000000000000000000000000000000000000000000000000000000000000060648201526084015b60405180910390fd5b336001600160a01b038216148061066057506001600160a01b038116600090815260056020908152604080832033845290915290205460ff165b6106d25760405162461bcd60e51b815260206004820152603d60248201527f4552433732313a20617070726f76652063616c6c6572206973206e6f7420746f60448201527f6b656e206f776e6572206f7220617070726f76656420666f7220616c6c000000606482015260840161061d565b6106dc8383610d88565b505050565b6106eb3382610e03565b61075d5760405162461bcd60e51b815260206004820152602d60248201527f4552433732313a2063616c6c6572206973206e6f7420746f6b656e206f776e6560448201527f72206f7220617070726f76656400000000000000000000000000000000000000606482015260840161061d565b6106dc838383610e81565b6106dc83838360405180602001604052806000815250610ad0565b61078c81611094565b50565b600081600c54036107a257506001919050565b60005b600e548110156107ee5782600e82815481106107c3576107c3611d3e565b9060005260206000200154036107dc5750600192915050565b806107e681611d6a565b9150506107a5565b50600092915050565b6006546001600160a01b031633146108515760405162461bcd60e51b815260206004820152601f60248201527f6f6e6c79206f776e65722063616e2063616c6c2074686973206d6574686f6400604482015260640161061d565b600961085d8282611dd1565b5050565b6060600b80546104e390611d04565b6000818152600260205260408120546001600160a01b0316806104ce5760405162461bcd60e51b815260206004820152601860248201527f4552433732313a20696e76616c696420746f6b656e2049440000000000000000604482015260640161061d565b60006001600160a01b0382166109535760405162461bcd60e51b815260206004820152602960248201527f4552433732313a2061646472657373207a65726f206973206e6f74206120766160448201527f6c6964206f776e65720000000000000000000000000000000000000000000000606482015260840161061d565b506001600160a01b031660009081526003602052604090205490565b6060600e80548060200260200160405190810160405280929190818152602001828054801561055c57602002820191906000526020600020905b8154815260200190600101908083116109a9575050505050905090565b6060600180546104e390611d04565b61085d338383611144565b60008083600003610a0a57600780549060006109fb83611d6a565b91905055506007549050610a0d565b50825b6000818152600f602090815260409091208451610a2c9286019061182a565b50610a378582611212565b610a4181876113b8565b6000818152600f60209081526040822080546001810182559083529120600591015590505b949350505050565b6000818152600f6020908152604091829020805483518184028101840190945280845260609392830182828015610ac457602002820191906000526020600020905b815481526020019060010190808311610ab0575b50505050509050919050565b610ada3383610e03565b610b4c5760405162461bcd60e51b815260206004820152602d60248201527f4552433732313a2063616c6c6572206973206e6f7420746f6b656e206f776e6560448201527f72206f7220617070726f76656400000000000000000000000000000000000000606482015260840161061d565b610b5884848484611434565b50505050565b6000818152600260205260409020546060906001600160a01b0316610bc55760405162461bcd60e51b815260206004820152601560248201527f746f6b656e20646f6573206e6f74206578697374730000000000000000000000604482015260640161061d565b60008281526008602052604081208054610bde90611d04565b80601f0160208091040260200160405190810160405280929190818152602001828054610c0a90611d04565b8015610c575780601f10610c2c57610100808354040283529160200191610c57565b820191906000526020600020905b815481529060010190602001808311610c3a57829003601f168201915b505050505090506000610c686114bd565b90508051600003610c7a575092915050565b815115610cac578082604051602001610c94929190611e91565b60405160208183030381529060405292505050919050565b80610cb6856114cc565b604051602001610c94929190611e91565b6000818152600260205260408120546001600160a01b03166104ce565b600f6020528160005260406000208181548110610d0057600080fd5b90600052602060002001600091509150505481565b6060600a80546104e390611d04565b6000818152600260205260409020546001600160a01b031661078c5760405162461bcd60e51b815260206004820152601860248201527f4552433732313a20696e76616c696420746f6b656e2049440000000000000000604482015260640161061d565b6000818152600460205260409020805473ffffffffffffffffffffffffffffffffffffffff19166001600160a01b0384169081179091558190610dca82610870565b6001600160a01b03167f8c5be1e5ebec7d5bd14f71427d1e84f3dd0314c0f7b2291e5b200ac8c7c3b92560405160405180910390a45050565b600080610e0f83610870565b9050806001600160a01b0316846001600160a01b03161480610e5657506001600160a01b0380821660009081526005602090815260408083209388168352929052205460ff165b80610a665750836001600160a01b0316610e6f84610566565b6001600160a01b031614949350505050565b826001600160a01b0316610e9482610870565b6001600160a01b031614610ef85760405162461bcd60e51b815260206004820152602560248201527f4552433732313a207472616e736665722066726f6d20696e636f72726563742060448201526437bbb732b960d91b606482015260840161061d565b6001600160a01b038216610f735760405162461bcd60e51b8152602060048201526024808201527f4552433732313a207472616e7366657220746f20746865207a65726f2061646460448201527f7265737300000000000000000000000000000000000000000000000000000000606482015260840161061d565b610f80838383600161156c565b826001600160a01b0316610f9382610870565b6001600160a01b031614610ff75760405162461bcd60e51b815260206004820152602560248201527f4552433732313a207472616e736665722066726f6d20696e636f72726563742060448201526437bbb732b960d91b606482015260840161061d565b6000818152600460209081526040808320805473ffffffffffffffffffffffffffffffffffffffff199081169091556001600160a01b0387811680865260038552838620805460001901905590871680865283862080546001019055868652600290945282852080549092168417909155905184937fddf252ad1be2c89b69c2b068fc378daa952ba7f163c4a11628f55a4df523b3ef91a4505050565b600061109f82610870565b90506110af81600084600161156c565b6110b882610870565b6000838152600460209081526040808320805473ffffffffffffffffffffffffffffffffffffffff199081169091556001600160a01b0385168085526003845282852080546000190190558785526002909352818420805490911690555192935084927fddf252ad1be2c89b69c2b068fc378daa952ba7f163c4a11628f55a4df523b3ef908390a45050565b816001600160a01b0316836001600160a01b0316036111a55760405162461bcd60e51b815260206004820152601960248201527f4552433732313a20617070726f766520746f2063616c6c657200000000000000604482015260640161061d565b6001600160a01b03838116600081815260056020908152604080832094871680845294825291829020805460ff191686151590811790915591519182527f17307eab39ab6107e8899845ad3d59bd9653f200f220920489ca2b5937696c31910160405180910390a3505050565b6001600160a01b0382166112685760405162461bcd60e51b815260206004820181905260248201527f4552433732313a206d696e7420746f20746865207a65726f2061646472657373604482015260640161061d565b6000818152600260205260409020546001600160a01b0316156112cd5760405162461bcd60e51b815260206004820152601c60248201527f4552433732313a20746f6b656e20616c7265616479206d696e74656400000000604482015260640161061d565b6112db60008383600161156c565b6000818152600260205260409020546001600160a01b0316156113405760405162461bcd60e51b815260206004820152601c60248201527f4552433732313a20746f6b656e20616c7265616479206d696e74656400000000604482015260640161061d565b6001600160a01b0382166000818152600360209081526040808320805460010190558483526002909152808220805473ffffffffffffffffffffffffffffffffffffffff19168417905551839291907fddf252ad1be2c89b69c2b068fc378daa952ba7f163c4a11628f55a4df523b3ef908290a45050565b6000828152600260205260409020546001600160a01b031661141c5760405162461bcd60e51b815260206004820152601560248201527f746f6b656e20646f6573206e6f74206578697374730000000000000000000000604482015260640161061d565b60008281526008602052604090206106dc8282611dd1565b61143f848484610e81565b61144b848484846115f4565b610b585760405162461bcd60e51b815260206004820152603260248201527f4552433732313a207472616e7366657220746f206e6f6e20455243373231526560448201527f63656976657220696d706c656d656e7465720000000000000000000000000000606482015260840161061d565b6060600980546104e390611d04565b606060006114d983611748565b600101905060008167ffffffffffffffff8111156114f9576114f96119dd565b6040519080825280601f01601f191660200182016040528015611523576020820181803683370190505b5090508181016020015b600019017f3031323334353637383961626364656600000000000000000000000000000000600a86061a8153600a850494508461152d57509392505050565b6001811115610b58576001600160a01b038416156115b2576001600160a01b038416600090815260036020526040812080548392906115ac908490611ec0565b90915550505b6001600160a01b03831615610b58576001600160a01b038316600090815260036020526040812080548392906115e9908490611ed3565b909155505050505050565b60006001600160a01b0384163b1561174057604051630a85bd0160e11b81526001600160a01b0385169063150b7a0290611638903390899088908890600401611ee6565b6020604051808303816000875af1925050508015611673575060408051601f3d908101601f1916820190925261167091810190611f22565b60015b611726573d8080156116a1576040519150601f19603f3d011682016040523d82523d6000602084013e6116a6565b606091505b50805160000361171e5760405162461bcd60e51b815260206004820152603260248201527f4552433732313a207472616e7366657220746f206e6f6e20455243373231526560448201527f63656976657220696d706c656d656e7465720000000000000000000000000000606482015260840161061d565b805181602001fd5b6001600160e01b031916630a85bd0160e11b149050610a66565b506001610a66565b6000807a184f03e93ff9f4daa797ed6e38ed64bf6a1f0100000000000000008310611791577a184f03e93ff9f4daa797ed6e38ed64bf6a1f010000000000000000830492506040015b6d04ee2d6d415b85acef810000000083106117bd576d04ee2d6d415b85acef8100000000830492506020015b662386f26fc1000083106117db57662386f26fc10000830492506010015b6305f5e10083106117f3576305f5e100830492506008015b612710831061180757612710830492506004015b60648310611819576064830492506002015b600a83106104ce5760010192915050565b828054828255906000526020600020908101928215611865579160200282015b8281111561186557825182559160200191906001019061184a565b50611871929150611875565b5090565b5b808211156118715760008155600101611876565b6001600160e01b03198116811461078c57600080fd5b6000602082840312156118b257600080fd5b81356118bd8161188a565b9392505050565b60005b838110156118df5781810151838201526020016118c7565b50506000910152565b600081518084526119008160208601602086016118c4565b601f01601f19169290920160200192915050565b6020815260006118bd60208301846118e8565b60006020828403121561193957600080fd5b5035919050565b80356001600160a01b038116811461195757600080fd5b919050565b6000806040838503121561196f57600080fd5b61197883611940565b946020939093013593505050565b60008060006060848603121561199b57600080fd5b6119a484611940565b92506119b260208501611940565b9150604084013590509250925092565b6000602082840312156119d457600080fd5b6118bd82611940565b634e487b7160e01b600052604160045260246000fd5b604051601f8201601f1916810167ffffffffffffffff81118282101715611a1c57611a1c6119dd565b604052919050565b600067ffffffffffffffff831115611a3e57611a3e6119dd565b611a51601f8401601f19166020016119f3565b9050828152838383011115611a6557600080fd5b828260208301376000602084830101529392505050565b600082601f830112611a8d57600080fd5b6118bd83833560208501611a24565b600060208284031215611aae57600080fd5b813567ffffffffffffffff811115611ac557600080fd5b610a6684828501611a7c565b6020808252825182820181905260009190848201906040850190845b81811015611b0957835183529284019291840191600101611aed565b50909695505050505050565b60008060408385031215611b2857600080fd5b611b3183611940565b915060208301358015158114611b4657600080fd5b809150509250929050565b60008060008060808587031215611b6757600080fd5b843567ffffffffffffffff80821115611b7f57600080fd5b611b8b88838901611a7c565b955060209150611b9c828801611940565b945060408701359350606087013581811115611bb757600080fd5b8701601f81018913611bc857600080fd5b803582811115611bda57611bda6119dd565b8060051b9250611beb8484016119f3565b818152928201840192848101908b851115611c0557600080fd5b928501925b84841015611c2357833582529285019290850190611c0a565b989b979a50959850505050505050565b60008060008060808587031215611c4957600080fd5b611c5285611940565b9350611c6060208601611940565b925060408501359150606085013567ffffffffffffffff811115611c8357600080fd5b8501601f81018713611c9457600080fd5b611ca387823560208401611a24565b91505092959194509250565b60008060408385031215611cc257600080fd5b50508035926020909101359150565b60008060408385031215611ce457600080fd5b611ced83611940565b9150611cfb60208401611940565b90509250929050565b600181811c90821680611d1857607f821691505b602082108103611d3857634e487b7160e01b600052602260045260246000fd5b50919050565b634e487b7160e01b600052603260045260246000fd5b634e487b7160e01b600052601160045260246000fd5b600060018201611d7c57611d7c611d54565b5060010190565b601f8211156106dc57600081815260208120601f850160051c81016020861015611daa5750805b601f850160051c820191505b81811015611dc957828155600101611db6565b505050505050565b815167ffffffffffffffff811115611deb57611deb6119dd565b611dff81611df98454611d04565b84611d83565b602080601f831160018114611e345760008415611e1c5750858301515b600019600386901b1c1916600185901b178555611dc9565b600085815260208120601f198616915b82811015611e6357888601518255948401946001909101908401611e44565b5085821015611e815787850151600019600388901b60f8161c191681555b5050505050600190811b01905550565b60008351611ea38184602088016118c4565b835190830190611eb78183602088016118c4565b01949350505050565b818103818111156104ce576104ce611d54565b808201808211156104ce576104ce611d54565b60006001600160a01b03808716835280861660208401525083604083015260806060830152611f1860808301846118e8565b9695505050505050565b600060208284031215611f3457600080fd5b81516118bd8161188a56fea26469706673582212209def4404d6fac2d0386d0e6a20444b25bf95e6b0a2d96c1bc82cb1744043301c64736f6c63430008100033a264697066735822122047b24ec2d2401ff4c844273d0dc47c4eeeff666aa7fe99cb566877c2c79e6e9c64736f6c63430008100033",
  "immutableReferences": {},
  "source": "// SPDX-License-Identifier: GPL-3.0\npragma solidity >=0.7.0 <0.9.0;\n\nimport {MultiERC721} from \"./MultiERC721.sol\";\nimport {Events} from \"./libraries/Events.sol\";\nimport {CallProxy} from \"./interfaces/CallProxy.sol\";\n\ncontract AnycallCollection {\n    address private _deployer;\n    uint private _thisChainId;\n\n    // anycall contracts\n    address public _anycallcontract;\n\n    // network id => receivers contract\n    mapping(uint => address) public receivers;\n\n    // creator => nft contract addresses\n    mapping(address => address[]) public creators;\n\n    // nft contract address => collection metadata\n    mapping(address => Collection) public collections;\n\n    // mapping nft source chain address to this chain address\n    mapping(address => address) private nftMaps;\n\n    struct Collection {\n        address[] whiteList;\n        address[] blackList;\n        bool isWhiteSystem;\n        uint256 mintPrice;\n        uint chainId;\n        address creator;\n    }\n\n    constructor(address anycallcontract, uint chainId) {\n        _thisChainId = chainId;\n        _anycallcontract = anycallcontract;\n        _deployer = msg.sender;\n    }\n\n    function createCollection(\n        string memory name,\n        string memory symbol,\n        uint[] memory supportedChains,\n        string memory cover,\n        string memory avatar\n    ) public {\n        MultiERC721 nft = new MultiERC721(\n            name,\n            symbol,\n            cover,\n            avatar,\n            supportedChains,\n            _thisChainId,\n            msg.sender\n        );\n\n        // set the nft source address\n        address contractAddress = address(nft);\n\n        nft.setSourceAddress(contractAddress);\n        nftMaps[contractAddress] = contractAddress;\n\n        collections[contractAddress] = Collection(\n            collections[contractAddress].whiteList,\n            collections[contractAddress].blackList,\n            false,\n            0,\n            _thisChainId,\n            nft.creator()\n        );\n\n        emit Events.ArtCollection(\n            // metadata\n            nft.name(),\n            nft.symbol(),\n            nft.cover(),\n            nft.avatar(),\n            // addresses\n            nft.creator(),\n            contractAddress,\n            // sorting\n            collections[contractAddress].whiteList,\n            collections[contractAddress].blackList,\n            false,\n            0, // mintPrice\n            // chains\n            _thisChainId,\n            nft.supportedChains()\n        );\n    }\n\n    function updateCollection(\n        address[] memory whiteList,\n        address[] memory blackList,\n        bool isWhiteSystem,\n        uint256 mintPrice,\n        address contractAddress\n    ) public {\n        MultiERC721 nft = MultiERC721(contractAddress);\n        require(msg.sender == nft.creator(), \"Unathorized\");\n\n        collections[contractAddress] = Collection(\n            whiteList,\n            blackList,\n            isWhiteSystem,\n            mintPrice,\n            _thisChainId,\n            nft.creator()\n        );\n\n        emit Events.ArtCollection(\n            // metadata\n            nft.name(),\n            nft.symbol(),\n            nft.cover(),\n            nft.avatar(),\n            // addresses\n            nft.creator(),\n            address(nft),\n            // sorting\n            whiteList,\n            blackList,\n            isWhiteSystem,\n            mintPrice,\n            // chains\n            _thisChainId,\n            nft.supportedChains()\n        );\n    }\n\n    function mint(string memory uri, address contractAddress) public payable {\n        MultiERC721 nft = MultiERC721(contractAddress);\n\n        // middleware\n        require(\n            msg.sender == nft.creator(),\n            \"Only creator can call this method\"\n        );\n\n        // mint nft\n        uint tokenID = nft.mint(uri, msg.sender, 0, new uint[](0));\n\n        emit Events.ArtItem(\n            // id\n            tokenID,\n            // addresses\n            msg.sender,\n            address(nft),\n            // chain\n            _thisChainId\n        );\n    }\n\n    function buy(address contractAddress) public payable {\n        MultiERC721 nft = MultiERC721(contractAddress);\n        Collection memory collection = collections[contractAddress];\n\n        require(\n            msg.sender != nft.creator(),\n            \"Only non creator can call this method\"\n        );\n\n        require(msg.value >= collection.mintPrice, \"Insuficient Mint Amount\");\n\n        if (collection.isWhiteSystem) {\n            bool eligible = _isEligble(\n                msg.sender,\n                collection.whiteList,\n                collection.blackList\n            );\n            require(eligible, \"You're not eligible\");\n        }\n    }\n\n    function bridge(\n        uint tokenID,\n        address contractAddress,\n        uint receiverChainId\n    ) public payable {\n        MultiERC721 nft = MultiERC721(contractAddress);\n        require(\n            nft.isChainSupported(receiverChainId),\n            \"unsupported destination chain\"\n        );\n\n        require(\n            msg.sender == nft.holderOf(tokenID),\n            \"you cant bridge this token\"\n        );\n\n        bytes memory data = abi.encode(\n            nft.sourceAddress(),\n            nft.tokenURI(tokenID),\n            nft.name(), // related for non existing nft\n            nft.symbol(), // related for non existing nft\n            nft.supportedChains(), // related for non existing nft\n            nft.creator(), // related for non existing nft\n            tokenID,\n            nft.holderOf(tokenID),\n            nft.history(tokenID),\n            nft.cover(),\n            nft.avatar()\n        );\n\n        require(\n            receivers[receiverChainId] != address(0),\n            \"Please add destination chain\"\n        );\n\n        // burn token on originated chain\n        nft.burn(tokenID);\n\n        // cross-chain message to mint same token\n        // on destination chain\n        CallProxy(_anycallcontract).anyCall{value: msg.value}(\n            // _to chain contract\n            receivers[receiverChainId],\n            // sending the encoded bytes of the string uri and decode on the destination chain\n            data,\n            // _to chain id\n            receiverChainId,\n            // using 4 flag to pay fee on the source chain without fallback\n            0,\n            // extras,\n            \"\"\n        );\n    }\n\n    function execute(\n        address sourceAddress,\n        string memory uri,\n        string memory name, // related for non existing nft\n        string memory symbol, // related for non existing nft\n        uint[] memory supportedChains, // related for non existing nft\n        address creator, // related for non existing nft\n        uint256 tokenID,\n        address holder,\n        uint[] memory history,\n        string memory cover,\n        string memory avatar\n    ) public onlyReceiver {\n        bool existing = nftMaps[sourceAddress] != address(0);\n\n        MultiERC721 nft;\n\n        if (existing) {\n            nft = MultiERC721(nftMaps[sourceAddress]);\n        } else {\n            nft = new MultiERC721(\n                name,\n                symbol,\n                cover,\n                avatar,\n                supportedChains,\n                _thisChainId,\n                creator\n            );\n\n            // set the nft source address\n            nft.setSourceAddress(sourceAddress);\n            nftMaps[sourceAddress] = address(nft);\n        }\n\n        nft.mint(uri, holder, tokenID, history);\n    }\n\n    function _isEligble(\n        address minter,\n        address[] memory whiteList,\n        address[] memory blackList\n    ) private pure returns (bool) {\n        for (uint index = 0; index < blackList.length; index++) {\n            if (minter == blackList[index]) {\n                return false;\n            }\n        }\n        for (uint index = 0; index < whiteList.length; index++) {\n            if (minter == whiteList[index]) {\n                return true;\n            }\n        }\n        return false;\n    }\n\n    function addChain(\n        uint chainId,\n        address contractAddress\n    ) public onlyDeployer {\n        receivers[chainId] = contractAddress;\n    }\n\n    modifier onlyDeployer() {\n        require(msg.sender == _deployer, \"only owner can call this method\");\n        _;\n    }\n\n    modifier onlyReceiver() {\n        require(true, \"Only executor can call this method\");\n        _;\n    }\n}\n",
  "sourcePath": "C:\\Users\\Arogundade Ibrahim\\documents\\web3\\crossart\\contracts\\AnycallCollection.sol",
  "compiler": {
    "name": "solc",
    "version": "0.8.16+commit.07a7930e.Emscripten.clang"
  },
  "schemaVersion": "3.4.10",
  "updatedAt": "2022-12-17T06:42:15.459Z",
  "networkType": "ethereum",
  "devdoc": {
    "kind": "dev",
    "methods": {},
    "version": 1
  },
  "userdoc": {
    "kind": "user",
    "methods": {},
    "version": 1
  }
}