{
  "contractName": "AnycallCollection",
  "abi": [
    {
      "inputs": [
        {
          "internalType": "address",
          "name": "anycallcontract",
          "type": "address"
        },
        {
          "internalType": "uint256",
          "name": "chainId",
          "type": "uint256"
        }
      ],
      "stateMutability": "nonpayable",
      "type": "constructor"
    },
    {
      "inputs": [],
      "name": "_anycallcontract",
      "outputs": [
        {
          "internalType": "address",
          "name": "",
          "type": "address"
        }
      ],
      "stateMutability": "view",
      "type": "function"
    },
    {
      "inputs": [
        {
          "internalType": "address",
          "name": "",
          "type": "address"
        }
      ],
      "name": "collections",
      "outputs": [
        {
          "internalType": "bool",
          "name": "isWhiteSystem",
          "type": "bool"
        },
        {
          "internalType": "uint256",
          "name": "mintPrice",
          "type": "uint256"
        },
        {
          "internalType": "uint256",
          "name": "chainId",
          "type": "uint256"
        },
        {
          "internalType": "address",
          "name": "creator",
          "type": "address"
        }
      ],
      "stateMutability": "view",
      "type": "function"
    },
    {
      "inputs": [
        {
          "internalType": "address",
          "name": "",
          "type": "address"
        },
        {
          "internalType": "uint256",
          "name": "",
          "type": "uint256"
        }
      ],
      "name": "creators",
      "outputs": [
        {
          "internalType": "address",
          "name": "",
          "type": "address"
        }
      ],
      "stateMutability": "view",
      "type": "function"
    },
    {
      "inputs": [
        {
          "internalType": "uint256",
          "name": "",
          "type": "uint256"
        }
      ],
      "name": "receivers",
      "outputs": [
        {
          "internalType": "address",
          "name": "",
          "type": "address"
        }
      ],
      "stateMutability": "view",
      "type": "function"
    },
    {
      "inputs": [
        {
          "internalType": "string",
          "name": "name",
          "type": "string"
        },
        {
          "internalType": "string",
          "name": "symbol",
          "type": "string"
        },
        {
          "internalType": "uint256[]",
          "name": "supportedChains",
          "type": "uint256[]"
        },
        {
          "internalType": "string",
          "name": "cover",
          "type": "string"
        },
        {
          "internalType": "string",
          "name": "avatar",
          "type": "string"
        }
      ],
      "name": "createCollection",
      "outputs": [],
      "stateMutability": "nonpayable",
      "type": "function"
    },
    {
      "inputs": [
        {
          "internalType": "address[]",
          "name": "whiteList",
          "type": "address[]"
        },
        {
          "internalType": "address[]",
          "name": "blackList",
          "type": "address[]"
        },
        {
          "internalType": "bool",
          "name": "isWhiteSystem",
          "type": "bool"
        },
        {
          "internalType": "uint256",
          "name": "mintPrice",
          "type": "uint256"
        },
        {
          "internalType": "address",
          "name": "contractAddress",
          "type": "address"
        }
      ],
      "name": "updateCollection",
      "outputs": [],
      "stateMutability": "nonpayable",
      "type": "function"
    },
    {
      "inputs": [
        {
          "internalType": "string",
          "name": "uri",
          "type": "string"
        },
        {
          "internalType": "address",
          "name": "contractAddress",
          "type": "address"
        }
      ],
      "name": "mint",
      "outputs": [],
      "stateMutability": "payable",
      "type": "function"
    },
    {
      "inputs": [
        {
          "internalType": "address",
          "name": "contractAddress",
          "type": "address"
        }
      ],
      "name": "buy",
      "outputs": [],
      "stateMutability": "payable",
      "type": "function"
    },
    {
      "inputs": [
        {
          "internalType": "uint256",
          "name": "tokenID",
          "type": "uint256"
        },
        {
          "internalType": "address",
          "name": "contractAddress",
          "type": "address"
        },
        {
          "internalType": "uint256",
          "name": "receiverChainId",
          "type": "uint256"
        }
      ],
      "name": "bridge",
      "outputs": [],
      "stateMutability": "payable",
      "type": "function"
    },
    {
      "inputs": [
        {
          "internalType": "address",
          "name": "sourceAddress",
          "type": "address"
        },
        {
          "internalType": "string",
          "name": "uri",
          "type": "string"
        },
        {
          "internalType": "string",
          "name": "name",
          "type": "string"
        },
        {
          "internalType": "string",
          "name": "symbol",
          "type": "string"
        },
        {
          "internalType": "uint256[]",
          "name": "supportedChains",
          "type": "uint256[]"
        },
        {
          "internalType": "address",
          "name": "creator",
          "type": "address"
        },
        {
          "internalType": "uint256",
          "name": "tokenID",
          "type": "uint256"
        },
        {
          "internalType": "address",
          "name": "holder",
          "type": "address"
        },
        {
          "internalType": "string",
          "name": "cover",
          "type": "string"
        },
        {
          "internalType": "string",
          "name": "avatar",
          "type": "string"
        }
      ],
      "name": "execute",
      "outputs": [],
      "stateMutability": "nonpayable",
      "type": "function"
    },
    {
      "inputs": [
        {
          "internalType": "uint256",
          "name": "chainId",
          "type": "uint256"
        },
        {
          "internalType": "address",
          "name": "contractAddress",
          "type": "address"
        }
      ],
      "name": "addChain",
      "outputs": [],
      "stateMutability": "nonpayable",
      "type": "function"
    }
  ],
  "bytecode": "0x60806040523480156200001157600080fd5b5060405162004cb738038062004cb7833981016040819052620000349162000066565b600155600280546001600160a01b039092166001600160a01b03199283161790556000805490911633179055620000a2565b600080604083850312156200007a57600080fd5b82516001600160a01b03811681146200009257600080fd5b6020939093015192949293505050565b614c0580620000b26000396000f3fe608060405260043610620000cb5760003560e01c806377ca6c80116200007d578063e514040b1162000054578063e514040b146200026f578063f088d5471462000294578063fef54ec814620002ab57600080fd5b806377ca6c8014620001d2578063a445434014620001f7578063bfd772fc146200023557600080fd5b80632f820a5f11620000b25780632f820a5f146200010e57806343add2e614620001255780635303942b14620001ad57600080fd5b8063091a79ff14620000d05780631c351a9d14620000f7575b600080fd5b348015620000dd57600080fd5b50620000f5620000ef36600462001f14565b620002cd565b005b620000f56200010836600462002061565b62000490565b620000f56200011f366004620020b9565b62000658565b3480156200013257600080fd5b506200017d62000144366004620020f4565b6005602081905260009182526040909120600281015460038201546004830154929093015460ff9091169291906001600160a01b031684565b6040805194151585526020850193909352918301526001600160a01b031660608201526080015b60405180910390f35b348015620001ba57600080fd5b50620000f5620001cc36600462002114565b62000d6f565b348015620001df57600080fd5b50620000f5620001f13660046200213c565b62000e06565b3480156200020457600080fd5b506200021c620002163660046200221e565b62001413565b6040516001600160a01b039091168152602001620001a4565b3480156200024257600080fd5b506200021c620002543660046200224d565b6003602052600090815260409020546001600160a01b031681565b3480156200027c57600080fd5b50620000f56200028e366004620022e3565b6200144c565b620000f5620002a5366004620020f4565b62001923565b348015620002b857600080fd5b506002546200021c906001600160a01b031681565b620002dc565b60405180910390fd5b6001600160a01b038a811660009081526006602052604081205490911615801591906200032557506001600160a01b03808c166000908152600660205260409020541662000409565b898985858b6001548c6040516200033c9062001ce8565b6200034e979695949392919062002414565b604051809103906000f0801580156200036b573d6000803e3d6000fd5b506040516322fd66c760e11b81526001600160a01b038e81166004830152919250908216906345facd8e90602401600060405180830381600087803b158015620003b457600080fd5b505af1158015620003c9573d6000803e3d6000fd5b505050506001600160a01b038c81166000908152600660205260409020805473ffffffffffffffffffffffffffffffffffffffff19169183169190911790555b604051637e8816b960e01b81526001600160a01b03821690637e8816b9906200043b908e9089908b90600401620024a3565b6020604051808303816000875af11580156200045b573d6000803e3d6000fd5b505050506040513d601f19601f82011682018060405250810190620004819190620024d3565b50505050505050505050505050565b6000819050806001600160a01b03166302d05d3f6040518163ffffffff1660e01b8152600401602060405180830381865afa158015620004d4573d6000803e3d6000fd5b505050506040513d601f19601f82011682018060405250810190620004fa9190620024ed565b6001600160a01b0316336001600160a01b031614620005825760405162461bcd60e51b815260206004820152602160248201527f4f6e6c792063726561746f722063616e2063616c6c2074686973206d6574686f60448201527f64000000000000000000000000000000000000000000000000000000000000006064820152608401620002d3565b604051637e8816b960e01b81526000906001600160a01b03831690637e8816b990620005b790879033908690600401620024a3565b6020604051808303816000875af1158015620005d7573d6000803e3d6000fd5b505050506040513d601f19601f82011682018060405250810190620005fd9190620024d3565b600154604080518381523360208201526001600160a01b038616818301526060810192909252519192507f974f6ea350c6cbd05ba44bd2e61ede013cdfdfbea82bdb72e5be02e8ccee4d47919081900360800190a150505050565b6040517f5221c1f00000000000000000000000000000000000000000000000000000000081526004810182905282906001600160a01b03821690635221c1f090602401602060405180830381865afa158015620006b9573d6000803e3d6000fd5b505050506040513d601f19601f82011682018060405250810190620006df91906200250d565b6200072d5760405162461bcd60e51b815260206004820152601d60248201527f756e737570706f727465642064657374696e6174696f6e20636861696e0000006044820152606401620002d3565b60405163dbacc23760e01b8152600481018590526001600160a01b0382169063dbacc23790602401602060405180830381865afa15801562000773573d6000803e3d6000fd5b505050506040513d601f19601f82011682018060405250810190620007999190620024ed565b6001600160a01b0316336001600160a01b031614620007fb5760405162461bcd60e51b815260206004820152601a60248201527f796f752063616e7420627269646765207468697320746f6b656e0000000000006044820152606401620002d3565b6000816001600160a01b031663b0fa84446040518163ffffffff1660e01b8152600401602060405180830381865afa1580156200083c573d6000803e3d6000fd5b505050506040513d601f19601f82011682018060405250810190620008629190620024ed565b6040517fc87b56dd000000000000000000000000000000000000000000000000000000008152600481018790526001600160a01b0384169063c87b56dd90602401600060405180830381865afa158015620008c1573d6000803e3d6000fd5b505050506040513d6000823e601f3d908101601f19168201604052620008eb91908101906200252d565b836001600160a01b03166306fdde036040518163ffffffff1660e01b8152600401600060405180830381865afa1580156200092a573d6000803e3d6000fd5b505050506040513d6000823e601f3d908101601f191682016040526200095491908101906200252d565b846001600160a01b03166395d89b416040518163ffffffff1660e01b8152600401600060405180830381865afa15801562000993573d6000803e3d6000fd5b505050506040513d6000823e601f3d908101601f19168201604052620009bd91908101906200252d565b856001600160a01b031663816949b56040518163ffffffff1660e01b8152600401600060405180830381865afa158015620009fc573d6000803e3d6000fd5b505050506040513d6000823e601f3d908101601f1916820160405262000a269190810190620025ad565b866001600160a01b03166302d05d3f6040518163ffffffff1660e01b8152600401602060405180830381865afa15801562000a65573d6000803e3d6000fd5b505050506040513d601f19601f8201168201806040525081019062000a8b9190620024ed565b60405163dbacc23760e01b8152600481018c90528b906001600160a01b038a169063dbacc23790602401602060405180830381865afa15801562000ad3573d6000803e3d6000fd5b505050506040513d601f19601f8201168201806040525081019062000af99190620024ed565b896001600160a01b031663e7d931e46040518163ffffffff1660e01b8152600401600060405180830381865afa15801562000b38573d6000803e3d6000fd5b505050506040513d6000823e601f3d908101601f1916820160405262000b6291908101906200252d565b8a6001600160a01b0316635aef7de66040518163ffffffff1660e01b8152600401600060405180830381865afa15801562000ba1573d6000803e3d6000fd5b505050506040513d6000823e601f3d908101601f1916820160405262000bcb91908101906200252d565b60405160200162000be69a9998979695949392919062002647565b60408051601f198184030181529181526000858152600360205220549091506001600160a01b031662000c5c5760405162461bcd60e51b815260206004820152601c60248201527f506c65617365206164642064657374696e6174696f6e20636861696e000000006044820152606401620002d3565b6040517f42966c68000000000000000000000000000000000000000000000000000000008152600481018690526001600160a01b038316906342966c6890602401600060405180830381600087803b15801562000cb857600080fd5b505af115801562000ccd573d6000803e3d6000fd5b50506002546000868152600360205260408082205490517fbd45c4e70000000000000000000000000000000000000000000000000000000081526001600160a01b03938416955063bd45c4e79450349362000d349392169187918a90829060040162002705565b6000604051808303818588803b15801562000d4e57600080fd5b505af115801562000d63573d6000803e3d6000fd5b50505050505050505050565b6000546001600160a01b0316331462000dcb5760405162461bcd60e51b815260206004820152601f60248201527f6f6e6c79206f776e65722063616e2063616c6c2074686973206d6574686f64006044820152606401620002d3565b600091825260036020526040909120805473ffffffffffffffffffffffffffffffffffffffff19166001600160a01b03909216919091179055565b600085858484876001543360405162000e1f9062001ce8565b62000e31979695949392919062002414565b604051809103906000f08015801562000e4e573d6000803e3d6000fd5b506040516322fd66c760e11b81526001600160a01b038216600482018190529192508291906345facd8e90602401600060405180830381600087803b15801562000e9757600080fd5b505af115801562000eac573d6000803e3d6000fd5b5050506001600160a01b0382166000818152600660209081526040808320805473ffffffffffffffffffffffffffffffffffffffff191690941790935582516005825291839020805460e09281028401830190945260c083018481529294508493909184018282801562000f4a57602002820191906000526020600020905b81546001600160a01b0316815260019091019060200180831162000f2b575b50505091835250506001600160a01b038316600090815260056020908152604091829020600101805483518184028101840190945280845293820193909183018282801562000fc357602002820191906000526020600020905b81546001600160a01b0316815260019091019060200180831162000fa4575b50505050508152602001600015158152602001600081526020016001548152602001836001600160a01b03166302d05d3f6040518163ffffffff1660e01b8152600401602060405180830381865afa15801562001024573d6000803e3d6000fd5b505050506040513d601f19601f820116820180604052508101906200104a9190620024ed565b6001600160a01b0390811690915282166000908152600560209081526040909120825180519192620010829284929091019062001cf6565b5060208281015180516200109d926001850192019062001cf6565b5060408281015160028301805460ff191691151591909117905560608301516003830155608083015160048084019190915560a0909301516005909201805473ffffffffffffffffffffffffffffffffffffffff19166001600160a01b0393841617905580516306fdde0360e01b815290517f707549c2a9a70b590212db4a3745231cd2aacd26eb60ddd1c82954df2fa15fde93928616926306fdde03928082019260009290918290030181865afa1580156200115e573d6000803e3d6000fd5b505050506040513d6000823e601f3d908101601f191682016040526200118891908101906200252d565b836001600160a01b03166395d89b416040518163ffffffff1660e01b8152600401600060405180830381865afa158015620011c7573d6000803e3d6000fd5b505050506040513d6000823e601f3d908101601f19168201604052620011f191908101906200252d565b846001600160a01b031663e7d931e46040518163ffffffff1660e01b8152600401600060405180830381865afa15801562001230573d6000803e3d6000fd5b505050506040513d6000823e601f3d908101601f191682016040526200125a91908101906200252d565b856001600160a01b0316635aef7de66040518163ffffffff1660e01b8152600401600060405180830381865afa15801562001299573d6000803e3d6000fd5b505050506040513d6000823e601f3d908101601f19168201604052620012c391908101906200252d565b866001600160a01b03166302d05d3f6040518163ffffffff1660e01b8152600401602060405180830381865afa15801562001302573d6000803e3d6000fd5b505050506040513d601f19601f82011682018060405250810190620013289190620024ed565b8660056000896001600160a01b03166001600160a01b03168152602001908152602001600020600001600560008a6001600160a01b03166001600160a01b031681526020019081526020016000206001016000806001548d6001600160a01b031663816949b56040518163ffffffff1660e01b8152600401600060405180830381865afa158015620013be573d6000803e3d6000fd5b505050506040513d6000823e601f3d908101601f19168201604052620013e89190810190620025ad565b604051620014029c9b9a9998979695949392919062002786565b60405180910390a150505050505050565b600460205281600052604060002081815481106200143057600080fd5b6000918252602090912001546001600160a01b03169150829050565b6000819050806001600160a01b03166302d05d3f6040518163ffffffff1660e01b8152600401602060405180830381865afa15801562001490573d6000803e3d6000fd5b505050506040513d601f19601f82011682018060405250810190620014b69190620024ed565b6001600160a01b0316336001600160a01b031614620015185760405162461bcd60e51b815260206004820152600b60248201527f556e6174686f72697a65640000000000000000000000000000000000000000006044820152606401620002d3565b6040518060c0016040528087815260200186815260200185151581526020018481526020016001548152602001826001600160a01b03166302d05d3f6040518163ffffffff1660e01b8152600401602060405180830381865afa15801562001584573d6000803e3d6000fd5b505050506040513d601f19601f82011682018060405250810190620015aa9190620024ed565b6001600160a01b0390811690915283166000908152600560209081526040909120825180519192620015e29284929091019062001cf6565b506020828101518051620015fd926001850192019062001cf6565b5060408281015160028301805460ff191691151591909117905560608301516003830155608083015160048084019190915560a0909301516005909201805473ffffffffffffffffffffffffffffffffffffffff19166001600160a01b0393841617905580516306fdde0360e01b815290517f707549c2a9a70b590212db4a3745231cd2aacd26eb60ddd1c82954df2fa15fde93928516926306fdde03928082019260009290918290030181865afa158015620016be573d6000803e3d6000fd5b505050506040513d6000823e601f3d908101601f19168201604052620016e891908101906200252d565b826001600160a01b03166395d89b416040518163ffffffff1660e01b8152600401600060405180830381865afa15801562001727573d6000803e3d6000fd5b505050506040513d6000823e601f3d908101601f191682016040526200175191908101906200252d565b836001600160a01b031663e7d931e46040518163ffffffff1660e01b8152600401600060405180830381865afa15801562001790573d6000803e3d6000fd5b505050506040513d6000823e601f3d908101601f19168201604052620017ba91908101906200252d565b846001600160a01b0316635aef7de66040518163ffffffff1660e01b8152600401600060405180830381865afa158015620017f9573d6000803e3d6000fd5b505050506040513d6000823e601f3d908101601f191682016040526200182391908101906200252d565b856001600160a01b03166302d05d3f6040518163ffffffff1660e01b8152600401602060405180830381865afa15801562001862573d6000803e3d6000fd5b505050506040513d601f19601f82011682018060405250810190620018889190620024ed565b868c8c8c8c6001548c6001600160a01b031663816949b56040518163ffffffff1660e01b8152600401600060405180830381865afa158015620018cf573d6000803e3d6000fd5b505050506040513d6000823e601f3d908101601f19168201604052620018f99190810190620025ad565b604051620019139c9b9a99989796959493929190620028a3565b60405180910390a1505050505050565b6001600160a01b03811660009081526005602090815260408083208151815460e09481028201850190935260c08101838152869594919384928491908401828280156200199a57602002820191906000526020600020905b81546001600160a01b031681526001909101906020018083116200197b575b5050505050815260200160018201805480602002602001604051908101604052809291908181526020018280548015620019fe57602002820191906000526020600020905b81546001600160a01b03168152600190910190602001808311620019df575b5050509183525050600282015460ff161515602080830191909152600383015460408084019190915260048085015460608501526005909401546001600160a01b0390811660809094019390935280517f02d05d3f0000000000000000000000000000000000000000000000000000000081529051949550918616936302d05d3f93838101938290030181865afa15801562001a9e573d6000803e3d6000fd5b505050506040513d601f19601f8201168201806040525081019062001ac49190620024ed565b6001600160a01b0316330362001b435760405162461bcd60e51b815260206004820152602560248201527f4f6e6c79206e6f6e2063726561746f722063616e2063616c6c2074686973206d60448201527f6574686f640000000000000000000000000000000000000000000000000000006064820152608401620002d3565b806060015134101562001b995760405162461bcd60e51b815260206004820152601760248201527f496e737566696369656e74204d696e7420416d6f756e740000000000000000006044820152606401620002d3565b80604001511562001c0e57600062001bbb338360000151846020015162001c13565b90508062001c0c5760405162461bcd60e51b815260206004820152601360248201527f596f75277265206e6f7420656c696769626c65000000000000000000000000006044820152606401620002d3565b505b505050565b6000805b825181101562001c775782818151811062001c365762001c3662002944565b60200260200101516001600160a01b0316856001600160a01b03160362001c6257600091505062001ce1565b8062001c6e816200295a565b91505062001c17565b5060005b835181101562001cdb5783818151811062001c9a5762001c9a62002944565b60200260200101516001600160a01b0316856001600160a01b03160362001cc657600191505062001ce1565b8062001cd2816200295a565b91505062001c7b565b50600090505b9392505050565b61224d806200298383390190565b82805482825590600052602060002090810192821562001d5b579160200282015b8281111562001d5b578251825473ffffffffffffffffffffffffffffffffffffffff19166001600160a01b0390911617825560209092019160019091019062001d17565b5062001d6992915062001d6d565b5090565b5b8082111562001d69576000815560010162001d6e565b6001600160a01b038116811462001d9a57600080fd5b50565b803562001daa8162001d84565b919050565b634e487b7160e01b600052604160045260246000fd5b604051601f8201601f1916810167ffffffffffffffff8111828210171562001df15762001df162001daf565b604052919050565b600067ffffffffffffffff82111562001e165762001e1662001daf565b50601f01601f191660200190565b600082601f83011262001e3657600080fd5b813562001e4d62001e478262001df9565b62001dc5565b81815284602083860101111562001e6357600080fd5b816020850160208301376000918101602001919091529392505050565b600067ffffffffffffffff82111562001e9d5762001e9d62001daf565b5060051b60200190565b600082601f83011262001eb957600080fd5b8135602062001ecc62001e478362001e80565b82815260059290921b8401810191818101908684111562001eec57600080fd5b8286015b8481101562001f09578035835291830191830162001ef0565b509695505050505050565b6000806000806000806000806000806101408b8d03121562001f3557600080fd5b62001f408b62001d9d565b995060208b013567ffffffffffffffff8082111562001f5e57600080fd5b62001f6c8e838f0162001e24565b9a5060408d013591508082111562001f8357600080fd5b62001f918e838f0162001e24565b995060608d013591508082111562001fa857600080fd5b62001fb68e838f0162001e24565b985060808d013591508082111562001fcd57600080fd5b62001fdb8e838f0162001ea7565b975062001feb60a08e0162001d9d565b965060c08d013595506200200260e08e0162001d9d565b94506101008d01359150808211156200201a57600080fd5b620020288e838f0162001e24565b93506101208d01359150808211156200204057600080fd5b506200204f8d828e0162001e24565b9150509295989b9194979a5092959850565b600080604083850312156200207557600080fd5b823567ffffffffffffffff8111156200208d57600080fd5b6200209b8582860162001e24565b9250506020830135620020ae8162001d84565b809150509250929050565b600080600060608486031215620020cf57600080fd5b833592506020840135620020e38162001d84565b929592945050506040919091013590565b6000602082840312156200210757600080fd5b813562001ce18162001d84565b600080604083850312156200212857600080fd5b823591506020830135620020ae8162001d84565b600080600080600060a086880312156200215557600080fd5b853567ffffffffffffffff808211156200216e57600080fd5b6200217c89838a0162001e24565b965060208801359150808211156200219357600080fd5b620021a189838a0162001e24565b95506040880135915080821115620021b857600080fd5b620021c689838a0162001ea7565b94506060880135915080821115620021dd57600080fd5b620021eb89838a0162001e24565b935060808801359150808211156200220257600080fd5b50620022118882890162001e24565b9150509295509295909350565b600080604083850312156200223257600080fd5b82356200223f8162001d84565b946020939093013593505050565b6000602082840312156200226057600080fd5b5035919050565b600082601f8301126200227957600080fd5b813560206200228c62001e478362001e80565b82815260059290921b84018101918181019086841115620022ac57600080fd5b8286015b8481101562001f09578035620022c68162001d84565b8352918301918301620022b0565b801515811462001d9a57600080fd5b600080600080600060a08688031215620022fc57600080fd5b853567ffffffffffffffff808211156200231557600080fd5b6200232389838a0162002267565b965060208801359150808211156200233a57600080fd5b50620023498882890162002267565b94505060408601356200235c81620022d4565b9250606086013591506080860135620023758162001d84565b809150509295509295909350565b60005b83811015620023a057818101518382015260200162002386565b50506000910152565b60008151808452620023c381602086016020860162002383565b601f01601f19169290920160200192915050565b600081518084526020808501945080840160005b838110156200240957815187529582019590820190600101620023eb565b509495945050505050565b60e0815260006200242960e083018a620023a9565b82810360208401526200243d818a620023a9565b90508281036040840152620024538189620023a9565b90508281036060840152620024698188620023a9565b905082810360808401526200247f8187620023d7565b9150508360a08301526001600160a01b03831660c083015298975050505050505050565b606081526000620024b86060830186620023a9565b6001600160a01b039490941660208301525060400152919050565b600060208284031215620024e657600080fd5b5051919050565b6000602082840312156200250057600080fd5b815162001ce18162001d84565b6000602082840312156200252057600080fd5b815162001ce181620022d4565b6000602082840312156200254057600080fd5b815167ffffffffffffffff8111156200255857600080fd5b8201601f810184136200256a57600080fd5b80516200257b62001e478262001df9565b8181528560208385010111156200259157600080fd5b620025a482602083016020860162002383565b95945050505050565b60006020808385031215620025c157600080fd5b825167ffffffffffffffff811115620025d957600080fd5b8301601f81018513620025eb57600080fd5b8051620025fc62001e478262001e80565b81815260059190911b820183019083810190878311156200261c57600080fd5b928401925b828410156200263c5783518252928401929084019062002621565b979650505050505050565b60006101406001600160a01b03808e1684528160208501526200266d8285018e620023a9565b9150838203604085015262002683828d620023a9565b9150838203606085015262002699828c620023a9565b91508382036080850152620026af828b620023d7565b915080891660a08501528760c085015280871660e085015250828103610100840152620026dd8186620023a9565b9050828103610120840152620026f48185620023a9565b9d9c50505050505050505050505050565b60006001600160a01b03808816835260a060208401526200272a60a0840188620023a9565b9516604083015250606081019290925260809091015292915050565b6000815480845260208085019450836000528060002060005b83811015620024095781546001600160a01b0316875295820195600191820191016200275f565b610180815260006200279d61018083018f620023a9565b8281036020840152620027b1818f620023a9565b90508281036040840152620027c7818e620023a9565b90508281036060840152620027dd818d620023a9565b6001600160a01b038c16608085015290506001600160a01b038a1660a084015282810360c084015262002811818a62002746565b905082810360e084015262002827818962002746565b87151561010085015290508561012084015284610140840152828103610160840152620028558185620023d7565b9f9e505050505050505050505050505050565b600081518084526020808501945080840160005b83811015620024095781516001600160a01b0316875295820195908201906001016200287c565b61018081526000620028ba61018083018f620023a9565b8281036020840152620028ce818f620023a9565b90508281036040840152620028e4818e620023a9565b90508281036060840152620028fa818d620023a9565b6001600160a01b038c16608085015290506001600160a01b038a1660a084015282810360c08401526200292e818a62002868565b905082810360e084015262002827818962002868565b634e487b7160e01b600052603260045260246000fd5b6000600182016200297b57634e487b7160e01b600052601160045260246000fd5b506001019056fe608060405260006007553480156200001657600080fd5b506040516200224d3803806200224d8339810160408190526200003991620002a0565b868660006200004983826200042c565b5060016200005882826200042c565b50600a91506200006b905086826200042c565b50600b6200007a85826200042c565b50600680546001600160a01b0319166001600160a01b038316179055600c8290558251620000b090600e906020860190620000be565b5050505050505050620004f8565b828054828255906000526020600020908101928215620000fc579160200282015b82811115620000fc578251825591602001919060010190620000df565b506200010a9291506200010e565b5090565b5b808211156200010a57600081556001016200010f565b634e487b7160e01b600052604160045260246000fd5b604051601f8201601f191681016001600160401b038111828210171562000166576200016662000125565b604052919050565b600082601f8301126200018057600080fd5b81516001600160401b038111156200019c576200019c62000125565b6020620001b2601f8301601f191682016200013b565b8281528582848701011115620001c757600080fd5b60005b83811015620001e7578581018301518282018401528201620001ca565b506000928101909101919091529392505050565b600082601f8301126200020d57600080fd5b815160206001600160401b038211156200022b576200022b62000125565b8160051b6200023c8282016200013b565b92835284810182019282810190878511156200025757600080fd5b83870192505b8483101562000278578251825291830191908301906200025d565b979650505050505050565b80516001600160a01b03811681146200029b57600080fd5b919050565b600080600080600080600060e0888a031215620002bc57600080fd5b87516001600160401b0380821115620002d457600080fd5b620002e28b838c016200016e565b985060208a0151915080821115620002f957600080fd5b620003078b838c016200016e565b975060408a01519150808211156200031e57600080fd5b6200032c8b838c016200016e565b965060608a01519150808211156200034357600080fd5b620003518b838c016200016e565b955060808a01519150808211156200036857600080fd5b50620003778a828b01620001fb565b93505060a088015191506200038f60c0890162000283565b905092959891949750929550565b600181811c90821680620003b257607f821691505b602082108103620003d357634e487b7160e01b600052602260045260246000fd5b50919050565b601f8211156200042757600081815260208120601f850160051c81016020861015620004025750805b601f850160051c820191505b8181101562000423578281556001016200040e565b5050505b505050565b81516001600160401b0381111562000448576200044862000125565b62000460816200045984546200039d565b84620003d9565b602080601f8311600181146200049857600084156200047f5750858301515b600019600386901b1c1916600185901b17855562000423565b600085815260208120601f198616915b82811015620004c957888601518255948401946001909101908401620004a8565b5085821015620004e85787850151600019600388901b60f8161c191681555b5050505050600190811b01905550565b611d4580620005086000396000f3fe608060405234801561001057600080fd5b50600436106101ae5760003560e01c80636352211e116100ee578063b0fa844411610097578063c87b56dd11610071578063c87b56dd146103af578063dbacc237146103c2578063e7d931e4146103d5578063e985e9c5146103dd57600080fd5b8063b0fa84441461036b578063b325d85d1461037c578063b88d4fde1461039c57600080fd5b8063816949b5116100c8578063816949b51461033b57806395d89b4114610350578063a22cb4651461035857600080fd5b80636352211e1461030257806370a08231146103155780637e8816b91461032857600080fd5b806323b872dd1161015b57806345facd8e1161013557806345facd8e146102975780635221c1f0146102d457806355f804b3146102e75780635aef7de6146102fa57600080fd5b806323b872dd1461025e57806342842e0e1461027157806342966c681461028457600080fd5b806306fdde031161018c57806306fdde0314610221578063081812fc14610236578063095ea7b31461024957600080fd5b806301ffc9a7146101b357806302d05d3f146101db5780630444ce0a14610200575b600080fd5b6101c66101c1366004611740565b610419565b60405190151581526020015b60405180910390f35b6006546001600160a01b03165b6040516001600160a01b0390911681526020016101d2565b61021361020e366004611764565b6104b6565b6040519081526020016101d2565b6102296104d7565b6040516101d291906117cd565b6101e8610244366004611764565b610569565b61025c6102573660046117fc565b610590565b005b61025c61026c366004611826565b6106e4565b61025c61027f366004611826565b61076b565b61025c610292366004611764565b610786565b61025c6102a5366004611862565b600d805473ffffffffffffffffffffffffffffffffffffffff19166001600160a01b0392909216919091179055565b6101c66102e2366004611764565b610792565b61025c6102f5366004611929565b6107fa565b610229610864565b6101e8610310366004611764565b610873565b610213610323366004611862565b6108d8565b61021361033636600461195e565b610972565b6103436109bb565b6040516101d291906119a5565b610229610a12565b61025c6103663660046119e9565b610a21565b600d546001600160a01b03166101e8565b61021361038a366004611764565b600f6020526000908152604090205481565b61025c6103aa366004611a25565b610a2c565b6102296103bd366004611764565b610aba565b6101e86103d0366004611764565b610c0c565b610229610c29565b6101c66103eb366004611aa1565b6001600160a01b03918216600090815260056020908152604080832093909416825291909152205460ff1690565b60006001600160e01b031982167f80ac58cd00000000000000000000000000000000000000000000000000000000148061047c57506001600160e01b031982167f5b5e139f00000000000000000000000000000000000000000000000000000000145b806104b057507f01ffc9a7000000000000000000000000000000000000000000000000000000006001600160e01b03198316145b92915050565b600e81815481106104c657600080fd5b600091825260209091200154905081565b6060600080546104e690611ad4565b80601f016020809104026020016040519081016040528092919081815260200182805461051290611ad4565b801561055f5780601f106105345761010080835404028352916020019161055f565b820191906000526020600020905b81548152906001019060200180831161054257829003601f168201915b5050505050905090565b600061057482610c38565b506000908152600460205260409020546001600160a01b031690565b600061059b82610873565b9050806001600160a01b0316836001600160a01b0316036106295760405162461bcd60e51b815260206004820152602160248201527f4552433732313a20617070726f76616c20746f2063757272656e74206f776e6560448201527f720000000000000000000000000000000000000000000000000000000000000060648201526084015b60405180910390fd5b336001600160a01b038216148061066357506001600160a01b038116600090815260056020908152604080832033845290915290205460ff165b6106d55760405162461bcd60e51b815260206004820152603d60248201527f4552433732313a20617070726f76652063616c6c6572206973206e6f7420746f60448201527f6b656e206f776e6572206f7220617070726f76656420666f7220616c6c0000006064820152608401610620565b6106df8383610c9c565b505050565b6106ee3382610d17565b6107605760405162461bcd60e51b815260206004820152602d60248201527f4552433732313a2063616c6c6572206973206e6f7420746f6b656e206f776e6560448201527f72206f7220617070726f766564000000000000000000000000000000000000006064820152608401610620565b6106df838383610d95565b6106df83838360405180602001604052806000815250610a2c565b61078f81610fa8565b50565b600081600c54036107a557506001919050565b60005b600e548110156107f15782600e82815481106107c6576107c6611b0e565b9060005260206000200154036107df5750600192915050565b806107e981611b3a565b9150506107a8565b50600092915050565b6006546001600160a01b031633146108545760405162461bcd60e51b815260206004820152601f60248201527f6f6e6c79206f776e65722063616e2063616c6c2074686973206d6574686f64006044820152606401610620565b60096108608282611ba1565b5050565b6060600b80546104e690611ad4565b6000818152600260205260408120546001600160a01b0316806104b05760405162461bcd60e51b815260206004820152601860248201527f4552433732313a20696e76616c696420746f6b656e20494400000000000000006044820152606401610620565b60006001600160a01b0382166109565760405162461bcd60e51b815260206004820152602960248201527f4552433732313a2061646472657373207a65726f206973206e6f74206120766160448201527f6c6964206f776e657200000000000000000000000000000000000000000000006064820152608401610620565b506001600160a01b031660009081526003602052604090205490565b6000808260000361099c576007805490600061098d83611b3a565b9190505550600754905061099f565b50815b6109a98482611058565b6109b381866111fe565b949350505050565b6060600e80548060200260200160405190810160405280929190818152602001828054801561055f57602002820191906000526020600020905b8154815260200190600101908083116109f5575050505050905090565b6060600180546104e690611ad4565b610860338383611263565b610a363383610d17565b610aa85760405162461bcd60e51b815260206004820152602d60248201527f4552433732313a2063616c6c6572206973206e6f7420746f6b656e206f776e6560448201527f72206f7220617070726f766564000000000000000000000000000000000000006064820152608401610620565b610ab484848484611331565b50505050565b6000818152600260205260409020546060906001600160a01b0316610b0a5760405162461bcd60e51b815260206004820152600660248201526508595e1a5cdd60d21b6044820152606401610620565b60008281526008602052604081208054610b2390611ad4565b80601f0160208091040260200160405190810160405280929190818152602001828054610b4f90611ad4565b8015610b9c5780601f10610b7157610100808354040283529160200191610b9c565b820191906000526020600020905b815481529060010190602001808311610b7f57829003601f168201915b505050505090506000610bad6113ba565b90508051600003610bbf575092915050565b815115610bf1578082604051602001610bd9929190611c61565b60405160208183030381529060405292505050919050565b80610bfb856113c9565b604051602001610bd9929190611c61565b6000818152600260205260408120546001600160a01b03166104b0565b6060600a80546104e690611ad4565b6000818152600260205260409020546001600160a01b031661078f5760405162461bcd60e51b815260206004820152601860248201527f4552433732313a20696e76616c696420746f6b656e20494400000000000000006044820152606401610620565b6000818152600460205260409020805473ffffffffffffffffffffffffffffffffffffffff19166001600160a01b0384169081179091558190610cde82610873565b6001600160a01b03167f8c5be1e5ebec7d5bd14f71427d1e84f3dd0314c0f7b2291e5b200ac8c7c3b92560405160405180910390a45050565b600080610d2383610873565b9050806001600160a01b0316846001600160a01b03161480610d6a57506001600160a01b0380821660009081526005602090815260408083209388168352929052205460ff165b806109b35750836001600160a01b0316610d8384610569565b6001600160a01b031614949350505050565b826001600160a01b0316610da882610873565b6001600160a01b031614610e0c5760405162461bcd60e51b815260206004820152602560248201527f4552433732313a207472616e736665722066726f6d20696e636f72726563742060448201526437bbb732b960d91b6064820152608401610620565b6001600160a01b038216610e875760405162461bcd60e51b8152602060048201526024808201527f4552433732313a207472616e7366657220746f20746865207a65726f2061646460448201527f72657373000000000000000000000000000000000000000000000000000000006064820152608401610620565b610e948383836001611469565b826001600160a01b0316610ea782610873565b6001600160a01b031614610f0b5760405162461bcd60e51b815260206004820152602560248201527f4552433732313a207472616e736665722066726f6d20696e636f72726563742060448201526437bbb732b960d91b6064820152608401610620565b6000818152600460209081526040808320805473ffffffffffffffffffffffffffffffffffffffff199081169091556001600160a01b0387811680865260038552838620805460001901905590871680865283862080546001019055868652600290945282852080549092168417909155905184937fddf252ad1be2c89b69c2b068fc378daa952ba7f163c4a11628f55a4df523b3ef91a4505050565b6000610fb382610873565b9050610fc3816000846001611469565b610fcc82610873565b6000838152600460209081526040808320805473ffffffffffffffffffffffffffffffffffffffff199081169091556001600160a01b0385168085526003845282852080546000190190558785526002909352818420805490911690555192935084927fddf252ad1be2c89b69c2b068fc378daa952ba7f163c4a11628f55a4df523b3ef908390a45050565b6001600160a01b0382166110ae5760405162461bcd60e51b815260206004820181905260248201527f4552433732313a206d696e7420746f20746865207a65726f20616464726573736044820152606401610620565b6000818152600260205260409020546001600160a01b0316156111135760405162461bcd60e51b815260206004820152601c60248201527f4552433732313a20746f6b656e20616c7265616479206d696e746564000000006044820152606401610620565b611121600083836001611469565b6000818152600260205260409020546001600160a01b0316156111865760405162461bcd60e51b815260206004820152601c60248201527f4552433732313a20746f6b656e20616c7265616479206d696e746564000000006044820152606401610620565b6001600160a01b0382166000818152600360209081526040808320805460010190558483526002909152808220805473ffffffffffffffffffffffffffffffffffffffff19168417905551839291907fddf252ad1be2c89b69c2b068fc378daa952ba7f163c4a11628f55a4df523b3ef908290a45050565b6000828152600260205260409020546001600160a01b031661124b5760405162461bcd60e51b815260206004820152600660248201526508595e1a5cdd60d21b6044820152606401610620565b60008281526008602052604090206106df8282611ba1565b816001600160a01b0316836001600160a01b0316036112c45760405162461bcd60e51b815260206004820152601960248201527f4552433732313a20617070726f766520746f2063616c6c6572000000000000006044820152606401610620565b6001600160a01b03838116600081815260056020908152604080832094871680845294825291829020805460ff191686151590811790915591519182527f17307eab39ab6107e8899845ad3d59bd9653f200f220920489ca2b5937696c31910160405180910390a3505050565b61133c848484610d95565b611348848484846114f1565b610ab45760405162461bcd60e51b815260206004820152603260248201527f4552433732313a207472616e7366657220746f206e6f6e20455243373231526560448201527f63656976657220696d706c656d656e74657200000000000000000000000000006064820152608401610620565b6060600980546104e690611ad4565b606060006113d683611648565b600101905060008167ffffffffffffffff8111156113f6576113f661187d565b6040519080825280601f01601f191660200182016040528015611420576020820181803683370190505b5090508181016020015b600019017f3031323334353637383961626364656600000000000000000000000000000000600a86061a8153600a850494508461142a57509392505050565b6001811115610ab4576001600160a01b038416156114af576001600160a01b038416600090815260036020526040812080548392906114a9908490611c90565b90915550505b6001600160a01b03831615610ab4576001600160a01b038316600090815260036020526040812080548392906114e6908490611ca3565b909155505050505050565b60006001600160a01b0384163b1561163d57604051630a85bd0160e11b81526001600160a01b0385169063150b7a0290611535903390899088908890600401611cb6565b6020604051808303816000875af1925050508015611570575060408051601f3d908101601f1916820190925261156d91810190611cf2565b60015b611623573d80801561159e576040519150601f19603f3d011682016040523d82523d6000602084013e6115a3565b606091505b50805160000361161b5760405162461bcd60e51b815260206004820152603260248201527f4552433732313a207472616e7366657220746f206e6f6e20455243373231526560448201527f63656976657220696d706c656d656e74657200000000000000000000000000006064820152608401610620565b805181602001fd5b6001600160e01b031916630a85bd0160e11b1490506109b3565b506001949350505050565b6000807a184f03e93ff9f4daa797ed6e38ed64bf6a1f0100000000000000008310611691577a184f03e93ff9f4daa797ed6e38ed64bf6a1f010000000000000000830492506040015b6d04ee2d6d415b85acef810000000083106116bd576d04ee2d6d415b85acef8100000000830492506020015b662386f26fc1000083106116db57662386f26fc10000830492506010015b6305f5e10083106116f3576305f5e100830492506008015b612710831061170757612710830492506004015b60648310611719576064830492506002015b600a83106104b05760010192915050565b6001600160e01b03198116811461078f57600080fd5b60006020828403121561175257600080fd5b813561175d8161172a565b9392505050565b60006020828403121561177657600080fd5b5035919050565b60005b83811015611798578181015183820152602001611780565b50506000910152565b600081518084526117b981602086016020860161177d565b601f01601f19169290920160200192915050565b60208152600061175d60208301846117a1565b80356001600160a01b03811681146117f757600080fd5b919050565b6000806040838503121561180f57600080fd5b611818836117e0565b946020939093013593505050565b60008060006060848603121561183b57600080fd5b611844846117e0565b9250611852602085016117e0565b9150604084013590509250925092565b60006020828403121561187457600080fd5b61175d826117e0565b634e487b7160e01b600052604160045260246000fd5b600067ffffffffffffffff808411156118ae576118ae61187d565b604051601f8501601f19908116603f011681019082821181831017156118d6576118d661187d565b816040528093508581528686860111156118ef57600080fd5b858560208301376000602087830101525050509392505050565b600082601f83011261191a57600080fd5b61175d83833560208501611893565b60006020828403121561193b57600080fd5b813567ffffffffffffffff81111561195257600080fd5b6109b384828501611909565b60008060006060848603121561197357600080fd5b833567ffffffffffffffff81111561198a57600080fd5b61199686828701611909565b935050611852602085016117e0565b6020808252825182820181905260009190848201906040850190845b818110156119dd578351835292840192918401916001016119c1565b50909695505050505050565b600080604083850312156119fc57600080fd5b611a05836117e0565b915060208301358015158114611a1a57600080fd5b809150509250929050565b60008060008060808587031215611a3b57600080fd5b611a44856117e0565b9350611a52602086016117e0565b925060408501359150606085013567ffffffffffffffff811115611a7557600080fd5b8501601f81018713611a8657600080fd5b611a9587823560208401611893565b91505092959194509250565b60008060408385031215611ab457600080fd5b611abd836117e0565b9150611acb602084016117e0565b90509250929050565b600181811c90821680611ae857607f821691505b602082108103611b0857634e487b7160e01b600052602260045260246000fd5b50919050565b634e487b7160e01b600052603260045260246000fd5b634e487b7160e01b600052601160045260246000fd5b600060018201611b4c57611b4c611b24565b5060010190565b601f8211156106df57600081815260208120601f850160051c81016020861015611b7a5750805b601f850160051c820191505b81811015611b9957828155600101611b86565b505050505050565b815167ffffffffffffffff811115611bbb57611bbb61187d565b611bcf81611bc98454611ad4565b84611b53565b602080601f831160018114611c045760008415611bec5750858301515b600019600386901b1c1916600185901b178555611b99565b600085815260208120601f198616915b82811015611c3357888601518255948401946001909101908401611c14565b5085821015611c515787850151600019600388901b60f8161c191681555b5050505050600190811b01905550565b60008351611c7381846020880161177d565b835190830190611c8781836020880161177d565b01949350505050565b818103818111156104b0576104b0611b24565b808201808211156104b0576104b0611b24565b60006001600160a01b03808716835280861660208401525083604083015260806060830152611ce860808301846117a1565b9695505050505050565b600060208284031215611d0457600080fd5b815161175d8161172a56fea264697066735822122092f8c810762158dc25b488c39092c88cfc8be23507b18349ce27759747ffdf7c64736f6c63430008100033a26469706673582212206dade10d9033b106d8a798c2996381d2039e9fda42f3842e3dcefb50d73a924664736f6c63430008100033",
  "immutableReferences": {},
  "source": "// SPDX-License-Identifier: GPL-3.0\npragma solidity >=0.7.0 <0.9.0;\n\nimport {MultiERC721} from \"./MultiERC721.sol\";\nimport {Events} from \"./libraries/Events.sol\";\nimport {CallProxy} from \"./interfaces/CallProxy.sol\";\n\ncontract AnycallCollection {\n    address private _deployer;\n    uint private _thisChainId;\n\n    // anycall contracts\n    address public _anycallcontract;\n\n    // network id => receivers contract\n    mapping(uint => address) public receivers;\n\n    // creator => nft contract addresses\n    mapping(address => address[]) public creators;\n\n    // nft contract address => collection metadata\n    mapping(address => Collection) public collections;\n\n    // mapping nft source chain address to this chain address\n    mapping(address => address) private nftMaps;\n\n    struct Collection {\n        address[] whiteList;\n        address[] blackList;\n        bool isWhiteSystem;\n        uint256 mintPrice;\n        uint chainId;\n        address creator;\n    }\n\n    constructor(address anycallcontract, uint chainId) {\n        _thisChainId = chainId;\n        _anycallcontract = anycallcontract;\n        _deployer = msg.sender;\n    }\n\n    function createCollection(\n        string memory name,\n        string memory symbol,\n        uint[] memory supportedChains,\n        string memory cover,\n        string memory avatar\n    ) public {\n        MultiERC721 nft = new MultiERC721(\n            name,\n            symbol,\n            cover,\n            avatar,\n            supportedChains,\n            _thisChainId,\n            msg.sender\n        );\n\n        // set the nft source address\n        address contractAddress = address(nft);\n\n        nft.setSourceAddress(contractAddress);\n        nftMaps[contractAddress] = contractAddress;\n\n        collections[contractAddress] = Collection(\n            collections[contractAddress].whiteList,\n            collections[contractAddress].blackList,\n            false,\n            0,\n            _thisChainId,\n            nft.creator()\n        );\n\n        emit Events.ArtCollection(\n            // metadata\n            nft.name(),\n            nft.symbol(),\n            nft.cover(),\n            nft.avatar(),\n            // addresses\n            nft.creator(),\n            contractAddress,\n            // sorting\n            collections[contractAddress].whiteList,\n            collections[contractAddress].blackList,\n            false,\n            0, // mintPrice\n            // chains\n            _thisChainId,\n            nft.supportedChains()\n        );\n    }\n\n    function updateCollection(\n        address[] memory whiteList,\n        address[] memory blackList,\n        bool isWhiteSystem,\n        uint256 mintPrice,\n        address contractAddress\n    ) public {\n        MultiERC721 nft = MultiERC721(contractAddress);\n        require(msg.sender == nft.creator(), \"Unathorized\");\n\n        collections[contractAddress] = Collection(\n            whiteList,\n            blackList,\n            isWhiteSystem,\n            mintPrice,\n            _thisChainId,\n            nft.creator()\n        );\n\n        emit Events.ArtCollection(\n            // metadata\n            nft.name(),\n            nft.symbol(),\n            nft.cover(),\n            nft.avatar(),\n            // addresses\n            nft.creator(),\n            address(nft),\n            // sorting\n            whiteList,\n            blackList,\n            isWhiteSystem,\n            mintPrice,\n            // chains\n            _thisChainId,\n            nft.supportedChains()\n        );\n    }\n\n    function mint(string memory uri, address contractAddress) public payable {\n        MultiERC721 nft = MultiERC721(contractAddress);\n\n        // middleware\n        require(\n            msg.sender == nft.creator(),\n            \"Only creator can call this method\"\n        );\n\n        // mint nft\n        uint tokenID = nft.mint(uri, msg.sender, 0);\n\n        emit Events.ArtItem(\n            // id\n            tokenID,\n            // addresses\n            msg.sender,\n            address(nft),\n            // chain\n            _thisChainId\n        );\n    }\n\n    function buy(address contractAddress) public payable {\n        MultiERC721 nft = MultiERC721(contractAddress);\n        Collection memory collection = collections[contractAddress];\n\n        require(\n            msg.sender != nft.creator(),\n            \"Only non creator can call this method\"\n        );\n\n        require(msg.value >= collection.mintPrice, \"Insuficient Mint Amount\");\n\n        if (collection.isWhiteSystem) {\n            bool eligible = _isEligble(\n                msg.sender,\n                collection.whiteList,\n                collection.blackList\n            );\n            require(eligible, \"You're not eligible\");\n        }\n    }\n\n    function bridge(\n        uint tokenID,\n        address contractAddress,\n        uint receiverChainId\n    ) public payable {\n        MultiERC721 nft = MultiERC721(contractAddress);\n        require(\n            nft.isChainSupported(receiverChainId),\n            \"unsupported destination chain\"\n        );\n\n        require(\n            msg.sender == nft.holderOf(tokenID),\n            \"you cant bridge this token\"\n        );\n\n        bytes memory data = abi.encode(\n            nft.sourceAddress(),\n            nft.tokenURI(tokenID),\n            nft.name(), // related for non existing nft\n            nft.symbol(), // related for non existing nft\n            nft.supportedChains(), // related for non existing nft\n            nft.creator(), // related for non existing nft\n            tokenID,\n            nft.holderOf(tokenID),\n            nft.cover(),\n            nft.avatar()\n        );\n\n        require(\n            receivers[receiverChainId] != address(0),\n            \"Please add destination chain\"\n        );\n\n        // burn token on originated chain\n        nft.burn(tokenID);\n\n        // cross-chain message to mint same token\n        // on destination chain\n        CallProxy(_anycallcontract).anyCall{value: msg.value}(\n            // _to chain contract\n            receivers[receiverChainId],\n            // sending the encoded bytes of the string uri and decode on the destination chain\n            data,\n            // fallback address,\n            address(0),\n            // _to chain id\n            receiverChainId,\n            // using 4 flag to pay fee on the source chain without fallback\n            0\n        );\n    }\n\n    function execute(\n        address sourceAddress,\n        string memory uri,\n        string memory name, // related for non existing nft\n        string memory symbol, // related for non existing nft\n        uint[] memory supportedChains, // related for non existing nft\n        address creator, // related for non existing nft\n        uint256 tokenID,\n        address holder,\n        string memory cover,\n        string memory avatar\n    ) public onlyReceiver {\n        bool existing = nftMaps[sourceAddress] != address(0);\n\n        MultiERC721 nft;\n\n        if (existing) {\n            nft = MultiERC721(nftMaps[sourceAddress]);\n        } else {\n            nft = new MultiERC721(\n                name,\n                symbol,\n                cover,\n                avatar,\n                supportedChains,\n                _thisChainId,\n                creator\n            );\n\n            // set the nft source address\n            nft.setSourceAddress(sourceAddress);\n            nftMaps[sourceAddress] = address(nft);\n        }\n\n        nft.mint(uri, holder, tokenID);\n    }\n\n    function _isEligble(\n        address minter,\n        address[] memory whiteList,\n        address[] memory blackList\n    ) private pure returns (bool) {\n        for (uint index = 0; index < blackList.length; index++) {\n            if (minter == blackList[index]) {\n                return false;\n            }\n        }\n        for (uint index = 0; index < whiteList.length; index++) {\n            if (minter == whiteList[index]) {\n                return true;\n            }\n        }\n        return false;\n    }\n\n    function addChain(\n        uint chainId,\n        address contractAddress\n    ) public onlyDeployer {\n        receivers[chainId] = contractAddress;\n    }\n\n    modifier onlyDeployer() {\n        require(msg.sender == _deployer, \"only owner can call this method\");\n        _;\n    }\n\n    modifier onlyReceiver() {\n        require(true, \"Only executor can call this method\");\n        _;\n    }\n}\n",
  "sourcePath": "C:\\Users\\Arogundade Ibrahim\\documents\\web3\\crossart\\contracts\\AnycallCollection.sol",
  "compiler": {
    "name": "solc",
    "version": "0.8.16+commit.07a7930e.Emscripten.clang"
  },
  "schemaVersion": "3.4.10",
  "updatedAt": "2022-12-16T18:16:24.161Z",
  "devdoc": {
    "kind": "dev",
    "methods": {},
    "version": 1
  },
  "userdoc": {
    "kind": "user",
    "methods": {},
    "version": 1
  }
}