{
  "contractName": "CrossArt",
  "abi": [
    {
      "inputs": [
        {
          "internalType": "address",
          "name": "anycallcontract",
          "type": "address"
        }
      ],
      "stateMutability": "nonpayable",
      "type": "constructor"
    },
    {
      "anonymous": false,
      "inputs": [
        {
          "indexed": false,
          "internalType": "address",
          "name": "account",
          "type": "address"
        },
        {
          "indexed": false,
          "internalType": "uint256",
          "name": "amount",
          "type": "uint256"
        }
      ],
      "name": "Desposit",
      "type": "event"
    },
    {
      "stateMutability": "payable",
      "type": "fallback"
    },
    {
      "inputs": [],
      "name": "_anycallcontract",
      "outputs": [
        {
          "internalType": "address",
          "name": "",
          "type": "address"
        }
      ],
      "stateMutability": "view",
      "type": "function"
    },
    {
      "inputs": [
        {
          "internalType": "address",
          "name": "",
          "type": "address"
        }
      ],
      "name": "collections",
      "outputs": [
        {
          "internalType": "bool",
          "name": "isWhiteSystem",
          "type": "bool"
        },
        {
          "internalType": "uint256",
          "name": "mintPrice",
          "type": "uint256"
        },
        {
          "internalType": "uint256",
          "name": "chainId",
          "type": "uint256"
        },
        {
          "internalType": "string",
          "name": "cover",
          "type": "string"
        },
        {
          "internalType": "string",
          "name": "avatar",
          "type": "string"
        }
      ],
      "stateMutability": "view",
      "type": "function"
    },
    {
      "inputs": [
        {
          "internalType": "address",
          "name": "",
          "type": "address"
        },
        {
          "internalType": "uint256",
          "name": "",
          "type": "uint256"
        }
      ],
      "name": "creators",
      "outputs": [
        {
          "internalType": "address",
          "name": "",
          "type": "address"
        }
      ],
      "stateMutability": "view",
      "type": "function"
    },
    {
      "inputs": [
        {
          "internalType": "uint256",
          "name": "",
          "type": "uint256"
        }
      ],
      "name": "destinations",
      "outputs": [
        {
          "internalType": "address",
          "name": "",
          "type": "address"
        }
      ],
      "stateMutability": "view",
      "type": "function"
    },
    {
      "stateMutability": "payable",
      "type": "receive"
    },
    {
      "inputs": [
        {
          "internalType": "string",
          "name": "name",
          "type": "string"
        },
        {
          "internalType": "string",
          "name": "symbol",
          "type": "string"
        },
        {
          "internalType": "uint256[]",
          "name": "supportedChains",
          "type": "uint256[]"
        },
        {
          "internalType": "address[]",
          "name": "whiteList",
          "type": "address[]"
        },
        {
          "internalType": "address[]",
          "name": "blackList",
          "type": "address[]"
        },
        {
          "internalType": "bool",
          "name": "isWhiteSystem",
          "type": "bool"
        },
        {
          "internalType": "uint256",
          "name": "mintPrice",
          "type": "uint256"
        },
        {
          "internalType": "string",
          "name": "cover",
          "type": "string"
        },
        {
          "internalType": "string",
          "name": "avatar",
          "type": "string"
        }
      ],
      "name": "deploy",
      "outputs": [],
      "stateMutability": "nonpayable",
      "type": "function"
    },
    {
      "inputs": [
        {
          "internalType": "string",
          "name": "uri",
          "type": "string"
        },
        {
          "internalType": "address",
          "name": "contractAddress",
          "type": "address"
        }
      ],
      "name": "mint",
      "outputs": [],
      "stateMutability": "payable",
      "type": "function"
    },
    {
      "inputs": [
        {
          "internalType": "uint256",
          "name": "tokenID",
          "type": "uint256"
        },
        {
          "internalType": "address",
          "name": "contractAddress",
          "type": "address"
        },
        {
          "internalType": "uint256",
          "name": "destinationChainId",
          "type": "uint256"
        }
      ],
      "name": "bridge",
      "outputs": [],
      "stateMutability": "payable",
      "type": "function"
    },
    {
      "inputs": [
        {
          "internalType": "bytes",
          "name": "_data",
          "type": "bytes"
        }
      ],
      "name": "anyExecute",
      "outputs": [
        {
          "internalType": "bool",
          "name": "success",
          "type": "bool"
        },
        {
          "internalType": "bytes",
          "name": "result",
          "type": "bytes"
        }
      ],
      "stateMutability": "nonpayable",
      "type": "function"
    },
    {
      "inputs": [
        {
          "internalType": "uint256",
          "name": "chainId",
          "type": "uint256"
        },
        {
          "internalType": "address",
          "name": "contractAddress",
          "type": "address"
        }
      ],
      "name": "addChain",
      "outputs": [],
      "stateMutability": "nonpayable",
      "type": "function"
    }
  ],
  "bytecode": "0x608060405234801561001057600080fd5b50604051613c1b380380613c1b83398101604081905261002f9161005d565b600280546001600160a01b039092166001600160a01b0319928316179055600080549091163317905561008d565b60006020828403121561006f57600080fd5b81516001600160a01b038116811461008657600080fd5b9392505050565b613b7f8061009c6000396000f3fe6080604052600436106200009d5760003560e01c80638dd4ba2e116200006b578063a44543401162000051578063a445434014620001c3578063f0d148d414620001e8578063fef54ec8146200020d57005b80638dd4ba2e146200013b5780639abaf479146200018e57005b80631c351a9d14620000a75780632f820a5f14620000be57806343add2e614620000d55780635303942b146200011657005b36620000a557005b005b620000a5620000b83660046200113d565b6200022f565b620000a5620000cf36600462001195565b6200069e565b348015620000e257600080fd5b50620000fa620000f4366004620011d0565b62000a98565b6040516200010d95949392919062001244565b60405180910390f35b3480156200012357600080fd5b50620000a5620001353660046200128d565b62000bf1565b3480156200014857600080fd5b50620001756200015a366004620012b5565b6003602052600090815260409020546001600160a01b031681565b6040516001600160a01b0390911681526020016200010d565b3480156200019b57600080fd5b50620001b3620001ad366004620012cf565b62000c93565b6040516200010d92919062001325565b348015620001d057600080fd5b5062000175620001e236600462001342565b62000d1f565b348015620001f557600080fd5b50620000a56200020736600462001493565b62000d58565b3480156200021a57600080fd5b5060025462000175906001600160a01b031681565b6001600160a01b0381166000908152600560209081526040808320815181546101009481028201850190935260e0810183815286959491938492849190840182828015620002a757602002820191906000526020600020905b81546001600160a01b0316815260019091019060200180831162000288575b50505050508152602001600182018054806020026020016040519081016040528092919081815260200182805480156200030b57602002820191906000526020600020905b81546001600160a01b03168152600190910190602001808311620002ec575b5050509183525050600282015460ff161515602082015260038201546040820152600482015460608201526005820180546080909201916200034d90620015e1565b80601f01602080910402602001604051908101604052809291908181526020018280546200037b90620015e1565b8015620003cc5780601f10620003a057610100808354040283529160200191620003cc565b820191906000526020600020905b815481529060010190602001808311620003ae57829003601f168201915b50505050508152602001600682018054620003e790620015e1565b80601f01602080910402602001604051908101604052809291908181526020018280546200041590620015e1565b8015620004665780601f106200043a5761010080835404028352916020019162000466565b820191906000526020600020905b8154815290600101906020018083116200044857829003601f168201915b5050505050815250509050816001600160a01b0316630ee2cb106040518163ffffffff1660e01b8152600401602060405180830381865afa158015620004b0573d6000803e3d6000fd5b505050506040513d601f19601f82011682018060405250810190620004d691906200161d565b6001600160a01b0316336001600160a01b031614620005be578060600151341015620005495760405162461bcd60e51b815260206004820152601760248201527f496e737566696369656e74204d696e7420416d6f756e7400000000000000000060448201526064015b60405180910390fd5b806040015115620005be5760006200056b338360000151846020015162000ecd565b905080620005bc5760405162461bcd60e51b815260206004820152601360248201527f596f75277265206e6f7420656c696769626c6500000000000000000000000000604482015260640162000540565b505b6040517f7e8816b90000000000000000000000000000000000000000000000000000000081526000906001600160a01b03841690637e8816b9906200060c908890339086906004016200163d565b6020604051808303816000875af11580156200062c573d6000803e3d6000fd5b505050506040513d601f19601f820116820180604052508101906200065291906200166d565b604080516001600160a01b0387168152602081018390529192507ff2b290a76feb54be358b555507421d765609171aefa0646f109a653228ff81b8910160405180910390a15050505050565b6040517f5221c1f00000000000000000000000000000000000000000000000000000000081526004810182905282906001600160a01b03821690635221c1f090602401602060405180830381865afa158015620006ff573d6000803e3d6000fd5b505050506040513d601f19601f8201168201806040525081019062000725919062001687565b620007735760405162461bcd60e51b815260206004820152601d60248201527f756e737570706f727465642064657374696e6174696f6e20636861696e000000604482015260640162000540565b6040517fdbacc237000000000000000000000000000000000000000000000000000000008152600481018590526001600160a01b0382169063dbacc23790602401602060405180830381865afa158015620007d2573d6000803e3d6000fd5b505050506040513d601f19601f82011682018060405250810190620007f891906200161d565b6001600160a01b0316336001600160a01b0316146200085a5760405162461bcd60e51b815260206004820152601a60248201527f796f752063616e7420627269646765207468697320746f6b656e000000000000604482015260640162000540565b6040517fc87b56dd000000000000000000000000000000000000000000000000000000008152600481018590526000906001600160a01b0383169063c87b56dd90602401600060405180830381865afa158015620008bc573d6000803e3d6000fd5b505050506040513d6000823e601f3d908101601f19168201604052620008e69190810190620016f3565b90506000828287856001600160a01b031663dbacc2378a6040518263ffffffff1660e01b81526004016200091c91815260200190565b602060405180830381865afa1580156200093a573d6000803e3d6000fd5b505050506040513d601f19601f820116820180604052508101906200096091906200161d565b6040516020016200097594939291906200172c565b60408051808303601f19018152908290527f42966c680000000000000000000000000000000000000000000000000000000082526004820188905291506001600160a01b038416906342966c6890602401600060405180830381600087803b158015620009e157600080fd5b505af1158015620009f6573d6000803e3d6000fd5b50506002546000878152600360205260408082205490517f1979a2840000000000000000000000000000000000000000000000000000000081526001600160a01b039384169550631979a2849450349362000a5c9392169187918b91906004016200176a565b6000604051808303818588803b15801562000a7657600080fd5b505af115801562000a8b573d6000803e3d6000fd5b5050505050505050505050565b6005602081905260009182526040909120600281015460038201546004830154938301805460ff909316949193919262000ad290620015e1565b80601f016020809104026020016040519081016040528092919081815260200182805462000b0090620015e1565b801562000b515780601f1062000b255761010080835404028352916020019162000b51565b820191906000526020600020905b81548152906001019060200180831162000b3357829003601f168201915b50505050509080600601805462000b6890620015e1565b80601f016020809104026020016040519081016040528092919081815260200182805462000b9690620015e1565b801562000be75780601f1062000bbb5761010080835404028352916020019162000be7565b820191906000526020600020905b81548152906001019060200180831162000bc957829003601f168201915b5050505050905085565b6000546001600160a01b0316331462000c4d5760405162461bcd60e51b815260206004820152601f60248201527f6f6e6c79206f776e65722063616e2063616c6c2074686973206d6574686f6400604482015260640162000540565b60009182526003602052604090912080547fffffffffffffffffffffffff0000000000000000000000000000000000000000166001600160a01b03909216919091179055565b600060606000806000808680602001905181019062000cb39190620017b5565b935093509350935060606000816001600060405162000cd29062000fa2565b62000ce09392919062001867565b604051809103906000f08015801562000cfd573d6000803e3d6000fd5b505060408051602081019091526000815260019a909950975050505050505050565b6004602052816000526040600020818154811062000d3c57600080fd5b6000918252602090912001546001600160a01b03169150829050565b60008989896001543360405162000d6f9062000fa2565b62000d7f95949392919062001906565b604051809103906000f08015801562000d9c573d6000803e3d6000fd5b506040805160e08101825289815260208082018a90528815158284015260608201889052600154608083015260a0820187905260c082018690526001600160a01b03841660009081526005825292909220815180519495509193909262000e0892849291019062000fb0565b50602082810151805162000e23926001850192019062000fb0565b50604082015160028201805460ff1916911515919091179055606082015160038201556080820151600482015560a0820151600582019062000e669082620019ba565b5060c0820151600682019062000e7d9082620019ba565b50506001546040517f8baa818f291b101444be572d3388b299fba3f296a3d467e084c0dc52b6dc80f6925062000eb99184918c91339162001a87565b60405180910390a150505050505050505050565b6000805b825181101562000f315782818151811062000ef05762000ef062001abe565b60200260200101516001600160a01b0316856001600160a01b03160362000f1c57600091505062000f9b565b8062000f288162001ad4565b91505062000ed1565b5060005b835181101562000f955783818151811062000f545762000f5462001abe565b60200260200101516001600160a01b0316856001600160a01b03160362000f8057600191505062000f9b565b8062000f8c8162001ad4565b91505062000f35565b50600090505b9392505050565b61204d8062001afd83390190565b82805482825590600052602060002090810192821562001020579160200282015b828111156200102057825182547fffffffffffffffffffffffff0000000000000000000000000000000000000000166001600160a01b0390911617825560209092019160019091019062000fd1565b506200102e92915062001032565b5090565b5b808211156200102e576000815560010162001033565b634e487b7160e01b600052604160045260246000fd5b604051601f8201601f1916810167ffffffffffffffff811182821017156200108b576200108b62001049565b604052919050565b600067ffffffffffffffff821115620010b057620010b062001049565b50601f01601f191660200190565b6000620010d5620010cf8462001093565b6200105f565b9050828152838383011115620010ea57600080fd5b828260208301376000602084830101529392505050565b600082601f8301126200111357600080fd5b62000f9b83833560208501620010be565b6001600160a01b03811681146200113a57600080fd5b50565b600080604083850312156200115157600080fd5b823567ffffffffffffffff8111156200116957600080fd5b620011778582860162001101565b92505060208301356200118a8162001124565b809150509250929050565b600080600060608486031215620011ab57600080fd5b833592506020840135620011bf8162001124565b929592945050506040919091013590565b600060208284031215620011e357600080fd5b813562000f9b8162001124565b60005b838110156200120d578181015183820152602001620011f3565b50506000910152565b6000815180845262001230816020860160208601620011f0565b601f01601f19169290920160200192915050565b851515815284602082015283604082015260a0606082015260006200126d60a083018562001216565b828103608084015262001281818562001216565b98975050505050505050565b60008060408385031215620012a157600080fd5b8235915060208301356200118a8162001124565b600060208284031215620012c857600080fd5b5035919050565b600060208284031215620012e257600080fd5b813567ffffffffffffffff811115620012fa57600080fd5b8201601f810184136200130c57600080fd5b6200131d84823560208401620010be565b949350505050565b82151581526040602082015260006200131d604083018462001216565b600080604083850312156200135657600080fd5b8235620013638162001124565b946020939093013593505050565b600067ffffffffffffffff8211156200138e576200138e62001049565b5060051b60200190565b600082601f830112620013aa57600080fd5b81356020620013bd620010cf8362001371565b82815260059290921b84018101918181019086841115620013dd57600080fd5b8286015b84811015620013fa5780358352918301918301620013e1565b509695505050505050565b600082601f8301126200141757600080fd5b813560206200142a620010cf8362001371565b82815260059290921b840181019181810190868411156200144a57600080fd5b8286015b84811015620013fa578035620014648162001124565b83529183019183016200144e565b80151581146200113a57600080fd5b80356200148e8162001472565b919050565b60008060008060008060008060006101208a8c031215620014b357600080fd5b893567ffffffffffffffff80821115620014cc57600080fd5b620014da8d838e0162001101565b9a5060208c0135915080821115620014f157600080fd5b620014ff8d838e0162001101565b995060408c01359150808211156200151657600080fd5b620015248d838e0162001398565b985060608c01359150808211156200153b57600080fd5b620015498d838e0162001405565b975060808c01359150808211156200156057600080fd5b6200156e8d838e0162001405565b96506200157e60a08d0162001481565b955060c08c0135945060e08c01359150808211156200159c57600080fd5b620015aa8d838e0162001101565b93506101008c0135915080821115620015c257600080fd5b50620015d18c828d0162001101565b9150509295985092959850929598565b600181811c90821680620015f657607f821691505b6020821081036200161757634e487b7160e01b600052602260045260246000fd5b50919050565b6000602082840312156200163057600080fd5b815162000f9b8162001124565b60608152600062001652606083018662001216565b6001600160a01b039490941660208301525060400152919050565b6000602082840312156200168057600080fd5b5051919050565b6000602082840312156200169a57600080fd5b815162000f9b8162001472565b600082601f830112620016b957600080fd5b8151620016ca620010cf8262001093565b818152846020838601011115620016e057600080fd5b6200131d826020830160208701620011f0565b6000602082840312156200170657600080fd5b815167ffffffffffffffff8111156200171e57600080fd5b6200131d84828501620016a7565b60006001600160a01b0380871683526080602084015262001751608084018762001216565b6040840195909552929092166060909101525092915050565b6001600160a01b038516815260a0602082015260006200178e60a083018662001216565b60408301949094525060608101919091528082036080909101526000815260200192915050565b60008060008060808587031215620017cc57600080fd5b8451620017d98162001124565b602086015190945067ffffffffffffffff811115620017f757600080fd5b6200180587828801620016a7565b9350506040850151915060608501516200181f8162001124565b939692955090935050565b600081518084526020808501945080840160005b838110156200185c578151875295820195908201906001016200183e565b509495945050505050565b60a08152600660a08201527f53616d706c65000000000000000000000000000000000000000000000000000060c082015260e06020820152600360e08201527f534d5000000000000000000000000000000000000000000000000000000000006101008201526000610120806040840152620018e6818401876200182a565b9150508360608301526001600160a01b0383166080830152949350505050565b60a0815260006200191b60a083018862001216565b82810360208401526200192f818862001216565b905082810360408401526200194581876200182a565b9150508360608301526001600160a01b03831660808301529695505050505050565b601f821115620019b557600081815260208120601f850160051c81016020861015620019905750805b601f850160051c820191505b81811015620019b1578281556001016200199c565b5050505b505050565b815167ffffffffffffffff811115620019d757620019d762001049565b620019ef81620019e88454620015e1565b8462001967565b602080601f83116001811462001a27576000841562001a0e5750858301515b600019600386901b1c1916600185901b178555620019b1565b600085815260208120601f198616915b8281101562001a585788860151825594840194600190910190840162001a37565b508582101562001a775787850151600019600388901b60f8161c191681555b5050505050600190811b01905550565b60006001600160a01b0380871683526080602084015262001aac60808401876200182a565b94166040830152506060015292915050565b634e487b7160e01b600052603260045260246000fd5b60006001820162001af557634e487b7160e01b600052601160045260246000fd5b506001019056fe608060405260006007553480156200001657600080fd5b506040516200204d3803806200204d8339810160408190526200003991620001f6565b848460006200004983826200039f565b5060016200005882826200039f565b5050600680546001600160a01b0319166001600160a01b03841617905550600a82905582516200009090600b9060208601906200009c565b5050505050506200046b565b828054828255906000526020600020908101928215620000da579160200282015b82811115620000da578251825591602001919060010190620000bd565b50620000e8929150620000ec565b5090565b5b80821115620000e85760008155600101620000ed565b634e487b7160e01b600052604160045260246000fd5b604051601f8201601f191681016001600160401b038111828210171562000144576200014462000103565b604052919050565b600082601f8301126200015e57600080fd5b81516001600160401b038111156200017a576200017a62000103565b602062000190601f8301601f1916820162000119565b8281528582848701011115620001a557600080fd5b60005b83811015620001c5578581018301518282018401528201620001a8565b506000928101909101919091529392505050565b80516001600160a01b0381168114620001f157600080fd5b919050565b600080600080600060a086880312156200020f57600080fd5b85516001600160401b03808211156200022757600080fd5b6200023589838a016200014c565b96506020915081880151818111156200024d57600080fd5b6200025b8a828b016200014c565b9650506040880151818111156200027157600080fd5b8801601f81018a136200028357600080fd5b80518281111562000298576200029862000103565b8060051b9250620002ab84840162000119565b818152928201840192848101908c851115620002c657600080fd5b928501925b84841015620002e657835182529285019290850190620002cb565b809850505050505050606086015191506200030460808701620001d9565b90509295509295909350565b600181811c908216806200032557607f821691505b6020821081036200034657634e487b7160e01b600052602260045260246000fd5b50919050565b601f8211156200039a57600081815260208120601f850160051c81016020861015620003755750805b601f850160051c820191505b81811015620003965782815560010162000381565b5050505b505050565b81516001600160401b03811115620003bb57620003bb62000103565b620003d381620003cc845462000310565b846200034c565b602080601f8311600181146200040b5760008415620003f25750858301515b600019600386901b1c1916600185901b17855562000396565b600085815260208120601f198616915b828110156200043c578886015182559484019460019091019084016200041b565b50858210156200045b5787850151600019600388901b60f8161c191681555b5050505050600190811b01905550565b611bd2806200047b6000396000f3fe608060405234801561001057600080fd5b50600436106101775760003560e01c806355f804b3116100d8578063a22cb4651161008c578063c87b56dd11610066578063c87b56dd14610311578063dbacc23714610324578063e985e9c51461033757600080fd5b8063a22cb465146102cb578063b325d85d146102de578063b88d4fde146102fe57600080fd5b806370a08231116100bd57806370a082311461029d5780637e8816b9146102b057806395d89b41146102c357600080fd5b806355f804b3146102775780636352211e1461028a57600080fd5b80630ee2cb101161012f57806342842e0e1161011457806342842e0e1461023e57806342966c68146102515780635221c1f01461026457600080fd5b80630ee2cb101461021a57806323b872dd1461022b57600080fd5b806306fdde031161016057806306fdde03146101c5578063081812fc146101da578063095ea7b31461020557600080fd5b806301ffc9a71461017c5780630444ce0a146101a4575b600080fd5b61018f61018a366004611611565b610373565b60405190151581526020015b60405180910390f35b6101b76101b2366004611635565b610410565b60405190815260200161019b565b6101cd610431565b60405161019b919061169e565b6101ed6101e8366004611635565b6104c3565b6040516001600160a01b03909116815260200161019b565b6102186102133660046116cd565b6104ea565b005b6006546001600160a01b03166101ed565b6102186102393660046116f7565b61063e565b61021861024c3660046116f7565b6106c5565b61021861025f366004611635565b6106e0565b61018f610272366004611635565b6106ec565b6102186102853660046117df565b610742565b6101ed610298366004611635565b6107ac565b6101b76102ab366004611814565b610811565b6101b76102be36600461182f565b6108ab565b6101cd6108f2565b6102186102d9366004611876565b610901565b6101b76102ec366004611635565b600c6020526000908152604090205481565b61021861030c3660046118b2565b61090c565b6101cd61031f366004611635565b61099a565b6101ed610332366004611635565b610aec565b61018f61034536600461192e565b6001600160a01b03918216600090815260056020908152604080832093909416825291909152205460ff1690565b60006001600160e01b031982167f80ac58cd0000000000000000000000000000000000000000000000000000000014806103d657506001600160e01b031982167f5b5e139f00000000000000000000000000000000000000000000000000000000145b8061040a57507f01ffc9a7000000000000000000000000000000000000000000000000000000006001600160e01b03198316145b92915050565b600b818154811061042057600080fd5b600091825260209091200154905081565b60606000805461044090611961565b80601f016020809104026020016040519081016040528092919081815260200182805461046c90611961565b80156104b95780601f1061048e576101008083540402835291602001916104b9565b820191906000526020600020905b81548152906001019060200180831161049c57829003601f168201915b5050505050905090565b60006104ce82610b09565b506000908152600460205260409020546001600160a01b031690565b60006104f5826107ac565b9050806001600160a01b0316836001600160a01b0316036105835760405162461bcd60e51b815260206004820152602160248201527f4552433732313a20617070726f76616c20746f2063757272656e74206f776e6560448201527f720000000000000000000000000000000000000000000000000000000000000060648201526084015b60405180910390fd5b336001600160a01b03821614806105bd57506001600160a01b038116600090815260056020908152604080832033845290915290205460ff165b61062f5760405162461bcd60e51b815260206004820152603d60248201527f4552433732313a20617070726f76652063616c6c6572206973206e6f7420746f60448201527f6b656e206f776e6572206f7220617070726f76656420666f7220616c6c000000606482015260840161057a565b6106398383610b6d565b505050565b6106483382610be8565b6106ba5760405162461bcd60e51b815260206004820152602d60248201527f4552433732313a2063616c6c6572206973206e6f7420746f6b656e206f776e6560448201527f72206f7220617070726f76656400000000000000000000000000000000000000606482015260840161057a565b610639838383610c66565b6106398383836040518060200160405280600081525061090c565b6106e981610e79565b50565b6000805b600b548110156107395782600b828154811061070e5761070e61199b565b9060005260206000200154036107275750600192915050565b80610731816119c7565b9150506106f0565b50600092915050565b6006546001600160a01b0316331461079c5760405162461bcd60e51b815260206004820152601f60248201527f6f6e6c79206f776e65722063616e2063616c6c2074686973206d6574686f6400604482015260640161057a565b60096107a88282611a2e565b5050565b6000818152600260205260408120546001600160a01b03168061040a5760405162461bcd60e51b815260206004820152601860248201527f4552433732313a20696e76616c696420746f6b656e2049440000000000000000604482015260640161057a565b60006001600160a01b03821661088f5760405162461bcd60e51b815260206004820152602960248201527f4552433732313a2061646472657373207a65726f206973206e6f74206120766160448201527f6c6964206f776e65720000000000000000000000000000000000000000000000606482015260840161057a565b506001600160a01b031660009081526003602052604090205490565b60008082156108d357600780549060006108c4836119c7565b919050555060075490506108d6565b50815b6108e08482610f29565b6108ea81866110cf565b949350505050565b60606001805461044090611961565b6107a8338383611134565b6109163383610be8565b6109885760405162461bcd60e51b815260206004820152602d60248201527f4552433732313a2063616c6c6572206973206e6f7420746f6b656e206f776e6560448201527f72206f7220617070726f76656400000000000000000000000000000000000000606482015260840161057a565b61099484848484611202565b50505050565b6000818152600260205260409020546060906001600160a01b03166109ea5760405162461bcd60e51b815260206004820152600660248201526508595e1a5cdd60d21b604482015260640161057a565b60008281526008602052604081208054610a0390611961565b80601f0160208091040260200160405190810160405280929190818152602001828054610a2f90611961565b8015610a7c5780601f10610a5157610100808354040283529160200191610a7c565b820191906000526020600020905b815481529060010190602001808311610a5f57829003601f168201915b505050505090506000610a8d61128b565b90508051600003610a9f575092915050565b815115610ad1578082604051602001610ab9929190611aee565b60405160208183030381529060405292505050919050565b80610adb8561129a565b604051602001610ab9929190611aee565b6000818152600260205260408120546001600160a01b031661040a565b6000818152600260205260409020546001600160a01b03166106e95760405162461bcd60e51b815260206004820152601860248201527f4552433732313a20696e76616c696420746f6b656e2049440000000000000000604482015260640161057a565b6000818152600460205260409020805473ffffffffffffffffffffffffffffffffffffffff19166001600160a01b0384169081179091558190610baf826107ac565b6001600160a01b03167f8c5be1e5ebec7d5bd14f71427d1e84f3dd0314c0f7b2291e5b200ac8c7c3b92560405160405180910390a45050565b600080610bf4836107ac565b9050806001600160a01b0316846001600160a01b03161480610c3b57506001600160a01b0380821660009081526005602090815260408083209388168352929052205460ff165b806108ea5750836001600160a01b0316610c54846104c3565b6001600160a01b031614949350505050565b826001600160a01b0316610c79826107ac565b6001600160a01b031614610cdd5760405162461bcd60e51b815260206004820152602560248201527f4552433732313a207472616e736665722066726f6d20696e636f72726563742060448201526437bbb732b960d91b606482015260840161057a565b6001600160a01b038216610d585760405162461bcd60e51b8152602060048201526024808201527f4552433732313a207472616e7366657220746f20746865207a65726f2061646460448201527f7265737300000000000000000000000000000000000000000000000000000000606482015260840161057a565b610d65838383600161133a565b826001600160a01b0316610d78826107ac565b6001600160a01b031614610ddc5760405162461bcd60e51b815260206004820152602560248201527f4552433732313a207472616e736665722066726f6d20696e636f72726563742060448201526437bbb732b960d91b606482015260840161057a565b6000818152600460209081526040808320805473ffffffffffffffffffffffffffffffffffffffff199081169091556001600160a01b0387811680865260038552838620805460001901905590871680865283862080546001019055868652600290945282852080549092168417909155905184937fddf252ad1be2c89b69c2b068fc378daa952ba7f163c4a11628f55a4df523b3ef91a4505050565b6000610e84826107ac565b9050610e9481600084600161133a565b610e9d826107ac565b6000838152600460209081526040808320805473ffffffffffffffffffffffffffffffffffffffff199081169091556001600160a01b0385168085526003845282852080546000190190558785526002909352818420805490911690555192935084927fddf252ad1be2c89b69c2b068fc378daa952ba7f163c4a11628f55a4df523b3ef908390a45050565b6001600160a01b038216610f7f5760405162461bcd60e51b815260206004820181905260248201527f4552433732313a206d696e7420746f20746865207a65726f2061646472657373604482015260640161057a565b6000818152600260205260409020546001600160a01b031615610fe45760405162461bcd60e51b815260206004820152601c60248201527f4552433732313a20746f6b656e20616c7265616479206d696e74656400000000604482015260640161057a565b610ff260008383600161133a565b6000818152600260205260409020546001600160a01b0316156110575760405162461bcd60e51b815260206004820152601c60248201527f4552433732313a20746f6b656e20616c7265616479206d696e74656400000000604482015260640161057a565b6001600160a01b0382166000818152600360209081526040808320805460010190558483526002909152808220805473ffffffffffffffffffffffffffffffffffffffff19168417905551839291907fddf252ad1be2c89b69c2b068fc378daa952ba7f163c4a11628f55a4df523b3ef908290a45050565b6000828152600260205260409020546001600160a01b031661111c5760405162461bcd60e51b815260206004820152600660248201526508595e1a5cdd60d21b604482015260640161057a565b60008281526008602052604090206106398282611a2e565b816001600160a01b0316836001600160a01b0316036111955760405162461bcd60e51b815260206004820152601960248201527f4552433732313a20617070726f766520746f2063616c6c657200000000000000604482015260640161057a565b6001600160a01b03838116600081815260056020908152604080832094871680845294825291829020805460ff191686151590811790915591519182527f17307eab39ab6107e8899845ad3d59bd9653f200f220920489ca2b5937696c31910160405180910390a3505050565b61120d848484610c66565b611219848484846113c2565b6109945760405162461bcd60e51b815260206004820152603260248201527f4552433732313a207472616e7366657220746f206e6f6e20455243373231526560448201527f63656976657220696d706c656d656e7465720000000000000000000000000000606482015260840161057a565b60606009805461044090611961565b606060006112a783611519565b600101905060008167ffffffffffffffff8111156112c7576112c7611733565b6040519080825280601f01601f1916602001820160405280156112f1576020820181803683370190505b5090508181016020015b600019017f3031323334353637383961626364656600000000000000000000000000000000600a86061a8153600a85049450846112fb57509392505050565b6001811115610994576001600160a01b03841615611380576001600160a01b0384166000908152600360205260408120805483929061137a908490611b1d565b90915550505b6001600160a01b03831615610994576001600160a01b038316600090815260036020526040812080548392906113b7908490611b30565b909155505050505050565b60006001600160a01b0384163b1561150e57604051630a85bd0160e11b81526001600160a01b0385169063150b7a0290611406903390899088908890600401611b43565b6020604051808303816000875af1925050508015611441575060408051601f3d908101601f1916820190925261143e91810190611b7f565b60015b6114f4573d80801561146f576040519150601f19603f3d011682016040523d82523d6000602084013e611474565b606091505b5080516000036114ec5760405162461bcd60e51b815260206004820152603260248201527f4552433732313a207472616e7366657220746f206e6f6e20455243373231526560448201527f63656976657220696d706c656d656e7465720000000000000000000000000000606482015260840161057a565b805181602001fd5b6001600160e01b031916630a85bd0160e11b1490506108ea565b506001949350505050565b6000807a184f03e93ff9f4daa797ed6e38ed64bf6a1f0100000000000000008310611562577a184f03e93ff9f4daa797ed6e38ed64bf6a1f010000000000000000830492506040015b6d04ee2d6d415b85acef8100000000831061158e576d04ee2d6d415b85acef8100000000830492506020015b662386f26fc1000083106115ac57662386f26fc10000830492506010015b6305f5e10083106115c4576305f5e100830492506008015b61271083106115d857612710830492506004015b606483106115ea576064830492506002015b600a831061040a5760010192915050565b6001600160e01b0319811681146106e957600080fd5b60006020828403121561162357600080fd5b813561162e816115fb565b9392505050565b60006020828403121561164757600080fd5b5035919050565b60005b83811015611669578181015183820152602001611651565b50506000910152565b6000815180845261168a81602086016020860161164e565b601f01601f19169290920160200192915050565b60208152600061162e6020830184611672565b80356001600160a01b03811681146116c857600080fd5b919050565b600080604083850312156116e057600080fd5b6116e9836116b1565b946020939093013593505050565b60008060006060848603121561170c57600080fd5b611715846116b1565b9250611723602085016116b1565b9150604084013590509250925092565b634e487b7160e01b600052604160045260246000fd5b600067ffffffffffffffff8084111561176457611764611733565b604051601f8501601f19908116603f0116810190828211818310171561178c5761178c611733565b816040528093508581528686860111156117a557600080fd5b858560208301376000602087830101525050509392505050565b600082601f8301126117d057600080fd5b61162e83833560208501611749565b6000602082840312156117f157600080fd5b813567ffffffffffffffff81111561180857600080fd5b6108ea848285016117bf565b60006020828403121561182657600080fd5b61162e826116b1565b60008060006060848603121561184457600080fd5b833567ffffffffffffffff81111561185b57600080fd5b611867868287016117bf565b935050611723602085016116b1565b6000806040838503121561188957600080fd5b611892836116b1565b9150602083013580151581146118a757600080fd5b809150509250929050565b600080600080608085870312156118c857600080fd5b6118d1856116b1565b93506118df602086016116b1565b925060408501359150606085013567ffffffffffffffff81111561190257600080fd5b8501601f8101871361191357600080fd5b61192287823560208401611749565b91505092959194509250565b6000806040838503121561194157600080fd5b61194a836116b1565b9150611958602084016116b1565b90509250929050565b600181811c9082168061197557607f821691505b60208210810361199557634e487b7160e01b600052602260045260246000fd5b50919050565b634e487b7160e01b600052603260045260246000fd5b634e487b7160e01b600052601160045260246000fd5b6000600182016119d9576119d96119b1565b5060010190565b601f82111561063957600081815260208120601f850160051c81016020861015611a075750805b601f850160051c820191505b81811015611a2657828155600101611a13565b505050505050565b815167ffffffffffffffff811115611a4857611a48611733565b611a5c81611a568454611961565b846119e0565b602080601f831160018114611a915760008415611a795750858301515b600019600386901b1c1916600185901b178555611a26565b600085815260208120601f198616915b82811015611ac057888601518255948401946001909101908401611aa1565b5085821015611ade5787850151600019600388901b60f8161c191681555b5050505050600190811b01905550565b60008351611b0081846020880161164e565b835190830190611b1481836020880161164e565b01949350505050565b8181038181111561040a5761040a6119b1565b8082018082111561040a5761040a6119b1565b60006001600160a01b03808716835280861660208401525083604083015260806060830152611b756080830184611672565b9695505050505050565b600060208284031215611b9157600080fd5b815161162e816115fb56fea2646970667358221220d4730fde1213bebedbb17fa058318ed39a64fe70ad85354b5dba30e3ceeca0f464736f6c63430008100033a264697066735822122080dcbbb9a0a21add6f56b299b10f70b3fd1800877904d03bd556a7bfa239d40464736f6c63430008100033",
  "immutableReferences": {},
  "source": "// SPDX-License-Identifier: GPL-3.0\npragma solidity >=0.7.0 <0.9.0;\n\nimport {MultiERC721} from \"./MultiERC721.sol\";\nimport {Events} from \"./libraries/Events.sol\";\nimport {CallProxy} from \"./interfaces/CallProxy.sol\";\n\ncontract CrossArt {\n    address private _deployer;\n    uint private _thisChainId;\n\n    // anycall contracts mapped to chainId\n    address public _anycallcontract;\n\n    // destinations contract\n    mapping(uint => address) public destinations;\n\n    // creator => nft contract addresses\n    mapping(address => address[]) public creators;\n\n    // nft contract address => collection metadata\n    mapping(address => Collection) public collections;\n\n    // mapping nft contractAddress from\n    mapping(address => address) private nftMaps;\n\n    struct Collection {\n        address[] whiteList;\n        address[] blackList;\n        bool isWhiteSystem;\n        uint256 mintPrice;\n        uint chainId;\n        string cover;\n        string avatar;\n    }\n\n    receive() external payable {}\n\n    fallback() external payable {}\n\n    constructor(address anycallcontract) {\n        _anycallcontract = anycallcontract;\n        _deployer = msg.sender;\n    }\n\n    function deploy(\n        string memory name,\n        string memory symbol,\n        uint[] memory supportedChains,\n        address[] memory whiteList,\n        address[] memory blackList,\n        bool isWhiteSystem,\n        uint256 mintPrice,\n        string memory cover,\n        string memory avatar\n    ) public {\n        MultiERC721 nft = new MultiERC721(\n            name,\n            symbol,\n            supportedChains,\n            _thisChainId,\n            msg.sender\n        );\n\n        collections[address(nft)] = Collection(\n            whiteList,\n            blackList,\n            isWhiteSystem,\n            mintPrice,\n            _thisChainId,\n            cover,\n            avatar\n        );\n\n        emit Events.NftDeployed(\n            address(nft),\n            supportedChains,\n            msg.sender,\n            _thisChainId\n        );\n    }\n\n    function mint(string memory uri, address contractAddress) public payable {\n        MultiERC721 nft = MultiERC721(contractAddress);\n        Collection memory collection = collections[contractAddress];\n\n        if (msg.sender != nft.getCreator()) {\n            require(\n                msg.value >= collection.mintPrice,\n                \"Insuficient Mint Amount\"\n            );\n\n            if (collection.isWhiteSystem) {\n                bool eligible = _isEligble(\n                    msg.sender,\n                    collection.whiteList,\n                    collection.blackList\n                );\n                require(eligible, \"You're not eligible\");\n            }\n        }\n\n        uint tokenID = nft.mint(uri, msg.sender, 0);\n\n        emit Events.NftMinted(contractAddress, tokenID);\n    }\n\n    function bridge(\n        uint tokenID,\n        address contractAddress,\n        uint destinationChainId\n    ) public payable {\n        MultiERC721 nft = MultiERC721(contractAddress);\n        require(\n            nft.isChainSupported(destinationChainId),\n            \"unsupported destination chain\"\n        );\n\n        require(\n            msg.sender == nft.holderOf(tokenID),\n            \"you cant bridge this token\"\n        );\n\n        string memory uri = nft.tokenURI(tokenID);\n\n        bytes memory data = abi.encode(\n            address(nft),\n            uri,\n            tokenID,\n            nft.holderOf(tokenID)\n        );\n\n        // burn token on originated chain\n        nft.burn(tokenID);\n\n        // cross-chain message to mint same token\n        // on destination chain\n        CallProxy(_anycallcontract).anyCall{value: msg.value}(\n            destinations[destinationChainId],\n            // sending the encoded bytes of the string uri and decode on the destination chain\n            data,\n            destinationChainId,\n            // Using 0 flag to pay fee on the source chain\n            0,\n            \"\"\n        );\n    }\n\n    function anyExecute(\n        bytes memory _data\n    ) external returns (bool success, bytes memory result) {\n        (\n            address contractAddress,\n            string memory uri,\n            uint256 tokenID,\n            address holder\n        ) = abi.decode(_data, (address, string, uint256, address));\n\n        uint[] memory sc;\n\n        // if (!exists) {\n        MultiERC721 nft = new MultiERC721(\"Sample\", \"SMP\", sc, 1, address(0));\n\n\n        success = true;\n        result = \"\";\n    }\n\n    function _isEligble(\n        address minter,\n        address[] memory whiteList,\n        address[] memory blackList\n    ) private pure returns (bool) {\n        for (uint index = 0; index < blackList.length; index++) {\n            if (minter == blackList[index]) {\n                return false;\n            }\n        }\n        for (uint index = 0; index < whiteList.length; index++) {\n            if (minter == whiteList[index]) {\n                return true;\n            }\n        }\n        return false;\n    }\n\n    function addChain(\n        uint chainId,\n        address contractAddress\n    ) public onlyDeployer {\n        destinations[chainId] = contractAddress;\n    }\n\n    event Desposit(address account, uint256 amount);\n\n    modifier onlyDeployer() {\n        require(msg.sender == _deployer, \"only owner can call this method\");\n        _;\n    }\n}\n",
  "sourcePath": "C:\\Users\\Arogundade Ibrahim\\documents\\web3\\crossart\\contracts\\CrossArt.sol",
  "compiler": {
    "name": "solc",
    "version": "0.8.16+commit.07a7930e.Emscripten.clang"
  },
  "schemaVersion": "3.4.10",
  "updatedAt": "2022-12-11T11:08:32.208Z",
  "devdoc": {
    "kind": "dev",
    "methods": {},
    "version": 1
  },
  "userdoc": {
    "kind": "user",
    "methods": {},
    "version": 1
  }
}