{
  "contractName": "CrossArt",
  "abi": [
    {
      "inputs": [
        {
          "internalType": "address",
          "name": "anycallcontract",
          "type": "address"
        },
        {
          "internalType": "uint256",
          "name": "chainId",
          "type": "uint256"
        }
      ],
      "stateMutability": "nonpayable",
      "type": "constructor"
    },
    {
      "anonymous": false,
      "inputs": [
        {
          "indexed": false,
          "internalType": "address",
          "name": "account",
          "type": "address"
        },
        {
          "indexed": false,
          "internalType": "uint256",
          "name": "amount",
          "type": "uint256"
        }
      ],
      "name": "Desposit",
      "type": "event"
    },
    {
      "stateMutability": "payable",
      "type": "fallback"
    },
    {
      "inputs": [],
      "name": "_anycallcontract",
      "outputs": [
        {
          "internalType": "address",
          "name": "",
          "type": "address"
        }
      ],
      "stateMutability": "view",
      "type": "function"
    },
    {
      "inputs": [
        {
          "internalType": "address",
          "name": "",
          "type": "address"
        }
      ],
      "name": "collections",
      "outputs": [
        {
          "internalType": "bool",
          "name": "isWhiteSystem",
          "type": "bool"
        },
        {
          "internalType": "uint256",
          "name": "mintPrice",
          "type": "uint256"
        },
        {
          "internalType": "uint256",
          "name": "chainId",
          "type": "uint256"
        },
        {
          "internalType": "string",
          "name": "cover",
          "type": "string"
        },
        {
          "internalType": "string",
          "name": "avatar",
          "type": "string"
        }
      ],
      "stateMutability": "view",
      "type": "function"
    },
    {
      "inputs": [
        {
          "internalType": "address",
          "name": "",
          "type": "address"
        },
        {
          "internalType": "uint256",
          "name": "",
          "type": "uint256"
        }
      ],
      "name": "creators",
      "outputs": [
        {
          "internalType": "address",
          "name": "",
          "type": "address"
        }
      ],
      "stateMutability": "view",
      "type": "function"
    },
    {
      "inputs": [
        {
          "internalType": "uint256",
          "name": "",
          "type": "uint256"
        }
      ],
      "name": "destinations",
      "outputs": [
        {
          "internalType": "address",
          "name": "",
          "type": "address"
        }
      ],
      "stateMutability": "view",
      "type": "function"
    },
    {
      "stateMutability": "payable",
      "type": "receive"
    },
    {
      "inputs": [
        {
          "internalType": "string",
          "name": "name",
          "type": "string"
        },
        {
          "internalType": "string",
          "name": "symbol",
          "type": "string"
        },
        {
          "internalType": "uint256[]",
          "name": "supportedChains",
          "type": "uint256[]"
        },
        {
          "internalType": "address[]",
          "name": "whiteList",
          "type": "address[]"
        },
        {
          "internalType": "address[]",
          "name": "blackList",
          "type": "address[]"
        },
        {
          "internalType": "bool",
          "name": "isWhiteSystem",
          "type": "bool"
        },
        {
          "internalType": "uint256",
          "name": "mintPrice",
          "type": "uint256"
        },
        {
          "internalType": "string",
          "name": "cover",
          "type": "string"
        },
        {
          "internalType": "string",
          "name": "avatar",
          "type": "string"
        }
      ],
      "name": "deploy",
      "outputs": [],
      "stateMutability": "nonpayable",
      "type": "function"
    },
    {
      "inputs": [
        {
          "internalType": "string",
          "name": "uri",
          "type": "string"
        },
        {
          "internalType": "address",
          "name": "contractAddress",
          "type": "address"
        }
      ],
      "name": "mint",
      "outputs": [],
      "stateMutability": "payable",
      "type": "function"
    },
    {
      "inputs": [
        {
          "internalType": "uint256",
          "name": "tokenID",
          "type": "uint256"
        },
        {
          "internalType": "address",
          "name": "contractAddress",
          "type": "address"
        },
        {
          "internalType": "uint256",
          "name": "destinationChainId",
          "type": "uint256"
        }
      ],
      "name": "bridge",
      "outputs": [],
      "stateMutability": "payable",
      "type": "function"
    },
    {
      "inputs": [
        {
          "internalType": "bytes",
          "name": "_data",
          "type": "bytes"
        }
      ],
      "name": "anyExecute",
      "outputs": [
        {
          "internalType": "bool",
          "name": "success",
          "type": "bool"
        },
        {
          "internalType": "bytes",
          "name": "result",
          "type": "bytes"
        }
      ],
      "stateMutability": "nonpayable",
      "type": "function"
    },
    {
      "inputs": [
        {
          "internalType": "uint256",
          "name": "chainId",
          "type": "uint256"
        },
        {
          "internalType": "address",
          "name": "contractAddress",
          "type": "address"
        }
      ],
      "name": "addChain",
      "outputs": [],
      "stateMutability": "nonpayable",
      "type": "function"
    }
  ],
  "bytecode": "0x608060405234801561001057600080fd5b506040516200420e3803806200420e83398101604081905261003191610062565b600280546001600160a01b039093166001600160a01b0319938416179055600155600080549091163317905561009c565b6000806040838503121561007557600080fd5b82516001600160a01b038116811461008c57600080fd5b6020939093015192949293505050565b61416280620000ac6000396000f3fe6080604052600436106200009d5760003560e01c80638dd4ba2e116200006b578063a44543401162000051578063a445434014620001c3578063f0d148d414620001e8578063fef54ec8146200020d57005b80638dd4ba2e146200013b5780639abaf479146200018e57005b80631c351a9d14620000a75780632f820a5f14620000be57806343add2e614620000d55780635303942b146200011657005b36620000a557005b005b620000a5620000b836600462001516565b6200022f565b620000a5620000cf3660046200156e565b62000685565b348015620000e257600080fd5b50620000fa620000f4366004620015a9565b62000c61565b6040516200010d9594939291906200161d565b60405180910390f35b3480156200012357600080fd5b50620000a56200013536600462001666565b62000dba565b3480156200014857600080fd5b50620001756200015a3660046200168e565b6003602052600090815260409020546001600160a01b031681565b6040516001600160a01b0390911681526020016200010d565b3480156200019b57600080fd5b50620001b3620001ad366004620016a8565b62000e51565b6040516200010d929190620016fe565b348015620001d057600080fd5b5062000175620001e23660046200171b565b62001082565b348015620001f557600080fd5b50620000a5620002073660046200186c565b620010bb565b3480156200021a57600080fd5b5060025462000175906001600160a01b031681565b6001600160a01b0381166000908152600560209081526040808320815181546101009481028201850190935260e0810183815286959491938492849190840182828015620002a757602002820191906000526020600020905b81546001600160a01b0316815260019091019060200180831162000288575b50505050508152602001600182018054806020026020016040519081016040528092919081815260200182805480156200030b57602002820191906000526020600020905b81546001600160a01b03168152600190910190602001808311620002ec575b5050509183525050600282015460ff161515602082015260038201546040820152600482015460608201526005820180546080909201916200034d90620019ba565b80601f01602080910402602001604051908101604052809291908181526020018280546200037b90620019ba565b8015620003cc5780601f10620003a057610100808354040283529160200191620003cc565b820191906000526020600020905b815481529060010190602001808311620003ae57829003601f168201915b50505050508152602001600682018054620003e790620019ba565b80601f01602080910402602001604051908101604052809291908181526020018280546200041590620019ba565b8015620004665780601f106200043a5761010080835404028352916020019162000466565b820191906000526020600020905b8154815290600101906020018083116200044857829003601f168201915b5050505050815250509050816001600160a01b03166302d05d3f6040518163ffffffff1660e01b8152600401602060405180830381865afa158015620004b0573d6000803e3d6000fd5b505050506040513d601f19601f82011682018060405250810190620004d69190620019f6565b6001600160a01b0316336001600160a01b031614620005be578060600151341015620005495760405162461bcd60e51b815260206004820152601760248201527f496e737566696369656e74204d696e7420416d6f756e7400000000000000000060448201526064015b60405180910390fd5b806040015115620005be5760006200056b3383600001518460200151620012b1565b905080620005bc5760405162461bcd60e51b815260206004820152601360248201527f596f75277265206e6f7420656c696769626c6500000000000000000000000000604482015260640162000540565b505b604051637e8816b960e01b81526000906001600160a01b03841690637e8816b990620005f39088903390869060040162001a16565b6020604051808303816000875af115801562000613573d6000803e3d6000fd5b505050506040513d601f19601f8201168201806040525081019062000639919062001a46565b604080516001600160a01b0387168152602081018390529192507ff2b290a76feb54be358b555507421d765609171aefa0646f109a653228ff81b8910160405180910390a15050505050565b6040517f5221c1f00000000000000000000000000000000000000000000000000000000081526004810182905282906001600160a01b03821690635221c1f090602401602060405180830381865afa158015620006e6573d6000803e3d6000fd5b505050506040513d601f19601f820116820180604052508101906200070c919062001a60565b6200075a5760405162461bcd60e51b815260206004820152601d60248201527f756e737570706f727465642064657374696e6174696f6e20636861696e000000604482015260640162000540565b60405163dbacc23760e01b8152600481018590526001600160a01b0382169063dbacc23790602401602060405180830381865afa158015620007a0573d6000803e3d6000fd5b505050506040513d601f19601f82011682018060405250810190620007c69190620019f6565b6001600160a01b0316336001600160a01b031614620008285760405162461bcd60e51b815260206004820152601a60248201527f796f752063616e7420627269646765207468697320746f6b656e000000000000604482015260640162000540565b6000816001600160a01b031663b0fa84446040518163ffffffff1660e01b8152600401602060405180830381865afa15801562000869573d6000803e3d6000fd5b505050506040513d601f19601f820116820180604052508101906200088f9190620019f6565b6040517fc87b56dd000000000000000000000000000000000000000000000000000000008152600481018790526001600160a01b0384169063c87b56dd90602401600060405180830381865afa158015620008ee573d6000803e3d6000fd5b505050506040513d6000823e601f3d908101601f1916820160405262000918919081019062001acc565b836001600160a01b03166306fdde036040518163ffffffff1660e01b8152600401600060405180830381865afa15801562000957573d6000803e3d6000fd5b505050506040513d6000823e601f3d908101601f1916820160405262000981919081019062001acc565b846001600160a01b03166395d89b416040518163ffffffff1660e01b8152600401600060405180830381865afa158015620009c0573d6000803e3d6000fd5b505050506040513d6000823e601f3d908101601f19168201604052620009ea919081019062001acc565b856001600160a01b031663816949b56040518163ffffffff1660e01b8152600401600060405180830381865afa15801562000a29573d6000803e3d6000fd5b505050506040513d6000823e601f3d908101601f1916820160405262000a53919081019062001b67565b866001600160a01b03166302d05d3f6040518163ffffffff1660e01b8152600401602060405180830381865afa15801562000a92573d6000803e3d6000fd5b505050506040513d601f19601f8201168201806040525081019062000ab89190620019f6565b60405163dbacc23760e01b8152600481018c90528b906001600160a01b038a169063dbacc23790602401602060405180830381865afa15801562000b00573d6000803e3d6000fd5b505050506040513d601f19601f8201168201806040525081019062000b269190620019f6565b60405160200162000b3f98979695949392919062001bdd565b60408051808303601f19018152908290527f42966c680000000000000000000000000000000000000000000000000000000082526004820187905291506001600160a01b038316906342966c6890602401600060405180830381600087803b15801562000bab57600080fd5b505af115801562000bc0573d6000803e3d6000fd5b50506002546000868152600360205260408082205490517f1979a2840000000000000000000000000000000000000000000000000000000081526001600160a01b039384169550631979a2849450349362000c269392169187918a919060040162001c68565b6000604051808303818588803b15801562000c4057600080fd5b505af115801562000c55573d6000803e3d6000fd5b50505050505050505050565b6005602081905260009182526040909120600281015460038201546004830154938301805460ff909316949193919262000c9b90620019ba565b80601f016020809104026020016040519081016040528092919081815260200182805462000cc990620019ba565b801562000d1a5780601f1062000cee5761010080835404028352916020019162000d1a565b820191906000526020600020905b81548152906001019060200180831162000cfc57829003601f168201915b50505050509080600601805462000d3190620019ba565b80601f016020809104026020016040519081016040528092919081815260200182805462000d5f90620019ba565b801562000db05780601f1062000d845761010080835404028352916020019162000db0565b820191906000526020600020905b81548152906001019060200180831162000d9257829003601f168201915b5050505050905085565b6000546001600160a01b0316331462000e165760405162461bcd60e51b815260206004820152601f60248201527f6f6e6c79206f776e65722063616e2063616c6c2074686973206d6574686f6400604482015260640162000540565b600091825260036020526040909120805473ffffffffffffffffffffffffffffffffffffffff19166001600160a01b03909216919091179055565b600060606000806000806000806000808a80602001905181019062000e77919062001cc0565b975097509750975097509750975097506000806001600160a01b0316600660008b6001600160a01b03166001600160a01b0316815260200190815260200160002060009054906101000a90046001600160a01b03166001600160a01b0316141590506000811562000f0457506001600160a01b03808a166000908152600660205260409020541662000fe4565b8787876001548860405162000f199062001386565b62000f2995949392919062001dbc565b604051809103906000f08015801562000f46573d6000803e3d6000fd5b506040516322fd66c760e11b81526001600160a01b038c81166004830152919250908216906345facd8e90602401600060405180830381600087803b15801562000f8f57600080fd5b505af115801562000fa4573d6000803e3d6000fd5b505050506001600160a01b038a81166000908152600660205260409020805473ffffffffffffffffffffffffffffffffffffffff19169183169190911790555b604051637e8816b960e01b81526001600160a01b03821690637e8816b99062001016908c908790899060040162001a16565b6020604051808303816000875af115801562001036573d6000803e3d6000fd5b505050506040513d601f19601f820116820180604052508101906200105c919062001a46565b5060019b50604051806020016040528060008152509a5050505050505050505050915091565b600460205281600052604060002081815481106200109f57600080fd5b6000918252602090912001546001600160a01b03169150829050565b600089898960015433604051620010d29062001386565b620010e295949392919062001dbc565b604051809103906000f080158015620010ff573d6000803e3d6000fd5b506040516322fd66c760e11b81526001600160a01b038216600482018190529192506345facd8e90602401600060405180830381600087803b1580156200114557600080fd5b505af11580156200115a573d6000803e3d6000fd5b5050506001600160a01b0382166000818152600660209081526040808320805473ffffffffffffffffffffffffffffffffffffffff191685179055805160e0810182528c81528083018c90528a151581830152606081018a9052600154608082015260a0810189905260c0810188905293835260058252909120825180519394509092620011ec928492019062001394565b50602082810151805162001207926001850192019062001394565b50604082015160028201805460ff1916911515919091179055606082015160038201556080820151600482015560a082015160058201906200124a908262001e70565b5060c0820151600682019062001261908262001e70565b50506001546040517f8baa818f291b101444be572d3388b299fba3f296a3d467e084c0dc52b6dc80f692506200129d9184918c91339162001f3d565b60405180910390a150505050505050505050565b6000805b82518110156200131557828181518110620012d457620012d462001f74565b60200260200101516001600160a01b0316856001600160a01b031603620013005760009150506200137f565b806200130c8162001f8a565b915050620012b5565b5060005b8351811015620013795783818151811062001338576200133862001f74565b60200260200101516001600160a01b0316856001600160a01b031603620013645760019150506200137f565b80620013708162001f8a565b91505062001319565b50600090505b9392505050565b61217a8062001fb383390190565b828054828255906000526020600020908101928215620013f9579160200282015b82811115620013f9578251825473ffffffffffffffffffffffffffffffffffffffff19166001600160a01b03909116178255602090920191600190910190620013b5565b50620014079291506200140b565b5090565b5b808211156200140757600081556001016200140c565b634e487b7160e01b600052604160045260246000fd5b604051601f8201601f1916810167ffffffffffffffff8111828210171562001464576200146462001422565b604052919050565b600067ffffffffffffffff82111562001489576200148962001422565b50601f01601f191660200190565b6000620014ae620014a8846200146c565b62001438565b9050828152838383011115620014c357600080fd5b828260208301376000602084830101529392505050565b600082601f830112620014ec57600080fd5b6200137f8383356020850162001497565b6001600160a01b03811681146200151357600080fd5b50565b600080604083850312156200152a57600080fd5b823567ffffffffffffffff8111156200154257600080fd5b6200155085828601620014da565b92505060208301356200156381620014fd565b809150509250929050565b6000806000606084860312156200158457600080fd5b8335925060208401356200159881620014fd565b929592945050506040919091013590565b600060208284031215620015bc57600080fd5b81356200137f81620014fd565b60005b83811015620015e6578181015183820152602001620015cc565b50506000910152565b6000815180845262001609816020860160208601620015c9565b601f01601f19169290920160200192915050565b851515815284602082015283604082015260a0606082015260006200164660a0830185620015ef565b82810360808401526200165a8185620015ef565b98975050505050505050565b600080604083850312156200167a57600080fd5b8235915060208301356200156381620014fd565b600060208284031215620016a157600080fd5b5035919050565b600060208284031215620016bb57600080fd5b813567ffffffffffffffff811115620016d357600080fd5b8201601f81018413620016e557600080fd5b620016f68482356020840162001497565b949350505050565b8215158152604060208201526000620016f66040830184620015ef565b600080604083850312156200172f57600080fd5b82356200173c81620014fd565b946020939093013593505050565b600067ffffffffffffffff82111562001767576200176762001422565b5060051b60200190565b600082601f8301126200178357600080fd5b8135602062001796620014a8836200174a565b82815260059290921b84018101918181019086841115620017b657600080fd5b8286015b84811015620017d35780358352918301918301620017ba565b509695505050505050565b600082601f830112620017f057600080fd5b8135602062001803620014a8836200174a565b82815260059290921b840181019181810190868411156200182357600080fd5b8286015b84811015620017d35780356200183d81620014fd565b835291830191830162001827565b80151581146200151357600080fd5b803562001867816200184b565b919050565b60008060008060008060008060006101208a8c0312156200188c57600080fd5b893567ffffffffffffffff80821115620018a557600080fd5b620018b38d838e01620014da565b9a5060208c0135915080821115620018ca57600080fd5b620018d88d838e01620014da565b995060408c0135915080821115620018ef57600080fd5b620018fd8d838e0162001771565b985060608c01359150808211156200191457600080fd5b620019228d838e01620017de565b975060808c01359150808211156200193957600080fd5b620019478d838e01620017de565b96506200195760a08d016200185a565b955060c08c0135945060e08c01359150808211156200197557600080fd5b620019838d838e01620014da565b93506101008c01359150808211156200199b57600080fd5b50620019aa8c828d01620014da565b9150509295985092959850929598565b600181811c90821680620019cf57607f821691505b602082108103620019f057634e487b7160e01b600052602260045260246000fd5b50919050565b60006020828403121562001a0957600080fd5b81516200137f81620014fd565b60608152600062001a2b6060830186620015ef565b6001600160a01b039490941660208301525060400152919050565b60006020828403121562001a5957600080fd5b5051919050565b60006020828403121562001a7357600080fd5b81516200137f816200184b565b600082601f83011262001a9257600080fd5b815162001aa3620014a8826200146c565b81815284602083860101111562001ab957600080fd5b620016f6826020830160208701620015c9565b60006020828403121562001adf57600080fd5b815167ffffffffffffffff81111562001af757600080fd5b620016f68482850162001a80565b600082601f83011262001b1757600080fd5b8151602062001b2a620014a8836200174a565b82815260059290921b8401810191818101908684111562001b4a57600080fd5b8286015b84811015620017d3578051835291830191830162001b4e565b60006020828403121562001b7a57600080fd5b815167ffffffffffffffff81111562001b9257600080fd5b620016f68482850162001b05565b600081518084526020808501945080840160005b8381101562001bd25781518752958201959082019060010162001bb4565b509495945050505050565b60006101006001600160a01b03808c16845281602085015262001c038285018c620015ef565b9150838203604085015262001c19828b620015ef565b9150838203606085015262001c2f828a620015ef565b9150838203608085015262001c45828962001ba0565b96811660a085015260c08401959095525050911660e09091015295945050505050565b6001600160a01b038516815260a06020820152600062001c8c60a0830186620015ef565b60408301949094525060608101919091528082036080909101526000815260200192915050565b80516200186781620014fd565b600080600080600080600080610100898b03121562001cde57600080fd5b62001ce98962001cb3565b9750602089015167ffffffffffffffff8082111562001d0757600080fd5b62001d158c838d0162001a80565b985060408b015191508082111562001d2c57600080fd5b62001d3a8c838d0162001a80565b975060608b015191508082111562001d5157600080fd5b62001d5f8c838d0162001a80565b965060808b015191508082111562001d7657600080fd5b5062001d858b828c0162001b05565b94505062001d9660a08a0162001cb3565b925060c0890151915062001dad60e08a0162001cb3565b90509295985092959890939650565b60a08152600062001dd160a0830188620015ef565b828103602084015262001de58188620015ef565b9050828103604084015262001dfb818762001ba0565b9150508360608301526001600160a01b03831660808301529695505050505050565b601f82111562001e6b57600081815260208120601f850160051c8101602086101562001e465750805b601f850160051c820191505b8181101562001e675782815560010162001e52565b5050505b505050565b815167ffffffffffffffff81111562001e8d5762001e8d62001422565b62001ea58162001e9e8454620019ba565b8462001e1d565b602080601f83116001811462001edd576000841562001ec45750858301515b600019600386901b1c1916600185901b17855562001e67565b600085815260208120601f198616915b8281101562001f0e5788860151825594840194600190910190840162001eed565b508582101562001f2d5787850151600019600388901b60f8161c191681555b5050505050600190811b01905550565b60006001600160a01b0380871683526080602084015262001f62608084018762001ba0565b94166040830152506060015292915050565b634e487b7160e01b600052603260045260246000fd5b60006001820162001fab57634e487b7160e01b600052601160045260246000fd5b506001019056fe608060405260006007553480156200001657600080fd5b506040516200217a3803806200217a8339810160408190526200003991620001f6565b848460006200004983826200039f565b5060016200005882826200039f565b5050600680546001600160a01b0319166001600160a01b03841617905550600a82905582516200009090600c9060208601906200009c565b5050505050506200046b565b828054828255906000526020600020908101928215620000da579160200282015b82811115620000da578251825591602001919060010190620000bd565b50620000e8929150620000ec565b5090565b5b80821115620000e85760008155600101620000ed565b634e487b7160e01b600052604160045260246000fd5b604051601f8201601f191681016001600160401b038111828210171562000144576200014462000103565b604052919050565b600082601f8301126200015e57600080fd5b81516001600160401b038111156200017a576200017a62000103565b602062000190601f8301601f1916820162000119565b8281528582848701011115620001a557600080fd5b60005b83811015620001c5578581018301518282018401528201620001a8565b506000928101909101919091529392505050565b80516001600160a01b0381168114620001f157600080fd5b919050565b600080600080600060a086880312156200020f57600080fd5b85516001600160401b03808211156200022757600080fd5b6200023589838a016200014c565b96506020915081880151818111156200024d57600080fd5b6200025b8a828b016200014c565b9650506040880151818111156200027157600080fd5b8801601f81018a136200028357600080fd5b80518281111562000298576200029862000103565b8060051b9250620002ab84840162000119565b818152928201840192848101908c851115620002c657600080fd5b928501925b84841015620002e657835182529285019290850190620002cb565b809850505050505050606086015191506200030460808701620001d9565b90509295509295909350565b600181811c908216806200032557607f821691505b6020821081036200034657634e487b7160e01b600052602260045260246000fd5b50919050565b601f8211156200039a57600081815260208120601f850160051c81016020861015620003755750805b601f850160051c820191505b81811015620003965782815560010162000381565b5050505b505050565b81516001600160401b03811115620003bb57620003bb62000103565b620003d381620003cc845462000310565b846200034c565b602080601f8311600181146200040b5760008415620003f25750858301515b600019600386901b1c1916600185901b17855562000396565b600085815260208120601f198616915b828110156200043c578886015182559484019460019091019084016200041b565b50858210156200045b5787850151600019600388901b60f8161c191681555b5050505050600190811b01905550565b611cff806200047b6000396000f3fe608060405234801561001057600080fd5b50600436106101985760003560e01c80636352211e116100e3578063b0fa84441161008c578063c87b56dd11610066578063c87b56dd14610391578063dbacc237146103a4578063e985e9c5146103b757600080fd5b8063b0fa84441461034d578063b325d85d1461035e578063b88d4fde1461037e57600080fd5b8063816949b5116100bd578063816949b51461031d57806395d89b4114610332578063a22cb4651461033a57600080fd5b80636352211e146102e457806370a08231146102f75780637e8816b91461030a57600080fd5b806323b872dd1161014557806345facd8e1161011f57806345facd8e146102815780635221c1f0146102be57806355f804b3146102d157600080fd5b806323b872dd1461024857806342842e0e1461025b57806342966c681461026e57600080fd5b806306fdde031161017657806306fdde031461020b578063081812fc14610220578063095ea7b31461023357600080fd5b806301ffc9a71461019d57806302d05d3f146101c55780630444ce0a146101ea575b600080fd5b6101b06101ab3660046116fa565b6103f3565b60405190151581526020015b60405180910390f35b6006546001600160a01b03165b6040516001600160a01b0390911681526020016101bc565b6101fd6101f836600461171e565b610490565b6040519081526020016101bc565b6102136104b1565b6040516101bc9190611787565b6101d261022e36600461171e565b610543565b6102466102413660046117b6565b61056a565b005b6102466102563660046117e0565b6106be565b6102466102693660046117e0565b610745565b61024661027c36600461171e565b610760565b61024661028f36600461181c565b600b805473ffffffffffffffffffffffffffffffffffffffff19166001600160a01b0392909216919091179055565b6101b06102cc36600461171e565b61076c565b6102466102df3660046118e3565b6107d4565b6101d26102f236600461171e565b61083e565b6101fd61030536600461181c565b6108a3565b6101fd610318366004611918565b61093d565b610325610984565b6040516101bc919061195f565b6102136109db565b6102466103483660046119a3565b6109ea565b600b546001600160a01b03166101d2565b6101fd61036c36600461171e565b600d6020526000908152604090205481565b61024661038c3660046119df565b6109f5565b61021361039f36600461171e565b610a83565b6101d26103b236600461171e565b610bd5565b6101b06103c5366004611a5b565b6001600160a01b03918216600090815260056020908152604080832093909416825291909152205460ff1690565b60006001600160e01b031982167f80ac58cd00000000000000000000000000000000000000000000000000000000148061045657506001600160e01b031982167f5b5e139f00000000000000000000000000000000000000000000000000000000145b8061048a57507f01ffc9a7000000000000000000000000000000000000000000000000000000006001600160e01b03198316145b92915050565b600c81815481106104a057600080fd5b600091825260209091200154905081565b6060600080546104c090611a8e565b80601f01602080910402602001604051908101604052809291908181526020018280546104ec90611a8e565b80156105395780601f1061050e57610100808354040283529160200191610539565b820191906000526020600020905b81548152906001019060200180831161051c57829003601f168201915b5050505050905090565b600061054e82610bf2565b506000908152600460205260409020546001600160a01b031690565b60006105758261083e565b9050806001600160a01b0316836001600160a01b0316036106035760405162461bcd60e51b815260206004820152602160248201527f4552433732313a20617070726f76616c20746f2063757272656e74206f776e6560448201527f720000000000000000000000000000000000000000000000000000000000000060648201526084015b60405180910390fd5b336001600160a01b038216148061063d57506001600160a01b038116600090815260056020908152604080832033845290915290205460ff165b6106af5760405162461bcd60e51b815260206004820152603d60248201527f4552433732313a20617070726f76652063616c6c6572206973206e6f7420746f60448201527f6b656e206f776e6572206f7220617070726f76656420666f7220616c6c00000060648201526084016105fa565b6106b98383610c56565b505050565b6106c83382610cd1565b61073a5760405162461bcd60e51b815260206004820152602d60248201527f4552433732313a2063616c6c6572206973206e6f7420746f6b656e206f776e6560448201527f72206f7220617070726f7665640000000000000000000000000000000000000060648201526084016105fa565b6106b9838383610d4f565b6106b9838383604051806020016040528060008152506109f5565b61076981610f62565b50565b600081600a540361077f57506001919050565b60005b600c548110156107cb5782600c82815481106107a0576107a0611ac8565b9060005260206000200154036107b95750600192915050565b806107c381611af4565b915050610782565b50600092915050565b6006546001600160a01b0316331461082e5760405162461bcd60e51b815260206004820152601f60248201527f6f6e6c79206f776e65722063616e2063616c6c2074686973206d6574686f640060448201526064016105fa565b600961083a8282611b5b565b5050565b6000818152600260205260408120546001600160a01b03168061048a5760405162461bcd60e51b815260206004820152601860248201527f4552433732313a20696e76616c696420746f6b656e204944000000000000000060448201526064016105fa565b60006001600160a01b0382166109215760405162461bcd60e51b815260206004820152602960248201527f4552433732313a2061646472657373207a65726f206973206e6f74206120766160448201527f6c6964206f776e6572000000000000000000000000000000000000000000000060648201526084016105fa565b506001600160a01b031660009081526003602052604090205490565b6000808215610965576007805490600061095683611af4565b91905055506007549050610968565b50815b6109728482611012565b61097c81866111b8565b949350505050565b6060600c80548060200260200160405190810160405280929190818152602001828054801561053957602002820191906000526020600020905b8154815260200190600101908083116109be575050505050905090565b6060600180546104c090611a8e565b61083a33838361121d565b6109ff3383610cd1565b610a715760405162461bcd60e51b815260206004820152602d60248201527f4552433732313a2063616c6c6572206973206e6f7420746f6b656e206f776e6560448201527f72206f7220617070726f7665640000000000000000000000000000000000000060648201526084016105fa565b610a7d848484846112eb565b50505050565b6000818152600260205260409020546060906001600160a01b0316610ad35760405162461bcd60e51b815260206004820152600660248201526508595e1a5cdd60d21b60448201526064016105fa565b60008281526008602052604081208054610aec90611a8e565b80601f0160208091040260200160405190810160405280929190818152602001828054610b1890611a8e565b8015610b655780601f10610b3a57610100808354040283529160200191610b65565b820191906000526020600020905b815481529060010190602001808311610b4857829003601f168201915b505050505090506000610b76611374565b90508051600003610b88575092915050565b815115610bba578082604051602001610ba2929190611c1b565b60405160208183030381529060405292505050919050565b80610bc485611383565b604051602001610ba2929190611c1b565b6000818152600260205260408120546001600160a01b031661048a565b6000818152600260205260409020546001600160a01b03166107695760405162461bcd60e51b815260206004820152601860248201527f4552433732313a20696e76616c696420746f6b656e204944000000000000000060448201526064016105fa565b6000818152600460205260409020805473ffffffffffffffffffffffffffffffffffffffff19166001600160a01b0384169081179091558190610c988261083e565b6001600160a01b03167f8c5be1e5ebec7d5bd14f71427d1e84f3dd0314c0f7b2291e5b200ac8c7c3b92560405160405180910390a45050565b600080610cdd8361083e565b9050806001600160a01b0316846001600160a01b03161480610d2457506001600160a01b0380821660009081526005602090815260408083209388168352929052205460ff165b8061097c5750836001600160a01b0316610d3d84610543565b6001600160a01b031614949350505050565b826001600160a01b0316610d628261083e565b6001600160a01b031614610dc65760405162461bcd60e51b815260206004820152602560248201527f4552433732313a207472616e736665722066726f6d20696e636f72726563742060448201526437bbb732b960d91b60648201526084016105fa565b6001600160a01b038216610e415760405162461bcd60e51b8152602060048201526024808201527f4552433732313a207472616e7366657220746f20746865207a65726f2061646460448201527f726573730000000000000000000000000000000000000000000000000000000060648201526084016105fa565b610e4e8383836001611423565b826001600160a01b0316610e618261083e565b6001600160a01b031614610ec55760405162461bcd60e51b815260206004820152602560248201527f4552433732313a207472616e736665722066726f6d20696e636f72726563742060448201526437bbb732b960d91b60648201526084016105fa565b6000818152600460209081526040808320805473ffffffffffffffffffffffffffffffffffffffff199081169091556001600160a01b0387811680865260038552838620805460001901905590871680865283862080546001019055868652600290945282852080549092168417909155905184937fddf252ad1be2c89b69c2b068fc378daa952ba7f163c4a11628f55a4df523b3ef91a4505050565b6000610f6d8261083e565b9050610f7d816000846001611423565b610f868261083e565b6000838152600460209081526040808320805473ffffffffffffffffffffffffffffffffffffffff199081169091556001600160a01b0385168085526003845282852080546000190190558785526002909352818420805490911690555192935084927fddf252ad1be2c89b69c2b068fc378daa952ba7f163c4a11628f55a4df523b3ef908390a45050565b6001600160a01b0382166110685760405162461bcd60e51b815260206004820181905260248201527f4552433732313a206d696e7420746f20746865207a65726f206164647265737360448201526064016105fa565b6000818152600260205260409020546001600160a01b0316156110cd5760405162461bcd60e51b815260206004820152601c60248201527f4552433732313a20746f6b656e20616c7265616479206d696e7465640000000060448201526064016105fa565b6110db600083836001611423565b6000818152600260205260409020546001600160a01b0316156111405760405162461bcd60e51b815260206004820152601c60248201527f4552433732313a20746f6b656e20616c7265616479206d696e7465640000000060448201526064016105fa565b6001600160a01b0382166000818152600360209081526040808320805460010190558483526002909152808220805473ffffffffffffffffffffffffffffffffffffffff19168417905551839291907fddf252ad1be2c89b69c2b068fc378daa952ba7f163c4a11628f55a4df523b3ef908290a45050565b6000828152600260205260409020546001600160a01b03166112055760405162461bcd60e51b815260206004820152600660248201526508595e1a5cdd60d21b60448201526064016105fa565b60008281526008602052604090206106b98282611b5b565b816001600160a01b0316836001600160a01b03160361127e5760405162461bcd60e51b815260206004820152601960248201527f4552433732313a20617070726f766520746f2063616c6c65720000000000000060448201526064016105fa565b6001600160a01b03838116600081815260056020908152604080832094871680845294825291829020805460ff191686151590811790915591519182527f17307eab39ab6107e8899845ad3d59bd9653f200f220920489ca2b5937696c31910160405180910390a3505050565b6112f6848484610d4f565b611302848484846114ab565b610a7d5760405162461bcd60e51b815260206004820152603260248201527f4552433732313a207472616e7366657220746f206e6f6e20455243373231526560448201527f63656976657220696d706c656d656e746572000000000000000000000000000060648201526084016105fa565b6060600980546104c090611a8e565b6060600061139083611602565b600101905060008167ffffffffffffffff8111156113b0576113b0611837565b6040519080825280601f01601f1916602001820160405280156113da576020820181803683370190505b5090508181016020015b600019017f3031323334353637383961626364656600000000000000000000000000000000600a86061a8153600a85049450846113e457509392505050565b6001811115610a7d576001600160a01b03841615611469576001600160a01b03841660009081526003602052604081208054839290611463908490611c4a565b90915550505b6001600160a01b03831615610a7d576001600160a01b038316600090815260036020526040812080548392906114a0908490611c5d565b909155505050505050565b60006001600160a01b0384163b156115f757604051630a85bd0160e11b81526001600160a01b0385169063150b7a02906114ef903390899088908890600401611c70565b6020604051808303816000875af192505050801561152a575060408051601f3d908101601f1916820190925261152791810190611cac565b60015b6115dd573d808015611558576040519150601f19603f3d011682016040523d82523d6000602084013e61155d565b606091505b5080516000036115d55760405162461bcd60e51b815260206004820152603260248201527f4552433732313a207472616e7366657220746f206e6f6e20455243373231526560448201527f63656976657220696d706c656d656e746572000000000000000000000000000060648201526084016105fa565b805181602001fd5b6001600160e01b031916630a85bd0160e11b14905061097c565b506001949350505050565b6000807a184f03e93ff9f4daa797ed6e38ed64bf6a1f010000000000000000831061164b577a184f03e93ff9f4daa797ed6e38ed64bf6a1f010000000000000000830492506040015b6d04ee2d6d415b85acef81000000008310611677576d04ee2d6d415b85acef8100000000830492506020015b662386f26fc10000831061169557662386f26fc10000830492506010015b6305f5e10083106116ad576305f5e100830492506008015b61271083106116c157612710830492506004015b606483106116d3576064830492506002015b600a831061048a5760010192915050565b6001600160e01b03198116811461076957600080fd5b60006020828403121561170c57600080fd5b8135611717816116e4565b9392505050565b60006020828403121561173057600080fd5b5035919050565b60005b8381101561175257818101518382015260200161173a565b50506000910152565b60008151808452611773816020860160208601611737565b601f01601f19169290920160200192915050565b602081526000611717602083018461175b565b80356001600160a01b03811681146117b157600080fd5b919050565b600080604083850312156117c957600080fd5b6117d28361179a565b946020939093013593505050565b6000806000606084860312156117f557600080fd5b6117fe8461179a565b925061180c6020850161179a565b9150604084013590509250925092565b60006020828403121561182e57600080fd5b6117178261179a565b634e487b7160e01b600052604160045260246000fd5b600067ffffffffffffffff8084111561186857611868611837565b604051601f8501601f19908116603f0116810190828211818310171561189057611890611837565b816040528093508581528686860111156118a957600080fd5b858560208301376000602087830101525050509392505050565b600082601f8301126118d457600080fd5b6117178383356020850161184d565b6000602082840312156118f557600080fd5b813567ffffffffffffffff81111561190c57600080fd5b61097c848285016118c3565b60008060006060848603121561192d57600080fd5b833567ffffffffffffffff81111561194457600080fd5b611950868287016118c3565b93505061180c6020850161179a565b6020808252825182820181905260009190848201906040850190845b818110156119975783518352928401929184019160010161197b565b50909695505050505050565b600080604083850312156119b657600080fd5b6119bf8361179a565b9150602083013580151581146119d457600080fd5b809150509250929050565b600080600080608085870312156119f557600080fd5b6119fe8561179a565b9350611a0c6020860161179a565b925060408501359150606085013567ffffffffffffffff811115611a2f57600080fd5b8501601f81018713611a4057600080fd5b611a4f8782356020840161184d565b91505092959194509250565b60008060408385031215611a6e57600080fd5b611a778361179a565b9150611a856020840161179a565b90509250929050565b600181811c90821680611aa257607f821691505b602082108103611ac257634e487b7160e01b600052602260045260246000fd5b50919050565b634e487b7160e01b600052603260045260246000fd5b634e487b7160e01b600052601160045260246000fd5b600060018201611b0657611b06611ade565b5060010190565b601f8211156106b957600081815260208120601f850160051c81016020861015611b345750805b601f850160051c820191505b81811015611b5357828155600101611b40565b505050505050565b815167ffffffffffffffff811115611b7557611b75611837565b611b8981611b838454611a8e565b84611b0d565b602080601f831160018114611bbe5760008415611ba65750858301515b600019600386901b1c1916600185901b178555611b53565b600085815260208120601f198616915b82811015611bed57888601518255948401946001909101908401611bce565b5085821015611c0b5787850151600019600388901b60f8161c191681555b5050505050600190811b01905550565b60008351611c2d818460208801611737565b835190830190611c41818360208801611737565b01949350505050565b8181038181111561048a5761048a611ade565b8082018082111561048a5761048a611ade565b60006001600160a01b03808716835280861660208401525083604083015260806060830152611ca2608083018461175b565b9695505050505050565b600060208284031215611cbe57600080fd5b8151611717816116e456fea264697066735822122058c7d7d167a5e8d61520aa774726840a8825ae95f778a11359bbb2cb6c6e756d64736f6c63430008100033a2646970667358221220d54c490e599b9ec6fb892a77f8b0bfb92c540492cf0c9ca5c85ec44474702ddc64736f6c63430008100033",
  "immutableReferences": {},
  "source": "// SPDX-License-Identifier: GPL-3.0\npragma solidity >=0.7.0 <0.9.0;\n\nimport {MultiERC721} from \"./MultiERC721.sol\";\nimport {Events} from \"./libraries/Events.sol\";\nimport {CallProxy} from \"./interfaces/CallProxy.sol\";\n\ncontract CrossArt {\n    address private _deployer;\n    uint private _thisChainId;\n\n    // anycall contracts mapped to chainId\n    address public _anycallcontract;\n\n    // destinations contract\n    mapping(uint => address) public destinations;\n\n    // creator => nft contract addresses\n    mapping(address => address[]) public creators;\n\n    // nft contract address => collection metadata\n    mapping(address => Collection) public collections;\n\n    // mapping nft source chain address to this chain address\n    mapping(address => address) private nftMaps;\n\n    struct Collection {\n        address[] whiteList;\n        address[] blackList;\n        bool isWhiteSystem;\n        uint256 mintPrice;\n        uint chainId;\n        string cover;\n        string avatar;\n    }\n\n    receive() external payable {}\n\n    fallback() external payable {}\n\n    constructor(address anycallcontract, uint chainId) {\n        _anycallcontract = anycallcontract;\n        _thisChainId = chainId;\n        _deployer = msg.sender;\n    }\n\n    function deploy(\n        string memory name,\n        string memory symbol,\n        uint[] memory supportedChains,\n        address[] memory whiteList,\n        address[] memory blackList,\n        bool isWhiteSystem,\n        uint256 mintPrice,\n        string memory cover,\n        string memory avatar\n    ) public {\n        MultiERC721 nft = new MultiERC721(\n            name,\n            symbol,\n            supportedChains,\n            _thisChainId,\n            msg.sender\n        );\n\n        // set the nft source address\n        nft.setSourceAddress(address(nft));\n\n        nftMaps[address(nft)] = address(nft);\n\n        collections[address(nft)] = Collection(\n            whiteList,\n            blackList,\n            isWhiteSystem,\n            mintPrice,\n            _thisChainId,\n            cover,\n            avatar\n        );\n\n        emit Events.NftDeployed(\n            address(nft),\n            supportedChains,\n            msg.sender,\n            _thisChainId\n        );\n    }\n\n    function mint(string memory uri, address contractAddress) public payable {\n        MultiERC721 nft = MultiERC721(contractAddress);\n        Collection memory collection = collections[contractAddress];\n\n        if (msg.sender != nft.creator()) {\n            require(\n                msg.value >= collection.mintPrice,\n                \"Insuficient Mint Amount\"\n            );\n\n            if (collection.isWhiteSystem) {\n                bool eligible = _isEligble(\n                    msg.sender,\n                    collection.whiteList,\n                    collection.blackList\n                );\n                require(eligible, \"You're not eligible\");\n            }\n        }\n\n        uint tokenID = nft.mint(uri, msg.sender, 0);\n\n        emit Events.NftMinted(contractAddress, tokenID);\n    }\n\n    function bridge(\n        uint tokenID,\n        address contractAddress,\n        uint destinationChainId\n    ) public payable {\n        MultiERC721 nft = MultiERC721(contractAddress);\n        require(\n            nft.isChainSupported(destinationChainId),\n            \"unsupported destination chain\"\n        );\n\n        require(\n            msg.sender == nft.holderOf(tokenID),\n            \"you cant bridge this token\"\n        );\n\n        bytes memory data = abi.encode(\n            nft.sourceAddress(),\n            nft.tokenURI(tokenID),\n            nft.name(), // related for non existing nft\n            nft.symbol(), // related for non existing nft\n            nft.supportedChains(), // related for non existing nft\n            nft.creator(), // related for non existing nft\n            tokenID,\n            nft.holderOf(tokenID)\n        );\n\n        // burn token on originated chain\n        nft.burn(tokenID);\n\n        // cross-chain message to mint same token\n        // on destination chain\n        CallProxy(_anycallcontract).anyCall{value: msg.value}(\n            destinations[destinationChainId],\n            // sending the encoded bytes of the string uri and decode on the destination chain\n            data,\n            destinationChainId,\n            // Using 0 flag to pay fee on the source chain\n            0,\n            \"\"\n        );\n    }\n\n    function anyExecute(\n        bytes memory _data\n    ) external returns (bool success, bytes memory result) {\n        (\n            address sourceAddress,\n            string memory uri,\n            string memory name, // related for non existing nft\n            string memory symbol, // related for non existing nft\n            uint[] memory supportedChains, // related for non existing nft\n            address creator, // related for non existing nft\n            uint256 tokenID,\n            address holder\n        ) = abi.decode(\n                _data,\n                (\n                    address,\n                    string,\n                    string,\n                    string,\n                    uint[],\n                    address,\n                    uint256,\n                    address\n                )\n            );\n\n        bool existing = nftMaps[sourceAddress] != address(0);\n\n        MultiERC721 nft;\n\n        if (existing) {\n            nft = MultiERC721(nftMaps[sourceAddress]);\n        } else {\n            nft = new MultiERC721(\n                name,\n                symbol,\n                supportedChains,\n                _thisChainId,\n                creator\n            );\n\n            // set the nft source address\n            nft.setSourceAddress(sourceAddress);\n            nftMaps[sourceAddress] = address(nft);\n        }\n\n        nft.mint(uri, holder, tokenID);\n\n        success = true;\n        result = \"\";\n    }\n\n    function _isEligble(\n        address minter,\n        address[] memory whiteList,\n        address[] memory blackList\n    ) private pure returns (bool) {\n        for (uint index = 0; index < blackList.length; index++) {\n            if (minter == blackList[index]) {\n                return false;\n            }\n        }\n        for (uint index = 0; index < whiteList.length; index++) {\n            if (minter == whiteList[index]) {\n                return true;\n            }\n        }\n        return false;\n    }\n\n    function addChain(\n        uint chainId,\n        address contractAddress\n    ) public onlyDeployer {\n        destinations[chainId] = contractAddress;\n    }\n\n    event Desposit(address account, uint256 amount);\n\n    modifier onlyDeployer() {\n        require(msg.sender == _deployer, \"only owner can call this method\");\n        _;\n    }\n}\n",
  "sourcePath": "C:\\Users\\Arogundade Ibrahim\\documents\\web3\\crossart\\contracts\\CrossArt.sol",
  "compiler": {
    "name": "solc",
    "version": "0.8.16+commit.07a7930e.Emscripten.clang"
  },
  "schemaVersion": "3.4.10",
  "updatedAt": "2022-12-11T18:48:09.703Z",
  "devdoc": {
    "kind": "dev",
    "methods": {},
    "version": 1
  },
  "userdoc": {
    "kind": "user",
    "methods": {},
    "version": 1
  }
}