{
  "contractName": "CrossArt",
  "abi": [
    {
      "inputs": [
        {
          "internalType": "address",
          "name": "anycallcontract",
          "type": "address"
        },
        {
          "internalType": "uint256",
          "name": "chainId",
          "type": "uint256"
        }
      ],
      "stateMutability": "nonpayable",
      "type": "constructor"
    },
    {
      "anonymous": false,
      "inputs": [
        {
          "indexed": false,
          "internalType": "address",
          "name": "account",
          "type": "address"
        },
        {
          "indexed": false,
          "internalType": "uint256",
          "name": "amount",
          "type": "uint256"
        }
      ],
      "name": "Desposit",
      "type": "event"
    },
    {
      "stateMutability": "payable",
      "type": "fallback"
    },
    {
      "inputs": [],
      "name": "_anycallcontract",
      "outputs": [
        {
          "internalType": "address",
          "name": "",
          "type": "address"
        }
      ],
      "stateMutability": "view",
      "type": "function"
    },
    {
      "inputs": [
        {
          "internalType": "address",
          "name": "",
          "type": "address"
        }
      ],
      "name": "collections",
      "outputs": [
        {
          "internalType": "bool",
          "name": "isWhiteSystem",
          "type": "bool"
        },
        {
          "internalType": "uint256",
          "name": "mintPrice",
          "type": "uint256"
        },
        {
          "internalType": "uint256",
          "name": "chainId",
          "type": "uint256"
        },
        {
          "internalType": "address",
          "name": "creator",
          "type": "address"
        }
      ],
      "stateMutability": "view",
      "type": "function"
    },
    {
      "inputs": [
        {
          "internalType": "address",
          "name": "",
          "type": "address"
        },
        {
          "internalType": "uint256",
          "name": "",
          "type": "uint256"
        }
      ],
      "name": "creators",
      "outputs": [
        {
          "internalType": "address",
          "name": "",
          "type": "address"
        }
      ],
      "stateMutability": "view",
      "type": "function"
    },
    {
      "inputs": [
        {
          "internalType": "uint256",
          "name": "",
          "type": "uint256"
        }
      ],
      "name": "destinations",
      "outputs": [
        {
          "internalType": "address",
          "name": "",
          "type": "address"
        }
      ],
      "stateMutability": "view",
      "type": "function"
    },
    {
      "stateMutability": "payable",
      "type": "receive"
    },
    {
      "inputs": [
        {
          "internalType": "string",
          "name": "name",
          "type": "string"
        },
        {
          "internalType": "string",
          "name": "symbol",
          "type": "string"
        },
        {
          "internalType": "uint256[]",
          "name": "supportedChains",
          "type": "uint256[]"
        },
        {
          "internalType": "string",
          "name": "cover",
          "type": "string"
        },
        {
          "internalType": "string",
          "name": "avatar",
          "type": "string"
        }
      ],
      "name": "createCollection",
      "outputs": [],
      "stateMutability": "nonpayable",
      "type": "function"
    },
    {
      "inputs": [
        {
          "internalType": "address[]",
          "name": "whiteList",
          "type": "address[]"
        },
        {
          "internalType": "address[]",
          "name": "blackList",
          "type": "address[]"
        },
        {
          "internalType": "bool",
          "name": "isWhiteSystem",
          "type": "bool"
        },
        {
          "internalType": "uint256",
          "name": "mintPrice",
          "type": "uint256"
        },
        {
          "internalType": "address",
          "name": "contractAddress",
          "type": "address"
        }
      ],
      "name": "updateCollection",
      "outputs": [],
      "stateMutability": "nonpayable",
      "type": "function"
    },
    {
      "inputs": [
        {
          "internalType": "string",
          "name": "uri",
          "type": "string"
        },
        {
          "internalType": "address",
          "name": "contractAddress",
          "type": "address"
        }
      ],
      "name": "mint",
      "outputs": [],
      "stateMutability": "payable",
      "type": "function"
    },
    {
      "inputs": [
        {
          "internalType": "uint256",
          "name": "tokenID",
          "type": "uint256"
        },
        {
          "internalType": "address",
          "name": "contractAddress",
          "type": "address"
        },
        {
          "internalType": "uint256",
          "name": "destinationChainId",
          "type": "uint256"
        }
      ],
      "name": "bridge",
      "outputs": [],
      "stateMutability": "payable",
      "type": "function"
    },
    {
      "inputs": [
        {
          "internalType": "bytes",
          "name": "_data",
          "type": "bytes"
        }
      ],
      "name": "anyExecute",
      "outputs": [
        {
          "internalType": "bool",
          "name": "success",
          "type": "bool"
        },
        {
          "internalType": "bytes",
          "name": "result",
          "type": "bytes"
        }
      ],
      "stateMutability": "nonpayable",
      "type": "function"
    },
    {
      "inputs": [
        {
          "internalType": "uint256",
          "name": "chainId",
          "type": "uint256"
        },
        {
          "internalType": "address",
          "name": "contractAddress",
          "type": "address"
        }
      ],
      "name": "addChain",
      "outputs": [],
      "stateMutability": "nonpayable",
      "type": "function"
    }
  ],
  "bytecode": "0x60806040523480156200001157600080fd5b5060405162004b0438038062004b04833981016040819052620000349162000066565b600280546001600160a01b039093166001600160a01b03199384161790556001556000805490911633179055620000a2565b600080604083850312156200007a57600080fd5b82516001600160a01b03811681146200009257600080fd5b6020939093015192949293505050565b614a5280620000b26000396000f3fe608060405260043610620000b75760003560e01c80638dd4ba2e116200006b578063a44543401162000051578063a44543401462000249578063e514040b146200026e578063fef54ec8146200029357005b80638dd4ba2e14620001c15780639abaf479146200021457005b806343add2e6116200009d57806343add2e614620000ef5780635303942b146200017757806377ca6c80146200019c57005b80631c351a9d14620000c15780632f820a5f14620000d857005b36620000bf57005b005b620000bf620000d236600462001c3b565b620002b5565b620000bf620000e936600462001c93565b62000615565b348015620000fc57600080fd5b50620001476200010e36600462001cce565b6005602081905260009182526040909120600281015460038201546004830154929093015460ff9091169291906001600160a01b031684565b6040805194151585526020850193909352918301526001600160a01b031660608201526080015b60405180910390f35b3480156200018457600080fd5b50620000bf6200019636600462001cee565b62000bf1565b348015620001a957600080fd5b50620000bf620001bb36600462001daa565b62000c88565b348015620001ce57600080fd5b50620001fb620001e036600462001e8c565b6003602052600090815260409020546001600160a01b031681565b6040516001600160a01b0390911681526020016200016e565b3480156200022157600080fd5b50620002396200023336600462001ea6565b62001295565b6040516200016e92919062001f50565b3480156200025657600080fd5b50620001fb6200026836600462001f6d565b620014c6565b3480156200027b57600080fd5b50620000bf6200028d36600462002018565b620014ff565b348015620002a057600080fd5b50600254620001fb906001600160a01b031681565b6001600160a01b03811660009081526005602090815260408083208151815460e09481028201850190935260c08101838152869594919384928491908401828280156200032c57602002820191906000526020600020905b81546001600160a01b031681526001909101906020018083116200030d575b50505050508152602001600182018054806020026020016040519081016040528092919081815260200182805480156200039057602002820191906000526020600020905b81546001600160a01b0316815260019091019060200180831162000371575b5050509183525050600282015460ff161515602080830191909152600383015460408084019190915260048085015460608501526005909401546001600160a01b0390811660809094019390935280517f02d05d3f0000000000000000000000000000000000000000000000000000000081529051949550918616936302d05d3f93838101938290030181865afa15801562000430573d6000803e3d6000fd5b505050506040513d601f19601f82011682018060405250810190620004569190620020b8565b6001600160a01b0316336001600160a01b0316146200053e578060600151341015620004c95760405162461bcd60e51b815260206004820152601760248201527f496e737566696369656e74204d696e7420416d6f756e7400000000000000000060448201526064015b60405180910390fd5b8060400151156200053e576000620004eb3383600001518460200151620019d6565b9050806200053c5760405162461bcd60e51b815260206004820152601360248201527f596f75277265206e6f7420656c696769626c65000000000000000000000000006044820152606401620004c0565b505b604051637e8816b960e01b81526000906001600160a01b03841690637e8816b9906200057390889033908690600401620020d8565b6020604051808303816000875af115801562000593573d6000803e3d6000fd5b505050506040513d601f19601f82011682018060405250810190620005b9919062002108565b600154604080518381523360208201526001600160a01b038716818301526060810192909252519192507f974f6ea350c6cbd05ba44bd2e61ede013cdfdfbea82bdb72e5be02e8ccee4d47919081900360800190a15050505050565b6040517f5221c1f00000000000000000000000000000000000000000000000000000000081526004810182905282906001600160a01b03821690635221c1f090602401602060405180830381865afa15801562000676573d6000803e3d6000fd5b505050506040513d601f19601f820116820180604052508101906200069c919062002122565b620006ea5760405162461bcd60e51b815260206004820152601d60248201527f756e737570706f727465642064657374696e6174696f6e20636861696e0000006044820152606401620004c0565b60405163dbacc23760e01b8152600481018590526001600160a01b0382169063dbacc23790602401602060405180830381865afa15801562000730573d6000803e3d6000fd5b505050506040513d601f19601f82011682018060405250810190620007569190620020b8565b6001600160a01b0316336001600160a01b031614620007b85760405162461bcd60e51b815260206004820152601a60248201527f796f752063616e7420627269646765207468697320746f6b656e0000000000006044820152606401620004c0565b6000816001600160a01b031663b0fa84446040518163ffffffff1660e01b8152600401602060405180830381865afa158015620007f9573d6000803e3d6000fd5b505050506040513d601f19601f820116820180604052508101906200081f9190620020b8565b6040517fc87b56dd000000000000000000000000000000000000000000000000000000008152600481018790526001600160a01b0384169063c87b56dd90602401600060405180830381865afa1580156200087e573d6000803e3d6000fd5b505050506040513d6000823e601f3d908101601f19168201604052620008a891908101906200218e565b836001600160a01b03166306fdde036040518163ffffffff1660e01b8152600401600060405180830381865afa158015620008e7573d6000803e3d6000fd5b505050506040513d6000823e601f3d908101601f191682016040526200091191908101906200218e565b846001600160a01b03166395d89b416040518163ffffffff1660e01b8152600401600060405180830381865afa15801562000950573d6000803e3d6000fd5b505050506040513d6000823e601f3d908101601f191682016040526200097a91908101906200218e565b856001600160a01b031663816949b56040518163ffffffff1660e01b8152600401600060405180830381865afa158015620009b9573d6000803e3d6000fd5b505050506040513d6000823e601f3d908101601f19168201604052620009e3919081019062002229565b866001600160a01b03166302d05d3f6040518163ffffffff1660e01b8152600401602060405180830381865afa15801562000a22573d6000803e3d6000fd5b505050506040513d601f19601f8201168201806040525081019062000a489190620020b8565b60405163dbacc23760e01b8152600481018c90528b906001600160a01b038a169063dbacc23790602401602060405180830381865afa15801562000a90573d6000803e3d6000fd5b505050506040513d601f19601f8201168201806040525081019062000ab69190620020b8565b60405160200162000acf9897969594939291906200229f565b60408051808303601f19018152908290527f42966c680000000000000000000000000000000000000000000000000000000082526004820187905291506001600160a01b038316906342966c6890602401600060405180830381600087803b15801562000b3b57600080fd5b505af115801562000b50573d6000803e3d6000fd5b50506002546000868152600360205260408082205490517f1979a2840000000000000000000000000000000000000000000000000000000081526001600160a01b039384169550631979a2849450349362000bb69392169187918a91906004016200232a565b6000604051808303818588803b15801562000bd057600080fd5b505af115801562000be5573d6000803e3d6000fd5b50505050505050505050565b6000546001600160a01b0316331462000c4d5760405162461bcd60e51b815260206004820152601f60248201527f6f6e6c79206f776e65722063616e2063616c6c2074686973206d6574686f64006044820152606401620004c0565b600091825260036020526040909120805473ffffffffffffffffffffffffffffffffffffffff19166001600160a01b03909216919091179055565b600085858484876001543360405162000ca19062001aab565b62000cb3979695949392919062002375565b604051809103906000f08015801562000cd0573d6000803e3d6000fd5b506040516322fd66c760e11b81526001600160a01b038216600482018190529192508291906345facd8e90602401600060405180830381600087803b15801562000d1957600080fd5b505af115801562000d2e573d6000803e3d6000fd5b5050506001600160a01b0382166000818152600660209081526040808320805473ffffffffffffffffffffffffffffffffffffffff191690941790935582516005825291839020805460e09281028401830190945260c083018481529294508493909184018282801562000dcc57602002820191906000526020600020905b81546001600160a01b0316815260019091019060200180831162000dad575b50505091835250506001600160a01b038316600090815260056020908152604091829020600101805483518184028101840190945280845293820193909183018282801562000e4557602002820191906000526020600020905b81546001600160a01b0316815260019091019060200180831162000e26575b50505050508152602001600015158152602001600081526020016001548152602001836001600160a01b03166302d05d3f6040518163ffffffff1660e01b8152600401602060405180830381865afa15801562000ea6573d6000803e3d6000fd5b505050506040513d601f19601f8201168201806040525081019062000ecc9190620020b8565b6001600160a01b039081169091528216600090815260056020908152604090912082518051919262000f049284929091019062001ab9565b50602082810151805162000f1f926001850192019062001ab9565b5060408281015160028301805460ff191691151591909117905560608301516003830155608083015160048084019190915560a0909301516005909201805473ffffffffffffffffffffffffffffffffffffffff19166001600160a01b0393841617905580516306fdde0360e01b815290517f707549c2a9a70b590212db4a3745231cd2aacd26eb60ddd1c82954df2fa15fde93928616926306fdde03928082019260009290918290030181865afa15801562000fe0573d6000803e3d6000fd5b505050506040513d6000823e601f3d908101601f191682016040526200100a91908101906200218e565b836001600160a01b03166395d89b416040518163ffffffff1660e01b8152600401600060405180830381865afa15801562001049573d6000803e3d6000fd5b505050506040513d6000823e601f3d908101601f191682016040526200107391908101906200218e565b846001600160a01b031663e7d931e46040518163ffffffff1660e01b8152600401600060405180830381865afa158015620010b2573d6000803e3d6000fd5b505050506040513d6000823e601f3d908101601f19168201604052620010dc91908101906200218e565b856001600160a01b0316635aef7de66040518163ffffffff1660e01b8152600401600060405180830381865afa1580156200111b573d6000803e3d6000fd5b505050506040513d6000823e601f3d908101601f191682016040526200114591908101906200218e565b866001600160a01b03166302d05d3f6040518163ffffffff1660e01b8152600401602060405180830381865afa15801562001184573d6000803e3d6000fd5b505050506040513d601f19601f82011682018060405250810190620011aa9190620020b8565b8660056000896001600160a01b03166001600160a01b03168152602001908152602001600020600001600560008a6001600160a01b03166001600160a01b031681526020019081526020016000206001016000806001548d6001600160a01b031663816949b56040518163ffffffff1660e01b8152600401600060405180830381865afa15801562001240573d6000803e3d6000fd5b505050506040513d6000823e601f3d908101601f191682016040526200126a919081019062002229565b604051620012849c9b9a9998979695949392919062002444565b60405180910390a150505050505050565b600060606000806000806000806000808a806020019051810190620012bb919062002538565b975097509750975097509750975097506000806001600160a01b0316600660008b6001600160a01b03166001600160a01b0316815260200190815260200160002060009054906101000a90046001600160a01b03166001600160a01b031614159050600081156200134857506001600160a01b03808a166000908152600660205260409020541662001428565b878787600154886040516200135d9062001aab565b6200136d95949392919062002634565b604051809103906000f0801580156200138a573d6000803e3d6000fd5b506040516322fd66c760e11b81526001600160a01b038c81166004830152919250908216906345facd8e90602401600060405180830381600087803b158015620013d357600080fd5b505af1158015620013e8573d6000803e3d6000fd5b505050506001600160a01b038a81166000908152600660205260409020805473ffffffffffffffffffffffffffffffffffffffff19169183169190911790555b604051637e8816b960e01b81526001600160a01b03821690637e8816b9906200145a908c9087908990600401620020d8565b6020604051808303816000875af11580156200147a573d6000803e3d6000fd5b505050506040513d601f19601f82011682018060405250810190620014a0919062002108565b5060019b50604051806020016040528060008152509a5050505050505050505050915091565b60046020528160005260406000208181548110620014e357600080fd5b6000918252602090912001546001600160a01b03169150829050565b6000819050806001600160a01b03166302d05d3f6040518163ffffffff1660e01b8152600401602060405180830381865afa15801562001543573d6000803e3d6000fd5b505050506040513d601f19601f82011682018060405250810190620015699190620020b8565b6001600160a01b0316336001600160a01b031614620015cb5760405162461bcd60e51b815260206004820152600b60248201527f556e6174686f72697a65640000000000000000000000000000000000000000006044820152606401620004c0565b6040518060c0016040528087815260200186815260200185151581526020018481526020016001548152602001826001600160a01b03166302d05d3f6040518163ffffffff1660e01b8152600401602060405180830381865afa15801562001637573d6000803e3d6000fd5b505050506040513d601f19601f820116820180604052508101906200165d9190620020b8565b6001600160a01b0390811690915283166000908152600560209081526040909120825180519192620016959284929091019062001ab9565b506020828101518051620016b0926001850192019062001ab9565b5060408281015160028301805460ff191691151591909117905560608301516003830155608083015160048084019190915560a0909301516005909201805473ffffffffffffffffffffffffffffffffffffffff19166001600160a01b0393841617905580516306fdde0360e01b815290517f707549c2a9a70b590212db4a3745231cd2aacd26eb60ddd1c82954df2fa15fde93928516926306fdde03928082019260009290918290030181865afa15801562001771573d6000803e3d6000fd5b505050506040513d6000823e601f3d908101601f191682016040526200179b91908101906200218e565b826001600160a01b03166395d89b416040518163ffffffff1660e01b8152600401600060405180830381865afa158015620017da573d6000803e3d6000fd5b505050506040513d6000823e601f3d908101601f191682016040526200180491908101906200218e565b836001600160a01b031663e7d931e46040518163ffffffff1660e01b8152600401600060405180830381865afa15801562001843573d6000803e3d6000fd5b505050506040513d6000823e601f3d908101601f191682016040526200186d91908101906200218e565b846001600160a01b0316635aef7de66040518163ffffffff1660e01b8152600401600060405180830381865afa158015620018ac573d6000803e3d6000fd5b505050506040513d6000823e601f3d908101601f19168201604052620018d691908101906200218e565b856001600160a01b03166302d05d3f6040518163ffffffff1660e01b8152600401602060405180830381865afa15801562001915573d6000803e3d6000fd5b505050506040513d601f19601f820116820180604052508101906200193b9190620020b8565b868c8c8c8c6001548c6001600160a01b031663816949b56040518163ffffffff1660e01b8152600401600060405180830381865afa15801562001982573d6000803e3d6000fd5b505050506040513d6000823e601f3d908101601f19168201604052620019ac919081019062002229565b604051620019c69c9b9a99989796959493929190620026f2565b60405180910390a1505050505050565b6000805b825181101562001a3a57828181518110620019f957620019f962002793565b60200260200101516001600160a01b0316856001600160a01b03160362001a2557600091505062001aa4565b8062001a3181620027a9565b915050620019da565b5060005b835181101562001a9e5783818151811062001a5d5762001a5d62002793565b60200260200101516001600160a01b0316856001600160a01b03160362001a8957600191505062001aa4565b8062001a9581620027a9565b91505062001a3e565b50600090505b9392505050565b61224b80620027d283390190565b82805482825590600052602060002090810192821562001b1e579160200282015b8281111562001b1e578251825473ffffffffffffffffffffffffffffffffffffffff19166001600160a01b0390911617825560209092019160019091019062001ada565b5062001b2c92915062001b30565b5090565b5b8082111562001b2c576000815560010162001b31565b634e487b7160e01b600052604160045260246000fd5b604051601f8201601f1916810167ffffffffffffffff8111828210171562001b895762001b8962001b47565b604052919050565b600067ffffffffffffffff82111562001bae5762001bae62001b47565b50601f01601f191660200190565b600062001bd362001bcd8462001b91565b62001b5d565b905082815283838301111562001be857600080fd5b828260208301376000602084830101529392505050565b600082601f83011262001c1157600080fd5b62001aa48383356020850162001bbc565b6001600160a01b038116811462001c3857600080fd5b50565b6000806040838503121562001c4f57600080fd5b823567ffffffffffffffff81111562001c6757600080fd5b62001c758582860162001bff565b925050602083013562001c888162001c22565b809150509250929050565b60008060006060848603121562001ca957600080fd5b83359250602084013562001cbd8162001c22565b929592945050506040919091013590565b60006020828403121562001ce157600080fd5b813562001aa48162001c22565b6000806040838503121562001d0257600080fd5b82359150602083013562001c888162001c22565b600067ffffffffffffffff82111562001d335762001d3362001b47565b5060051b60200190565b600082601f83011262001d4f57600080fd5b8135602062001d6262001bcd8362001d16565b82815260059290921b8401810191818101908684111562001d8257600080fd5b8286015b8481101562001d9f578035835291830191830162001d86565b509695505050505050565b600080600080600060a0868803121562001dc357600080fd5b853567ffffffffffffffff8082111562001ddc57600080fd5b62001dea89838a0162001bff565b9650602088013591508082111562001e0157600080fd5b62001e0f89838a0162001bff565b9550604088013591508082111562001e2657600080fd5b62001e3489838a0162001d3d565b9450606088013591508082111562001e4b57600080fd5b62001e5989838a0162001bff565b9350608088013591508082111562001e7057600080fd5b5062001e7f8882890162001bff565b9150509295509295909350565b60006020828403121562001e9f57600080fd5b5035919050565b60006020828403121562001eb957600080fd5b813567ffffffffffffffff81111562001ed157600080fd5b8201601f8101841362001ee357600080fd5b62001ef48482356020840162001bbc565b949350505050565b60005b8381101562001f1957818101518382015260200162001eff565b50506000910152565b6000815180845262001f3c81602086016020860162001efc565b601f01601f19169290920160200192915050565b821515815260406020820152600062001ef4604083018462001f22565b6000806040838503121562001f8157600080fd5b823562001f8e8162001c22565b946020939093013593505050565b600082601f83011262001fae57600080fd5b8135602062001fc162001bcd8362001d16565b82815260059290921b8401810191818101908684111562001fe157600080fd5b8286015b8481101562001d9f57803562001ffb8162001c22565b835291830191830162001fe5565b801515811462001c3857600080fd5b600080600080600060a086880312156200203157600080fd5b853567ffffffffffffffff808211156200204a57600080fd5b6200205889838a0162001f9c565b965060208801359150808211156200206f57600080fd5b506200207e8882890162001f9c565b9450506040860135620020918162002009565b9250606086013591506080860135620020aa8162001c22565b809150509295509295909350565b600060208284031215620020cb57600080fd5b815162001aa48162001c22565b606081526000620020ed606083018662001f22565b6001600160a01b039490941660208301525060400152919050565b6000602082840312156200211b57600080fd5b5051919050565b6000602082840312156200213557600080fd5b815162001aa48162002009565b600082601f8301126200215457600080fd5b81516200216562001bcd8262001b91565b8181528460208386010111156200217b57600080fd5b62001ef482602083016020870162001efc565b600060208284031215620021a157600080fd5b815167ffffffffffffffff811115620021b957600080fd5b62001ef48482850162002142565b600082601f830112620021d957600080fd5b81516020620021ec62001bcd8362001d16565b82815260059290921b840181019181810190868411156200220c57600080fd5b8286015b8481101562001d9f578051835291830191830162002210565b6000602082840312156200223c57600080fd5b815167ffffffffffffffff8111156200225457600080fd5b62001ef484828501620021c7565b600081518084526020808501945080840160005b83811015620022945781518752958201959082019060010162002276565b509495945050505050565b60006101006001600160a01b03808c168452816020850152620022c58285018c62001f22565b91508382036040850152620022db828b62001f22565b91508382036060850152620022f1828a62001f22565b9150838203608085015262002307828962002262565b96811660a085015260c08401959095525050911660e09091015295945050505050565b6001600160a01b038516815260a0602082015260006200234e60a083018662001f22565b60408301949094525060608101919091528082036080909101526000815260200192915050565b60e0815260006200238a60e083018a62001f22565b82810360208401526200239e818a62001f22565b90508281036040840152620023b4818962001f22565b90508281036060840152620023ca818862001f22565b90508281036080840152620023e0818762002262565b9150508360a08301526001600160a01b03831660c083015298975050505050505050565b6000815480845260208085019450836000528060002060005b83811015620022945781546001600160a01b0316875295820195600191820191016200241d565b610180815260006200245b61018083018f62001f22565b82810360208401526200246f818f62001f22565b9050828103604084015262002485818e62001f22565b905082810360608401526200249b818d62001f22565b6001600160a01b038c16608085015290506001600160a01b038a1660a084015282810360c0840152620024cf818a62002404565b905082810360e0840152620024e5818962002404565b8715156101008501529050856101208401528461014084015282810361016084015262002513818562002262565b9f9e505050505050505050505050505050565b8051620025338162001c22565b919050565b600080600080600080600080610100898b0312156200255657600080fd5b620025618962002526565b9750602089015167ffffffffffffffff808211156200257f57600080fd5b6200258d8c838d0162002142565b985060408b0151915080821115620025a457600080fd5b620025b28c838d0162002142565b975060608b0151915080821115620025c957600080fd5b620025d78c838d0162002142565b965060808b0151915080821115620025ee57600080fd5b50620025fd8b828c01620021c7565b9450506200260e60a08a0162002526565b925060c089015191506200262560e08a0162002526565b90509295985092959890939650565b60e0815260006200264960e083018862001f22565b82810360208401526200265d818862001f22565b905082810380604085015260008252602081016060850152600060208301526040810160808501525062002695604082018762002262565b9150508360a08301526001600160a01b03831660c08301529695505050505050565b600081518084526020808501945080840160005b83811015620022945781516001600160a01b031687529582019590820190600101620026cb565b610180815260006200270961018083018f62001f22565b82810360208401526200271d818f62001f22565b9050828103604084015262002733818e62001f22565b9050828103606084015262002749818d62001f22565b6001600160a01b038c16608085015290506001600160a01b038a1660a084015282810360c08401526200277d818a620026b7565b905082810360e0840152620024e58189620026b7565b634e487b7160e01b600052603260045260246000fd5b600060018201620027ca57634e487b7160e01b600052601160045260246000fd5b506001019056fe608060405260006007553480156200001657600080fd5b506040516200224b3803806200224b8339810160408190526200003991620002a0565b868660006200004983826200042c565b5060016200005882826200042c565b50600a91506200006b905086826200042c565b50600b6200007a85826200042c565b50600680546001600160a01b0319166001600160a01b038316179055600c8290558251620000b090600e906020860190620000be565b5050505050505050620004f8565b828054828255906000526020600020908101928215620000fc579160200282015b82811115620000fc578251825591602001919060010190620000df565b506200010a9291506200010e565b5090565b5b808211156200010a57600081556001016200010f565b634e487b7160e01b600052604160045260246000fd5b604051601f8201601f191681016001600160401b038111828210171562000166576200016662000125565b604052919050565b600082601f8301126200018057600080fd5b81516001600160401b038111156200019c576200019c62000125565b6020620001b2601f8301601f191682016200013b565b8281528582848701011115620001c757600080fd5b60005b83811015620001e7578581018301518282018401528201620001ca565b506000928101909101919091529392505050565b600082601f8301126200020d57600080fd5b815160206001600160401b038211156200022b576200022b62000125565b8160051b6200023c8282016200013b565b92835284810182019282810190878511156200025757600080fd5b83870192505b8483101562000278578251825291830191908301906200025d565b979650505050505050565b80516001600160a01b03811681146200029b57600080fd5b919050565b600080600080600080600060e0888a031215620002bc57600080fd5b87516001600160401b0380821115620002d457600080fd5b620002e28b838c016200016e565b985060208a0151915080821115620002f957600080fd5b620003078b838c016200016e565b975060408a01519150808211156200031e57600080fd5b6200032c8b838c016200016e565b965060608a01519150808211156200034357600080fd5b620003518b838c016200016e565b955060808a01519150808211156200036857600080fd5b50620003778a828b01620001fb565b93505060a088015191506200038f60c0890162000283565b905092959891949750929550565b600181811c90821680620003b257607f821691505b602082108103620003d357634e487b7160e01b600052602260045260246000fd5b50919050565b601f8211156200042757600081815260208120601f850160051c81016020861015620004025750805b601f850160051c820191505b8181101562000423578281556001016200040e565b5050505b505050565b81516001600160401b0381111562000448576200044862000125565b62000460816200045984546200039d565b84620003d9565b602080601f8311600181146200049857600084156200047f5750858301515b600019600386901b1c1916600185901b17855562000423565b600085815260208120601f198616915b82811015620004c957888601518255948401946001909101908401620004a8565b5085821015620004e85787850151600019600388901b60f8161c191681555b5050505050600190811b01905550565b611d4380620005086000396000f3fe608060405234801561001057600080fd5b50600436106101ae5760003560e01c80636352211e116100ee578063b0fa844411610097578063c87b56dd11610071578063c87b56dd146103af578063dbacc237146103c2578063e7d931e4146103d5578063e985e9c5146103dd57600080fd5b8063b0fa84441461036b578063b325d85d1461037c578063b88d4fde1461039c57600080fd5b8063816949b5116100c8578063816949b51461033b57806395d89b4114610350578063a22cb4651461035857600080fd5b80636352211e1461030257806370a08231146103155780637e8816b91461032857600080fd5b806323b872dd1161015b57806345facd8e1161013557806345facd8e146102975780635221c1f0146102d457806355f804b3146102e75780635aef7de6146102fa57600080fd5b806323b872dd1461025e57806342842e0e1461027157806342966c681461028457600080fd5b806306fdde031161018c57806306fdde0314610221578063081812fc14610236578063095ea7b31461024957600080fd5b806301ffc9a7146101b357806302d05d3f146101db5780630444ce0a14610200575b600080fd5b6101c66101c136600461173e565b610419565b60405190151581526020015b60405180910390f35b6006546001600160a01b03165b6040516001600160a01b0390911681526020016101d2565b61021361020e366004611762565b6104b6565b6040519081526020016101d2565b6102296104d7565b6040516101d291906117cb565b6101e8610244366004611762565b610569565b61025c6102573660046117fa565b610590565b005b61025c61026c366004611824565b6106e4565b61025c61027f366004611824565b61076b565b61025c610292366004611762565b610786565b61025c6102a5366004611860565b600d805473ffffffffffffffffffffffffffffffffffffffff19166001600160a01b0392909216919091179055565b6101c66102e2366004611762565b610792565b61025c6102f5366004611927565b6107fa565b610229610864565b6101e8610310366004611762565b610873565b610213610323366004611860565b6108d8565b61021361033636600461195c565b610972565b6103436109b9565b6040516101d291906119a3565b610229610a10565b61025c6103663660046119e7565b610a1f565b600d546001600160a01b03166101e8565b61021361038a366004611762565b600f6020526000908152604090205481565b61025c6103aa366004611a23565b610a2a565b6102296103bd366004611762565b610ab8565b6101e86103d0366004611762565b610c0a565b610229610c27565b6101c66103eb366004611a9f565b6001600160a01b03918216600090815260056020908152604080832093909416825291909152205460ff1690565b60006001600160e01b031982167f80ac58cd00000000000000000000000000000000000000000000000000000000148061047c57506001600160e01b031982167f5b5e139f00000000000000000000000000000000000000000000000000000000145b806104b057507f01ffc9a7000000000000000000000000000000000000000000000000000000006001600160e01b03198316145b92915050565b600e81815481106104c657600080fd5b600091825260209091200154905081565b6060600080546104e690611ad2565b80601f016020809104026020016040519081016040528092919081815260200182805461051290611ad2565b801561055f5780601f106105345761010080835404028352916020019161055f565b820191906000526020600020905b81548152906001019060200180831161054257829003601f168201915b5050505050905090565b600061057482610c36565b506000908152600460205260409020546001600160a01b031690565b600061059b82610873565b9050806001600160a01b0316836001600160a01b0316036106295760405162461bcd60e51b815260206004820152602160248201527f4552433732313a20617070726f76616c20746f2063757272656e74206f776e6560448201527f720000000000000000000000000000000000000000000000000000000000000060648201526084015b60405180910390fd5b336001600160a01b038216148061066357506001600160a01b038116600090815260056020908152604080832033845290915290205460ff165b6106d55760405162461bcd60e51b815260206004820152603d60248201527f4552433732313a20617070726f76652063616c6c6572206973206e6f7420746f60448201527f6b656e206f776e6572206f7220617070726f76656420666f7220616c6c0000006064820152608401610620565b6106df8383610c9a565b505050565b6106ee3382610d15565b6107605760405162461bcd60e51b815260206004820152602d60248201527f4552433732313a2063616c6c6572206973206e6f7420746f6b656e206f776e6560448201527f72206f7220617070726f766564000000000000000000000000000000000000006064820152608401610620565b6106df838383610d93565b6106df83838360405180602001604052806000815250610a2a565b61078f81610fa6565b50565b600081600c54036107a557506001919050565b60005b600e548110156107f15782600e82815481106107c6576107c6611b0c565b9060005260206000200154036107df5750600192915050565b806107e981611b38565b9150506107a8565b50600092915050565b6006546001600160a01b031633146108545760405162461bcd60e51b815260206004820152601f60248201527f6f6e6c79206f776e65722063616e2063616c6c2074686973206d6574686f64006044820152606401610620565b60096108608282611b9f565b5050565b6060600b80546104e690611ad2565b6000818152600260205260408120546001600160a01b0316806104b05760405162461bcd60e51b815260206004820152601860248201527f4552433732313a20696e76616c696420746f6b656e20494400000000000000006044820152606401610620565b60006001600160a01b0382166109565760405162461bcd60e51b815260206004820152602960248201527f4552433732313a2061646472657373207a65726f206973206e6f74206120766160448201527f6c6964206f776e657200000000000000000000000000000000000000000000006064820152608401610620565b506001600160a01b031660009081526003602052604090205490565b600080821561099a576007805490600061098b83611b38565b9190505550600754905061099d565b50815b6109a78482611056565b6109b181866111fc565b949350505050565b6060600e80548060200260200160405190810160405280929190818152602001828054801561055f57602002820191906000526020600020905b8154815260200190600101908083116109f3575050505050905090565b6060600180546104e690611ad2565b610860338383611261565b610a343383610d15565b610aa65760405162461bcd60e51b815260206004820152602d60248201527f4552433732313a2063616c6c6572206973206e6f7420746f6b656e206f776e6560448201527f72206f7220617070726f766564000000000000000000000000000000000000006064820152608401610620565b610ab28484848461132f565b50505050565b6000818152600260205260409020546060906001600160a01b0316610b085760405162461bcd60e51b815260206004820152600660248201526508595e1a5cdd60d21b6044820152606401610620565b60008281526008602052604081208054610b2190611ad2565b80601f0160208091040260200160405190810160405280929190818152602001828054610b4d90611ad2565b8015610b9a5780601f10610b6f57610100808354040283529160200191610b9a565b820191906000526020600020905b815481529060010190602001808311610b7d57829003601f168201915b505050505090506000610bab6113b8565b90508051600003610bbd575092915050565b815115610bef578082604051602001610bd7929190611c5f565b60405160208183030381529060405292505050919050565b80610bf9856113c7565b604051602001610bd7929190611c5f565b6000818152600260205260408120546001600160a01b03166104b0565b6060600a80546104e690611ad2565b6000818152600260205260409020546001600160a01b031661078f5760405162461bcd60e51b815260206004820152601860248201527f4552433732313a20696e76616c696420746f6b656e20494400000000000000006044820152606401610620565b6000818152600460205260409020805473ffffffffffffffffffffffffffffffffffffffff19166001600160a01b0384169081179091558190610cdc82610873565b6001600160a01b03167f8c5be1e5ebec7d5bd14f71427d1e84f3dd0314c0f7b2291e5b200ac8c7c3b92560405160405180910390a45050565b600080610d2183610873565b9050806001600160a01b0316846001600160a01b03161480610d6857506001600160a01b0380821660009081526005602090815260408083209388168352929052205460ff165b806109b15750836001600160a01b0316610d8184610569565b6001600160a01b031614949350505050565b826001600160a01b0316610da682610873565b6001600160a01b031614610e0a5760405162461bcd60e51b815260206004820152602560248201527f4552433732313a207472616e736665722066726f6d20696e636f72726563742060448201526437bbb732b960d91b6064820152608401610620565b6001600160a01b038216610e855760405162461bcd60e51b8152602060048201526024808201527f4552433732313a207472616e7366657220746f20746865207a65726f2061646460448201527f72657373000000000000000000000000000000000000000000000000000000006064820152608401610620565b610e928383836001611467565b826001600160a01b0316610ea582610873565b6001600160a01b031614610f095760405162461bcd60e51b815260206004820152602560248201527f4552433732313a207472616e736665722066726f6d20696e636f72726563742060448201526437bbb732b960d91b6064820152608401610620565b6000818152600460209081526040808320805473ffffffffffffffffffffffffffffffffffffffff199081169091556001600160a01b0387811680865260038552838620805460001901905590871680865283862080546001019055868652600290945282852080549092168417909155905184937fddf252ad1be2c89b69c2b068fc378daa952ba7f163c4a11628f55a4df523b3ef91a4505050565b6000610fb182610873565b9050610fc1816000846001611467565b610fca82610873565b6000838152600460209081526040808320805473ffffffffffffffffffffffffffffffffffffffff199081169091556001600160a01b0385168085526003845282852080546000190190558785526002909352818420805490911690555192935084927fddf252ad1be2c89b69c2b068fc378daa952ba7f163c4a11628f55a4df523b3ef908390a45050565b6001600160a01b0382166110ac5760405162461bcd60e51b815260206004820181905260248201527f4552433732313a206d696e7420746f20746865207a65726f20616464726573736044820152606401610620565b6000818152600260205260409020546001600160a01b0316156111115760405162461bcd60e51b815260206004820152601c60248201527f4552433732313a20746f6b656e20616c7265616479206d696e746564000000006044820152606401610620565b61111f600083836001611467565b6000818152600260205260409020546001600160a01b0316156111845760405162461bcd60e51b815260206004820152601c60248201527f4552433732313a20746f6b656e20616c7265616479206d696e746564000000006044820152606401610620565b6001600160a01b0382166000818152600360209081526040808320805460010190558483526002909152808220805473ffffffffffffffffffffffffffffffffffffffff19168417905551839291907fddf252ad1be2c89b69c2b068fc378daa952ba7f163c4a11628f55a4df523b3ef908290a45050565b6000828152600260205260409020546001600160a01b03166112495760405162461bcd60e51b815260206004820152600660248201526508595e1a5cdd60d21b6044820152606401610620565b60008281526008602052604090206106df8282611b9f565b816001600160a01b0316836001600160a01b0316036112c25760405162461bcd60e51b815260206004820152601960248201527f4552433732313a20617070726f766520746f2063616c6c6572000000000000006044820152606401610620565b6001600160a01b03838116600081815260056020908152604080832094871680845294825291829020805460ff191686151590811790915591519182527f17307eab39ab6107e8899845ad3d59bd9653f200f220920489ca2b5937696c31910160405180910390a3505050565b61133a848484610d93565b611346848484846114ef565b610ab25760405162461bcd60e51b815260206004820152603260248201527f4552433732313a207472616e7366657220746f206e6f6e20455243373231526560448201527f63656976657220696d706c656d656e74657200000000000000000000000000006064820152608401610620565b6060600980546104e690611ad2565b606060006113d483611646565b600101905060008167ffffffffffffffff8111156113f4576113f461187b565b6040519080825280601f01601f19166020018201604052801561141e576020820181803683370190505b5090508181016020015b600019017f3031323334353637383961626364656600000000000000000000000000000000600a86061a8153600a850494508461142857509392505050565b6001811115610ab2576001600160a01b038416156114ad576001600160a01b038416600090815260036020526040812080548392906114a7908490611c8e565b90915550505b6001600160a01b03831615610ab2576001600160a01b038316600090815260036020526040812080548392906114e4908490611ca1565b909155505050505050565b60006001600160a01b0384163b1561163b57604051630a85bd0160e11b81526001600160a01b0385169063150b7a0290611533903390899088908890600401611cb4565b6020604051808303816000875af192505050801561156e575060408051601f3d908101601f1916820190925261156b91810190611cf0565b60015b611621573d80801561159c576040519150601f19603f3d011682016040523d82523d6000602084013e6115a1565b606091505b5080516000036116195760405162461bcd60e51b815260206004820152603260248201527f4552433732313a207472616e7366657220746f206e6f6e20455243373231526560448201527f63656976657220696d706c656d656e74657200000000000000000000000000006064820152608401610620565b805181602001fd5b6001600160e01b031916630a85bd0160e11b1490506109b1565b506001949350505050565b6000807a184f03e93ff9f4daa797ed6e38ed64bf6a1f010000000000000000831061168f577a184f03e93ff9f4daa797ed6e38ed64bf6a1f010000000000000000830492506040015b6d04ee2d6d415b85acef810000000083106116bb576d04ee2d6d415b85acef8100000000830492506020015b662386f26fc1000083106116d957662386f26fc10000830492506010015b6305f5e10083106116f1576305f5e100830492506008015b612710831061170557612710830492506004015b60648310611717576064830492506002015b600a83106104b05760010192915050565b6001600160e01b03198116811461078f57600080fd5b60006020828403121561175057600080fd5b813561175b81611728565b9392505050565b60006020828403121561177457600080fd5b5035919050565b60005b8381101561179657818101518382015260200161177e565b50506000910152565b600081518084526117b781602086016020860161177b565b601f01601f19169290920160200192915050565b60208152600061175b602083018461179f565b80356001600160a01b03811681146117f557600080fd5b919050565b6000806040838503121561180d57600080fd5b611816836117de565b946020939093013593505050565b60008060006060848603121561183957600080fd5b611842846117de565b9250611850602085016117de565b9150604084013590509250925092565b60006020828403121561187257600080fd5b61175b826117de565b634e487b7160e01b600052604160045260246000fd5b600067ffffffffffffffff808411156118ac576118ac61187b565b604051601f8501601f19908116603f011681019082821181831017156118d4576118d461187b565b816040528093508581528686860111156118ed57600080fd5b858560208301376000602087830101525050509392505050565b600082601f83011261191857600080fd5b61175b83833560208501611891565b60006020828403121561193957600080fd5b813567ffffffffffffffff81111561195057600080fd5b6109b184828501611907565b60008060006060848603121561197157600080fd5b833567ffffffffffffffff81111561198857600080fd5b61199486828701611907565b935050611850602085016117de565b6020808252825182820181905260009190848201906040850190845b818110156119db578351835292840192918401916001016119bf565b50909695505050505050565b600080604083850312156119fa57600080fd5b611a03836117de565b915060208301358015158114611a1857600080fd5b809150509250929050565b60008060008060808587031215611a3957600080fd5b611a42856117de565b9350611a50602086016117de565b925060408501359150606085013567ffffffffffffffff811115611a7357600080fd5b8501601f81018713611a8457600080fd5b611a9387823560208401611891565b91505092959194509250565b60008060408385031215611ab257600080fd5b611abb836117de565b9150611ac9602084016117de565b90509250929050565b600181811c90821680611ae657607f821691505b602082108103611b0657634e487b7160e01b600052602260045260246000fd5b50919050565b634e487b7160e01b600052603260045260246000fd5b634e487b7160e01b600052601160045260246000fd5b600060018201611b4a57611b4a611b22565b5060010190565b601f8211156106df57600081815260208120601f850160051c81016020861015611b785750805b601f850160051c820191505b81811015611b9757828155600101611b84565b505050505050565b815167ffffffffffffffff811115611bb957611bb961187b565b611bcd81611bc78454611ad2565b84611b51565b602080601f831160018114611c025760008415611bea5750858301515b600019600386901b1c1916600185901b178555611b97565b600085815260208120601f198616915b82811015611c3157888601518255948401946001909101908401611c12565b5085821015611c4f5787850151600019600388901b60f8161c191681555b5050505050600190811b01905550565b60008351611c7181846020880161177b565b835190830190611c8581836020880161177b565b01949350505050565b818103818111156104b0576104b0611b22565b808201808211156104b0576104b0611b22565b60006001600160a01b03808716835280861660208401525083604083015260806060830152611ce6608083018461179f565b9695505050505050565b600060208284031215611d0257600080fd5b815161175b8161172856fea26469706673582212202df193ef7597ab87546829c6823d790759fd74d9b90069d8aa3b2776a86e53f964736f6c63430008100033a2646970667358221220abd8de01b847ba579aa98b5202e02c4f9b9b6de9175c1c613ae40e14e3233bed64736f6c63430008100033",
  "immutableReferences": {},
  "source": "// SPDX-License-Identifier: GPL-3.0\npragma solidity >=0.7.0 <0.9.0;\n\nimport {MultiERC721} from \"./MultiERC721.sol\";\nimport {Events} from \"./libraries/Events.sol\";\nimport {CallProxy} from \"./interfaces/CallProxy.sol\";\n\ncontract CrossArt {\n    address private _deployer;\n    uint private _thisChainId;\n\n    // anycall contracts mapped to chainId\n    address public _anycallcontract;\n\n    // destinations contract\n    mapping(uint => address) public destinations;\n\n    // creator => nft contract addresses\n    mapping(address => address[]) public creators;\n\n    // nft contract address => collection metadata\n    mapping(address => Collection) public collections;\n\n    // mapping nft source chain address to this chain address\n    mapping(address => address) private nftMaps;\n\n    struct Collection {\n        address[] whiteList;\n        address[] blackList;\n        bool isWhiteSystem;\n        uint256 mintPrice;\n        uint chainId;\n        address creator;\n    }\n\n    receive() external payable {}\n\n    fallback() external payable {}\n\n    constructor(address anycallcontract, uint chainId) {\n        _anycallcontract = anycallcontract;\n        _thisChainId = chainId;\n        _deployer = msg.sender;\n    }\n\n    function createCollection(\n        string memory name,\n        string memory symbol,\n        uint[] memory supportedChains,\n        string memory cover,\n        string memory avatar\n    ) public {\n        MultiERC721 nft = new MultiERC721(\n            name,\n            symbol,\n            cover,\n            avatar,\n            supportedChains,\n            _thisChainId,\n            msg.sender\n        );\n\n        // set the nft source address\n        address contractAddress = address(nft);\n\n        nft.setSourceAddress(contractAddress);\n        nftMaps[contractAddress] = contractAddress;\n\n        collections[contractAddress] = Collection(\n            collections[contractAddress].whiteList,\n            collections[contractAddress].blackList,\n            false,\n            0,\n            _thisChainId,\n            nft.creator()\n        );\n\n        emit Events.ArtCollection(\n            // metadata\n            nft.name(),\n            nft.symbol(),\n            nft.cover(),\n            nft.avatar(),\n            // addresses\n            nft.creator(),\n            contractAddress,\n            // sorting\n            collections[contractAddress].whiteList,\n            collections[contractAddress].blackList,\n            false,\n            0, // mintPrice\n            // chains\n            _thisChainId,\n            nft.supportedChains()\n        );\n    }\n\n    function updateCollection(\n        address[] memory whiteList,\n        address[] memory blackList,\n        bool isWhiteSystem,\n        uint256 mintPrice,\n        address contractAddress\n    ) public {\n        MultiERC721 nft = MultiERC721(contractAddress);\n        require(msg.sender == nft.creator(), \"Unathorized\");\n\n        collections[contractAddress] = Collection(\n            whiteList,\n            blackList,\n            isWhiteSystem,\n            mintPrice,\n            _thisChainId,\n            nft.creator()\n        );\n\n        emit Events.ArtCollection(\n            // metadata\n            nft.name(),\n            nft.symbol(),\n            nft.cover(),\n            nft.avatar(),\n            // addresses\n            nft.creator(),\n            address(nft),\n            // sorting\n            whiteList,\n            blackList,\n            isWhiteSystem,\n            mintPrice,\n            // chains\n            _thisChainId,\n            nft.supportedChains()\n        );\n    }\n\n    function mint(string memory uri, address contractAddress) public payable {\n        MultiERC721 nft = MultiERC721(contractAddress);\n        Collection memory collection = collections[contractAddress];\n\n        if (msg.sender != nft.creator()) {\n            require(\n                msg.value >= collection.mintPrice,\n                \"Insuficient Mint Amount\"\n            );\n\n            if (collection.isWhiteSystem) {\n                bool eligible = _isEligble(\n                    msg.sender,\n                    collection.whiteList,\n                    collection.blackList\n                );\n                require(eligible, \"You're not eligible\");\n            }\n        }\n\n        uint tokenID = nft.mint(uri, msg.sender, 0);\n\n        emit Events.ArtItem(\n            // id\n            tokenID,\n            // addresses\n            msg.sender,\n            address(nft),\n            // chain\n            _thisChainId\n        );\n    }\n\n    function bridge(\n        uint tokenID,\n        address contractAddress,\n        uint destinationChainId\n    ) public payable {\n        MultiERC721 nft = MultiERC721(contractAddress);\n        require(\n            nft.isChainSupported(destinationChainId),\n            \"unsupported destination chain\"\n        );\n\n        require(\n            msg.sender == nft.holderOf(tokenID),\n            \"you cant bridge this token\"\n        );\n\n        bytes memory data = abi.encode(\n            nft.sourceAddress(),\n            nft.tokenURI(tokenID),\n            nft.name(), // related for non existing nft\n            nft.symbol(), // related for non existing nft\n            nft.supportedChains(), // related for non existing nft\n            nft.creator(), // related for non existing nft\n            tokenID,\n            nft.holderOf(tokenID)\n        );\n\n        // burn token on originated chain\n        nft.burn(tokenID);\n\n        // cross-chain message to mint same token\n        // on destination chain\n        CallProxy(_anycallcontract).anyCall{value: msg.value}(\n            destinations[destinationChainId],\n            // sending the encoded bytes of the string uri and decode on the destination chain\n            data,\n            destinationChainId,\n            // Using 0 flag to pay fee on the source chain\n            0,\n            \"\"\n        );\n    }\n\n    function anyExecute(\n        bytes memory _data\n    ) external returns (bool success, bytes memory result) {\n        (\n            address sourceAddress,\n            string memory uri,\n            string memory name, // related for non existing nft\n            string memory symbol, // related for non existing nft\n            uint[] memory supportedChains, // related for non existing nft\n            address creator, // related for non existing nft\n            uint256 tokenID,\n            address holder\n        ) = abi.decode(\n                _data,\n                (\n                    address,\n                    string,\n                    string,\n                    string,\n                    uint[],\n                    address,\n                    uint256,\n                    address\n                )\n            );\n\n        bool existing = nftMaps[sourceAddress] != address(0);\n\n        MultiERC721 nft;\n\n        if (existing) {\n            nft = MultiERC721(nftMaps[sourceAddress]);\n        } else {\n            nft = new MultiERC721(\n                name,\n                symbol,\n                \"\",\n                \"\",\n                supportedChains,\n                _thisChainId,\n                creator\n            );\n\n            // set the nft source address\n            nft.setSourceAddress(sourceAddress);\n            nftMaps[sourceAddress] = address(nft);\n        }\n\n        nft.mint(uri, holder, tokenID);\n\n        success = true;\n        result = \"\";\n    }\n\n    function _isEligble(\n        address minter,\n        address[] memory whiteList,\n        address[] memory blackList\n    ) private pure returns (bool) {\n        for (uint index = 0; index < blackList.length; index++) {\n            if (minter == blackList[index]) {\n                return false;\n            }\n        }\n        for (uint index = 0; index < whiteList.length; index++) {\n            if (minter == whiteList[index]) {\n                return true;\n            }\n        }\n        return false;\n    }\n\n    function addChain(\n        uint chainId,\n        address contractAddress\n    ) public onlyDeployer {\n        destinations[chainId] = contractAddress;\n    }\n\n    event Desposit(address account, uint256 amount);\n\n    modifier onlyDeployer() {\n        require(msg.sender == _deployer, \"only owner can call this method\");\n        _;\n    }\n}\n",
  "sourcePath": "C:\\Users\\Arogundade Ibrahim\\documents\\web3\\crossart\\contracts\\CrossArt.sol",
  "compiler": {
    "name": "solc",
    "version": "0.8.16+commit.07a7930e.Emscripten.clang"
  },
  "schemaVersion": "3.4.10",
  "updatedAt": "2022-12-12T20:33:59.439Z",
  "devdoc": {
    "kind": "dev",
    "methods": {},
    "version": 1
  },
  "userdoc": {
    "kind": "user",
    "methods": {},
    "version": 1
  }
}