{
  "contractName": "CrossArt",
  "abi": [
    {
      "inputs": [
        {
          "internalType": "address",
          "name": "anycallcontract",
          "type": "address"
        }
      ],
      "stateMutability": "nonpayable",
      "type": "constructor"
    },
    {
      "stateMutability": "payable",
      "type": "fallback",
      "payable": true
    },
    {
      "inputs": [],
      "name": "_anycallcontract",
      "outputs": [
        {
          "internalType": "address",
          "name": "",
          "type": "address"
        }
      ],
      "stateMutability": "view",
      "type": "function",
      "constant": true
    },
    {
      "inputs": [
        {
          "internalType": "uint256",
          "name": "",
          "type": "uint256"
        }
      ],
      "name": "destinations",
      "outputs": [
        {
          "internalType": "address",
          "name": "",
          "type": "address"
        }
      ],
      "stateMutability": "view",
      "type": "function",
      "constant": true
    },
    {
      "stateMutability": "payable",
      "type": "receive",
      "payable": true
    },
    {
      "inputs": [
        {
          "internalType": "string",
          "name": "name",
          "type": "string"
        },
        {
          "internalType": "string",
          "name": "symbol",
          "type": "string"
        },
        {
          "internalType": "uint256[]",
          "name": "supportedChains",
          "type": "uint256[]"
        }
      ],
      "name": "deploy",
      "outputs": [],
      "stateMutability": "payable",
      "type": "function",
      "payable": true
    },
    {
      "inputs": [
        {
          "internalType": "string",
          "name": "uri",
          "type": "string"
        },
        {
          "internalType": "address",
          "name": "contractAddress",
          "type": "address"
        }
      ],
      "name": "mint",
      "outputs": [],
      "stateMutability": "nonpayable",
      "type": "function"
    },
    {
      "inputs": [
        {
          "internalType": "uint256",
          "name": "tokenID",
          "type": "uint256"
        },
        {
          "internalType": "address",
          "name": "contractAddress",
          "type": "address"
        },
        {
          "internalType": "uint256",
          "name": "destinationChainId",
          "type": "uint256"
        }
      ],
      "name": "bridge",
      "outputs": [],
      "stateMutability": "payable",
      "type": "function",
      "payable": true
    },
    {
      "inputs": [
        {
          "internalType": "bytes",
          "name": "_data",
          "type": "bytes"
        }
      ],
      "name": "anyExecute",
      "outputs": [
        {
          "internalType": "bool",
          "name": "success",
          "type": "bool"
        },
        {
          "internalType": "bytes",
          "name": "result",
          "type": "bytes"
        }
      ],
      "stateMutability": "nonpayable",
      "type": "function"
    },
    {
      "inputs": [
        {
          "internalType": "uint256",
          "name": "chainId",
          "type": "uint256"
        },
        {
          "internalType": "address",
          "name": "contractAddress",
          "type": "address"
        }
      ],
      "name": "addChain",
      "outputs": [],
      "stateMutability": "nonpayable",
      "type": "function"
    }
  ],
  "bytecode": "0x608060405234801561001057600080fd5b50604051612ea3380380612ea383398101604081905261002f9161005d565b600280546001600160a01b039092166001600160a01b0319928316179055600080549091163317905561008d565b60006020828403121561006f57600080fd5b81516001600160a01b038116811461008657600080fd5b9392505050565b612e078061009c6000396000f3fe608060405260043610620000775760003560e01c80638dd4ba2e11620000515780638dd4ba2e14620000e25780639921888a14620001395780639abaf4791462000150578063fef54ec8146200018557005b80631c351a9d14620000815780632f820a5f14620000a65780635303942b14620000bd57005b366200007f57005b005b3480156200008e57600080fd5b506200007f620000a036600462000910565b620001a7565b6200007f620000b736600462000968565b62000355565b348015620000ca57600080fd5b506200007f620000dc366004620009a3565b6200064e565b348015620000ef57600080fd5b506200011c62000101366004620009cb565b6003602052600090815260409020546001600160a01b031681565b6040516001600160a01b0390911681526020015b60405180910390f35b6200007f6200014a366004620009e5565b620006f0565b3480156200015d57600080fd5b50620001756200016f36600462000ae3565b6200078b565b6040516200013092919062000b8d565b3480156200019257600080fd5b506002546200011c906001600160a01b031681565b6000819050336001600160a01b0316816001600160a01b0316630ee2cb106040518163ffffffff1660e01b8152600401602060405180830381865afa158015620001f5573d6000803e3d6000fd5b505050506040513d601f19601f820116820180604052508101906200021b919062000baa565b6001600160a01b031614620002775760405162461bcd60e51b815260206004820152601860248201527f796f752063616e74206d696e74207468697320746f6b656e000000000000000060448201526064015b60405180910390fd5b6040517f1c351a9d0000000000000000000000000000000000000000000000000000000081526000906001600160a01b03831690631c351a9d90620002c3908790339060040162000bca565b6020604051808303816000875af1158015620002e3573d6000803e3d6000fd5b505050506040513d601f19601f8201168201806040525081019062000309919062000bf7565b604080516001600160a01b0386168152602081018390529192507ff2b290a76feb54be358b555507421d765609171aefa0646f109a653228ff81b891015b60405180910390a150505050565b6040517f5221c1f00000000000000000000000000000000000000000000000000000000081526004810182905282906001600160a01b03821690635221c1f090602401602060405180830381865afa158015620003b6573d6000803e3d6000fd5b505050506040513d601f19601f82011682018060405250810190620003dc919062000c11565b6200042a5760405162461bcd60e51b815260206004820152601d60248201527f756e737570706f727465642064657374696e6174696f6e20636861696e00000060448201526064016200026e565b6040517fdbacc237000000000000000000000000000000000000000000000000000000008152600481018590526001600160a01b0382169063dbacc23790602401602060405180830381865afa15801562000489573d6000803e3d6000fd5b505050506040513d601f19601f82011682018060405250810190620004af919062000baa565b6001600160a01b0316336001600160a01b031614620005115760405162461bcd60e51b815260206004820152601a60248201527f796f752063616e7420627269646765207468697320746f6b656e00000000000060448201526064016200026e565b6040517fc87b56dd000000000000000000000000000000000000000000000000000000008152600481018590526000906001600160a01b0383169063c87b56dd90602401600060405180830381865afa15801562000573573d6000803e3d6000fd5b505050506040513d6000823e601f3d908101601f191682016040526200059d919081019062000c35565b60025460008581526003602090815260409182902054915193945084936001600160a01b0393841693631979a284933493911691620005df9187910162000cb5565b6040516020818303038152906040528860006040518663ffffffff1660e01b815260040162000612949392919062000cca565b6000604051808303818588803b1580156200062c57600080fd5b505af115801562000641573d6000803e3d6000fd5b5050505050505050505050565b6000546001600160a01b03163314620006aa5760405162461bcd60e51b815260206004820152601f60248201527f6f6e6c79206f776e65722063616e2063616c6c2074686973206d6574686f640060448201526064016200026e565b60009182526003602052604090912080547fffffffffffffffffffffffff0000000000000000000000000000000000000000166001600160a01b03909216919091179055565b6000838383600154336040516200070790620007ee565b6200071795949392919062000d52565b604051809103906000f08015801562000734573d6000803e3d6000fd5b509050620007526040518060200160405280600081525082620001a7565b7f8baa818f291b101444be572d3388b299fba3f296a3d467e084c0dc52b6dc80f681833360015460405162000347949392919062000db3565b600060608060008160016000604051620007a590620007ee565b620007b39392919062000dea565b604051809103906000f080158015620007d0573d6000803e3d6000fd5b50506040805160208101909152600081526001969095509350505050565b611f488062000e8a83390190565b7f4e487b7100000000000000000000000000000000000000000000000000000000600052604160045260246000fd5b604051601f8201601f1916810167ffffffffffffffff81118282101715620008575762000857620007fc565b604052919050565b600067ffffffffffffffff8211156200087c576200087c620007fc565b50601f01601f191660200190565b6000620008a16200089b846200085f565b6200082b565b9050828152838383011115620008b657600080fd5b828260208301376000602084830101529392505050565b600082601f830112620008df57600080fd5b620008f0838335602085016200088a565b9392505050565b6001600160a01b03811681146200090d57600080fd5b50565b600080604083850312156200092457600080fd5b823567ffffffffffffffff8111156200093c57600080fd5b6200094a85828601620008cd565b92505060208301356200095d81620008f7565b809150509250929050565b6000806000606084860312156200097e57600080fd5b8335925060208401356200099281620008f7565b929592945050506040919091013590565b60008060408385031215620009b757600080fd5b8235915060208301356200095d81620008f7565b600060208284031215620009de57600080fd5b5035919050565b600080600060608486031215620009fb57600080fd5b833567ffffffffffffffff8082111562000a1457600080fd5b62000a2287838801620008cd565b945060209150818601358181111562000a3a57600080fd5b62000a4888828901620008cd565b94505060408601358181111562000a5e57600080fd5b8601601f8101881362000a7057600080fd5b80358281111562000a855762000a85620007fc565b8060051b925062000a988484016200082b565b818152928201840192848101908a85111562000ab357600080fd5b928501925b8484101562000ad35783358252928501929085019062000ab8565b8096505050505050509250925092565b60006020828403121562000af657600080fd5b813567ffffffffffffffff81111562000b0e57600080fd5b8201601f8101841362000b2057600080fd5b62000b31848235602084016200088a565b949350505050565b60005b8381101562000b5657818101518382015260200162000b3c565b50506000910152565b6000815180845262000b7981602086016020860162000b39565b601f01601f19169290920160200192915050565b821515815260406020820152600062000b31604083018462000b5f565b60006020828403121562000bbd57600080fd5b8151620008f081620008f7565b60408152600062000bdf604083018562000b5f565b90506001600160a01b03831660208301529392505050565b60006020828403121562000c0a57600080fd5b5051919050565b60006020828403121562000c2457600080fd5b81518015158114620008f057600080fd5b60006020828403121562000c4857600080fd5b815167ffffffffffffffff81111562000c6057600080fd5b8201601f8101841362000c7257600080fd5b805162000c836200089b826200085f565b81815285602083850101111562000c9957600080fd5b62000cac82602083016020860162000b39565b95945050505050565b602081526000620008f0602083018462000b5f565b6001600160a01b038516815260a06020820152600062000cee60a083018662000b5f565b60408301949094525060608101919091528082036080909101526000815260200192915050565b600081518084526020808501945080840160005b8381101562000d475781518752958201959082019060010162000d29565b509495945050505050565b60a08152600062000d6760a083018862000b5f565b828103602084015262000d7b818862000b5f565b9050828103604084015262000d91818762000d15565b9150508360608301526001600160a01b03831660808301529695505050505050565b60006001600160a01b0380871683526080602084015262000dd8608084018762000d15565b94166040830152506060015292915050565b60a08152600660a08201527f53616d706c65000000000000000000000000000000000000000000000000000060c082015260e06020820152600360e08201527f534d500000000000000000000000000000000000000000000000000000000000610100820152600061012080604084015262000e698184018762000d15565b9150508360608301526001600160a01b038316608083015294935050505056fe608060405260006007553480156200001657600080fd5b5060405162001f4838038062001f488339810160408190526200003991620001f6565b848460006200004983826200039f565b5060016200005882826200039f565b5050600680546001600160a01b0319166001600160a01b03841617905550600a82905582516200009090600b9060208601906200009c565b5050505050506200046b565b828054828255906000526020600020908101928215620000da579160200282015b82811115620000da578251825591602001919060010190620000bd565b50620000e8929150620000ec565b5090565b5b80821115620000e85760008155600101620000ed565b634e487b7160e01b600052604160045260246000fd5b604051601f8201601f191681016001600160401b038111828210171562000144576200014462000103565b604052919050565b600082601f8301126200015e57600080fd5b81516001600160401b038111156200017a576200017a62000103565b602062000190601f8301601f1916820162000119565b8281528582848701011115620001a557600080fd5b60005b83811015620001c5578581018301518282018401528201620001a8565b506000928101909101919091529392505050565b80516001600160a01b0381168114620001f157600080fd5b919050565b600080600080600060a086880312156200020f57600080fd5b85516001600160401b03808211156200022757600080fd5b6200023589838a016200014c565b96506020915081880151818111156200024d57600080fd5b6200025b8a828b016200014c565b9650506040880151818111156200027157600080fd5b8801601f81018a136200028357600080fd5b80518281111562000298576200029862000103565b8060051b9250620002ab84840162000119565b818152928201840192848101908c851115620002c657600080fd5b928501925b84841015620002e657835182529285019290850190620002cb565b809850505050505050606086015191506200030460808701620001d9565b90509295509295909350565b600181811c908216806200032557607f821691505b6020821081036200034657634e487b7160e01b600052602260045260246000fd5b50919050565b601f8211156200039a57600081815260208120601f850160051c81016020861015620003755750805b601f850160051c820191505b81811015620003965782815560010162000381565b5050505b505050565b81516001600160401b03811115620003bb57620003bb62000103565b620003d381620003cc845462000310565b846200034c565b602080601f8311600181146200040b5760008415620003f25750858301515b600019600386901b1c1916600185901b17855562000396565b600085815260208120601f198616915b828110156200043c578886015182559484019460019091019084016200041b565b50858210156200045b5787850151600019600388901b60f8161c191681555b5050505050600190811b01905550565b611acd806200047b6000396000f3fe608060405234801561001057600080fd5b506004361061016c5760003560e01c806355f804b3116100cd578063b325d85d11610081578063c87b56dd11610066578063c87b56dd146102f3578063dbacc23714610306578063e985e9c51461031957600080fd5b8063b325d85d146102c0578063b88d4fde146102e057600080fd5b806370a08231116100b257806370a082311461029257806395d89b41146102a5578063a22cb465146102ad57600080fd5b806355f804b31461026c5780636352211e1461027f57600080fd5b80630ee2cb101161012457806323b872dd1161010957806323b872dd1461023357806342842e0e146102465780635221c1f01461025957600080fd5b80630ee2cb101461020f5780631c351a9d1461022057600080fd5b806306fdde031161015557806306fdde03146101ba578063081812fc146101cf578063095ea7b3146101fa57600080fd5b806301ffc9a7146101715780630444ce0a14610199575b600080fd5b61018461017f36600461150e565b610355565b60405190151581526020015b60405180910390f35b6101ac6101a7366004611532565b6103f2565b604051908152602001610190565b6101c2610413565b604051610190919061159b565b6101e26101dd366004611532565b6104a5565b6040516001600160a01b039091168152602001610190565b61020d6102083660046115ca565b6104cc565b005b6006546001600160a01b03166101e2565b6101ac61022e3660046116a0565b610602565b61020d6102413660046116ee565b61063a565b61020d6102543660046116ee565b6106c1565b610184610267366004611532565b6106dc565b61020d61027a36600461172a565b610732565b6101e261028d366004611532565b61079c565b6101ac6102a036600461175f565b610801565b6101c261089b565b61020d6102bb36600461177a565b6108aa565b6101ac6102ce366004611532565b600c6020526000908152604090205481565b61020d6102ee3660046117b6565b6108b5565b6101c2610301366004611532565b610943565b6101e2610314366004611532565b610a95565b610184610327366004611832565b6001600160a01b03918216600090815260056020908152604080832093909416825291909152205460ff1690565b60006001600160e01b031982167f80ac58cd0000000000000000000000000000000000000000000000000000000014806103b857506001600160e01b031982167f5b5e139f00000000000000000000000000000000000000000000000000000000145b806103ec57507f01ffc9a7000000000000000000000000000000000000000000000000000000006001600160e01b03198316145b92915050565b600b818154811061040257600080fd5b600091825260209091200154905081565b6060600080546104229061185c565b80601f016020809104026020016040519081016040528092919081815260200182805461044e9061185c565b801561049b5780601f106104705761010080835404028352916020019161049b565b820191906000526020600020905b81548152906001019060200180831161047e57829003601f168201915b5050505050905090565b60006104b082610ab2565b506000908152600460205260409020546001600160a01b031690565b60006104d78261079c565b9050806001600160a01b0316836001600160a01b0316036105655760405162461bcd60e51b815260206004820152602160248201527f4552433732313a20617070726f76616c20746f2063757272656e74206f776e6560448201527f720000000000000000000000000000000000000000000000000000000000000060648201526084015b60405180910390fd5b336001600160a01b038216148061058157506105818133610327565b6105f35760405162461bcd60e51b815260206004820152603d60248201527f4552433732313a20617070726f76652063616c6c6572206973206e6f7420746f60448201527f6b656e206f776e6572206f7220617070726f76656420666f7220616c6c000000606482015260840161055c565b6105fd8383610b19565b505050565b6007805460009182610613836118ac565b919050555061062482600754610b94565b61063060075484610d3a565b5060075492915050565b6106443382610d9f565b6106b65760405162461bcd60e51b815260206004820152602d60248201527f4552433732313a2063616c6c6572206973206e6f7420746f6b656e206f776e6560448201527f72206f7220617070726f76656400000000000000000000000000000000000000606482015260840161055c565b6105fd838383610e1e565b6105fd838383604051806020016040528060008152506108b5565b6000805b600b548110156107295782600b82815481106106fe576106fe6118c5565b9060005260206000200154036107175750600192915050565b80610721816118ac565b9150506106e0565b50600092915050565b6006546001600160a01b0316331461078c5760405162461bcd60e51b815260206004820152601f60248201527f6f6e6c79206f776e65722063616e2063616c6c2074686973206d6574686f6400604482015260640161055c565b60096107988282611929565b5050565b6000818152600260205260408120546001600160a01b0316806103ec5760405162461bcd60e51b815260206004820152601860248201527f4552433732313a20696e76616c696420746f6b656e2049440000000000000000604482015260640161055c565b60006001600160a01b03821661087f5760405162461bcd60e51b815260206004820152602960248201527f4552433732313a2061646472657373207a65726f206973206e6f74206120766160448201527f6c6964206f776e65720000000000000000000000000000000000000000000000606482015260840161055c565b506001600160a01b031660009081526003602052604090205490565b6060600180546104229061185c565b610798338383611031565b6108bf3383610d9f565b6109315760405162461bcd60e51b815260206004820152602d60248201527f4552433732313a2063616c6c6572206973206e6f7420746f6b656e206f776e6560448201527f72206f7220617070726f76656400000000000000000000000000000000000000606482015260840161055c565b61093d848484846110ff565b50505050565b6000818152600260205260409020546060906001600160a01b03166109935760405162461bcd60e51b815260206004820152600660248201526508595e1a5cdd60d21b604482015260640161055c565b600082815260086020526040812080546109ac9061185c565b80601f01602080910402602001604051908101604052809291908181526020018280546109d89061185c565b8015610a255780601f106109fa57610100808354040283529160200191610a25565b820191906000526020600020905b815481529060010190602001808311610a0857829003601f168201915b505050505090506000610a36611188565b90508051600003610a48575092915050565b815115610a7a578082604051602001610a629291906119e9565b60405160208183030381529060405292505050919050565b80610a8485611197565b604051602001610a629291906119e9565b6000818152600260205260408120546001600160a01b03166103ec565b6000818152600260205260409020546001600160a01b0316610b165760405162461bcd60e51b815260206004820152601860248201527f4552433732313a20696e76616c696420746f6b656e2049440000000000000000604482015260640161055c565b50565b6000818152600460205260409020805473ffffffffffffffffffffffffffffffffffffffff19166001600160a01b0384169081179091558190610b5b8261079c565b6001600160a01b03167f8c5be1e5ebec7d5bd14f71427d1e84f3dd0314c0f7b2291e5b200ac8c7c3b92560405160405180910390a45050565b6001600160a01b038216610bea5760405162461bcd60e51b815260206004820181905260248201527f4552433732313a206d696e7420746f20746865207a65726f2061646472657373604482015260640161055c565b6000818152600260205260409020546001600160a01b031615610c4f5760405162461bcd60e51b815260206004820152601c60248201527f4552433732313a20746f6b656e20616c7265616479206d696e74656400000000604482015260640161055c565b610c5d600083836001611237565b6000818152600260205260409020546001600160a01b031615610cc25760405162461bcd60e51b815260206004820152601c60248201527f4552433732313a20746f6b656e20616c7265616479206d696e74656400000000604482015260640161055c565b6001600160a01b0382166000818152600360209081526040808320805460010190558483526002909152808220805473ffffffffffffffffffffffffffffffffffffffff19168417905551839291907fddf252ad1be2c89b69c2b068fc378daa952ba7f163c4a11628f55a4df523b3ef908290a45050565b6000828152600260205260409020546001600160a01b0316610d875760405162461bcd60e51b815260206004820152600660248201526508595e1a5cdd60d21b604482015260640161055c565b60008281526008602052604090206105fd8282611929565b600080610dab8361079c565b9050806001600160a01b0316846001600160a01b03161480610df257506001600160a01b0380821660009081526005602090815260408083209388168352929052205460ff165b80610e165750836001600160a01b0316610e0b846104a5565b6001600160a01b0316145b949350505050565b826001600160a01b0316610e318261079c565b6001600160a01b031614610e955760405162461bcd60e51b815260206004820152602560248201527f4552433732313a207472616e736665722066726f6d20696e636f72726563742060448201526437bbb732b960d91b606482015260840161055c565b6001600160a01b038216610f105760405162461bcd60e51b8152602060048201526024808201527f4552433732313a207472616e7366657220746f20746865207a65726f2061646460448201527f7265737300000000000000000000000000000000000000000000000000000000606482015260840161055c565b610f1d8383836001611237565b826001600160a01b0316610f308261079c565b6001600160a01b031614610f945760405162461bcd60e51b815260206004820152602560248201527f4552433732313a207472616e736665722066726f6d20696e636f72726563742060448201526437bbb732b960d91b606482015260840161055c565b6000818152600460209081526040808320805473ffffffffffffffffffffffffffffffffffffffff199081169091556001600160a01b0387811680865260038552838620805460001901905590871680865283862080546001019055868652600290945282852080549092168417909155905184937fddf252ad1be2c89b69c2b068fc378daa952ba7f163c4a11628f55a4df523b3ef91a4505050565b816001600160a01b0316836001600160a01b0316036110925760405162461bcd60e51b815260206004820152601960248201527f4552433732313a20617070726f766520746f2063616c6c657200000000000000604482015260640161055c565b6001600160a01b03838116600081815260056020908152604080832094871680845294825291829020805460ff191686151590811790915591519182527f17307eab39ab6107e8899845ad3d59bd9653f200f220920489ca2b5937696c31910160405180910390a3505050565b61110a848484610e1e565b611116848484846112bf565b61093d5760405162461bcd60e51b815260206004820152603260248201527f4552433732313a207472616e7366657220746f206e6f6e20455243373231526560448201527f63656976657220696d706c656d656e7465720000000000000000000000000000606482015260840161055c565b6060600980546104229061185c565b606060006111a483611416565b600101905060008167ffffffffffffffff8111156111c4576111c46115f4565b6040519080825280601f01601f1916602001820160405280156111ee576020820181803683370190505b5090508181016020015b600019017f3031323334353637383961626364656600000000000000000000000000000000600a86061a8153600a85049450846111f857509392505050565b600181111561093d576001600160a01b0384161561127d576001600160a01b03841660009081526003602052604081208054839290611277908490611a18565b90915550505b6001600160a01b0383161561093d576001600160a01b038316600090815260036020526040812080548392906112b4908490611a2b565b909155505050505050565b60006001600160a01b0384163b1561140b57604051630a85bd0160e11b81526001600160a01b0385169063150b7a0290611303903390899088908890600401611a3e565b6020604051808303816000875af192505050801561133e575060408051601f3d908101601f1916820190925261133b91810190611a7a565b60015b6113f1573d80801561136c576040519150601f19603f3d011682016040523d82523d6000602084013e611371565b606091505b5080516000036113e95760405162461bcd60e51b815260206004820152603260248201527f4552433732313a207472616e7366657220746f206e6f6e20455243373231526560448201527f63656976657220696d706c656d656e7465720000000000000000000000000000606482015260840161055c565b805181602001fd5b6001600160e01b031916630a85bd0160e11b149050610e16565b506001949350505050565b6000807a184f03e93ff9f4daa797ed6e38ed64bf6a1f010000000000000000831061145f577a184f03e93ff9f4daa797ed6e38ed64bf6a1f010000000000000000830492506040015b6d04ee2d6d415b85acef8100000000831061148b576d04ee2d6d415b85acef8100000000830492506020015b662386f26fc1000083106114a957662386f26fc10000830492506010015b6305f5e10083106114c1576305f5e100830492506008015b61271083106114d557612710830492506004015b606483106114e7576064830492506002015b600a83106103ec5760010192915050565b6001600160e01b031981168114610b1657600080fd5b60006020828403121561152057600080fd5b813561152b816114f8565b9392505050565b60006020828403121561154457600080fd5b5035919050565b60005b8381101561156657818101518382015260200161154e565b50506000910152565b6000815180845261158781602086016020860161154b565b601f01601f19169290920160200192915050565b60208152600061152b602083018461156f565b80356001600160a01b03811681146115c557600080fd5b919050565b600080604083850312156115dd57600080fd5b6115e6836115ae565b946020939093013593505050565b634e487b7160e01b600052604160045260246000fd5b600067ffffffffffffffff80841115611625576116256115f4565b604051601f8501601f19908116603f0116810190828211818310171561164d5761164d6115f4565b8160405280935085815286868601111561166657600080fd5b858560208301376000602087830101525050509392505050565b600082601f83011261169157600080fd5b61152b8383356020850161160a565b600080604083850312156116b357600080fd5b823567ffffffffffffffff8111156116ca57600080fd5b6116d685828601611680565b9250506116e5602084016115ae565b90509250929050565b60008060006060848603121561170357600080fd5b61170c846115ae565b925061171a602085016115ae565b9150604084013590509250925092565b60006020828403121561173c57600080fd5b813567ffffffffffffffff81111561175357600080fd5b610e1684828501611680565b60006020828403121561177157600080fd5b61152b826115ae565b6000806040838503121561178d57600080fd5b611796836115ae565b9150602083013580151581146117ab57600080fd5b809150509250929050565b600080600080608085870312156117cc57600080fd5b6117d5856115ae565b93506117e3602086016115ae565b925060408501359150606085013567ffffffffffffffff81111561180657600080fd5b8501601f8101871361181757600080fd5b6118268782356020840161160a565b91505092959194509250565b6000806040838503121561184557600080fd5b61184e836115ae565b91506116e5602084016115ae565b600181811c9082168061187057607f821691505b60208210810361189057634e487b7160e01b600052602260045260246000fd5b50919050565b634e487b7160e01b600052601160045260246000fd5b6000600182016118be576118be611896565b5060010190565b634e487b7160e01b600052603260045260246000fd5b601f8211156105fd57600081815260208120601f850160051c810160208610156119025750805b601f850160051c820191505b818110156119215782815560010161190e565b505050505050565b815167ffffffffffffffff811115611943576119436115f4565b61195781611951845461185c565b846118db565b602080601f83116001811461198c57600084156119745750858301515b600019600386901b1c1916600185901b178555611921565b600085815260208120601f198616915b828110156119bb5788860151825594840194600190910190840161199c565b50858210156119d95787850151600019600388901b60f8161c191681555b5050505050600190811b01905550565b600083516119fb81846020880161154b565b835190830190611a0f81836020880161154b565b01949350505050565b818103818111156103ec576103ec611896565b808201808211156103ec576103ec611896565b60006001600160a01b03808716835280861660208401525083604083015260806060830152611a70608083018461156f565b9695505050505050565b600060208284031215611a8c57600080fd5b815161152b816114f856fea26469706673582212208f18c23f737077ce7a5dcc9e6decb6a30668bafffed5cf592c627525b0dd016c64736f6c63430008100033a2646970667358221220795b85d8b2af168a5b5db4317249854cbdc8f6988b8bf88520d036aa804a2bba64736f6c63430008100033",
  "immutableReferences": {},
  "source": "// SPDX-License-Identifier: GPL-3.0\npragma solidity >=0.7.0 <0.9.0;\n\nimport {MultiERC721} from \"./MultiERC721.sol\";\nimport {Events} from \"./libraries/Events.sol\";\nimport {CallProxy} from \"./interfaces/CallProxy.sol\";\n\ncontract CrossArt {\n    address private _deployer;\n    uint private _thisChainId;\n\n    // anycall contracts mapped to chainId\n    address public _anycallcontract;\n\n    // destinations contract\n    mapping(uint => address) public destinations;\n\n    mapping(address => address) private nftMaps;\n\n    receive() external payable {}\n\n    fallback() external payable {}\n\n    constructor(address anycallcontract) {\n        _anycallcontract = anycallcontract;\n        _deployer = msg.sender;\n    }\n\n    function deploy(\n        string memory name,\n        string memory symbol,\n        uint[] memory supportedChains\n    ) public payable {\n        MultiERC721 nft = new MultiERC721(\n            name,\n            symbol,\n            supportedChains,\n            _thisChainId,\n            msg.sender\n        );\n\n        mint(\"\", address(nft));\n\n        emit Events.NftDeployed(\n            address(nft),\n            supportedChains,\n            msg.sender,\n            _thisChainId\n        );\n    }\n\n    function mint(string memory uri, address contractAddress) public {\n        MultiERC721 nft = MultiERC721(contractAddress);\n        require(nft.getCreator() == msg.sender, \"you cant mint this token\");\n        uint tokenID = nft.mint(uri, msg.sender);\n\n        emit Events.NftMinted(contractAddress, tokenID);\n    }\n\n    function bridge(\n        uint tokenID,\n        address contractAddress,\n        uint destinationChainId\n    ) public payable {\n        MultiERC721 nft = MultiERC721(contractAddress);\n        require(\n            nft.isChainSupported(destinationChainId),\n            \"unsupported destination chain\"\n        );\n\n        require(\n            msg.sender == nft.holderOf(tokenID),\n            \"you cant bridge this token\"\n        );\n\n        string memory uri = nft.tokenURI(tokenID);\n        string memory data = uri;\n\n        CallProxy(_anycallcontract).anyCall{value: msg.value}(\n            destinations[destinationChainId],\n            // sending the encoded bytes of the string uri and decode on the destination chain\n            abi.encode(data),\n            destinationChainId,\n            // Using 0 flag to pay fee on the source chain\n            0,\n            \"\"\n        );\n    }\n\n    function anyExecute(\n        bytes memory _data\n    ) external returns (bool success, bytes memory result) {\n        // string memory data = abi.decode(_data, (string));\n        // string memory uri = data;\n\n        // address sourceContractAddress;\n        // bool exists = address(0) != nftMaps[sourceContractAddress];\n\n        uint[] memory sc;\n\n        // if (!exists) {\n        MultiERC721 nft = new MultiERC721(\"Sample\", \"SMP\", sc, 1, address(0));\n\n        // sourceContractAddress = address(nft);\n        // }\n\n        success = true;\n        result = \"\";\n    }\n\n    function addChain(\n        uint chainId,\n        address contractAddress\n    ) public onlyDeployer {\n        destinations[chainId] = contractAddress;\n    }\n\n    modifier onlyDeployer() {\n        require(msg.sender == _deployer, \"only owner can call this method\");\n        _;\n    }\n}\n",
  "sourcePath": "C:\\Users\\Arogundade Ibrahim\\documents\\web3\\crossart\\contracts\\CrossArt.sol",
  "compiler": {
    "name": "solc",
    "version": "0.8.16+commit.07a7930e.Emscripten.clang"
  },
  "schemaVersion": "3.4.10",
  "updatedAt": "2022-12-07T13:01:23.747Z",
  "networkType": "ethereum",
  "devdoc": {
    "kind": "dev",
    "methods": {},
    "version": 1
  },
  "userdoc": {
    "kind": "user",
    "methods": {},
    "version": 1
  }
}