{
  "contractName": "CrossArt",
  "abi": [
    {
      "inputs": [
        {
          "internalType": "address",
          "name": "anycallcontract",
          "type": "address"
        },
        {
          "internalType": "uint256",
          "name": "chainId",
          "type": "uint256"
        }
      ],
      "stateMutability": "nonpayable",
      "type": "constructor"
    },
    {
      "anonymous": false,
      "inputs": [
        {
          "indexed": false,
          "internalType": "address",
          "name": "account",
          "type": "address"
        },
        {
          "indexed": false,
          "internalType": "uint256",
          "name": "amount",
          "type": "uint256"
        }
      ],
      "name": "Desposit",
      "type": "event"
    },
    {
      "stateMutability": "payable",
      "type": "fallback"
    },
    {
      "inputs": [],
      "name": "_anycallcontract",
      "outputs": [
        {
          "internalType": "address",
          "name": "",
          "type": "address"
        }
      ],
      "stateMutability": "view",
      "type": "function"
    },
    {
      "inputs": [
        {
          "internalType": "address",
          "name": "",
          "type": "address"
        }
      ],
      "name": "collections",
      "outputs": [
        {
          "internalType": "bool",
          "name": "isWhiteSystem",
          "type": "bool"
        },
        {
          "internalType": "uint256",
          "name": "mintPrice",
          "type": "uint256"
        },
        {
          "internalType": "uint256",
          "name": "chainId",
          "type": "uint256"
        },
        {
          "internalType": "address",
          "name": "creator",
          "type": "address"
        }
      ],
      "stateMutability": "view",
      "type": "function"
    },
    {
      "inputs": [
        {
          "internalType": "address",
          "name": "",
          "type": "address"
        },
        {
          "internalType": "uint256",
          "name": "",
          "type": "uint256"
        }
      ],
      "name": "creators",
      "outputs": [
        {
          "internalType": "address",
          "name": "",
          "type": "address"
        }
      ],
      "stateMutability": "view",
      "type": "function"
    },
    {
      "inputs": [
        {
          "internalType": "uint256",
          "name": "",
          "type": "uint256"
        }
      ],
      "name": "destinations",
      "outputs": [
        {
          "internalType": "address",
          "name": "",
          "type": "address"
        }
      ],
      "stateMutability": "view",
      "type": "function"
    },
    {
      "stateMutability": "payable",
      "type": "receive"
    },
    {
      "inputs": [
        {
          "internalType": "string",
          "name": "name",
          "type": "string"
        },
        {
          "internalType": "string",
          "name": "symbol",
          "type": "string"
        },
        {
          "internalType": "uint256[]",
          "name": "supportedChains",
          "type": "uint256[]"
        },
        {
          "internalType": "string",
          "name": "cover",
          "type": "string"
        },
        {
          "internalType": "string",
          "name": "avatar",
          "type": "string"
        }
      ],
      "name": "createCollection",
      "outputs": [],
      "stateMutability": "nonpayable",
      "type": "function"
    },
    {
      "inputs": [
        {
          "internalType": "address[]",
          "name": "whiteList",
          "type": "address[]"
        },
        {
          "internalType": "address[]",
          "name": "blackList",
          "type": "address[]"
        },
        {
          "internalType": "bool",
          "name": "isWhiteSystem",
          "type": "bool"
        },
        {
          "internalType": "uint256",
          "name": "mintPrice",
          "type": "uint256"
        },
        {
          "internalType": "address",
          "name": "contractAddress",
          "type": "address"
        }
      ],
      "name": "updateCollection",
      "outputs": [],
      "stateMutability": "nonpayable",
      "type": "function"
    },
    {
      "inputs": [
        {
          "internalType": "string",
          "name": "uri",
          "type": "string"
        },
        {
          "internalType": "address",
          "name": "contractAddress",
          "type": "address"
        }
      ],
      "name": "mint",
      "outputs": [],
      "stateMutability": "payable",
      "type": "function"
    },
    {
      "inputs": [
        {
          "internalType": "uint256",
          "name": "tokenID",
          "type": "uint256"
        },
        {
          "internalType": "address",
          "name": "contractAddress",
          "type": "address"
        },
        {
          "internalType": "uint256",
          "name": "destinationChainId",
          "type": "uint256"
        }
      ],
      "name": "bridge",
      "outputs": [],
      "stateMutability": "payable",
      "type": "function"
    },
    {
      "inputs": [
        {
          "internalType": "bytes",
          "name": "_data",
          "type": "bytes"
        }
      ],
      "name": "anyExecute",
      "outputs": [
        {
          "internalType": "bool",
          "name": "success",
          "type": "bool"
        },
        {
          "internalType": "bytes",
          "name": "result",
          "type": "bytes"
        }
      ],
      "stateMutability": "nonpayable",
      "type": "function"
    },
    {
      "inputs": [
        {
          "internalType": "uint256",
          "name": "chainId",
          "type": "uint256"
        },
        {
          "internalType": "address",
          "name": "contractAddress",
          "type": "address"
        }
      ],
      "name": "addChain",
      "outputs": [],
      "stateMutability": "nonpayable",
      "type": "function"
    }
  ],
  "bytecode": "0x60806040523480156200001157600080fd5b5060405162004d1838038062004d1883398101604081905262000034916200010b565b6001819055600280546001600160a01b0384166001600160a01b0319918216811790925560008054909116331790556040805163c34c08e560e01b8152905163c34c08e5916004808201926020929091908290030181865afa1580156200009f573d6000803e3d6000fd5b505050506040513d601f19601f82011682018060405250810190620000c591906200013a565b600380546001600160a01b0319166001600160a01b0392909216919091179055506200015f9050565b80516001600160a01b03811681146200010657600080fd5b919050565b600080604083850312156200011f57600080fd5b6200012a83620000ee565b9150602083015190509250929050565b6000602082840312156200014d57600080fd5b6200015882620000ee565b9392505050565b614ba9806200016f6000396000f3fe608060405260043610620000b75760003560e01c80638dd4ba2e116200006b578063a44543401162000051578063a44543401462000247578063e514040b146200026c578063fef54ec8146200029157005b80638dd4ba2e14620001bf5780639abaf479146200021257005b806343add2e6116200009d57806343add2e614620000ef5780635303942b146200017557806377ca6c80146200019a57005b80631c351a9d14620000c15780632f820a5f14620000d857005b36620000bf57005b005b620000bf620000d236600462001d6c565b620002b3565b620000bf620000e936600462001dc4565b62000613565b348015620000fc57600080fd5b50620001456200010e36600462001dff565b600660205260009081526040902060028101546003820154600483015460059093015460ff9092169290916001600160a01b031684565b6040805194151585526020850193909352918301526001600160a01b031660608201526080015b60405180910390f35b3480156200018257600080fd5b50620000bf6200019436600462001e1f565b62000d2a565b348015620001a757600080fd5b50620000bf620001b936600462001edb565b62000dc1565b348015620001cc57600080fd5b50620001f9620001de36600462001fbd565b6004602052600090815260409020546001600160a01b031681565b6040516001600160a01b0390911681526020016200016c565b3480156200021f57600080fd5b50620002376200023136600462001fd7565b620013ce565b6040516200016c929190620020a2565b3480156200025457600080fd5b50620001f962000266366004620020c7565b62001601565b3480156200027957600080fd5b50620000bf6200028b36600462002172565b6200163a565b3480156200029e57600080fd5b50600254620001f9906001600160a01b031681565b6001600160a01b03811660009081526006602090815260408083208151815460e09481028201850190935260c08101838152869594919384928491908401828280156200032a57602002820191906000526020600020905b81546001600160a01b031681526001909101906020018083116200030b575b50505050508152602001600182018054806020026020016040519081016040528092919081815260200182805480156200038e57602002820191906000526020600020905b81546001600160a01b031681526001909101906020018083116200036f575b5050509183525050600282015460ff161515602080830191909152600383015460408084019190915260048085015460608501526005909401546001600160a01b0390811660809094019390935280517f02d05d3f0000000000000000000000000000000000000000000000000000000081529051949550918616936302d05d3f93838101938290030181865afa1580156200042e573d6000803e3d6000fd5b505050506040513d601f19601f8201168201806040525081019062000454919062002212565b6001600160a01b0316336001600160a01b0316146200053c578060600151341015620004c75760405162461bcd60e51b815260206004820152601760248201527f496e737566696369656e74204d696e7420416d6f756e7400000000000000000060448201526064015b60405180910390fd5b8060400151156200053c576000620004e9338360000151846020015162001b11565b9050806200053a5760405162461bcd60e51b815260206004820152601360248201527f596f75277265206e6f7420656c696769626c65000000000000000000000000006044820152606401620004be565b505b604051637e8816b960e01b81526000906001600160a01b03841690637e8816b990620005719088903390869060040162002232565b6020604051808303816000875af115801562000591573d6000803e3d6000fd5b505050506040513d601f19601f82011682018060405250810190620005b7919062002262565b600154604080518381523360208201526001600160a01b038716818301526060810192909252519192507f974f6ea350c6cbd05ba44bd2e61ede013cdfdfbea82bdb72e5be02e8ccee4d47919081900360800190a15050505050565b6040517f5221c1f00000000000000000000000000000000000000000000000000000000081526004810182905282906001600160a01b03821690635221c1f090602401602060405180830381865afa15801562000674573d6000803e3d6000fd5b505050506040513d601f19601f820116820180604052508101906200069a91906200227c565b620006e85760405162461bcd60e51b815260206004820152601d60248201527f756e737570706f727465642064657374696e6174696f6e20636861696e0000006044820152606401620004be565b60405163dbacc23760e01b8152600481018590526001600160a01b0382169063dbacc23790602401602060405180830381865afa1580156200072e573d6000803e3d6000fd5b505050506040513d601f19601f8201168201806040525081019062000754919062002212565b6001600160a01b0316336001600160a01b031614620007b65760405162461bcd60e51b815260206004820152601a60248201527f796f752063616e7420627269646765207468697320746f6b656e0000000000006044820152606401620004be565b6000816001600160a01b031663b0fa84446040518163ffffffff1660e01b8152600401602060405180830381865afa158015620007f7573d6000803e3d6000fd5b505050506040513d601f19601f820116820180604052508101906200081d919062002212565b6040517fc87b56dd000000000000000000000000000000000000000000000000000000008152600481018790526001600160a01b0384169063c87b56dd90602401600060405180830381865afa1580156200087c573d6000803e3d6000fd5b505050506040513d6000823e601f3d908101601f19168201604052620008a691908101906200229c565b836001600160a01b03166306fdde036040518163ffffffff1660e01b8152600401600060405180830381865afa158015620008e5573d6000803e3d6000fd5b505050506040513d6000823e601f3d908101601f191682016040526200090f91908101906200229c565b846001600160a01b03166395d89b416040518163ffffffff1660e01b8152600401600060405180830381865afa1580156200094e573d6000803e3d6000fd5b505050506040513d6000823e601f3d908101601f191682016040526200097891908101906200229c565b856001600160a01b031663816949b56040518163ffffffff1660e01b8152600401600060405180830381865afa158015620009b7573d6000803e3d6000fd5b505050506040513d6000823e601f3d908101601f19168201604052620009e191908101906200231c565b866001600160a01b03166302d05d3f6040518163ffffffff1660e01b8152600401602060405180830381865afa15801562000a20573d6000803e3d6000fd5b505050506040513d601f19601f8201168201806040525081019062000a46919062002212565b60405163dbacc23760e01b8152600481018c90528b906001600160a01b038a169063dbacc23790602401602060405180830381865afa15801562000a8e573d6000803e3d6000fd5b505050506040513d601f19601f8201168201806040525081019062000ab4919062002212565b896001600160a01b031663e7d931e46040518163ffffffff1660e01b8152600401600060405180830381865afa15801562000af3573d6000803e3d6000fd5b505050506040513d6000823e601f3d908101601f1916820160405262000b1d91908101906200229c565b8a6001600160a01b0316635aef7de66040518163ffffffff1660e01b8152600401600060405180830381865afa15801562000b5c573d6000803e3d6000fd5b505050506040513d6000823e601f3d908101601f1916820160405262000b8691908101906200229c565b60405160200162000ba19a99989796959493929190620023f3565b60408051601f198184030181529181526000858152600460205220549091506001600160a01b031662000c175760405162461bcd60e51b815260206004820152601c60248201527f506c65617365206164642064657374696e6174696f6e20636861696e000000006044820152606401620004be565b6040517f42966c68000000000000000000000000000000000000000000000000000000008152600481018690526001600160a01b038316906342966c6890602401600060405180830381600087803b15801562000c7357600080fd5b505af115801562000c88573d6000803e3d6000fd5b50506002546000868152600460208190526040918290205491517f1979a2840000000000000000000000000000000000000000000000000000000081526001600160a01b039384169550631979a2849450349362000cef93169187918a91908101620024b1565b6000604051808303818588803b15801562000d0957600080fd5b505af115801562000d1e573d6000803e3d6000fd5b50505050505050505050565b6000546001600160a01b0316331462000d865760405162461bcd60e51b815260206004820152601f60248201527f6f6e6c79206f776e65722063616e2063616c6c2074686973206d6574686f64006044820152606401620004be565b600091825260046020526040909120805473ffffffffffffffffffffffffffffffffffffffff19166001600160a01b03909216919091179055565b600085858484876001543360405162000dda9062001be6565b62000dec9796959493929190620024fc565b604051809103906000f08015801562000e09573d6000803e3d6000fd5b506040516322fd66c760e11b81526001600160a01b038216600482018190529192508291906345facd8e90602401600060405180830381600087803b15801562000e5257600080fd5b505af115801562000e67573d6000803e3d6000fd5b5050506001600160a01b0382166000818152600760209081526040808320805473ffffffffffffffffffffffffffffffffffffffff191690941790935582516006825291839020805460e09281028401830190945260c083018481529294508493909184018282801562000f0557602002820191906000526020600020905b81546001600160a01b0316815260019091019060200180831162000ee6575b50505091835250506001600160a01b038316600090815260066020908152604091829020600101805483518184028101840190945280845293820193909183018282801562000f7e57602002820191906000526020600020905b81546001600160a01b0316815260019091019060200180831162000f5f575b50505050508152602001600015158152602001600081526020016001548152602001836001600160a01b03166302d05d3f6040518163ffffffff1660e01b8152600401602060405180830381865afa15801562000fdf573d6000803e3d6000fd5b505050506040513d601f19601f8201168201806040525081019062001005919062002212565b6001600160a01b03908116909152821660009081526006602090815260409091208251805191926200103d9284929091019062001bf4565b50602082810151805162001058926001850192019062001bf4565b5060408281015160028301805460ff191691151591909117905560608301516003830155608083015160048084019190915560a0909301516005909201805473ffffffffffffffffffffffffffffffffffffffff19166001600160a01b0393841617905580516306fdde0360e01b815290517f707549c2a9a70b590212db4a3745231cd2aacd26eb60ddd1c82954df2fa15fde93928616926306fdde03928082019260009290918290030181865afa15801562001119573d6000803e3d6000fd5b505050506040513d6000823e601f3d908101601f191682016040526200114391908101906200229c565b836001600160a01b03166395d89b416040518163ffffffff1660e01b8152600401600060405180830381865afa15801562001182573d6000803e3d6000fd5b505050506040513d6000823e601f3d908101601f19168201604052620011ac91908101906200229c565b846001600160a01b031663e7d931e46040518163ffffffff1660e01b8152600401600060405180830381865afa158015620011eb573d6000803e3d6000fd5b505050506040513d6000823e601f3d908101601f191682016040526200121591908101906200229c565b856001600160a01b0316635aef7de66040518163ffffffff1660e01b8152600401600060405180830381865afa15801562001254573d6000803e3d6000fd5b505050506040513d6000823e601f3d908101601f191682016040526200127e91908101906200229c565b866001600160a01b03166302d05d3f6040518163ffffffff1660e01b8152600401602060405180830381865afa158015620012bd573d6000803e3d6000fd5b505050506040513d601f19601f82011682018060405250810190620012e3919062002212565b8660066000896001600160a01b03166001600160a01b03168152602001908152602001600020600001600660008a6001600160a01b03166001600160a01b031681526020019081526020016000206001016000806001548d6001600160a01b031663816949b56040518163ffffffff1660e01b8152600401600060405180830381865afa15801562001379573d6000803e3d6000fd5b505050506040513d6000823e601f3d908101601f19168201604052620013a391908101906200231c565b604051620013bd9c9b9a99989796959493929190620025cb565b60405180910390a150505050505050565b6000606081808080808080808080620013ea8d8f018f620026bf565b99509950995099509950995099509950995099506000806001600160a01b0316600760008d6001600160a01b03166001600160a01b0316815260200190815260200160002060009054906101000a90046001600160a01b03166001600160a01b031614159050600081156200147b57506001600160a01b03808c16600090815260076020526040902054166200155f565b898985858b6001548c604051620014929062001be6565b620014a49796959493929190620024fc565b604051809103906000f080158015620014c1573d6000803e3d6000fd5b506040516322fd66c760e11b81526001600160a01b038e81166004830152919250908216906345facd8e90602401600060405180830381600087803b1580156200150a57600080fd5b505af11580156200151f573d6000803e3d6000fd5b505050506001600160a01b038c81166000908152600760205260409020805473ffffffffffffffffffffffffffffffffffffffff19169183169190911790555b604051637e8816b960e01b81526001600160a01b03821690637e8816b99062001591908e9089908b9060040162002232565b6020604051808303816000875af1158015620015b1573d6000803e3d6000fd5b505050506040513d601f19601f82011682018060405250810190620015d7919062002262565b5060019d50604051806020016040528060008152509c505050505050505050505050509250929050565b600560205281600052604060002081815481106200161e57600080fd5b6000918252602090912001546001600160a01b03169150829050565b6000819050806001600160a01b03166302d05d3f6040518163ffffffff1660e01b8152600401602060405180830381865afa1580156200167e573d6000803e3d6000fd5b505050506040513d601f19601f82011682018060405250810190620016a4919062002212565b6001600160a01b0316336001600160a01b031614620017065760405162461bcd60e51b815260206004820152600b60248201527f556e6174686f72697a65640000000000000000000000000000000000000000006044820152606401620004be565b6040518060c0016040528087815260200186815260200185151581526020018481526020016001548152602001826001600160a01b03166302d05d3f6040518163ffffffff1660e01b8152600401602060405180830381865afa15801562001772573d6000803e3d6000fd5b505050506040513d601f19601f8201168201806040525081019062001798919062002212565b6001600160a01b0390811690915283166000908152600660209081526040909120825180519192620017d09284929091019062001bf4565b506020828101518051620017eb926001850192019062001bf4565b5060408281015160028301805460ff191691151591909117905560608301516003830155608083015160048084019190915560a0909301516005909201805473ffffffffffffffffffffffffffffffffffffffff19166001600160a01b0393841617905580516306fdde0360e01b815290517f707549c2a9a70b590212db4a3745231cd2aacd26eb60ddd1c82954df2fa15fde93928516926306fdde03928082019260009290918290030181865afa158015620018ac573d6000803e3d6000fd5b505050506040513d6000823e601f3d908101601f19168201604052620018d691908101906200229c565b826001600160a01b03166395d89b416040518163ffffffff1660e01b8152600401600060405180830381865afa15801562001915573d6000803e3d6000fd5b505050506040513d6000823e601f3d908101601f191682016040526200193f91908101906200229c565b836001600160a01b031663e7d931e46040518163ffffffff1660e01b8152600401600060405180830381865afa1580156200197e573d6000803e3d6000fd5b505050506040513d6000823e601f3d908101601f19168201604052620019a891908101906200229c565b846001600160a01b0316635aef7de66040518163ffffffff1660e01b8152600401600060405180830381865afa158015620019e7573d6000803e3d6000fd5b505050506040513d6000823e601f3d908101601f1916820160405262001a1191908101906200229c565b856001600160a01b03166302d05d3f6040518163ffffffff1660e01b8152600401602060405180830381865afa15801562001a50573d6000803e3d6000fd5b505050506040513d601f19601f8201168201806040525081019062001a76919062002212565b868c8c8c8c6001548c6001600160a01b031663816949b56040518163ffffffff1660e01b8152600401600060405180830381865afa15801562001abd573d6000803e3d6000fd5b505050506040513d6000823e601f3d908101601f1916820160405262001ae791908101906200231c565b60405162001b019c9b9a9998979695949392919062002847565b60405180910390a1505050505050565b6000805b825181101562001b755782818151811062001b345762001b34620028e8565b60200260200101516001600160a01b0316856001600160a01b03160362001b6057600091505062001bdf565b8062001b6c81620028fe565b91505062001b15565b5060005b835181101562001bd95783818151811062001b985762001b98620028e8565b60200260200101516001600160a01b0316856001600160a01b03160362001bc457600191505062001bdf565b8062001bd081620028fe565b91505062001b79565b50600090505b9392505050565b61224d806200292783390190565b82805482825590600052602060002090810192821562001c59579160200282015b8281111562001c59578251825473ffffffffffffffffffffffffffffffffffffffff19166001600160a01b0390911617825560209092019160019091019062001c15565b5062001c6792915062001c6b565b5090565b5b8082111562001c67576000815560010162001c6c565b634e487b7160e01b600052604160045260246000fd5b604051601f8201601f1916810167ffffffffffffffff8111828210171562001cc45762001cc462001c82565b604052919050565b600067ffffffffffffffff82111562001ce95762001ce962001c82565b50601f01601f191660200190565b600082601f83011262001d0957600080fd5b813562001d2062001d1a8262001ccc565b62001c98565b81815284602083860101111562001d3657600080fd5b816020850160208301376000918101602001919091529392505050565b6001600160a01b038116811462001d6957600080fd5b50565b6000806040838503121562001d8057600080fd5b823567ffffffffffffffff81111562001d9857600080fd5b62001da68582860162001cf7565b925050602083013562001db98162001d53565b809150509250929050565b60008060006060848603121562001dda57600080fd5b83359250602084013562001dee8162001d53565b929592945050506040919091013590565b60006020828403121562001e1257600080fd5b813562001bdf8162001d53565b6000806040838503121562001e3357600080fd5b82359150602083013562001db98162001d53565b600067ffffffffffffffff82111562001e645762001e6462001c82565b5060051b60200190565b600082601f83011262001e8057600080fd5b8135602062001e9362001d1a8362001e47565b82815260059290921b8401810191818101908684111562001eb357600080fd5b8286015b8481101562001ed0578035835291830191830162001eb7565b509695505050505050565b600080600080600060a0868803121562001ef457600080fd5b853567ffffffffffffffff8082111562001f0d57600080fd5b62001f1b89838a0162001cf7565b9650602088013591508082111562001f3257600080fd5b62001f4089838a0162001cf7565b9550604088013591508082111562001f5757600080fd5b62001f6589838a0162001e6e565b9450606088013591508082111562001f7c57600080fd5b62001f8a89838a0162001cf7565b9350608088013591508082111562001fa157600080fd5b5062001fb08882890162001cf7565b9150509295509295909350565b60006020828403121562001fd057600080fd5b5035919050565b6000806020838503121562001feb57600080fd5b823567ffffffffffffffff808211156200200457600080fd5b818501915085601f8301126200201957600080fd5b8135818111156200202957600080fd5b8660208285010111156200203c57600080fd5b60209290920196919550909350505050565b60005b838110156200206b57818101518382015260200162002051565b50506000910152565b600081518084526200208e8160208601602086016200204e565b601f01601f19169290920160200192915050565b8215158152604060208201526000620020bf604083018462002074565b949350505050565b60008060408385031215620020db57600080fd5b8235620020e88162001d53565b946020939093013593505050565b600082601f8301126200210857600080fd5b813560206200211b62001d1a8362001e47565b82815260059290921b840181019181810190868411156200213b57600080fd5b8286015b8481101562001ed0578035620021558162001d53565b83529183019183016200213f565b801515811462001d6957600080fd5b600080600080600060a086880312156200218b57600080fd5b853567ffffffffffffffff80821115620021a457600080fd5b620021b289838a01620020f6565b96506020880135915080821115620021c957600080fd5b50620021d888828901620020f6565b9450506040860135620021eb8162002163565b9250606086013591506080860135620022048162001d53565b809150509295509295909350565b6000602082840312156200222557600080fd5b815162001bdf8162001d53565b60608152600062002247606083018662002074565b6001600160a01b039490941660208301525060400152919050565b6000602082840312156200227557600080fd5b5051919050565b6000602082840312156200228f57600080fd5b815162001bdf8162002163565b600060208284031215620022af57600080fd5b815167ffffffffffffffff811115620022c757600080fd5b8201601f81018413620022d957600080fd5b8051620022ea62001d1a8262001ccc565b8181528560208385010111156200230057600080fd5b620023138260208301602086016200204e565b95945050505050565b600060208083850312156200233057600080fd5b825167ffffffffffffffff8111156200234857600080fd5b8301601f810185136200235a57600080fd5b80516200236b62001d1a8262001e47565b81815260059190911b820183019083810190878311156200238b57600080fd5b928401925b82841015620023ab5783518252928401929084019062002390565b979650505050505050565b600081518084526020808501945080840160005b83811015620023e857815187529582019590820190600101620023ca565b509495945050505050565b60006101406001600160a01b03808e168452816020850152620024198285018e62002074565b915083820360408501526200242f828d62002074565b9150838203606085015262002445828c62002074565b915083820360808501526200245b828b620023b6565b915080891660a08501528760c085015280871660e08501525082810361010084015262002489818662002074565b9050828103610120840152620024a0818562002074565b9d9c50505050505050505050505050565b6001600160a01b038516815260a060208201526000620024d560a083018662002074565b60408301949094525060608101919091528082036080909101526000815260200192915050565b60e0815260006200251160e083018a62002074565b828103602084015262002525818a62002074565b905082810360408401526200253b818962002074565b9050828103606084015262002551818862002074565b90508281036080840152620025678187620023b6565b9150508360a08301526001600160a01b03831660c083015298975050505050505050565b6000815480845260208085019450836000528060002060005b83811015620023e85781546001600160a01b031687529582019560019182019101620025a4565b61018081526000620025e261018083018f62002074565b8281036020840152620025f6818f62002074565b905082810360408401526200260c818e62002074565b9050828103606084015262002622818d62002074565b6001600160a01b038c16608085015290506001600160a01b038a1660a084015282810360c084015262002656818a6200258b565b905082810360e08401526200266c81896200258b565b871515610100850152905085610120840152846101408401528281036101608401526200269a8185620023b6565b9f9e505050505050505050505050505050565b8035620026ba8162001d53565b919050565b6000806000806000806000806000806101408b8d031215620026e057600080fd5b620026eb8b620026ad565b995060208b013567ffffffffffffffff808211156200270957600080fd5b620027178e838f0162001cf7565b9a5060408d01359150808211156200272e57600080fd5b6200273c8e838f0162001cf7565b995060608d01359150808211156200275357600080fd5b620027618e838f0162001cf7565b985060808d01359150808211156200277857600080fd5b620027868e838f0162001e6e565b97506200279660a08e01620026ad565b965060c08d01359550620027ad60e08e01620026ad565b94506101008d0135915080821115620027c557600080fd5b620027d38e838f0162001cf7565b93506101208d0135915080821115620027eb57600080fd5b50620027fa8d828e0162001cf7565b9150509295989b9194979a5092959850565b600081518084526020808501945080840160005b83811015620023e85781516001600160a01b03168752958201959082019060010162002820565b610180815260006200285e61018083018f62002074565b828103602084015262002872818f62002074565b9050828103604084015262002888818e62002074565b905082810360608401526200289e818d62002074565b6001600160a01b038c16608085015290506001600160a01b038a1660a084015282810360c0840152620028d2818a6200280c565b905082810360e08401526200266c81896200280c565b634e487b7160e01b600052603260045260246000fd5b6000600182016200291f57634e487b7160e01b600052601160045260246000fd5b506001019056fe608060405260006007553480156200001657600080fd5b506040516200224d3803806200224d8339810160408190526200003991620002a0565b868660006200004983826200042c565b5060016200005882826200042c565b50600a91506200006b905086826200042c565b50600b6200007a85826200042c565b50600680546001600160a01b0319166001600160a01b038316179055600c8290558251620000b090600e906020860190620000be565b5050505050505050620004f8565b828054828255906000526020600020908101928215620000fc579160200282015b82811115620000fc578251825591602001919060010190620000df565b506200010a9291506200010e565b5090565b5b808211156200010a57600081556001016200010f565b634e487b7160e01b600052604160045260246000fd5b604051601f8201601f191681016001600160401b038111828210171562000166576200016662000125565b604052919050565b600082601f8301126200018057600080fd5b81516001600160401b038111156200019c576200019c62000125565b6020620001b2601f8301601f191682016200013b565b8281528582848701011115620001c757600080fd5b60005b83811015620001e7578581018301518282018401528201620001ca565b506000928101909101919091529392505050565b600082601f8301126200020d57600080fd5b815160206001600160401b038211156200022b576200022b62000125565b8160051b6200023c8282016200013b565b92835284810182019282810190878511156200025757600080fd5b83870192505b8483101562000278578251825291830191908301906200025d565b979650505050505050565b80516001600160a01b03811681146200029b57600080fd5b919050565b600080600080600080600060e0888a031215620002bc57600080fd5b87516001600160401b0380821115620002d457600080fd5b620002e28b838c016200016e565b985060208a0151915080821115620002f957600080fd5b620003078b838c016200016e565b975060408a01519150808211156200031e57600080fd5b6200032c8b838c016200016e565b965060608a01519150808211156200034357600080fd5b620003518b838c016200016e565b955060808a01519150808211156200036857600080fd5b50620003778a828b01620001fb565b93505060a088015191506200038f60c0890162000283565b905092959891949750929550565b600181811c90821680620003b257607f821691505b602082108103620003d357634e487b7160e01b600052602260045260246000fd5b50919050565b601f8211156200042757600081815260208120601f850160051c81016020861015620004025750805b601f850160051c820191505b8181101562000423578281556001016200040e565b5050505b505050565b81516001600160401b0381111562000448576200044862000125565b62000460816200045984546200039d565b84620003d9565b602080601f8311600181146200049857600084156200047f5750858301515b600019600386901b1c1916600185901b17855562000423565b600085815260208120601f198616915b82811015620004c957888601518255948401946001909101908401620004a8565b5085821015620004e85787850151600019600388901b60f8161c191681555b5050505050600190811b01905550565b611d4580620005086000396000f3fe608060405234801561001057600080fd5b50600436106101ae5760003560e01c80636352211e116100ee578063b0fa844411610097578063c87b56dd11610071578063c87b56dd146103af578063dbacc237146103c2578063e7d931e4146103d5578063e985e9c5146103dd57600080fd5b8063b0fa84441461036b578063b325d85d1461037c578063b88d4fde1461039c57600080fd5b8063816949b5116100c8578063816949b51461033b57806395d89b4114610350578063a22cb4651461035857600080fd5b80636352211e1461030257806370a08231146103155780637e8816b91461032857600080fd5b806323b872dd1161015b57806345facd8e1161013557806345facd8e146102975780635221c1f0146102d457806355f804b3146102e75780635aef7de6146102fa57600080fd5b806323b872dd1461025e57806342842e0e1461027157806342966c681461028457600080fd5b806306fdde031161018c57806306fdde0314610221578063081812fc14610236578063095ea7b31461024957600080fd5b806301ffc9a7146101b357806302d05d3f146101db5780630444ce0a14610200575b600080fd5b6101c66101c1366004611740565b610419565b60405190151581526020015b60405180910390f35b6006546001600160a01b03165b6040516001600160a01b0390911681526020016101d2565b61021361020e366004611764565b6104b6565b6040519081526020016101d2565b6102296104d7565b6040516101d291906117cd565b6101e8610244366004611764565b610569565b61025c6102573660046117fc565b610590565b005b61025c61026c366004611826565b6106e4565b61025c61027f366004611826565b61076b565b61025c610292366004611764565b610786565b61025c6102a5366004611862565b600d805473ffffffffffffffffffffffffffffffffffffffff19166001600160a01b0392909216919091179055565b6101c66102e2366004611764565b610792565b61025c6102f5366004611929565b6107fa565b610229610864565b6101e8610310366004611764565b610873565b610213610323366004611862565b6108d8565b61021361033636600461195e565b610972565b6103436109bb565b6040516101d291906119a5565b610229610a12565b61025c6103663660046119e9565b610a21565b600d546001600160a01b03166101e8565b61021361038a366004611764565b600f6020526000908152604090205481565b61025c6103aa366004611a25565b610a2c565b6102296103bd366004611764565b610aba565b6101e86103d0366004611764565b610c0c565b610229610c29565b6101c66103eb366004611aa1565b6001600160a01b03918216600090815260056020908152604080832093909416825291909152205460ff1690565b60006001600160e01b031982167f80ac58cd00000000000000000000000000000000000000000000000000000000148061047c57506001600160e01b031982167f5b5e139f00000000000000000000000000000000000000000000000000000000145b806104b057507f01ffc9a7000000000000000000000000000000000000000000000000000000006001600160e01b03198316145b92915050565b600e81815481106104c657600080fd5b600091825260209091200154905081565b6060600080546104e690611ad4565b80601f016020809104026020016040519081016040528092919081815260200182805461051290611ad4565b801561055f5780601f106105345761010080835404028352916020019161055f565b820191906000526020600020905b81548152906001019060200180831161054257829003601f168201915b5050505050905090565b600061057482610c38565b506000908152600460205260409020546001600160a01b031690565b600061059b82610873565b9050806001600160a01b0316836001600160a01b0316036106295760405162461bcd60e51b815260206004820152602160248201527f4552433732313a20617070726f76616c20746f2063757272656e74206f776e6560448201527f720000000000000000000000000000000000000000000000000000000000000060648201526084015b60405180910390fd5b336001600160a01b038216148061066357506001600160a01b038116600090815260056020908152604080832033845290915290205460ff165b6106d55760405162461bcd60e51b815260206004820152603d60248201527f4552433732313a20617070726f76652063616c6c6572206973206e6f7420746f60448201527f6b656e206f776e6572206f7220617070726f76656420666f7220616c6c0000006064820152608401610620565b6106df8383610c9c565b505050565b6106ee3382610d17565b6107605760405162461bcd60e51b815260206004820152602d60248201527f4552433732313a2063616c6c6572206973206e6f7420746f6b656e206f776e6560448201527f72206f7220617070726f766564000000000000000000000000000000000000006064820152608401610620565b6106df838383610d95565b6106df83838360405180602001604052806000815250610a2c565b61078f81610fa8565b50565b600081600c54036107a557506001919050565b60005b600e548110156107f15782600e82815481106107c6576107c6611b0e565b9060005260206000200154036107df5750600192915050565b806107e981611b3a565b9150506107a8565b50600092915050565b6006546001600160a01b031633146108545760405162461bcd60e51b815260206004820152601f60248201527f6f6e6c79206f776e65722063616e2063616c6c2074686973206d6574686f64006044820152606401610620565b60096108608282611ba1565b5050565b6060600b80546104e690611ad4565b6000818152600260205260408120546001600160a01b0316806104b05760405162461bcd60e51b815260206004820152601860248201527f4552433732313a20696e76616c696420746f6b656e20494400000000000000006044820152606401610620565b60006001600160a01b0382166109565760405162461bcd60e51b815260206004820152602960248201527f4552433732313a2061646472657373207a65726f206973206e6f74206120766160448201527f6c6964206f776e657200000000000000000000000000000000000000000000006064820152608401610620565b506001600160a01b031660009081526003602052604090205490565b6000808260000361099c576007805490600061098d83611b3a565b9190505550600754905061099f565b50815b6109a98482611058565b6109b381866111fe565b949350505050565b6060600e80548060200260200160405190810160405280929190818152602001828054801561055f57602002820191906000526020600020905b8154815260200190600101908083116109f5575050505050905090565b6060600180546104e690611ad4565b610860338383611263565b610a363383610d17565b610aa85760405162461bcd60e51b815260206004820152602d60248201527f4552433732313a2063616c6c6572206973206e6f7420746f6b656e206f776e6560448201527f72206f7220617070726f766564000000000000000000000000000000000000006064820152608401610620565b610ab484848484611331565b50505050565b6000818152600260205260409020546060906001600160a01b0316610b0a5760405162461bcd60e51b815260206004820152600660248201526508595e1a5cdd60d21b6044820152606401610620565b60008281526008602052604081208054610b2390611ad4565b80601f0160208091040260200160405190810160405280929190818152602001828054610b4f90611ad4565b8015610b9c5780601f10610b7157610100808354040283529160200191610b9c565b820191906000526020600020905b815481529060010190602001808311610b7f57829003601f168201915b505050505090506000610bad6113ba565b90508051600003610bbf575092915050565b815115610bf1578082604051602001610bd9929190611c61565b60405160208183030381529060405292505050919050565b80610bfb856113c9565b604051602001610bd9929190611c61565b6000818152600260205260408120546001600160a01b03166104b0565b6060600a80546104e690611ad4565b6000818152600260205260409020546001600160a01b031661078f5760405162461bcd60e51b815260206004820152601860248201527f4552433732313a20696e76616c696420746f6b656e20494400000000000000006044820152606401610620565b6000818152600460205260409020805473ffffffffffffffffffffffffffffffffffffffff19166001600160a01b0384169081179091558190610cde82610873565b6001600160a01b03167f8c5be1e5ebec7d5bd14f71427d1e84f3dd0314c0f7b2291e5b200ac8c7c3b92560405160405180910390a45050565b600080610d2383610873565b9050806001600160a01b0316846001600160a01b03161480610d6a57506001600160a01b0380821660009081526005602090815260408083209388168352929052205460ff165b806109b35750836001600160a01b0316610d8384610569565b6001600160a01b031614949350505050565b826001600160a01b0316610da882610873565b6001600160a01b031614610e0c5760405162461bcd60e51b815260206004820152602560248201527f4552433732313a207472616e736665722066726f6d20696e636f72726563742060448201526437bbb732b960d91b6064820152608401610620565b6001600160a01b038216610e875760405162461bcd60e51b8152602060048201526024808201527f4552433732313a207472616e7366657220746f20746865207a65726f2061646460448201527f72657373000000000000000000000000000000000000000000000000000000006064820152608401610620565b610e948383836001611469565b826001600160a01b0316610ea782610873565b6001600160a01b031614610f0b5760405162461bcd60e51b815260206004820152602560248201527f4552433732313a207472616e736665722066726f6d20696e636f72726563742060448201526437bbb732b960d91b6064820152608401610620565b6000818152600460209081526040808320805473ffffffffffffffffffffffffffffffffffffffff199081169091556001600160a01b0387811680865260038552838620805460001901905590871680865283862080546001019055868652600290945282852080549092168417909155905184937fddf252ad1be2c89b69c2b068fc378daa952ba7f163c4a11628f55a4df523b3ef91a4505050565b6000610fb382610873565b9050610fc3816000846001611469565b610fcc82610873565b6000838152600460209081526040808320805473ffffffffffffffffffffffffffffffffffffffff199081169091556001600160a01b0385168085526003845282852080546000190190558785526002909352818420805490911690555192935084927fddf252ad1be2c89b69c2b068fc378daa952ba7f163c4a11628f55a4df523b3ef908390a45050565b6001600160a01b0382166110ae5760405162461bcd60e51b815260206004820181905260248201527f4552433732313a206d696e7420746f20746865207a65726f20616464726573736044820152606401610620565b6000818152600260205260409020546001600160a01b0316156111135760405162461bcd60e51b815260206004820152601c60248201527f4552433732313a20746f6b656e20616c7265616479206d696e746564000000006044820152606401610620565b611121600083836001611469565b6000818152600260205260409020546001600160a01b0316156111865760405162461bcd60e51b815260206004820152601c60248201527f4552433732313a20746f6b656e20616c7265616479206d696e746564000000006044820152606401610620565b6001600160a01b0382166000818152600360209081526040808320805460010190558483526002909152808220805473ffffffffffffffffffffffffffffffffffffffff19168417905551839291907fddf252ad1be2c89b69c2b068fc378daa952ba7f163c4a11628f55a4df523b3ef908290a45050565b6000828152600260205260409020546001600160a01b031661124b5760405162461bcd60e51b815260206004820152600660248201526508595e1a5cdd60d21b6044820152606401610620565b60008281526008602052604090206106df8282611ba1565b816001600160a01b0316836001600160a01b0316036112c45760405162461bcd60e51b815260206004820152601960248201527f4552433732313a20617070726f766520746f2063616c6c6572000000000000006044820152606401610620565b6001600160a01b03838116600081815260056020908152604080832094871680845294825291829020805460ff191686151590811790915591519182527f17307eab39ab6107e8899845ad3d59bd9653f200f220920489ca2b5937696c31910160405180910390a3505050565b61133c848484610d95565b611348848484846114f1565b610ab45760405162461bcd60e51b815260206004820152603260248201527f4552433732313a207472616e7366657220746f206e6f6e20455243373231526560448201527f63656976657220696d706c656d656e74657200000000000000000000000000006064820152608401610620565b6060600980546104e690611ad4565b606060006113d683611648565b600101905060008167ffffffffffffffff8111156113f6576113f661187d565b6040519080825280601f01601f191660200182016040528015611420576020820181803683370190505b5090508181016020015b600019017f3031323334353637383961626364656600000000000000000000000000000000600a86061a8153600a850494508461142a57509392505050565b6001811115610ab4576001600160a01b038416156114af576001600160a01b038416600090815260036020526040812080548392906114a9908490611c90565b90915550505b6001600160a01b03831615610ab4576001600160a01b038316600090815260036020526040812080548392906114e6908490611ca3565b909155505050505050565b60006001600160a01b0384163b1561163d57604051630a85bd0160e11b81526001600160a01b0385169063150b7a0290611535903390899088908890600401611cb6565b6020604051808303816000875af1925050508015611570575060408051601f3d908101601f1916820190925261156d91810190611cf2565b60015b611623573d80801561159e576040519150601f19603f3d011682016040523d82523d6000602084013e6115a3565b606091505b50805160000361161b5760405162461bcd60e51b815260206004820152603260248201527f4552433732313a207472616e7366657220746f206e6f6e20455243373231526560448201527f63656976657220696d706c656d656e74657200000000000000000000000000006064820152608401610620565b805181602001fd5b6001600160e01b031916630a85bd0160e11b1490506109b3565b506001949350505050565b6000807a184f03e93ff9f4daa797ed6e38ed64bf6a1f0100000000000000008310611691577a184f03e93ff9f4daa797ed6e38ed64bf6a1f010000000000000000830492506040015b6d04ee2d6d415b85acef810000000083106116bd576d04ee2d6d415b85acef8100000000830492506020015b662386f26fc1000083106116db57662386f26fc10000830492506010015b6305f5e10083106116f3576305f5e100830492506008015b612710831061170757612710830492506004015b60648310611719576064830492506002015b600a83106104b05760010192915050565b6001600160e01b03198116811461078f57600080fd5b60006020828403121561175257600080fd5b813561175d8161172a565b9392505050565b60006020828403121561177657600080fd5b5035919050565b60005b83811015611798578181015183820152602001611780565b50506000910152565b600081518084526117b981602086016020860161177d565b601f01601f19169290920160200192915050565b60208152600061175d60208301846117a1565b80356001600160a01b03811681146117f757600080fd5b919050565b6000806040838503121561180f57600080fd5b611818836117e0565b946020939093013593505050565b60008060006060848603121561183b57600080fd5b611844846117e0565b9250611852602085016117e0565b9150604084013590509250925092565b60006020828403121561187457600080fd5b61175d826117e0565b634e487b7160e01b600052604160045260246000fd5b600067ffffffffffffffff808411156118ae576118ae61187d565b604051601f8501601f19908116603f011681019082821181831017156118d6576118d661187d565b816040528093508581528686860111156118ef57600080fd5b858560208301376000602087830101525050509392505050565b600082601f83011261191a57600080fd5b61175d83833560208501611893565b60006020828403121561193b57600080fd5b813567ffffffffffffffff81111561195257600080fd5b6109b384828501611909565b60008060006060848603121561197357600080fd5b833567ffffffffffffffff81111561198a57600080fd5b61199686828701611909565b935050611852602085016117e0565b6020808252825182820181905260009190848201906040850190845b818110156119dd578351835292840192918401916001016119c1565b50909695505050505050565b600080604083850312156119fc57600080fd5b611a05836117e0565b915060208301358015158114611a1a57600080fd5b809150509250929050565b60008060008060808587031215611a3b57600080fd5b611a44856117e0565b9350611a52602086016117e0565b925060408501359150606085013567ffffffffffffffff811115611a7557600080fd5b8501601f81018713611a8657600080fd5b611a9587823560208401611893565b91505092959194509250565b60008060408385031215611ab457600080fd5b611abd836117e0565b9150611acb602084016117e0565b90509250929050565b600181811c90821680611ae857607f821691505b602082108103611b0857634e487b7160e01b600052602260045260246000fd5b50919050565b634e487b7160e01b600052603260045260246000fd5b634e487b7160e01b600052601160045260246000fd5b600060018201611b4c57611b4c611b24565b5060010190565b601f8211156106df57600081815260208120601f850160051c81016020861015611b7a5750805b601f850160051c820191505b81811015611b9957828155600101611b86565b505050505050565b815167ffffffffffffffff811115611bbb57611bbb61187d565b611bcf81611bc98454611ad4565b84611b53565b602080601f831160018114611c045760008415611bec5750858301515b600019600386901b1c1916600185901b178555611b99565b600085815260208120601f198616915b82811015611c3357888601518255948401946001909101908401611c14565b5085821015611c515787850151600019600388901b60f8161c191681555b5050505050600190811b01905550565b60008351611c7381846020880161177d565b835190830190611c8781836020880161177d565b01949350505050565b818103818111156104b0576104b0611b24565b808201808211156104b0576104b0611b24565b60006001600160a01b03808716835280861660208401525083604083015260806060830152611ce860808301846117a1565b9695505050505050565b600060208284031215611d0457600080fd5b815161175d8161172a56fea264697066735822122092f8c810762158dc25b488c39092c88cfc8be23507b18349ce27759747ffdf7c64736f6c63430008100033a2646970667358221220e8a1d824e6eda0fe29180701a93539279a2d4fd1f22e9453983c6693be93ef2e64736f6c63430008100033",
  "immutableReferences": {},
  "source": "// SPDX-License-Identifier: GPL-3.0\npragma solidity >=0.7.0 <0.9.0;\n\nimport {MultiERC721} from \"./MultiERC721.sol\";\nimport {Events} from \"./libraries/Events.sol\";\nimport {CallProxy} from \"./interfaces/CallProxy.sol\";\n\ncontract CrossArt {\n    address private _deployer;\n    uint private _thisChainId;\n\n    // anycall contracts\n    address public _anycallcontract;\n    address private _anycallExecutor;\n\n    // network id => destinations contract\n    mapping(uint => address) public destinations;\n\n    // creator => nft contract addresses\n    mapping(address => address[]) public creators;\n\n    // nft contract address => collection metadata\n    mapping(address => Collection) public collections;\n\n    // mapping nft source chain address to this chain address\n    mapping(address => address) private nftMaps;\n\n    struct Collection {\n        address[] whiteList;\n        address[] blackList;\n        bool isWhiteSystem;\n        uint256 mintPrice;\n        uint chainId;\n        address creator;\n    }\n\n    receive() external payable {}\n\n    fallback() external payable {}\n\n    constructor(address anycallcontract, uint chainId) {\n        _thisChainId = chainId;\n        _anycallcontract = anycallcontract;\n\n        _deployer = msg.sender;\n        _anycallExecutor = CallProxy(_anycallcontract).executor();\n    }\n\n    function createCollection(\n        string memory name,\n        string memory symbol,\n        uint[] memory supportedChains,\n        string memory cover,\n        string memory avatar\n    ) public {\n        MultiERC721 nft = new MultiERC721(\n            name,\n            symbol,\n            cover,\n            avatar,\n            supportedChains,\n            _thisChainId,\n            msg.sender\n        );\n\n        // set the nft source address\n        address contractAddress = address(nft);\n\n        nft.setSourceAddress(contractAddress);\n        nftMaps[contractAddress] = contractAddress;\n\n        collections[contractAddress] = Collection(\n            collections[contractAddress].whiteList,\n            collections[contractAddress].blackList,\n            false,\n            0,\n            _thisChainId,\n            nft.creator()\n        );\n\n        emit Events.ArtCollection(\n            // metadata\n            nft.name(),\n            nft.symbol(),\n            nft.cover(),\n            nft.avatar(),\n            // addresses\n            nft.creator(),\n            contractAddress,\n            // sorting\n            collections[contractAddress].whiteList,\n            collections[contractAddress].blackList,\n            false,\n            0, // mintPrice\n            // chains\n            _thisChainId,\n            nft.supportedChains()\n        );\n    }\n\n    function updateCollection(\n        address[] memory whiteList,\n        address[] memory blackList,\n        bool isWhiteSystem,\n        uint256 mintPrice,\n        address contractAddress\n    ) public {\n        MultiERC721 nft = MultiERC721(contractAddress);\n        require(msg.sender == nft.creator(), \"Unathorized\");\n\n        collections[contractAddress] = Collection(\n            whiteList,\n            blackList,\n            isWhiteSystem,\n            mintPrice,\n            _thisChainId,\n            nft.creator()\n        );\n\n        emit Events.ArtCollection(\n            // metadata\n            nft.name(),\n            nft.symbol(),\n            nft.cover(),\n            nft.avatar(),\n            // addresses\n            nft.creator(),\n            address(nft),\n            // sorting\n            whiteList,\n            blackList,\n            isWhiteSystem,\n            mintPrice,\n            // chains\n            _thisChainId,\n            nft.supportedChains()\n        );\n    }\n\n    function mint(string memory uri, address contractAddress) public payable {\n        MultiERC721 nft = MultiERC721(contractAddress);\n        Collection memory collection = collections[contractAddress];\n\n        if (msg.sender != nft.creator()) {\n            require(\n                msg.value >= collection.mintPrice,\n                \"Insuficient Mint Amount\"\n            );\n\n            if (collection.isWhiteSystem) {\n                bool eligible = _isEligble(\n                    msg.sender,\n                    collection.whiteList,\n                    collection.blackList\n                );\n                require(eligible, \"You're not eligible\");\n            }\n        }\n\n        uint tokenID = nft.mint(uri, msg.sender, 0);\n\n        emit Events.ArtItem(\n            // id\n            tokenID,\n            // addresses\n            msg.sender,\n            address(nft),\n            // chain\n            _thisChainId\n        );\n    }\n\n    function bridge(\n        uint tokenID,\n        address contractAddress,\n        uint destinationChainId\n    ) public payable {\n        MultiERC721 nft = MultiERC721(contractAddress);\n        require(\n            nft.isChainSupported(destinationChainId),\n            \"unsupported destination chain\"\n        );\n\n        require(\n            msg.sender == nft.holderOf(tokenID),\n            \"you cant bridge this token\"\n        );\n\n        bytes memory data = abi.encode(\n            nft.sourceAddress(),\n            nft.tokenURI(tokenID),\n            nft.name(), // related for non existing nft\n            nft.symbol(), // related for non existing nft\n            nft.supportedChains(), // related for non existing nft\n            nft.creator(), // related for non existing nft\n            tokenID,\n            nft.holderOf(tokenID),\n            nft.cover(),\n            nft.avatar()\n        );\n\n        require(\n            destinations[destinationChainId] != address(0),\n            \"Please add destination chain\"\n        );\n\n        // burn token on originated chain\n        nft.burn(tokenID);\n\n        // cross-chain message to mint same token\n        // on destination chain\n        CallProxy(_anycallcontract).anyCall{value: msg.value}(\n            // _to chain contract\n            destinations[destinationChainId],\n            // sending the encoded bytes of the string uri and decode on the destination chain\n            data,\n            // _to chain id\n            destinationChainId,\n            // using 4 flag to pay fee on the source chain with fallback\n            4,\n            // ext data\n            \"\"\n        );\n    }\n\n    function anyExecute(\n        bytes calldata _data\n    ) external returns (bool success, bytes memory result) {\n        (\n            address sourceAddress,\n            string memory uri,\n            string memory name, // related for non existing nft\n            string memory symbol, // related for non existing nft\n            uint[] memory supportedChains, // related for non existing nft\n            address creator, // related for non existing nft\n            uint256 tokenID,\n            address holder,\n            string memory cover,\n            string memory avatar\n        ) = abi.decode(\n                _data,\n                (\n                    address,\n                    string,\n                    string,\n                    string,\n                    uint[],\n                    address,\n                    uint256,\n                    address,\n                    string,\n                    string\n                )\n            );\n\n        bool existing = nftMaps[sourceAddress] != address(0);\n\n        MultiERC721 nft;\n\n        if (existing) {\n            nft = MultiERC721(nftMaps[sourceAddress]);\n        } else {\n            nft = new MultiERC721(\n                name,\n                symbol,\n                cover,\n                avatar,\n                supportedChains,\n                _thisChainId,\n                creator\n            );\n\n            // set the nft source address\n            nft.setSourceAddress(sourceAddress);\n            nftMaps[sourceAddress] = address(nft);\n        }\n\n        nft.mint(uri, holder, tokenID);\n\n        success = true;\n        result = \"\";\n    }\n\n    function _isEligble(\n        address minter,\n        address[] memory whiteList,\n        address[] memory blackList\n    ) private pure returns (bool) {\n        for (uint index = 0; index < blackList.length; index++) {\n            if (minter == blackList[index]) {\n                return false;\n            }\n        }\n        for (uint index = 0; index < whiteList.length; index++) {\n            if (minter == whiteList[index]) {\n                return true;\n            }\n        }\n        return false;\n    }\n\n    function addChain(\n        uint chainId,\n        address contractAddress\n    ) public onlyDeployer {\n        destinations[chainId] = contractAddress;\n    }\n\n    event Desposit(address account, uint256 amount);\n\n    modifier onlyDeployer() {\n        require(msg.sender == _deployer, \"only owner can call this method\");\n        _;\n    }\n\n    modifier onlyExecutor() {\n        require(\n            msg.sender == _anycallExecutor,\n            \"Only executor can call this method\"\n        );\n        _;\n    }\n}\n",
  "sourcePath": "C:\\Users\\Arogundade Ibrahim\\documents\\web3\\crossart\\contracts\\CrossArt.sol",
  "compiler": {
    "name": "solc",
    "version": "0.8.16+commit.07a7930e.Emscripten.clang"
  },
  "schemaVersion": "3.4.10",
  "updatedAt": "2022-12-16T09:56:30.805Z",
  "devdoc": {
    "kind": "dev",
    "methods": {},
    "version": 1
  },
  "userdoc": {
    "kind": "user",
    "methods": {},
    "version": 1
  }
}