{
  "contractName": "MultiERC721",
  "abi": [
    {
      "inputs": [
        {
          "internalType": "string",
          "name": "name",
          "type": "string"
        },
        {
          "internalType": "string",
          "name": "symbol",
          "type": "string"
        },
        {
          "internalType": "uint256[]",
          "name": "supportedChains",
          "type": "uint256[]"
        },
        {
          "internalType": "uint256",
          "name": "primaryChain",
          "type": "uint256"
        },
        {
          "internalType": "address",
          "name": "creator",
          "type": "address"
        }
      ],
      "stateMutability": "nonpayable",
      "type": "constructor"
    },
    {
      "anonymous": false,
      "inputs": [
        {
          "indexed": true,
          "internalType": "address",
          "name": "owner",
          "type": "address"
        },
        {
          "indexed": true,
          "internalType": "address",
          "name": "approved",
          "type": "address"
        },
        {
          "indexed": true,
          "internalType": "uint256",
          "name": "tokenId",
          "type": "uint256"
        }
      ],
      "name": "Approval",
      "type": "event"
    },
    {
      "anonymous": false,
      "inputs": [
        {
          "indexed": true,
          "internalType": "address",
          "name": "owner",
          "type": "address"
        },
        {
          "indexed": true,
          "internalType": "address",
          "name": "operator",
          "type": "address"
        },
        {
          "indexed": false,
          "internalType": "bool",
          "name": "approved",
          "type": "bool"
        }
      ],
      "name": "ApprovalForAll",
      "type": "event"
    },
    {
      "anonymous": false,
      "inputs": [
        {
          "indexed": true,
          "internalType": "address",
          "name": "from",
          "type": "address"
        },
        {
          "indexed": true,
          "internalType": "address",
          "name": "to",
          "type": "address"
        },
        {
          "indexed": true,
          "internalType": "uint256",
          "name": "tokenId",
          "type": "uint256"
        }
      ],
      "name": "Transfer",
      "type": "event"
    },
    {
      "inputs": [
        {
          "internalType": "uint256",
          "name": "",
          "type": "uint256"
        }
      ],
      "name": "_supportedChains",
      "outputs": [
        {
          "internalType": "uint256",
          "name": "",
          "type": "uint256"
        }
      ],
      "stateMutability": "view",
      "type": "function"
    },
    {
      "inputs": [
        {
          "internalType": "address",
          "name": "to",
          "type": "address"
        },
        {
          "internalType": "uint256",
          "name": "tokenId",
          "type": "uint256"
        }
      ],
      "name": "approve",
      "outputs": [],
      "stateMutability": "nonpayable",
      "type": "function"
    },
    {
      "inputs": [
        {
          "internalType": "address",
          "name": "owner",
          "type": "address"
        }
      ],
      "name": "balanceOf",
      "outputs": [
        {
          "internalType": "uint256",
          "name": "",
          "type": "uint256"
        }
      ],
      "stateMutability": "view",
      "type": "function"
    },
    {
      "inputs": [
        {
          "internalType": "uint256",
          "name": "",
          "type": "uint256"
        }
      ],
      "name": "currentChains",
      "outputs": [
        {
          "internalType": "uint256",
          "name": "",
          "type": "uint256"
        }
      ],
      "stateMutability": "view",
      "type": "function"
    },
    {
      "inputs": [
        {
          "internalType": "uint256",
          "name": "tokenId",
          "type": "uint256"
        }
      ],
      "name": "getApproved",
      "outputs": [
        {
          "internalType": "address",
          "name": "",
          "type": "address"
        }
      ],
      "stateMutability": "view",
      "type": "function"
    },
    {
      "inputs": [
        {
          "internalType": "address",
          "name": "owner",
          "type": "address"
        },
        {
          "internalType": "address",
          "name": "operator",
          "type": "address"
        }
      ],
      "name": "isApprovedForAll",
      "outputs": [
        {
          "internalType": "bool",
          "name": "",
          "type": "bool"
        }
      ],
      "stateMutability": "view",
      "type": "function"
    },
    {
      "inputs": [],
      "name": "name",
      "outputs": [
        {
          "internalType": "string",
          "name": "",
          "type": "string"
        }
      ],
      "stateMutability": "view",
      "type": "function"
    },
    {
      "inputs": [
        {
          "internalType": "uint256",
          "name": "tokenId",
          "type": "uint256"
        }
      ],
      "name": "ownerOf",
      "outputs": [
        {
          "internalType": "address",
          "name": "",
          "type": "address"
        }
      ],
      "stateMutability": "view",
      "type": "function"
    },
    {
      "inputs": [
        {
          "internalType": "address",
          "name": "from",
          "type": "address"
        },
        {
          "internalType": "address",
          "name": "to",
          "type": "address"
        },
        {
          "internalType": "uint256",
          "name": "tokenId",
          "type": "uint256"
        }
      ],
      "name": "safeTransferFrom",
      "outputs": [],
      "stateMutability": "nonpayable",
      "type": "function"
    },
    {
      "inputs": [
        {
          "internalType": "address",
          "name": "from",
          "type": "address"
        },
        {
          "internalType": "address",
          "name": "to",
          "type": "address"
        },
        {
          "internalType": "uint256",
          "name": "tokenId",
          "type": "uint256"
        },
        {
          "internalType": "bytes",
          "name": "data",
          "type": "bytes"
        }
      ],
      "name": "safeTransferFrom",
      "outputs": [],
      "stateMutability": "nonpayable",
      "type": "function"
    },
    {
      "inputs": [
        {
          "internalType": "address",
          "name": "operator",
          "type": "address"
        },
        {
          "internalType": "bool",
          "name": "approved",
          "type": "bool"
        }
      ],
      "name": "setApprovalForAll",
      "outputs": [],
      "stateMutability": "nonpayable",
      "type": "function"
    },
    {
      "inputs": [
        {
          "internalType": "bytes4",
          "name": "interfaceId",
          "type": "bytes4"
        }
      ],
      "name": "supportsInterface",
      "outputs": [
        {
          "internalType": "bool",
          "name": "",
          "type": "bool"
        }
      ],
      "stateMutability": "view",
      "type": "function"
    },
    {
      "inputs": [],
      "name": "symbol",
      "outputs": [
        {
          "internalType": "string",
          "name": "",
          "type": "string"
        }
      ],
      "stateMutability": "view",
      "type": "function"
    },
    {
      "inputs": [
        {
          "internalType": "address",
          "name": "from",
          "type": "address"
        },
        {
          "internalType": "address",
          "name": "to",
          "type": "address"
        },
        {
          "internalType": "uint256",
          "name": "tokenId",
          "type": "uint256"
        }
      ],
      "name": "transferFrom",
      "outputs": [],
      "stateMutability": "nonpayable",
      "type": "function"
    },
    {
      "inputs": [],
      "name": "getCreator",
      "outputs": [
        {
          "internalType": "address",
          "name": "",
          "type": "address"
        }
      ],
      "stateMutability": "view",
      "type": "function"
    },
    {
      "inputs": [
        {
          "internalType": "string",
          "name": "uri",
          "type": "string"
        },
        {
          "internalType": "address",
          "name": "to",
          "type": "address"
        },
        {
          "internalType": "uint256",
          "name": "_tokenID",
          "type": "uint256"
        }
      ],
      "name": "mint",
      "outputs": [
        {
          "internalType": "uint256",
          "name": "",
          "type": "uint256"
        }
      ],
      "stateMutability": "nonpayable",
      "type": "function"
    },
    {
      "inputs": [
        {
          "internalType": "uint256",
          "name": "_tokenID",
          "type": "uint256"
        }
      ],
      "name": "burn",
      "outputs": [],
      "stateMutability": "nonpayable",
      "type": "function"
    },
    {
      "inputs": [
        {
          "internalType": "uint256",
          "name": "tokenId",
          "type": "uint256"
        }
      ],
      "name": "holderOf",
      "outputs": [
        {
          "internalType": "address",
          "name": "",
          "type": "address"
        }
      ],
      "stateMutability": "view",
      "type": "function"
    },
    {
      "inputs": [
        {
          "internalType": "uint256",
          "name": "destChain",
          "type": "uint256"
        }
      ],
      "name": "isChainSupported",
      "outputs": [
        {
          "internalType": "bool",
          "name": "",
          "type": "bool"
        }
      ],
      "stateMutability": "view",
      "type": "function"
    },
    {
      "inputs": [
        {
          "internalType": "string",
          "name": "baseURI",
          "type": "string"
        }
      ],
      "name": "setBaseURI",
      "outputs": [],
      "stateMutability": "nonpayable",
      "type": "function"
    },
    {
      "inputs": [
        {
          "internalType": "uint256",
          "name": "tokenId",
          "type": "uint256"
        }
      ],
      "name": "tokenURI",
      "outputs": [
        {
          "internalType": "string",
          "name": "",
          "type": "string"
        }
      ],
      "stateMutability": "view",
      "type": "function"
    }
  ],
  "bytecode": "0x608060405260006007553480156200001657600080fd5b506040516200204d3803806200204d8339810160408190526200003991620001f6565b848460006200004983826200039f565b5060016200005882826200039f565b5050600680546001600160a01b0319166001600160a01b03841617905550600a82905582516200009090600b9060208601906200009c565b5050505050506200046b565b828054828255906000526020600020908101928215620000da579160200282015b82811115620000da578251825591602001919060010190620000bd565b50620000e8929150620000ec565b5090565b5b80821115620000e85760008155600101620000ed565b634e487b7160e01b600052604160045260246000fd5b604051601f8201601f191681016001600160401b038111828210171562000144576200014462000103565b604052919050565b600082601f8301126200015e57600080fd5b81516001600160401b038111156200017a576200017a62000103565b602062000190601f8301601f1916820162000119565b8281528582848701011115620001a557600080fd5b60005b83811015620001c5578581018301518282018401528201620001a8565b506000928101909101919091529392505050565b80516001600160a01b0381168114620001f157600080fd5b919050565b600080600080600060a086880312156200020f57600080fd5b85516001600160401b03808211156200022757600080fd5b6200023589838a016200014c565b96506020915081880151818111156200024d57600080fd5b6200025b8a828b016200014c565b9650506040880151818111156200027157600080fd5b8801601f81018a136200028357600080fd5b80518281111562000298576200029862000103565b8060051b9250620002ab84840162000119565b818152928201840192848101908c851115620002c657600080fd5b928501925b84841015620002e657835182529285019290850190620002cb565b809850505050505050606086015191506200030460808701620001d9565b90509295509295909350565b600181811c908216806200032557607f821691505b6020821081036200034657634e487b7160e01b600052602260045260246000fd5b50919050565b601f8211156200039a57600081815260208120601f850160051c81016020861015620003755750805b601f850160051c820191505b81811015620003965782815560010162000381565b5050505b505050565b81516001600160401b03811115620003bb57620003bb62000103565b620003d381620003cc845462000310565b846200034c565b602080601f8311600181146200040b5760008415620003f25750858301515b600019600386901b1c1916600185901b17855562000396565b600085815260208120601f198616915b828110156200043c578886015182559484019460019091019084016200041b565b50858210156200045b5787850151600019600388901b60f8161c191681555b5050505050600190811b01905550565b611bd2806200047b6000396000f3fe608060405234801561001057600080fd5b50600436106101775760003560e01c806355f804b3116100d8578063a22cb4651161008c578063c87b56dd11610066578063c87b56dd14610311578063dbacc23714610324578063e985e9c51461033757600080fd5b8063a22cb465146102cb578063b325d85d146102de578063b88d4fde146102fe57600080fd5b806370a08231116100bd57806370a082311461029d5780637e8816b9146102b057806395d89b41146102c357600080fd5b806355f804b3146102775780636352211e1461028a57600080fd5b80630ee2cb101161012f57806342842e0e1161011457806342842e0e1461023e57806342966c68146102515780635221c1f01461026457600080fd5b80630ee2cb101461021a57806323b872dd1461022b57600080fd5b806306fdde031161016057806306fdde03146101c5578063081812fc146101da578063095ea7b31461020557600080fd5b806301ffc9a71461017c5780630444ce0a146101a4575b600080fd5b61018f61018a366004611611565b610373565b60405190151581526020015b60405180910390f35b6101b76101b2366004611635565b610410565b60405190815260200161019b565b6101cd610431565b60405161019b919061169e565b6101ed6101e8366004611635565b6104c3565b6040516001600160a01b03909116815260200161019b565b6102186102133660046116cd565b6104ea565b005b6006546001600160a01b03166101ed565b6102186102393660046116f7565b61063e565b61021861024c3660046116f7565b6106c5565b61021861025f366004611635565b6106e0565b61018f610272366004611635565b6106ec565b6102186102853660046117df565b610742565b6101ed610298366004611635565b6107ac565b6101b76102ab366004611814565b610811565b6101b76102be36600461182f565b6108ab565b6101cd6108f2565b6102186102d9366004611876565b610901565b6101b76102ec366004611635565b600c6020526000908152604090205481565b61021861030c3660046118b2565b61090c565b6101cd61031f366004611635565b61099a565b6101ed610332366004611635565b610aec565b61018f61034536600461192e565b6001600160a01b03918216600090815260056020908152604080832093909416825291909152205460ff1690565b60006001600160e01b031982167f80ac58cd0000000000000000000000000000000000000000000000000000000014806103d657506001600160e01b031982167f5b5e139f00000000000000000000000000000000000000000000000000000000145b8061040a57507f01ffc9a7000000000000000000000000000000000000000000000000000000006001600160e01b03198316145b92915050565b600b818154811061042057600080fd5b600091825260209091200154905081565b60606000805461044090611961565b80601f016020809104026020016040519081016040528092919081815260200182805461046c90611961565b80156104b95780601f1061048e576101008083540402835291602001916104b9565b820191906000526020600020905b81548152906001019060200180831161049c57829003601f168201915b5050505050905090565b60006104ce82610b09565b506000908152600460205260409020546001600160a01b031690565b60006104f5826107ac565b9050806001600160a01b0316836001600160a01b0316036105835760405162461bcd60e51b815260206004820152602160248201527f4552433732313a20617070726f76616c20746f2063757272656e74206f776e6560448201527f720000000000000000000000000000000000000000000000000000000000000060648201526084015b60405180910390fd5b336001600160a01b03821614806105bd57506001600160a01b038116600090815260056020908152604080832033845290915290205460ff165b61062f5760405162461bcd60e51b815260206004820152603d60248201527f4552433732313a20617070726f76652063616c6c6572206973206e6f7420746f60448201527f6b656e206f776e6572206f7220617070726f76656420666f7220616c6c000000606482015260840161057a565b6106398383610b6d565b505050565b6106483382610be8565b6106ba5760405162461bcd60e51b815260206004820152602d60248201527f4552433732313a2063616c6c6572206973206e6f7420746f6b656e206f776e6560448201527f72206f7220617070726f76656400000000000000000000000000000000000000606482015260840161057a565b610639838383610c66565b6106398383836040518060200160405280600081525061090c565b6106e981610e79565b50565b6000805b600b548110156107395782600b828154811061070e5761070e61199b565b9060005260206000200154036107275750600192915050565b80610731816119c7565b9150506106f0565b50600092915050565b6006546001600160a01b0316331461079c5760405162461bcd60e51b815260206004820152601f60248201527f6f6e6c79206f776e65722063616e2063616c6c2074686973206d6574686f6400604482015260640161057a565b60096107a88282611a2e565b5050565b6000818152600260205260408120546001600160a01b03168061040a5760405162461bcd60e51b815260206004820152601860248201527f4552433732313a20696e76616c696420746f6b656e2049440000000000000000604482015260640161057a565b60006001600160a01b03821661088f5760405162461bcd60e51b815260206004820152602960248201527f4552433732313a2061646472657373207a65726f206973206e6f74206120766160448201527f6c6964206f776e65720000000000000000000000000000000000000000000000606482015260840161057a565b506001600160a01b031660009081526003602052604090205490565b60008082156108d357600780549060006108c4836119c7565b919050555060075490506108d6565b50815b6108e08482610f29565b6108ea81866110cf565b949350505050565b60606001805461044090611961565b6107a8338383611134565b6109163383610be8565b6109885760405162461bcd60e51b815260206004820152602d60248201527f4552433732313a2063616c6c6572206973206e6f7420746f6b656e206f776e6560448201527f72206f7220617070726f76656400000000000000000000000000000000000000606482015260840161057a565b61099484848484611202565b50505050565b6000818152600260205260409020546060906001600160a01b03166109ea5760405162461bcd60e51b815260206004820152600660248201526508595e1a5cdd60d21b604482015260640161057a565b60008281526008602052604081208054610a0390611961565b80601f0160208091040260200160405190810160405280929190818152602001828054610a2f90611961565b8015610a7c5780601f10610a5157610100808354040283529160200191610a7c565b820191906000526020600020905b815481529060010190602001808311610a5f57829003601f168201915b505050505090506000610a8d61128b565b90508051600003610a9f575092915050565b815115610ad1578082604051602001610ab9929190611aee565b60405160208183030381529060405292505050919050565b80610adb8561129a565b604051602001610ab9929190611aee565b6000818152600260205260408120546001600160a01b031661040a565b6000818152600260205260409020546001600160a01b03166106e95760405162461bcd60e51b815260206004820152601860248201527f4552433732313a20696e76616c696420746f6b656e2049440000000000000000604482015260640161057a565b6000818152600460205260409020805473ffffffffffffffffffffffffffffffffffffffff19166001600160a01b0384169081179091558190610baf826107ac565b6001600160a01b03167f8c5be1e5ebec7d5bd14f71427d1e84f3dd0314c0f7b2291e5b200ac8c7c3b92560405160405180910390a45050565b600080610bf4836107ac565b9050806001600160a01b0316846001600160a01b03161480610c3b57506001600160a01b0380821660009081526005602090815260408083209388168352929052205460ff165b806108ea5750836001600160a01b0316610c54846104c3565b6001600160a01b031614949350505050565b826001600160a01b0316610c79826107ac565b6001600160a01b031614610cdd5760405162461bcd60e51b815260206004820152602560248201527f4552433732313a207472616e736665722066726f6d20696e636f72726563742060448201526437bbb732b960d91b606482015260840161057a565b6001600160a01b038216610d585760405162461bcd60e51b8152602060048201526024808201527f4552433732313a207472616e7366657220746f20746865207a65726f2061646460448201527f7265737300000000000000000000000000000000000000000000000000000000606482015260840161057a565b610d65838383600161133a565b826001600160a01b0316610d78826107ac565b6001600160a01b031614610ddc5760405162461bcd60e51b815260206004820152602560248201527f4552433732313a207472616e736665722066726f6d20696e636f72726563742060448201526437bbb732b960d91b606482015260840161057a565b6000818152600460209081526040808320805473ffffffffffffffffffffffffffffffffffffffff199081169091556001600160a01b0387811680865260038552838620805460001901905590871680865283862080546001019055868652600290945282852080549092168417909155905184937fddf252ad1be2c89b69c2b068fc378daa952ba7f163c4a11628f55a4df523b3ef91a4505050565b6000610e84826107ac565b9050610e9481600084600161133a565b610e9d826107ac565b6000838152600460209081526040808320805473ffffffffffffffffffffffffffffffffffffffff199081169091556001600160a01b0385168085526003845282852080546000190190558785526002909352818420805490911690555192935084927fddf252ad1be2c89b69c2b068fc378daa952ba7f163c4a11628f55a4df523b3ef908390a45050565b6001600160a01b038216610f7f5760405162461bcd60e51b815260206004820181905260248201527f4552433732313a206d696e7420746f20746865207a65726f2061646472657373604482015260640161057a565b6000818152600260205260409020546001600160a01b031615610fe45760405162461bcd60e51b815260206004820152601c60248201527f4552433732313a20746f6b656e20616c7265616479206d696e74656400000000604482015260640161057a565b610ff260008383600161133a565b6000818152600260205260409020546001600160a01b0316156110575760405162461bcd60e51b815260206004820152601c60248201527f4552433732313a20746f6b656e20616c7265616479206d696e74656400000000604482015260640161057a565b6001600160a01b0382166000818152600360209081526040808320805460010190558483526002909152808220805473ffffffffffffffffffffffffffffffffffffffff19168417905551839291907fddf252ad1be2c89b69c2b068fc378daa952ba7f163c4a11628f55a4df523b3ef908290a45050565b6000828152600260205260409020546001600160a01b031661111c5760405162461bcd60e51b815260206004820152600660248201526508595e1a5cdd60d21b604482015260640161057a565b60008281526008602052604090206106398282611a2e565b816001600160a01b0316836001600160a01b0316036111955760405162461bcd60e51b815260206004820152601960248201527f4552433732313a20617070726f766520746f2063616c6c657200000000000000604482015260640161057a565b6001600160a01b03838116600081815260056020908152604080832094871680845294825291829020805460ff191686151590811790915591519182527f17307eab39ab6107e8899845ad3d59bd9653f200f220920489ca2b5937696c31910160405180910390a3505050565b61120d848484610c66565b611219848484846113c2565b6109945760405162461bcd60e51b815260206004820152603260248201527f4552433732313a207472616e7366657220746f206e6f6e20455243373231526560448201527f63656976657220696d706c656d656e7465720000000000000000000000000000606482015260840161057a565b60606009805461044090611961565b606060006112a783611519565b600101905060008167ffffffffffffffff8111156112c7576112c7611733565b6040519080825280601f01601f1916602001820160405280156112f1576020820181803683370190505b5090508181016020015b600019017f3031323334353637383961626364656600000000000000000000000000000000600a86061a8153600a85049450846112fb57509392505050565b6001811115610994576001600160a01b03841615611380576001600160a01b0384166000908152600360205260408120805483929061137a908490611b1d565b90915550505b6001600160a01b03831615610994576001600160a01b038316600090815260036020526040812080548392906113b7908490611b30565b909155505050505050565b60006001600160a01b0384163b1561150e57604051630a85bd0160e11b81526001600160a01b0385169063150b7a0290611406903390899088908890600401611b43565b6020604051808303816000875af1925050508015611441575060408051601f3d908101601f1916820190925261143e91810190611b7f565b60015b6114f4573d80801561146f576040519150601f19603f3d011682016040523d82523d6000602084013e611474565b606091505b5080516000036114ec5760405162461bcd60e51b815260206004820152603260248201527f4552433732313a207472616e7366657220746f206e6f6e20455243373231526560448201527f63656976657220696d706c656d656e7465720000000000000000000000000000606482015260840161057a565b805181602001fd5b6001600160e01b031916630a85bd0160e11b1490506108ea565b506001949350505050565b6000807a184f03e93ff9f4daa797ed6e38ed64bf6a1f0100000000000000008310611562577a184f03e93ff9f4daa797ed6e38ed64bf6a1f010000000000000000830492506040015b6d04ee2d6d415b85acef8100000000831061158e576d04ee2d6d415b85acef8100000000830492506020015b662386f26fc1000083106115ac57662386f26fc10000830492506010015b6305f5e10083106115c4576305f5e100830492506008015b61271083106115d857612710830492506004015b606483106115ea576064830492506002015b600a831061040a5760010192915050565b6001600160e01b0319811681146106e957600080fd5b60006020828403121561162357600080fd5b813561162e816115fb565b9392505050565b60006020828403121561164757600080fd5b5035919050565b60005b83811015611669578181015183820152602001611651565b50506000910152565b6000815180845261168a81602086016020860161164e565b601f01601f19169290920160200192915050565b60208152600061162e6020830184611672565b80356001600160a01b03811681146116c857600080fd5b919050565b600080604083850312156116e057600080fd5b6116e9836116b1565b946020939093013593505050565b60008060006060848603121561170c57600080fd5b611715846116b1565b9250611723602085016116b1565b9150604084013590509250925092565b634e487b7160e01b600052604160045260246000fd5b600067ffffffffffffffff8084111561176457611764611733565b604051601f8501601f19908116603f0116810190828211818310171561178c5761178c611733565b816040528093508581528686860111156117a557600080fd5b858560208301376000602087830101525050509392505050565b600082601f8301126117d057600080fd5b61162e83833560208501611749565b6000602082840312156117f157600080fd5b813567ffffffffffffffff81111561180857600080fd5b6108ea848285016117bf565b60006020828403121561182657600080fd5b61162e826116b1565b60008060006060848603121561184457600080fd5b833567ffffffffffffffff81111561185b57600080fd5b611867868287016117bf565b935050611723602085016116b1565b6000806040838503121561188957600080fd5b611892836116b1565b9150602083013580151581146118a757600080fd5b809150509250929050565b600080600080608085870312156118c857600080fd5b6118d1856116b1565b93506118df602086016116b1565b925060408501359150606085013567ffffffffffffffff81111561190257600080fd5b8501601f8101871361191357600080fd5b61192287823560208401611749565b91505092959194509250565b6000806040838503121561194157600080fd5b61194a836116b1565b9150611958602084016116b1565b90509250929050565b600181811c9082168061197557607f821691505b60208210810361199557634e487b7160e01b600052602260045260246000fd5b50919050565b634e487b7160e01b600052603260045260246000fd5b634e487b7160e01b600052601160045260246000fd5b6000600182016119d9576119d96119b1565b5060010190565b601f82111561063957600081815260208120601f850160051c81016020861015611a075750805b601f850160051c820191505b81811015611a2657828155600101611a13565b505050505050565b815167ffffffffffffffff811115611a4857611a48611733565b611a5c81611a568454611961565b846119e0565b602080601f831160018114611a915760008415611a795750858301515b600019600386901b1c1916600185901b178555611a26565b600085815260208120601f198616915b82811015611ac057888601518255948401946001909101908401611aa1565b5085821015611ade5787850151600019600388901b60f8161c191681555b5050505050600190811b01905550565b60008351611b0081846020880161164e565b835190830190611b1481836020880161164e565b01949350505050565b8181038181111561040a5761040a6119b1565b8082018082111561040a5761040a6119b1565b60006001600160a01b03808716835280861660208401525083604083015260806060830152611b756080830184611672565b9695505050505050565b600060208284031215611b9157600080fd5b815161162e816115fb56fea2646970667358221220d4730fde1213bebedbb17fa058318ed39a64fe70ad85354b5dba30e3ceeca0f464736f6c63430008100033",
  "immutableReferences": {},
  "source": "// SPDX-License-Identifier: GPL-3.0\npragma solidity >=0.7.0 <0.9.0;\n\nimport \"@openzeppelin/contracts/access/Ownable.sol\";\nimport \"@openzeppelin/contracts/token/ERC721/ERC721.sol\";\n\ncontract MultiERC721 is ERC721 {\n    address private _creator;\n\n    uint256 tokenID = 0;\n    using Strings for uint256;\n\n    mapping(uint256 => string) private tokenURIs;\n    string private baseURIextended;\n\n    uint private _primaryChain;\n    uint[] public _supportedChains;\n\n    // keeps track of each nft current chain\n    mapping(uint => uint) public currentChains;\n\n    constructor(\n        string memory name,\n        string memory symbol,\n        uint[] memory supportedChains,\n        uint primaryChain,\n        address creator\n    ) ERC721(name, symbol) {\n        _creator = creator;\n        _primaryChain = primaryChain;\n        _supportedChains = supportedChains;\n    }\n\n    function getCreator() public view returns (address) {\n        return _creator;\n    }\n\n    function mint(\n        string memory uri,\n        address to,\n        uint256 _tokenID\n    ) public returns (uint) {\n        uint _id;\n        if (_tokenID > 0) {\n            tokenID++;\n            _id = tokenID;\n        } else {\n            _id = _tokenID;\n        }\n        _mint(to, _id);\n        _setTokenURI(_id, uri);\n        return _id;\n    }\n\n    function burn(uint256 _tokenID) public {\n        _burn(_tokenID);\n    }\n\n    function holderOf(uint256 tokenId) public view returns (address) {\n        return _ownerOf(tokenId);\n    }\n\n    function isChainSupported(uint destChain) public view returns (bool) {\n        for (uint index = 0; index < _supportedChains.length; index++) {\n            if (_supportedChains[index] == destChain) {\n                return true;\n            }\n        }\n        return false;\n    }\n\n    function setBaseURI(string memory baseURI) external onlyCreator {\n        baseURIextended = baseURI;\n    }\n\n    function _setTokenURI(\n        uint256 tokenId,\n        string memory _tokenURI\n    ) internal virtual {\n        require(_exists(tokenId), \"!exist\");\n        tokenURIs[tokenId] = _tokenURI;\n    }\n\n    function _baseURI() internal view virtual override returns (string memory) {\n        return baseURIextended;\n    }\n\n    function tokenURI(\n        uint256 tokenId\n    ) public view virtual override returns (string memory) {\n        require(_exists(tokenId), \"!exist\");\n\n        string memory _tokenURI = tokenURIs[tokenId];\n        string memory base = _baseURI();\n\n        // if there is no base URI, return the token URI.\n        if (bytes(base).length == 0) {\n            return _tokenURI;\n        }\n\n        // if both are set, concatenate the baseURI and tokenURI (via abi.encodePacked).\n        if (bytes(_tokenURI).length > 0) {\n            return string(abi.encodePacked(base, _tokenURI));\n        }\n\n        // if there is a baseURI but no tokenURI, concatenate the tokenID to the baseURI.\n        return string(abi.encodePacked(base, tokenId.toString()));\n    }\n\n    modifier onlyCreator() {\n        require(msg.sender == _creator, \"only owner can call this method\");\n        _;\n    }\n}\n",
  "sourcePath": "C:\\Users\\Arogundade Ibrahim\\documents\\web3\\crossart\\contracts\\MultiERC721.sol",
  "compiler": {
    "name": "solc",
    "version": "0.8.16+commit.07a7930e.Emscripten.clang"
  },
  "schemaVersion": "3.4.10",
  "updatedAt": "2022-12-11T11:08:32.237Z",
  "devdoc": {
    "kind": "dev",
    "methods": {
      "approve(address,uint256)": {
        "details": "See {IERC721-approve}."
      },
      "balanceOf(address)": {
        "details": "See {IERC721-balanceOf}."
      },
      "getApproved(uint256)": {
        "details": "See {IERC721-getApproved}."
      },
      "isApprovedForAll(address,address)": {
        "details": "See {IERC721-isApprovedForAll}."
      },
      "name()": {
        "details": "See {IERC721Metadata-name}."
      },
      "ownerOf(uint256)": {
        "details": "See {IERC721-ownerOf}."
      },
      "safeTransferFrom(address,address,uint256)": {
        "details": "See {IERC721-safeTransferFrom}."
      },
      "safeTransferFrom(address,address,uint256,bytes)": {
        "details": "See {IERC721-safeTransferFrom}."
      },
      "setApprovalForAll(address,bool)": {
        "details": "See {IERC721-setApprovalForAll}."
      },
      "supportsInterface(bytes4)": {
        "details": "See {IERC165-supportsInterface}."
      },
      "symbol()": {
        "details": "See {IERC721Metadata-symbol}."
      },
      "tokenURI(uint256)": {
        "details": "See {IERC721Metadata-tokenURI}."
      },
      "transferFrom(address,address,uint256)": {
        "details": "See {IERC721-transferFrom}."
      }
    },
    "version": 1
  },
  "userdoc": {
    "kind": "user",
    "methods": {},
    "version": 1
  }
}