{
  "contractName": "MultiERC721",
  "abi": [
    {
      "inputs": [
        {
          "internalType": "string",
          "name": "name",
          "type": "string"
        },
        {
          "internalType": "string",
          "name": "symbol",
          "type": "string"
        },
        {
          "internalType": "uint256[]",
          "name": "supportedChains",
          "type": "uint256[]"
        },
        {
          "internalType": "uint256",
          "name": "primaryChain",
          "type": "uint256"
        },
        {
          "internalType": "address",
          "name": "creator",
          "type": "address"
        }
      ],
      "stateMutability": "nonpayable",
      "type": "constructor"
    },
    {
      "anonymous": false,
      "inputs": [
        {
          "indexed": true,
          "internalType": "address",
          "name": "owner",
          "type": "address"
        },
        {
          "indexed": true,
          "internalType": "address",
          "name": "approved",
          "type": "address"
        },
        {
          "indexed": true,
          "internalType": "uint256",
          "name": "tokenId",
          "type": "uint256"
        }
      ],
      "name": "Approval",
      "type": "event"
    },
    {
      "anonymous": false,
      "inputs": [
        {
          "indexed": true,
          "internalType": "address",
          "name": "owner",
          "type": "address"
        },
        {
          "indexed": true,
          "internalType": "address",
          "name": "operator",
          "type": "address"
        },
        {
          "indexed": false,
          "internalType": "bool",
          "name": "approved",
          "type": "bool"
        }
      ],
      "name": "ApprovalForAll",
      "type": "event"
    },
    {
      "anonymous": false,
      "inputs": [
        {
          "indexed": true,
          "internalType": "address",
          "name": "from",
          "type": "address"
        },
        {
          "indexed": true,
          "internalType": "address",
          "name": "to",
          "type": "address"
        },
        {
          "indexed": true,
          "internalType": "uint256",
          "name": "tokenId",
          "type": "uint256"
        }
      ],
      "name": "Transfer",
      "type": "event"
    },
    {
      "inputs": [
        {
          "internalType": "uint256",
          "name": "",
          "type": "uint256"
        }
      ],
      "name": "_supportedChains",
      "outputs": [
        {
          "internalType": "uint256",
          "name": "",
          "type": "uint256"
        }
      ],
      "stateMutability": "view",
      "type": "function"
    },
    {
      "inputs": [
        {
          "internalType": "address",
          "name": "to",
          "type": "address"
        },
        {
          "internalType": "uint256",
          "name": "tokenId",
          "type": "uint256"
        }
      ],
      "name": "approve",
      "outputs": [],
      "stateMutability": "nonpayable",
      "type": "function"
    },
    {
      "inputs": [
        {
          "internalType": "address",
          "name": "owner",
          "type": "address"
        }
      ],
      "name": "balanceOf",
      "outputs": [
        {
          "internalType": "uint256",
          "name": "",
          "type": "uint256"
        }
      ],
      "stateMutability": "view",
      "type": "function"
    },
    {
      "inputs": [
        {
          "internalType": "uint256",
          "name": "",
          "type": "uint256"
        }
      ],
      "name": "currentChains",
      "outputs": [
        {
          "internalType": "uint256",
          "name": "",
          "type": "uint256"
        }
      ],
      "stateMutability": "view",
      "type": "function"
    },
    {
      "inputs": [
        {
          "internalType": "uint256",
          "name": "tokenId",
          "type": "uint256"
        }
      ],
      "name": "getApproved",
      "outputs": [
        {
          "internalType": "address",
          "name": "",
          "type": "address"
        }
      ],
      "stateMutability": "view",
      "type": "function"
    },
    {
      "inputs": [
        {
          "internalType": "address",
          "name": "owner",
          "type": "address"
        },
        {
          "internalType": "address",
          "name": "operator",
          "type": "address"
        }
      ],
      "name": "isApprovedForAll",
      "outputs": [
        {
          "internalType": "bool",
          "name": "",
          "type": "bool"
        }
      ],
      "stateMutability": "view",
      "type": "function"
    },
    {
      "inputs": [],
      "name": "name",
      "outputs": [
        {
          "internalType": "string",
          "name": "",
          "type": "string"
        }
      ],
      "stateMutability": "view",
      "type": "function"
    },
    {
      "inputs": [
        {
          "internalType": "uint256",
          "name": "tokenId",
          "type": "uint256"
        }
      ],
      "name": "ownerOf",
      "outputs": [
        {
          "internalType": "address",
          "name": "",
          "type": "address"
        }
      ],
      "stateMutability": "view",
      "type": "function"
    },
    {
      "inputs": [
        {
          "internalType": "address",
          "name": "from",
          "type": "address"
        },
        {
          "internalType": "address",
          "name": "to",
          "type": "address"
        },
        {
          "internalType": "uint256",
          "name": "tokenId",
          "type": "uint256"
        }
      ],
      "name": "safeTransferFrom",
      "outputs": [],
      "stateMutability": "nonpayable",
      "type": "function"
    },
    {
      "inputs": [
        {
          "internalType": "address",
          "name": "from",
          "type": "address"
        },
        {
          "internalType": "address",
          "name": "to",
          "type": "address"
        },
        {
          "internalType": "uint256",
          "name": "tokenId",
          "type": "uint256"
        },
        {
          "internalType": "bytes",
          "name": "data",
          "type": "bytes"
        }
      ],
      "name": "safeTransferFrom",
      "outputs": [],
      "stateMutability": "nonpayable",
      "type": "function"
    },
    {
      "inputs": [
        {
          "internalType": "address",
          "name": "operator",
          "type": "address"
        },
        {
          "internalType": "bool",
          "name": "approved",
          "type": "bool"
        }
      ],
      "name": "setApprovalForAll",
      "outputs": [],
      "stateMutability": "nonpayable",
      "type": "function"
    },
    {
      "inputs": [
        {
          "internalType": "bytes4",
          "name": "interfaceId",
          "type": "bytes4"
        }
      ],
      "name": "supportsInterface",
      "outputs": [
        {
          "internalType": "bool",
          "name": "",
          "type": "bool"
        }
      ],
      "stateMutability": "view",
      "type": "function"
    },
    {
      "inputs": [],
      "name": "symbol",
      "outputs": [
        {
          "internalType": "string",
          "name": "",
          "type": "string"
        }
      ],
      "stateMutability": "view",
      "type": "function"
    },
    {
      "inputs": [
        {
          "internalType": "address",
          "name": "from",
          "type": "address"
        },
        {
          "internalType": "address",
          "name": "to",
          "type": "address"
        },
        {
          "internalType": "uint256",
          "name": "tokenId",
          "type": "uint256"
        }
      ],
      "name": "transferFrom",
      "outputs": [],
      "stateMutability": "nonpayable",
      "type": "function"
    },
    {
      "inputs": [],
      "name": "getCreator",
      "outputs": [
        {
          "internalType": "address",
          "name": "",
          "type": "address"
        }
      ],
      "stateMutability": "view",
      "type": "function"
    },
    {
      "inputs": [
        {
          "internalType": "string",
          "name": "uri",
          "type": "string"
        },
        {
          "internalType": "address",
          "name": "to",
          "type": "address"
        }
      ],
      "name": "mint",
      "outputs": [
        {
          "internalType": "uint256",
          "name": "",
          "type": "uint256"
        }
      ],
      "stateMutability": "nonpayable",
      "type": "function"
    },
    {
      "inputs": [
        {
          "internalType": "uint256",
          "name": "tokenId",
          "type": "uint256"
        }
      ],
      "name": "holderOf",
      "outputs": [
        {
          "internalType": "address",
          "name": "",
          "type": "address"
        }
      ],
      "stateMutability": "view",
      "type": "function"
    },
    {
      "inputs": [
        {
          "internalType": "uint256",
          "name": "destChain",
          "type": "uint256"
        }
      ],
      "name": "isChainSupported",
      "outputs": [
        {
          "internalType": "bool",
          "name": "",
          "type": "bool"
        }
      ],
      "stateMutability": "view",
      "type": "function"
    },
    {
      "inputs": [
        {
          "internalType": "string",
          "name": "baseURI",
          "type": "string"
        }
      ],
      "name": "setBaseURI",
      "outputs": [],
      "stateMutability": "nonpayable",
      "type": "function"
    },
    {
      "inputs": [
        {
          "internalType": "uint256",
          "name": "tokenId",
          "type": "uint256"
        }
      ],
      "name": "tokenURI",
      "outputs": [
        {
          "internalType": "string",
          "name": "",
          "type": "string"
        }
      ],
      "stateMutability": "view",
      "type": "function"
    }
  ],
  "bytecode": "0x608060405260006007553480156200001657600080fd5b5060405162001f4838038062001f488339810160408190526200003991620001f6565b848460006200004983826200039f565b5060016200005882826200039f565b5050600680546001600160a01b0319166001600160a01b03841617905550600a82905582516200009090600b9060208601906200009c565b5050505050506200046b565b828054828255906000526020600020908101928215620000da579160200282015b82811115620000da578251825591602001919060010190620000bd565b50620000e8929150620000ec565b5090565b5b80821115620000e85760008155600101620000ed565b634e487b7160e01b600052604160045260246000fd5b604051601f8201601f191681016001600160401b038111828210171562000144576200014462000103565b604052919050565b600082601f8301126200015e57600080fd5b81516001600160401b038111156200017a576200017a62000103565b602062000190601f8301601f1916820162000119565b8281528582848701011115620001a557600080fd5b60005b83811015620001c5578581018301518282018401528201620001a8565b506000928101909101919091529392505050565b80516001600160a01b0381168114620001f157600080fd5b919050565b600080600080600060a086880312156200020f57600080fd5b85516001600160401b03808211156200022757600080fd5b6200023589838a016200014c565b96506020915081880151818111156200024d57600080fd5b6200025b8a828b016200014c565b9650506040880151818111156200027157600080fd5b8801601f81018a136200028357600080fd5b80518281111562000298576200029862000103565b8060051b9250620002ab84840162000119565b818152928201840192848101908c851115620002c657600080fd5b928501925b84841015620002e657835182529285019290850190620002cb565b809850505050505050606086015191506200030460808701620001d9565b90509295509295909350565b600181811c908216806200032557607f821691505b6020821081036200034657634e487b7160e01b600052602260045260246000fd5b50919050565b601f8211156200039a57600081815260208120601f850160051c81016020861015620003755750805b601f850160051c820191505b81811015620003965782815560010162000381565b5050505b505050565b81516001600160401b03811115620003bb57620003bb62000103565b620003d381620003cc845462000310565b846200034c565b602080601f8311600181146200040b5760008415620003f25750858301515b600019600386901b1c1916600185901b17855562000396565b600085815260208120601f198616915b828110156200043c578886015182559484019460019091019084016200041b565b50858210156200045b5787850151600019600388901b60f8161c191681555b5050505050600190811b01905550565b611acd806200047b6000396000f3fe608060405234801561001057600080fd5b506004361061016c5760003560e01c806355f804b3116100cd578063b325d85d11610081578063c87b56dd11610066578063c87b56dd146102f3578063dbacc23714610306578063e985e9c51461031957600080fd5b8063b325d85d146102c0578063b88d4fde146102e057600080fd5b806370a08231116100b257806370a082311461029257806395d89b41146102a5578063a22cb465146102ad57600080fd5b806355f804b31461026c5780636352211e1461027f57600080fd5b80630ee2cb101161012457806323b872dd1161010957806323b872dd1461023357806342842e0e146102465780635221c1f01461025957600080fd5b80630ee2cb101461020f5780631c351a9d1461022057600080fd5b806306fdde031161015557806306fdde03146101ba578063081812fc146101cf578063095ea7b3146101fa57600080fd5b806301ffc9a7146101715780630444ce0a14610199575b600080fd5b61018461017f36600461150e565b610355565b60405190151581526020015b60405180910390f35b6101ac6101a7366004611532565b6103f2565b604051908152602001610190565b6101c2610413565b604051610190919061159b565b6101e26101dd366004611532565b6104a5565b6040516001600160a01b039091168152602001610190565b61020d6102083660046115ca565b6104cc565b005b6006546001600160a01b03166101e2565b6101ac61022e3660046116a0565b610602565b61020d6102413660046116ee565b61063a565b61020d6102543660046116ee565b6106c1565b610184610267366004611532565b6106dc565b61020d61027a36600461172a565b610732565b6101e261028d366004611532565b61079c565b6101ac6102a036600461175f565b610801565b6101c261089b565b61020d6102bb36600461177a565b6108aa565b6101ac6102ce366004611532565b600c6020526000908152604090205481565b61020d6102ee3660046117b6565b6108b5565b6101c2610301366004611532565b610943565b6101e2610314366004611532565b610a95565b610184610327366004611832565b6001600160a01b03918216600090815260056020908152604080832093909416825291909152205460ff1690565b60006001600160e01b031982167f80ac58cd0000000000000000000000000000000000000000000000000000000014806103b857506001600160e01b031982167f5b5e139f00000000000000000000000000000000000000000000000000000000145b806103ec57507f01ffc9a7000000000000000000000000000000000000000000000000000000006001600160e01b03198316145b92915050565b600b818154811061040257600080fd5b600091825260209091200154905081565b6060600080546104229061185c565b80601f016020809104026020016040519081016040528092919081815260200182805461044e9061185c565b801561049b5780601f106104705761010080835404028352916020019161049b565b820191906000526020600020905b81548152906001019060200180831161047e57829003601f168201915b5050505050905090565b60006104b082610ab2565b506000908152600460205260409020546001600160a01b031690565b60006104d78261079c565b9050806001600160a01b0316836001600160a01b0316036105655760405162461bcd60e51b815260206004820152602160248201527f4552433732313a20617070726f76616c20746f2063757272656e74206f776e6560448201527f720000000000000000000000000000000000000000000000000000000000000060648201526084015b60405180910390fd5b336001600160a01b038216148061058157506105818133610327565b6105f35760405162461bcd60e51b815260206004820152603d60248201527f4552433732313a20617070726f76652063616c6c6572206973206e6f7420746f60448201527f6b656e206f776e6572206f7220617070726f76656420666f7220616c6c000000606482015260840161055c565b6105fd8383610b19565b505050565b6007805460009182610613836118ac565b919050555061062482600754610b94565b61063060075484610d3a565b5060075492915050565b6106443382610d9f565b6106b65760405162461bcd60e51b815260206004820152602d60248201527f4552433732313a2063616c6c6572206973206e6f7420746f6b656e206f776e6560448201527f72206f7220617070726f76656400000000000000000000000000000000000000606482015260840161055c565b6105fd838383610e1e565b6105fd838383604051806020016040528060008152506108b5565b6000805b600b548110156107295782600b82815481106106fe576106fe6118c5565b9060005260206000200154036107175750600192915050565b80610721816118ac565b9150506106e0565b50600092915050565b6006546001600160a01b0316331461078c5760405162461bcd60e51b815260206004820152601f60248201527f6f6e6c79206f776e65722063616e2063616c6c2074686973206d6574686f6400604482015260640161055c565b60096107988282611929565b5050565b6000818152600260205260408120546001600160a01b0316806103ec5760405162461bcd60e51b815260206004820152601860248201527f4552433732313a20696e76616c696420746f6b656e2049440000000000000000604482015260640161055c565b60006001600160a01b03821661087f5760405162461bcd60e51b815260206004820152602960248201527f4552433732313a2061646472657373207a65726f206973206e6f74206120766160448201527f6c6964206f776e65720000000000000000000000000000000000000000000000606482015260840161055c565b506001600160a01b031660009081526003602052604090205490565b6060600180546104229061185c565b610798338383611031565b6108bf3383610d9f565b6109315760405162461bcd60e51b815260206004820152602d60248201527f4552433732313a2063616c6c6572206973206e6f7420746f6b656e206f776e6560448201527f72206f7220617070726f76656400000000000000000000000000000000000000606482015260840161055c565b61093d848484846110ff565b50505050565b6000818152600260205260409020546060906001600160a01b03166109935760405162461bcd60e51b815260206004820152600660248201526508595e1a5cdd60d21b604482015260640161055c565b600082815260086020526040812080546109ac9061185c565b80601f01602080910402602001604051908101604052809291908181526020018280546109d89061185c565b8015610a255780601f106109fa57610100808354040283529160200191610a25565b820191906000526020600020905b815481529060010190602001808311610a0857829003601f168201915b505050505090506000610a36611188565b90508051600003610a48575092915050565b815115610a7a578082604051602001610a629291906119e9565b60405160208183030381529060405292505050919050565b80610a8485611197565b604051602001610a629291906119e9565b6000818152600260205260408120546001600160a01b03166103ec565b6000818152600260205260409020546001600160a01b0316610b165760405162461bcd60e51b815260206004820152601860248201527f4552433732313a20696e76616c696420746f6b656e2049440000000000000000604482015260640161055c565b50565b6000818152600460205260409020805473ffffffffffffffffffffffffffffffffffffffff19166001600160a01b0384169081179091558190610b5b8261079c565b6001600160a01b03167f8c5be1e5ebec7d5bd14f71427d1e84f3dd0314c0f7b2291e5b200ac8c7c3b92560405160405180910390a45050565b6001600160a01b038216610bea5760405162461bcd60e51b815260206004820181905260248201527f4552433732313a206d696e7420746f20746865207a65726f2061646472657373604482015260640161055c565b6000818152600260205260409020546001600160a01b031615610c4f5760405162461bcd60e51b815260206004820152601c60248201527f4552433732313a20746f6b656e20616c7265616479206d696e74656400000000604482015260640161055c565b610c5d600083836001611237565b6000818152600260205260409020546001600160a01b031615610cc25760405162461bcd60e51b815260206004820152601c60248201527f4552433732313a20746f6b656e20616c7265616479206d696e74656400000000604482015260640161055c565b6001600160a01b0382166000818152600360209081526040808320805460010190558483526002909152808220805473ffffffffffffffffffffffffffffffffffffffff19168417905551839291907fddf252ad1be2c89b69c2b068fc378daa952ba7f163c4a11628f55a4df523b3ef908290a45050565b6000828152600260205260409020546001600160a01b0316610d875760405162461bcd60e51b815260206004820152600660248201526508595e1a5cdd60d21b604482015260640161055c565b60008281526008602052604090206105fd8282611929565b600080610dab8361079c565b9050806001600160a01b0316846001600160a01b03161480610df257506001600160a01b0380821660009081526005602090815260408083209388168352929052205460ff165b80610e165750836001600160a01b0316610e0b846104a5565b6001600160a01b0316145b949350505050565b826001600160a01b0316610e318261079c565b6001600160a01b031614610e955760405162461bcd60e51b815260206004820152602560248201527f4552433732313a207472616e736665722066726f6d20696e636f72726563742060448201526437bbb732b960d91b606482015260840161055c565b6001600160a01b038216610f105760405162461bcd60e51b8152602060048201526024808201527f4552433732313a207472616e7366657220746f20746865207a65726f2061646460448201527f7265737300000000000000000000000000000000000000000000000000000000606482015260840161055c565b610f1d8383836001611237565b826001600160a01b0316610f308261079c565b6001600160a01b031614610f945760405162461bcd60e51b815260206004820152602560248201527f4552433732313a207472616e736665722066726f6d20696e636f72726563742060448201526437bbb732b960d91b606482015260840161055c565b6000818152600460209081526040808320805473ffffffffffffffffffffffffffffffffffffffff199081169091556001600160a01b0387811680865260038552838620805460001901905590871680865283862080546001019055868652600290945282852080549092168417909155905184937fddf252ad1be2c89b69c2b068fc378daa952ba7f163c4a11628f55a4df523b3ef91a4505050565b816001600160a01b0316836001600160a01b0316036110925760405162461bcd60e51b815260206004820152601960248201527f4552433732313a20617070726f766520746f2063616c6c657200000000000000604482015260640161055c565b6001600160a01b03838116600081815260056020908152604080832094871680845294825291829020805460ff191686151590811790915591519182527f17307eab39ab6107e8899845ad3d59bd9653f200f220920489ca2b5937696c31910160405180910390a3505050565b61110a848484610e1e565b611116848484846112bf565b61093d5760405162461bcd60e51b815260206004820152603260248201527f4552433732313a207472616e7366657220746f206e6f6e20455243373231526560448201527f63656976657220696d706c656d656e7465720000000000000000000000000000606482015260840161055c565b6060600980546104229061185c565b606060006111a483611416565b600101905060008167ffffffffffffffff8111156111c4576111c46115f4565b6040519080825280601f01601f1916602001820160405280156111ee576020820181803683370190505b5090508181016020015b600019017f3031323334353637383961626364656600000000000000000000000000000000600a86061a8153600a85049450846111f857509392505050565b600181111561093d576001600160a01b0384161561127d576001600160a01b03841660009081526003602052604081208054839290611277908490611a18565b90915550505b6001600160a01b0383161561093d576001600160a01b038316600090815260036020526040812080548392906112b4908490611a2b565b909155505050505050565b60006001600160a01b0384163b1561140b57604051630a85bd0160e11b81526001600160a01b0385169063150b7a0290611303903390899088908890600401611a3e565b6020604051808303816000875af192505050801561133e575060408051601f3d908101601f1916820190925261133b91810190611a7a565b60015b6113f1573d80801561136c576040519150601f19603f3d011682016040523d82523d6000602084013e611371565b606091505b5080516000036113e95760405162461bcd60e51b815260206004820152603260248201527f4552433732313a207472616e7366657220746f206e6f6e20455243373231526560448201527f63656976657220696d706c656d656e7465720000000000000000000000000000606482015260840161055c565b805181602001fd5b6001600160e01b031916630a85bd0160e11b149050610e16565b506001949350505050565b6000807a184f03e93ff9f4daa797ed6e38ed64bf6a1f010000000000000000831061145f577a184f03e93ff9f4daa797ed6e38ed64bf6a1f010000000000000000830492506040015b6d04ee2d6d415b85acef8100000000831061148b576d04ee2d6d415b85acef8100000000830492506020015b662386f26fc1000083106114a957662386f26fc10000830492506010015b6305f5e10083106114c1576305f5e100830492506008015b61271083106114d557612710830492506004015b606483106114e7576064830492506002015b600a83106103ec5760010192915050565b6001600160e01b031981168114610b1657600080fd5b60006020828403121561152057600080fd5b813561152b816114f8565b9392505050565b60006020828403121561154457600080fd5b5035919050565b60005b8381101561156657818101518382015260200161154e565b50506000910152565b6000815180845261158781602086016020860161154b565b601f01601f19169290920160200192915050565b60208152600061152b602083018461156f565b80356001600160a01b03811681146115c557600080fd5b919050565b600080604083850312156115dd57600080fd5b6115e6836115ae565b946020939093013593505050565b634e487b7160e01b600052604160045260246000fd5b600067ffffffffffffffff80841115611625576116256115f4565b604051601f8501601f19908116603f0116810190828211818310171561164d5761164d6115f4565b8160405280935085815286868601111561166657600080fd5b858560208301376000602087830101525050509392505050565b600082601f83011261169157600080fd5b61152b8383356020850161160a565b600080604083850312156116b357600080fd5b823567ffffffffffffffff8111156116ca57600080fd5b6116d685828601611680565b9250506116e5602084016115ae565b90509250929050565b60008060006060848603121561170357600080fd5b61170c846115ae565b925061171a602085016115ae565b9150604084013590509250925092565b60006020828403121561173c57600080fd5b813567ffffffffffffffff81111561175357600080fd5b610e1684828501611680565b60006020828403121561177157600080fd5b61152b826115ae565b6000806040838503121561178d57600080fd5b611796836115ae565b9150602083013580151581146117ab57600080fd5b809150509250929050565b600080600080608085870312156117cc57600080fd5b6117d5856115ae565b93506117e3602086016115ae565b925060408501359150606085013567ffffffffffffffff81111561180657600080fd5b8501601f8101871361181757600080fd5b6118268782356020840161160a565b91505092959194509250565b6000806040838503121561184557600080fd5b61184e836115ae565b91506116e5602084016115ae565b600181811c9082168061187057607f821691505b60208210810361189057634e487b7160e01b600052602260045260246000fd5b50919050565b634e487b7160e01b600052601160045260246000fd5b6000600182016118be576118be611896565b5060010190565b634e487b7160e01b600052603260045260246000fd5b601f8211156105fd57600081815260208120601f850160051c810160208610156119025750805b601f850160051c820191505b818110156119215782815560010161190e565b505050505050565b815167ffffffffffffffff811115611943576119436115f4565b61195781611951845461185c565b846118db565b602080601f83116001811461198c57600084156119745750858301515b600019600386901b1c1916600185901b178555611921565b600085815260208120601f198616915b828110156119bb5788860151825594840194600190910190840161199c565b50858210156119d95787850151600019600388901b60f8161c191681555b5050505050600190811b01905550565b600083516119fb81846020880161154b565b835190830190611a0f81836020880161154b565b01949350505050565b818103818111156103ec576103ec611896565b808201808211156103ec576103ec611896565b60006001600160a01b03808716835280861660208401525083604083015260806060830152611a70608083018461156f565b9695505050505050565b600060208284031215611a8c57600080fd5b815161152b816114f856fea26469706673582212208f18c23f737077ce7a5dcc9e6decb6a30668bafffed5cf592c627525b0dd016c64736f6c63430008100033",
  "immutableReferences": {},
  "source": "// SPDX-License-Identifier: GPL-3.0\npragma solidity >=0.7.0 <0.9.0;\n\nimport \"@openzeppelin/contracts/access/Ownable.sol\";\nimport \"@openzeppelin/contracts/token/ERC721/ERC721.sol\";\n\ncontract MultiERC721 is ERC721 {\n    address private _creator;\n\n    uint256 tokenID = 0;\n    using Strings for uint256;\n\n    mapping(uint256 => string) private tokenURIs;\n    string private baseURIextended;\n\n    uint private _primaryChain;\n    uint[] public _supportedChains;\n\n    // keeps track of each nft current chain\n    mapping(uint => uint) public currentChains;\n\n    constructor(\n        string memory name,\n        string memory symbol,\n        uint[] memory supportedChains,\n        uint primaryChain,\n        address creator\n    ) ERC721(name, symbol) {\n        _creator = creator;\n        _primaryChain = primaryChain;\n        _supportedChains = supportedChains;\n    }\n\n    function getCreator() public view returns (address) {\n        return _creator;\n    }\n\n    function mint(string memory uri, address to) public returns (uint) {\n        tokenID++;\n        _mint(to, tokenID);\n        _setTokenURI(tokenID, uri);\n        return tokenID;\n    }\n\n    function holderOf(uint256 tokenId) public view returns (address) {\n        return _ownerOf(tokenId);\n    }\n\n    function isChainSupported(uint destChain) public view returns (bool) {\n        for (uint index = 0; index < _supportedChains.length; index++) {\n            if (_supportedChains[index] == destChain) {\n              return true;\n            }\n        }\n        return false;\n    }\n\n    function setBaseURI(string memory baseURI) external onlyCreator {\n        baseURIextended = baseURI;\n    }\n\n    function _setTokenURI(\n        uint256 tokenId,\n        string memory _tokenURI\n    ) internal virtual {\n        require(_exists(tokenId), \"!exist\");\n        tokenURIs[tokenId] = _tokenURI;\n    }\n\n    function _baseURI() internal view virtual override returns (string memory) {\n        return baseURIextended;\n    }\n\n    function tokenURI(\n        uint256 tokenId\n    ) public view virtual override returns (string memory) {\n        require(_exists(tokenId), \"!exist\");\n\n        string memory _tokenURI = tokenURIs[tokenId];\n        string memory base = _baseURI();\n\n        // if there is no base URI, return the token URI.\n        if (bytes(base).length == 0) {\n            return _tokenURI;\n        }\n\n        // if both are set, concatenate the baseURI and tokenURI (via abi.encodePacked).\n        if (bytes(_tokenURI).length > 0) {\n            return string(abi.encodePacked(base, _tokenURI));\n        }\n\n        // if there is a baseURI but no tokenURI, concatenate the tokenID to the baseURI.\n        return string(abi.encodePacked(base, tokenId.toString()));\n    }\n\n    modifier onlyCreator() {\n        require(msg.sender == _creator, \"only owner can call this method\");\n        _;\n    }\n}\n",
  "sourcePath": "C:\\Users\\Arogundade Ibrahim\\documents\\web3\\crossart\\contracts\\MultiERC721.sol",
  "compiler": {
    "name": "solc",
    "version": "0.8.16+commit.07a7930e.Emscripten.clang"
  },
  "schemaVersion": "3.4.10",
  "updatedAt": "2022-12-07T12:58:51.527Z",
  "devdoc": {
    "kind": "dev",
    "methods": {
      "approve(address,uint256)": {
        "details": "See {IERC721-approve}."
      },
      "balanceOf(address)": {
        "details": "See {IERC721-balanceOf}."
      },
      "getApproved(uint256)": {
        "details": "See {IERC721-getApproved}."
      },
      "isApprovedForAll(address,address)": {
        "details": "See {IERC721-isApprovedForAll}."
      },
      "name()": {
        "details": "See {IERC721Metadata-name}."
      },
      "ownerOf(uint256)": {
        "details": "See {IERC721-ownerOf}."
      },
      "safeTransferFrom(address,address,uint256)": {
        "details": "See {IERC721-safeTransferFrom}."
      },
      "safeTransferFrom(address,address,uint256,bytes)": {
        "details": "See {IERC721-safeTransferFrom}."
      },
      "setApprovalForAll(address,bool)": {
        "details": "See {IERC721-setApprovalForAll}."
      },
      "supportsInterface(bytes4)": {
        "details": "See {IERC165-supportsInterface}."
      },
      "symbol()": {
        "details": "See {IERC721Metadata-symbol}."
      },
      "tokenURI(uint256)": {
        "details": "See {IERC721Metadata-tokenURI}."
      },
      "transferFrom(address,address,uint256)": {
        "details": "See {IERC721-transferFrom}."
      }
    },
    "version": 1
  },
  "userdoc": {
    "kind": "user",
    "methods": {},
    "version": 1
  }
}