{
  "contractName": "MultiERC721",
  "abi": [
    {
      "inputs": [
        {
          "internalType": "string",
          "name": "name",
          "type": "string"
        },
        {
          "internalType": "string",
          "name": "symbol",
          "type": "string"
        },
        {
          "internalType": "uint256[]",
          "name": "supportedChains_",
          "type": "uint256[]"
        },
        {
          "internalType": "uint256",
          "name": "primaryChain_",
          "type": "uint256"
        },
        {
          "internalType": "address",
          "name": "creator_",
          "type": "address"
        }
      ],
      "stateMutability": "nonpayable",
      "type": "constructor"
    },
    {
      "anonymous": false,
      "inputs": [
        {
          "indexed": true,
          "internalType": "address",
          "name": "owner",
          "type": "address"
        },
        {
          "indexed": true,
          "internalType": "address",
          "name": "approved",
          "type": "address"
        },
        {
          "indexed": true,
          "internalType": "uint256",
          "name": "tokenId",
          "type": "uint256"
        }
      ],
      "name": "Approval",
      "type": "event"
    },
    {
      "anonymous": false,
      "inputs": [
        {
          "indexed": true,
          "internalType": "address",
          "name": "owner",
          "type": "address"
        },
        {
          "indexed": true,
          "internalType": "address",
          "name": "operator",
          "type": "address"
        },
        {
          "indexed": false,
          "internalType": "bool",
          "name": "approved",
          "type": "bool"
        }
      ],
      "name": "ApprovalForAll",
      "type": "event"
    },
    {
      "anonymous": false,
      "inputs": [
        {
          "indexed": true,
          "internalType": "address",
          "name": "from",
          "type": "address"
        },
        {
          "indexed": true,
          "internalType": "address",
          "name": "to",
          "type": "address"
        },
        {
          "indexed": true,
          "internalType": "uint256",
          "name": "tokenId",
          "type": "uint256"
        }
      ],
      "name": "Transfer",
      "type": "event"
    },
    {
      "inputs": [
        {
          "internalType": "uint256",
          "name": "",
          "type": "uint256"
        }
      ],
      "name": "_supportedChains",
      "outputs": [
        {
          "internalType": "uint256",
          "name": "",
          "type": "uint256"
        }
      ],
      "stateMutability": "view",
      "type": "function"
    },
    {
      "inputs": [
        {
          "internalType": "address",
          "name": "to",
          "type": "address"
        },
        {
          "internalType": "uint256",
          "name": "tokenId",
          "type": "uint256"
        }
      ],
      "name": "approve",
      "outputs": [],
      "stateMutability": "nonpayable",
      "type": "function"
    },
    {
      "inputs": [
        {
          "internalType": "address",
          "name": "owner",
          "type": "address"
        }
      ],
      "name": "balanceOf",
      "outputs": [
        {
          "internalType": "uint256",
          "name": "",
          "type": "uint256"
        }
      ],
      "stateMutability": "view",
      "type": "function"
    },
    {
      "inputs": [
        {
          "internalType": "uint256",
          "name": "",
          "type": "uint256"
        }
      ],
      "name": "currentChains",
      "outputs": [
        {
          "internalType": "uint256",
          "name": "",
          "type": "uint256"
        }
      ],
      "stateMutability": "view",
      "type": "function"
    },
    {
      "inputs": [
        {
          "internalType": "uint256",
          "name": "tokenId",
          "type": "uint256"
        }
      ],
      "name": "getApproved",
      "outputs": [
        {
          "internalType": "address",
          "name": "",
          "type": "address"
        }
      ],
      "stateMutability": "view",
      "type": "function"
    },
    {
      "inputs": [
        {
          "internalType": "address",
          "name": "owner",
          "type": "address"
        },
        {
          "internalType": "address",
          "name": "operator",
          "type": "address"
        }
      ],
      "name": "isApprovedForAll",
      "outputs": [
        {
          "internalType": "bool",
          "name": "",
          "type": "bool"
        }
      ],
      "stateMutability": "view",
      "type": "function"
    },
    {
      "inputs": [],
      "name": "name",
      "outputs": [
        {
          "internalType": "string",
          "name": "",
          "type": "string"
        }
      ],
      "stateMutability": "view",
      "type": "function"
    },
    {
      "inputs": [
        {
          "internalType": "uint256",
          "name": "tokenId",
          "type": "uint256"
        }
      ],
      "name": "ownerOf",
      "outputs": [
        {
          "internalType": "address",
          "name": "",
          "type": "address"
        }
      ],
      "stateMutability": "view",
      "type": "function"
    },
    {
      "inputs": [
        {
          "internalType": "address",
          "name": "from",
          "type": "address"
        },
        {
          "internalType": "address",
          "name": "to",
          "type": "address"
        },
        {
          "internalType": "uint256",
          "name": "tokenId",
          "type": "uint256"
        }
      ],
      "name": "safeTransferFrom",
      "outputs": [],
      "stateMutability": "nonpayable",
      "type": "function"
    },
    {
      "inputs": [
        {
          "internalType": "address",
          "name": "from",
          "type": "address"
        },
        {
          "internalType": "address",
          "name": "to",
          "type": "address"
        },
        {
          "internalType": "uint256",
          "name": "tokenId",
          "type": "uint256"
        },
        {
          "internalType": "bytes",
          "name": "data",
          "type": "bytes"
        }
      ],
      "name": "safeTransferFrom",
      "outputs": [],
      "stateMutability": "nonpayable",
      "type": "function"
    },
    {
      "inputs": [
        {
          "internalType": "address",
          "name": "operator",
          "type": "address"
        },
        {
          "internalType": "bool",
          "name": "approved",
          "type": "bool"
        }
      ],
      "name": "setApprovalForAll",
      "outputs": [],
      "stateMutability": "nonpayable",
      "type": "function"
    },
    {
      "inputs": [
        {
          "internalType": "bytes4",
          "name": "interfaceId",
          "type": "bytes4"
        }
      ],
      "name": "supportsInterface",
      "outputs": [
        {
          "internalType": "bool",
          "name": "",
          "type": "bool"
        }
      ],
      "stateMutability": "view",
      "type": "function"
    },
    {
      "inputs": [],
      "name": "symbol",
      "outputs": [
        {
          "internalType": "string",
          "name": "",
          "type": "string"
        }
      ],
      "stateMutability": "view",
      "type": "function"
    },
    {
      "inputs": [
        {
          "internalType": "address",
          "name": "from",
          "type": "address"
        },
        {
          "internalType": "address",
          "name": "to",
          "type": "address"
        },
        {
          "internalType": "uint256",
          "name": "tokenId",
          "type": "uint256"
        }
      ],
      "name": "transferFrom",
      "outputs": [],
      "stateMutability": "nonpayable",
      "type": "function"
    },
    {
      "inputs": [],
      "name": "creator",
      "outputs": [
        {
          "internalType": "address",
          "name": "",
          "type": "address"
        }
      ],
      "stateMutability": "view",
      "type": "function"
    },
    {
      "inputs": [],
      "name": "sourceAddress",
      "outputs": [
        {
          "internalType": "address",
          "name": "",
          "type": "address"
        }
      ],
      "stateMutability": "view",
      "type": "function"
    },
    {
      "inputs": [],
      "name": "supportedChains",
      "outputs": [
        {
          "internalType": "uint256[]",
          "name": "",
          "type": "uint256[]"
        }
      ],
      "stateMutability": "view",
      "type": "function"
    },
    {
      "inputs": [
        {
          "internalType": "address",
          "name": "sourceAddress_",
          "type": "address"
        }
      ],
      "name": "setSourceAddress",
      "outputs": [],
      "stateMutability": "nonpayable",
      "type": "function"
    },
    {
      "inputs": [
        {
          "internalType": "string",
          "name": "uri",
          "type": "string"
        },
        {
          "internalType": "address",
          "name": "to",
          "type": "address"
        },
        {
          "internalType": "uint256",
          "name": "_tokenID",
          "type": "uint256"
        }
      ],
      "name": "mint",
      "outputs": [
        {
          "internalType": "uint256",
          "name": "",
          "type": "uint256"
        }
      ],
      "stateMutability": "nonpayable",
      "type": "function"
    },
    {
      "inputs": [
        {
          "internalType": "uint256",
          "name": "_tokenID",
          "type": "uint256"
        }
      ],
      "name": "burn",
      "outputs": [],
      "stateMutability": "nonpayable",
      "type": "function"
    },
    {
      "inputs": [
        {
          "internalType": "uint256",
          "name": "tokenId",
          "type": "uint256"
        }
      ],
      "name": "holderOf",
      "outputs": [
        {
          "internalType": "address",
          "name": "",
          "type": "address"
        }
      ],
      "stateMutability": "view",
      "type": "function"
    },
    {
      "inputs": [
        {
          "internalType": "uint256",
          "name": "destChain",
          "type": "uint256"
        }
      ],
      "name": "isChainSupported",
      "outputs": [
        {
          "internalType": "bool",
          "name": "",
          "type": "bool"
        }
      ],
      "stateMutability": "view",
      "type": "function"
    },
    {
      "inputs": [
        {
          "internalType": "string",
          "name": "baseURI",
          "type": "string"
        }
      ],
      "name": "setBaseURI",
      "outputs": [],
      "stateMutability": "nonpayable",
      "type": "function"
    },
    {
      "inputs": [
        {
          "internalType": "uint256",
          "name": "tokenId",
          "type": "uint256"
        }
      ],
      "name": "tokenURI",
      "outputs": [
        {
          "internalType": "string",
          "name": "",
          "type": "string"
        }
      ],
      "stateMutability": "view",
      "type": "function"
    }
  ],
  "bytecode": "0x608060405260006007553480156200001657600080fd5b506040516200217a3803806200217a8339810160408190526200003991620001f6565b848460006200004983826200039f565b5060016200005882826200039f565b5050600680546001600160a01b0319166001600160a01b03841617905550600a82905582516200009090600c9060208601906200009c565b5050505050506200046b565b828054828255906000526020600020908101928215620000da579160200282015b82811115620000da578251825591602001919060010190620000bd565b50620000e8929150620000ec565b5090565b5b80821115620000e85760008155600101620000ed565b634e487b7160e01b600052604160045260246000fd5b604051601f8201601f191681016001600160401b038111828210171562000144576200014462000103565b604052919050565b600082601f8301126200015e57600080fd5b81516001600160401b038111156200017a576200017a62000103565b602062000190601f8301601f1916820162000119565b8281528582848701011115620001a557600080fd5b60005b83811015620001c5578581018301518282018401528201620001a8565b506000928101909101919091529392505050565b80516001600160a01b0381168114620001f157600080fd5b919050565b600080600080600060a086880312156200020f57600080fd5b85516001600160401b03808211156200022757600080fd5b6200023589838a016200014c565b96506020915081880151818111156200024d57600080fd5b6200025b8a828b016200014c565b9650506040880151818111156200027157600080fd5b8801601f81018a136200028357600080fd5b80518281111562000298576200029862000103565b8060051b9250620002ab84840162000119565b818152928201840192848101908c851115620002c657600080fd5b928501925b84841015620002e657835182529285019290850190620002cb565b809850505050505050606086015191506200030460808701620001d9565b90509295509295909350565b600181811c908216806200032557607f821691505b6020821081036200034657634e487b7160e01b600052602260045260246000fd5b50919050565b601f8211156200039a57600081815260208120601f850160051c81016020861015620003755750805b601f850160051c820191505b81811015620003965782815560010162000381565b5050505b505050565b81516001600160401b03811115620003bb57620003bb62000103565b620003d381620003cc845462000310565b846200034c565b602080601f8311600181146200040b5760008415620003f25750858301515b600019600386901b1c1916600185901b17855562000396565b600085815260208120601f198616915b828110156200043c578886015182559484019460019091019084016200041b565b50858210156200045b5787850151600019600388901b60f8161c191681555b5050505050600190811b01905550565b611cff806200047b6000396000f3fe608060405234801561001057600080fd5b50600436106101985760003560e01c80636352211e116100e3578063b0fa84441161008c578063c87b56dd11610066578063c87b56dd14610391578063dbacc237146103a4578063e985e9c5146103b757600080fd5b8063b0fa84441461034d578063b325d85d1461035e578063b88d4fde1461037e57600080fd5b8063816949b5116100bd578063816949b51461031d57806395d89b4114610332578063a22cb4651461033a57600080fd5b80636352211e146102e457806370a08231146102f75780637e8816b91461030a57600080fd5b806323b872dd1161014557806345facd8e1161011f57806345facd8e146102815780635221c1f0146102be57806355f804b3146102d157600080fd5b806323b872dd1461024857806342842e0e1461025b57806342966c681461026e57600080fd5b806306fdde031161017657806306fdde031461020b578063081812fc14610220578063095ea7b31461023357600080fd5b806301ffc9a71461019d57806302d05d3f146101c55780630444ce0a146101ea575b600080fd5b6101b06101ab3660046116fa565b6103f3565b60405190151581526020015b60405180910390f35b6006546001600160a01b03165b6040516001600160a01b0390911681526020016101bc565b6101fd6101f836600461171e565b610490565b6040519081526020016101bc565b6102136104b1565b6040516101bc9190611787565b6101d261022e36600461171e565b610543565b6102466102413660046117b6565b61056a565b005b6102466102563660046117e0565b6106be565b6102466102693660046117e0565b610745565b61024661027c36600461171e565b610760565b61024661028f36600461181c565b600b805473ffffffffffffffffffffffffffffffffffffffff19166001600160a01b0392909216919091179055565b6101b06102cc36600461171e565b61076c565b6102466102df3660046118e3565b6107d4565b6101d26102f236600461171e565b61083e565b6101fd61030536600461181c565b6108a3565b6101fd610318366004611918565b61093d565b610325610984565b6040516101bc919061195f565b6102136109db565b6102466103483660046119a3565b6109ea565b600b546001600160a01b03166101d2565b6101fd61036c36600461171e565b600d6020526000908152604090205481565b61024661038c3660046119df565b6109f5565b61021361039f36600461171e565b610a83565b6101d26103b236600461171e565b610bd5565b6101b06103c5366004611a5b565b6001600160a01b03918216600090815260056020908152604080832093909416825291909152205460ff1690565b60006001600160e01b031982167f80ac58cd00000000000000000000000000000000000000000000000000000000148061045657506001600160e01b031982167f5b5e139f00000000000000000000000000000000000000000000000000000000145b8061048a57507f01ffc9a7000000000000000000000000000000000000000000000000000000006001600160e01b03198316145b92915050565b600c81815481106104a057600080fd5b600091825260209091200154905081565b6060600080546104c090611a8e565b80601f01602080910402602001604051908101604052809291908181526020018280546104ec90611a8e565b80156105395780601f1061050e57610100808354040283529160200191610539565b820191906000526020600020905b81548152906001019060200180831161051c57829003601f168201915b5050505050905090565b600061054e82610bf2565b506000908152600460205260409020546001600160a01b031690565b60006105758261083e565b9050806001600160a01b0316836001600160a01b0316036106035760405162461bcd60e51b815260206004820152602160248201527f4552433732313a20617070726f76616c20746f2063757272656e74206f776e6560448201527f720000000000000000000000000000000000000000000000000000000000000060648201526084015b60405180910390fd5b336001600160a01b038216148061063d57506001600160a01b038116600090815260056020908152604080832033845290915290205460ff165b6106af5760405162461bcd60e51b815260206004820152603d60248201527f4552433732313a20617070726f76652063616c6c6572206973206e6f7420746f60448201527f6b656e206f776e6572206f7220617070726f76656420666f7220616c6c00000060648201526084016105fa565b6106b98383610c56565b505050565b6106c83382610cd1565b61073a5760405162461bcd60e51b815260206004820152602d60248201527f4552433732313a2063616c6c6572206973206e6f7420746f6b656e206f776e6560448201527f72206f7220617070726f7665640000000000000000000000000000000000000060648201526084016105fa565b6106b9838383610d4f565b6106b9838383604051806020016040528060008152506109f5565b61076981610f62565b50565b600081600a540361077f57506001919050565b60005b600c548110156107cb5782600c82815481106107a0576107a0611ac8565b9060005260206000200154036107b95750600192915050565b806107c381611af4565b915050610782565b50600092915050565b6006546001600160a01b0316331461082e5760405162461bcd60e51b815260206004820152601f60248201527f6f6e6c79206f776e65722063616e2063616c6c2074686973206d6574686f640060448201526064016105fa565b600961083a8282611b5b565b5050565b6000818152600260205260408120546001600160a01b03168061048a5760405162461bcd60e51b815260206004820152601860248201527f4552433732313a20696e76616c696420746f6b656e204944000000000000000060448201526064016105fa565b60006001600160a01b0382166109215760405162461bcd60e51b815260206004820152602960248201527f4552433732313a2061646472657373207a65726f206973206e6f74206120766160448201527f6c6964206f776e6572000000000000000000000000000000000000000000000060648201526084016105fa565b506001600160a01b031660009081526003602052604090205490565b6000808215610965576007805490600061095683611af4565b91905055506007549050610968565b50815b6109728482611012565b61097c81866111b8565b949350505050565b6060600c80548060200260200160405190810160405280929190818152602001828054801561053957602002820191906000526020600020905b8154815260200190600101908083116109be575050505050905090565b6060600180546104c090611a8e565b61083a33838361121d565b6109ff3383610cd1565b610a715760405162461bcd60e51b815260206004820152602d60248201527f4552433732313a2063616c6c6572206973206e6f7420746f6b656e206f776e6560448201527f72206f7220617070726f7665640000000000000000000000000000000000000060648201526084016105fa565b610a7d848484846112eb565b50505050565b6000818152600260205260409020546060906001600160a01b0316610ad35760405162461bcd60e51b815260206004820152600660248201526508595e1a5cdd60d21b60448201526064016105fa565b60008281526008602052604081208054610aec90611a8e565b80601f0160208091040260200160405190810160405280929190818152602001828054610b1890611a8e565b8015610b655780601f10610b3a57610100808354040283529160200191610b65565b820191906000526020600020905b815481529060010190602001808311610b4857829003601f168201915b505050505090506000610b76611374565b90508051600003610b88575092915050565b815115610bba578082604051602001610ba2929190611c1b565b60405160208183030381529060405292505050919050565b80610bc485611383565b604051602001610ba2929190611c1b565b6000818152600260205260408120546001600160a01b031661048a565b6000818152600260205260409020546001600160a01b03166107695760405162461bcd60e51b815260206004820152601860248201527f4552433732313a20696e76616c696420746f6b656e204944000000000000000060448201526064016105fa565b6000818152600460205260409020805473ffffffffffffffffffffffffffffffffffffffff19166001600160a01b0384169081179091558190610c988261083e565b6001600160a01b03167f8c5be1e5ebec7d5bd14f71427d1e84f3dd0314c0f7b2291e5b200ac8c7c3b92560405160405180910390a45050565b600080610cdd8361083e565b9050806001600160a01b0316846001600160a01b03161480610d2457506001600160a01b0380821660009081526005602090815260408083209388168352929052205460ff165b8061097c5750836001600160a01b0316610d3d84610543565b6001600160a01b031614949350505050565b826001600160a01b0316610d628261083e565b6001600160a01b031614610dc65760405162461bcd60e51b815260206004820152602560248201527f4552433732313a207472616e736665722066726f6d20696e636f72726563742060448201526437bbb732b960d91b60648201526084016105fa565b6001600160a01b038216610e415760405162461bcd60e51b8152602060048201526024808201527f4552433732313a207472616e7366657220746f20746865207a65726f2061646460448201527f726573730000000000000000000000000000000000000000000000000000000060648201526084016105fa565b610e4e8383836001611423565b826001600160a01b0316610e618261083e565b6001600160a01b031614610ec55760405162461bcd60e51b815260206004820152602560248201527f4552433732313a207472616e736665722066726f6d20696e636f72726563742060448201526437bbb732b960d91b60648201526084016105fa565b6000818152600460209081526040808320805473ffffffffffffffffffffffffffffffffffffffff199081169091556001600160a01b0387811680865260038552838620805460001901905590871680865283862080546001019055868652600290945282852080549092168417909155905184937fddf252ad1be2c89b69c2b068fc378daa952ba7f163c4a11628f55a4df523b3ef91a4505050565b6000610f6d8261083e565b9050610f7d816000846001611423565b610f868261083e565b6000838152600460209081526040808320805473ffffffffffffffffffffffffffffffffffffffff199081169091556001600160a01b0385168085526003845282852080546000190190558785526002909352818420805490911690555192935084927fddf252ad1be2c89b69c2b068fc378daa952ba7f163c4a11628f55a4df523b3ef908390a45050565b6001600160a01b0382166110685760405162461bcd60e51b815260206004820181905260248201527f4552433732313a206d696e7420746f20746865207a65726f206164647265737360448201526064016105fa565b6000818152600260205260409020546001600160a01b0316156110cd5760405162461bcd60e51b815260206004820152601c60248201527f4552433732313a20746f6b656e20616c7265616479206d696e7465640000000060448201526064016105fa565b6110db600083836001611423565b6000818152600260205260409020546001600160a01b0316156111405760405162461bcd60e51b815260206004820152601c60248201527f4552433732313a20746f6b656e20616c7265616479206d696e7465640000000060448201526064016105fa565b6001600160a01b0382166000818152600360209081526040808320805460010190558483526002909152808220805473ffffffffffffffffffffffffffffffffffffffff19168417905551839291907fddf252ad1be2c89b69c2b068fc378daa952ba7f163c4a11628f55a4df523b3ef908290a45050565b6000828152600260205260409020546001600160a01b03166112055760405162461bcd60e51b815260206004820152600660248201526508595e1a5cdd60d21b60448201526064016105fa565b60008281526008602052604090206106b98282611b5b565b816001600160a01b0316836001600160a01b03160361127e5760405162461bcd60e51b815260206004820152601960248201527f4552433732313a20617070726f766520746f2063616c6c65720000000000000060448201526064016105fa565b6001600160a01b03838116600081815260056020908152604080832094871680845294825291829020805460ff191686151590811790915591519182527f17307eab39ab6107e8899845ad3d59bd9653f200f220920489ca2b5937696c31910160405180910390a3505050565b6112f6848484610d4f565b611302848484846114ab565b610a7d5760405162461bcd60e51b815260206004820152603260248201527f4552433732313a207472616e7366657220746f206e6f6e20455243373231526560448201527f63656976657220696d706c656d656e746572000000000000000000000000000060648201526084016105fa565b6060600980546104c090611a8e565b6060600061139083611602565b600101905060008167ffffffffffffffff8111156113b0576113b0611837565b6040519080825280601f01601f1916602001820160405280156113da576020820181803683370190505b5090508181016020015b600019017f3031323334353637383961626364656600000000000000000000000000000000600a86061a8153600a85049450846113e457509392505050565b6001811115610a7d576001600160a01b03841615611469576001600160a01b03841660009081526003602052604081208054839290611463908490611c4a565b90915550505b6001600160a01b03831615610a7d576001600160a01b038316600090815260036020526040812080548392906114a0908490611c5d565b909155505050505050565b60006001600160a01b0384163b156115f757604051630a85bd0160e11b81526001600160a01b0385169063150b7a02906114ef903390899088908890600401611c70565b6020604051808303816000875af192505050801561152a575060408051601f3d908101601f1916820190925261152791810190611cac565b60015b6115dd573d808015611558576040519150601f19603f3d011682016040523d82523d6000602084013e61155d565b606091505b5080516000036115d55760405162461bcd60e51b815260206004820152603260248201527f4552433732313a207472616e7366657220746f206e6f6e20455243373231526560448201527f63656976657220696d706c656d656e746572000000000000000000000000000060648201526084016105fa565b805181602001fd5b6001600160e01b031916630a85bd0160e11b14905061097c565b506001949350505050565b6000807a184f03e93ff9f4daa797ed6e38ed64bf6a1f010000000000000000831061164b577a184f03e93ff9f4daa797ed6e38ed64bf6a1f010000000000000000830492506040015b6d04ee2d6d415b85acef81000000008310611677576d04ee2d6d415b85acef8100000000830492506020015b662386f26fc10000831061169557662386f26fc10000830492506010015b6305f5e10083106116ad576305f5e100830492506008015b61271083106116c157612710830492506004015b606483106116d3576064830492506002015b600a831061048a5760010192915050565b6001600160e01b03198116811461076957600080fd5b60006020828403121561170c57600080fd5b8135611717816116e4565b9392505050565b60006020828403121561173057600080fd5b5035919050565b60005b8381101561175257818101518382015260200161173a565b50506000910152565b60008151808452611773816020860160208601611737565b601f01601f19169290920160200192915050565b602081526000611717602083018461175b565b80356001600160a01b03811681146117b157600080fd5b919050565b600080604083850312156117c957600080fd5b6117d28361179a565b946020939093013593505050565b6000806000606084860312156117f557600080fd5b6117fe8461179a565b925061180c6020850161179a565b9150604084013590509250925092565b60006020828403121561182e57600080fd5b6117178261179a565b634e487b7160e01b600052604160045260246000fd5b600067ffffffffffffffff8084111561186857611868611837565b604051601f8501601f19908116603f0116810190828211818310171561189057611890611837565b816040528093508581528686860111156118a957600080fd5b858560208301376000602087830101525050509392505050565b600082601f8301126118d457600080fd5b6117178383356020850161184d565b6000602082840312156118f557600080fd5b813567ffffffffffffffff81111561190c57600080fd5b61097c848285016118c3565b60008060006060848603121561192d57600080fd5b833567ffffffffffffffff81111561194457600080fd5b611950868287016118c3565b93505061180c6020850161179a565b6020808252825182820181905260009190848201906040850190845b818110156119975783518352928401929184019160010161197b565b50909695505050505050565b600080604083850312156119b657600080fd5b6119bf8361179a565b9150602083013580151581146119d457600080fd5b809150509250929050565b600080600080608085870312156119f557600080fd5b6119fe8561179a565b9350611a0c6020860161179a565b925060408501359150606085013567ffffffffffffffff811115611a2f57600080fd5b8501601f81018713611a4057600080fd5b611a4f8782356020840161184d565b91505092959194509250565b60008060408385031215611a6e57600080fd5b611a778361179a565b9150611a856020840161179a565b90509250929050565b600181811c90821680611aa257607f821691505b602082108103611ac257634e487b7160e01b600052602260045260246000fd5b50919050565b634e487b7160e01b600052603260045260246000fd5b634e487b7160e01b600052601160045260246000fd5b600060018201611b0657611b06611ade565b5060010190565b601f8211156106b957600081815260208120601f850160051c81016020861015611b345750805b601f850160051c820191505b81811015611b5357828155600101611b40565b505050505050565b815167ffffffffffffffff811115611b7557611b75611837565b611b8981611b838454611a8e565b84611b0d565b602080601f831160018114611bbe5760008415611ba65750858301515b600019600386901b1c1916600185901b178555611b53565b600085815260208120601f198616915b82811015611bed57888601518255948401946001909101908401611bce565b5085821015611c0b5787850151600019600388901b60f8161c191681555b5050505050600190811b01905550565b60008351611c2d818460208801611737565b835190830190611c41818360208801611737565b01949350505050565b8181038181111561048a5761048a611ade565b8082018082111561048a5761048a611ade565b60006001600160a01b03808716835280861660208401525083604083015260806060830152611ca2608083018461175b565b9695505050505050565b600060208284031215611cbe57600080fd5b8151611717816116e456fea264697066735822122058c7d7d167a5e8d61520aa774726840a8825ae95f778a11359bbb2cb6c6e756d64736f6c63430008100033",
  "immutableReferences": {},
  "source": "// SPDX-License-Identifier: GPL-3.0\npragma solidity >=0.7.0 <0.9.0;\n\nimport \"@openzeppelin/contracts/access/Ownable.sol\";\nimport \"@openzeppelin/contracts/token/ERC721/ERC721.sol\";\n\ncontract MultiERC721 is ERC721 {\n    address private _creator;\n\n    uint256 tokenID = 0;\n    using Strings for uint256;\n\n    mapping(uint256 => string) private tokenURIs;\n    string private baseURIextended;\n\n    uint private _primaryChain;\n    address private _primaryAddress;\n    uint[] public _supportedChains;\n\n    // keeps track of each nft current chain\n    mapping(uint => uint) public currentChains;\n\n    constructor(\n        string memory name,\n        string memory symbol,\n        uint[] memory supportedChains_,\n        uint primaryChain_,\n        address creator_\n    ) ERC721(name, symbol) {\n        _creator = creator_;\n        _primaryChain = primaryChain_;\n        _supportedChains = supportedChains_;\n    }\n\n    function creator() public view returns (address) {\n        return _creator;\n    }\n\n    function sourceAddress() public view returns (address) {\n        return _primaryAddress;\n    }\n\n    function supportedChains() public view returns (uint[] memory) {\n        return _supportedChains;\n    }\n\n    function setSourceAddress(address sourceAddress_) public {\n        _primaryAddress = sourceAddress_;\n    }\n\n    function mint(\n        string memory uri,\n        address to,\n        uint256 _tokenID\n    ) public returns (uint) {\n        uint _id;\n        if (_tokenID > 0) {\n            tokenID++;\n            _id = tokenID;\n        } else {\n            _id = _tokenID;\n        }\n        _mint(to, _id);\n        _setTokenURI(_id, uri);\n        return _id;\n    }\n\n    function burn(uint256 _tokenID) public {\n        _burn(_tokenID);\n    }\n\n    function holderOf(uint256 tokenId) public view returns (address) {\n        return _ownerOf(tokenId);\n    }\n\n    function isChainSupported(uint destChain) public view returns (bool) {\n        if (_primaryChain == destChain) {\n            return true;\n        }\n\n        for (uint index = 0; index < _supportedChains.length; index++) {\n            if (_supportedChains[index] == destChain) {\n                return true;\n            }\n        }\n\n        return false;\n    }\n\n    function setBaseURI(string memory baseURI) external onlyCreator {\n        baseURIextended = baseURI;\n    }\n\n    function _setTokenURI(\n        uint256 tokenId,\n        string memory _tokenURI\n    ) internal virtual {\n        require(_exists(tokenId), \"!exist\");\n        tokenURIs[tokenId] = _tokenURI;\n    }\n\n    function _baseURI() internal view virtual override returns (string memory) {\n        return baseURIextended;\n    }\n\n    function tokenURI(\n        uint256 tokenId\n    ) public view virtual override returns (string memory) {\n        require(_exists(tokenId), \"!exist\");\n\n        string memory _tokenURI = tokenURIs[tokenId];\n        string memory base = _baseURI();\n\n        // if there is no base URI, return the token URI.\n        if (bytes(base).length == 0) {\n            return _tokenURI;\n        }\n\n        // if both are set, concatenate the baseURI and tokenURI (via abi.encodePacked).\n        if (bytes(_tokenURI).length > 0) {\n            return string(abi.encodePacked(base, _tokenURI));\n        }\n\n        // if there is a baseURI but no tokenURI, concatenate the tokenID to the baseURI.\n        return string(abi.encodePacked(base, tokenId.toString()));\n    }\n\n    modifier onlyCreator() {\n        require(msg.sender == _creator, \"only owner can call this method\");\n        _;\n    }\n}\n",
  "sourcePath": "C:\\Users\\Arogundade Ibrahim\\documents\\web3\\crossart\\contracts\\MultiERC721.sol",
  "compiler": {
    "name": "solc",
    "version": "0.8.16+commit.07a7930e.Emscripten.clang"
  },
  "schemaVersion": "3.4.10",
  "updatedAt": "2022-12-11T18:48:09.808Z",
  "devdoc": {
    "kind": "dev",
    "methods": {
      "approve(address,uint256)": {
        "details": "See {IERC721-approve}."
      },
      "balanceOf(address)": {
        "details": "See {IERC721-balanceOf}."
      },
      "getApproved(uint256)": {
        "details": "See {IERC721-getApproved}."
      },
      "isApprovedForAll(address,address)": {
        "details": "See {IERC721-isApprovedForAll}."
      },
      "name()": {
        "details": "See {IERC721Metadata-name}."
      },
      "ownerOf(uint256)": {
        "details": "See {IERC721-ownerOf}."
      },
      "safeTransferFrom(address,address,uint256)": {
        "details": "See {IERC721-safeTransferFrom}."
      },
      "safeTransferFrom(address,address,uint256,bytes)": {
        "details": "See {IERC721-safeTransferFrom}."
      },
      "setApprovalForAll(address,bool)": {
        "details": "See {IERC721-setApprovalForAll}."
      },
      "supportsInterface(bytes4)": {
        "details": "See {IERC165-supportsInterface}."
      },
      "symbol()": {
        "details": "See {IERC721Metadata-symbol}."
      },
      "tokenURI(uint256)": {
        "details": "See {IERC721Metadata-tokenURI}."
      },
      "transferFrom(address,address,uint256)": {
        "details": "See {IERC721-transferFrom}."
      }
    },
    "version": 1
  },
  "userdoc": {
    "kind": "user",
    "methods": {},
    "version": 1
  }
}