{
  "contractName": "MultiERC721",
  "abi": [
    {
      "inputs": [
        {
          "internalType": "string",
          "name": "name",
          "type": "string"
        },
        {
          "internalType": "string",
          "name": "symbol",
          "type": "string"
        },
        {
          "internalType": "string",
          "name": "cover_",
          "type": "string"
        },
        {
          "internalType": "string",
          "name": "avatar_",
          "type": "string"
        },
        {
          "internalType": "uint256[]",
          "name": "supportedChains_",
          "type": "uint256[]"
        },
        {
          "internalType": "uint256",
          "name": "primaryChain_",
          "type": "uint256"
        },
        {
          "internalType": "address",
          "name": "creator_",
          "type": "address"
        }
      ],
      "stateMutability": "nonpayable",
      "type": "constructor"
    },
    {
      "anonymous": false,
      "inputs": [
        {
          "indexed": true,
          "internalType": "address",
          "name": "owner",
          "type": "address"
        },
        {
          "indexed": true,
          "internalType": "address",
          "name": "approved",
          "type": "address"
        },
        {
          "indexed": true,
          "internalType": "uint256",
          "name": "tokenId",
          "type": "uint256"
        }
      ],
      "name": "Approval",
      "type": "event"
    },
    {
      "anonymous": false,
      "inputs": [
        {
          "indexed": true,
          "internalType": "address",
          "name": "owner",
          "type": "address"
        },
        {
          "indexed": true,
          "internalType": "address",
          "name": "operator",
          "type": "address"
        },
        {
          "indexed": false,
          "internalType": "bool",
          "name": "approved",
          "type": "bool"
        }
      ],
      "name": "ApprovalForAll",
      "type": "event"
    },
    {
      "anonymous": false,
      "inputs": [
        {
          "indexed": true,
          "internalType": "address",
          "name": "from",
          "type": "address"
        },
        {
          "indexed": true,
          "internalType": "address",
          "name": "to",
          "type": "address"
        },
        {
          "indexed": true,
          "internalType": "uint256",
          "name": "tokenId",
          "type": "uint256"
        }
      ],
      "name": "Transfer",
      "type": "event"
    },
    {
      "inputs": [
        {
          "internalType": "address",
          "name": "to",
          "type": "address"
        },
        {
          "internalType": "uint256",
          "name": "tokenId",
          "type": "uint256"
        }
      ],
      "name": "approve",
      "outputs": [],
      "stateMutability": "nonpayable",
      "type": "function"
    },
    {
      "inputs": [
        {
          "internalType": "address",
          "name": "owner",
          "type": "address"
        }
      ],
      "name": "balanceOf",
      "outputs": [
        {
          "internalType": "uint256",
          "name": "",
          "type": "uint256"
        }
      ],
      "stateMutability": "view",
      "type": "function"
    },
    {
      "inputs": [
        {
          "internalType": "uint256",
          "name": "",
          "type": "uint256"
        }
      ],
      "name": "currentChains",
      "outputs": [
        {
          "internalType": "uint256",
          "name": "",
          "type": "uint256"
        }
      ],
      "stateMutability": "view",
      "type": "function"
    },
    {
      "inputs": [
        {
          "internalType": "uint256",
          "name": "tokenId",
          "type": "uint256"
        }
      ],
      "name": "getApproved",
      "outputs": [
        {
          "internalType": "address",
          "name": "",
          "type": "address"
        }
      ],
      "stateMutability": "view",
      "type": "function"
    },
    {
      "inputs": [
        {
          "internalType": "uint256",
          "name": "",
          "type": "uint256"
        },
        {
          "internalType": "uint256",
          "name": "",
          "type": "uint256"
        }
      ],
      "name": "histories",
      "outputs": [
        {
          "internalType": "uint256",
          "name": "",
          "type": "uint256"
        }
      ],
      "stateMutability": "view",
      "type": "function"
    },
    {
      "inputs": [
        {
          "internalType": "address",
          "name": "owner",
          "type": "address"
        },
        {
          "internalType": "address",
          "name": "operator",
          "type": "address"
        }
      ],
      "name": "isApprovedForAll",
      "outputs": [
        {
          "internalType": "bool",
          "name": "",
          "type": "bool"
        }
      ],
      "stateMutability": "view",
      "type": "function"
    },
    {
      "inputs": [],
      "name": "name",
      "outputs": [
        {
          "internalType": "string",
          "name": "",
          "type": "string"
        }
      ],
      "stateMutability": "view",
      "type": "function"
    },
    {
      "inputs": [
        {
          "internalType": "uint256",
          "name": "tokenId",
          "type": "uint256"
        }
      ],
      "name": "ownerOf",
      "outputs": [
        {
          "internalType": "address",
          "name": "",
          "type": "address"
        }
      ],
      "stateMutability": "view",
      "type": "function"
    },
    {
      "inputs": [
        {
          "internalType": "address",
          "name": "from",
          "type": "address"
        },
        {
          "internalType": "address",
          "name": "to",
          "type": "address"
        },
        {
          "internalType": "uint256",
          "name": "tokenId",
          "type": "uint256"
        }
      ],
      "name": "safeTransferFrom",
      "outputs": [],
      "stateMutability": "nonpayable",
      "type": "function"
    },
    {
      "inputs": [
        {
          "internalType": "address",
          "name": "from",
          "type": "address"
        },
        {
          "internalType": "address",
          "name": "to",
          "type": "address"
        },
        {
          "internalType": "uint256",
          "name": "tokenId",
          "type": "uint256"
        },
        {
          "internalType": "bytes",
          "name": "data",
          "type": "bytes"
        }
      ],
      "name": "safeTransferFrom",
      "outputs": [],
      "stateMutability": "nonpayable",
      "type": "function"
    },
    {
      "inputs": [
        {
          "internalType": "address",
          "name": "operator",
          "type": "address"
        },
        {
          "internalType": "bool",
          "name": "approved",
          "type": "bool"
        }
      ],
      "name": "setApprovalForAll",
      "outputs": [],
      "stateMutability": "nonpayable",
      "type": "function"
    },
    {
      "inputs": [
        {
          "internalType": "bytes4",
          "name": "interfaceId",
          "type": "bytes4"
        }
      ],
      "name": "supportsInterface",
      "outputs": [
        {
          "internalType": "bool",
          "name": "",
          "type": "bool"
        }
      ],
      "stateMutability": "view",
      "type": "function"
    },
    {
      "inputs": [],
      "name": "symbol",
      "outputs": [
        {
          "internalType": "string",
          "name": "",
          "type": "string"
        }
      ],
      "stateMutability": "view",
      "type": "function"
    },
    {
      "inputs": [
        {
          "internalType": "address",
          "name": "from",
          "type": "address"
        },
        {
          "internalType": "address",
          "name": "to",
          "type": "address"
        },
        {
          "internalType": "uint256",
          "name": "tokenId",
          "type": "uint256"
        }
      ],
      "name": "transferFrom",
      "outputs": [],
      "stateMutability": "nonpayable",
      "type": "function"
    },
    {
      "inputs": [],
      "name": "cover",
      "outputs": [
        {
          "internalType": "string",
          "name": "",
          "type": "string"
        }
      ],
      "stateMutability": "view",
      "type": "function"
    },
    {
      "inputs": [],
      "name": "avatar",
      "outputs": [
        {
          "internalType": "string",
          "name": "",
          "type": "string"
        }
      ],
      "stateMutability": "view",
      "type": "function"
    },
    {
      "inputs": [],
      "name": "creator",
      "outputs": [
        {
          "internalType": "address",
          "name": "",
          "type": "address"
        }
      ],
      "stateMutability": "view",
      "type": "function"
    },
    {
      "inputs": [],
      "name": "sourceAddress",
      "outputs": [
        {
          "internalType": "address",
          "name": "",
          "type": "address"
        }
      ],
      "stateMutability": "view",
      "type": "function"
    },
    {
      "inputs": [],
      "name": "supportedChains",
      "outputs": [
        {
          "internalType": "uint256[]",
          "name": "",
          "type": "uint256[]"
        }
      ],
      "stateMutability": "view",
      "type": "function"
    },
    {
      "inputs": [
        {
          "internalType": "uint256",
          "name": "_tokenID",
          "type": "uint256"
        }
      ],
      "name": "history",
      "outputs": [
        {
          "internalType": "uint256[]",
          "name": "",
          "type": "uint256[]"
        }
      ],
      "stateMutability": "view",
      "type": "function"
    },
    {
      "inputs": [
        {
          "internalType": "address",
          "name": "sourceAddress_",
          "type": "address"
        }
      ],
      "name": "setSourceAddress",
      "outputs": [],
      "stateMutability": "nonpayable",
      "type": "function"
    },
    {
      "inputs": [
        {
          "internalType": "string",
          "name": "uri",
          "type": "string"
        },
        {
          "internalType": "address",
          "name": "to",
          "type": "address"
        },
        {
          "internalType": "uint256",
          "name": "_tokenID",
          "type": "uint256"
        },
        {
          "internalType": "uint256[]",
          "name": "_history",
          "type": "uint256[]"
        }
      ],
      "name": "mint",
      "outputs": [
        {
          "internalType": "uint256",
          "name": "",
          "type": "uint256"
        }
      ],
      "stateMutability": "nonpayable",
      "type": "function"
    },
    {
      "inputs": [
        {
          "internalType": "uint256",
          "name": "_tokenID",
          "type": "uint256"
        }
      ],
      "name": "burn",
      "outputs": [],
      "stateMutability": "nonpayable",
      "type": "function"
    },
    {
      "inputs": [
        {
          "internalType": "uint256",
          "name": "tokenId",
          "type": "uint256"
        }
      ],
      "name": "holderOf",
      "outputs": [
        {
          "internalType": "address",
          "name": "",
          "type": "address"
        }
      ],
      "stateMutability": "view",
      "type": "function"
    },
    {
      "inputs": [
        {
          "internalType": "uint256",
          "name": "destChain",
          "type": "uint256"
        }
      ],
      "name": "isChainSupported",
      "outputs": [
        {
          "internalType": "bool",
          "name": "",
          "type": "bool"
        }
      ],
      "stateMutability": "view",
      "type": "function"
    },
    {
      "inputs": [
        {
          "internalType": "string",
          "name": "baseURI",
          "type": "string"
        }
      ],
      "name": "setBaseURI",
      "outputs": [],
      "stateMutability": "nonpayable",
      "type": "function"
    },
    {
      "inputs": [
        {
          "internalType": "uint256",
          "name": "tokenId",
          "type": "uint256"
        }
      ],
      "name": "tokenURI",
      "outputs": [
        {
          "internalType": "string",
          "name": "",
          "type": "string"
        }
      ],
      "stateMutability": "view",
      "type": "function"
    }
  ],
  "bytecode": "0x608060405260006007553480156200001657600080fd5b506040516200247d3803806200247d8339810160408190526200003991620002a0565b868660006200004983826200042c565b5060016200005882826200042c565b50600a91506200006b905086826200042c565b50600b6200007a85826200042c565b50600680546001600160a01b0319166001600160a01b038316179055600c8290558251620000b090600e906020860190620000be565b5050505050505050620004f8565b828054828255906000526020600020908101928215620000fc579160200282015b82811115620000fc578251825591602001919060010190620000df565b506200010a9291506200010e565b5090565b5b808211156200010a57600081556001016200010f565b634e487b7160e01b600052604160045260246000fd5b604051601f8201601f191681016001600160401b038111828210171562000166576200016662000125565b604052919050565b600082601f8301126200018057600080fd5b81516001600160401b038111156200019c576200019c62000125565b6020620001b2601f8301601f191682016200013b565b8281528582848701011115620001c757600080fd5b60005b83811015620001e7578581018301518282018401528201620001ca565b506000928101909101919091529392505050565b600082601f8301126200020d57600080fd5b815160206001600160401b038211156200022b576200022b62000125565b8160051b6200023c8282016200013b565b92835284810182019282810190878511156200025757600080fd5b83870192505b8483101562000278578251825291830191908301906200025d565b979650505050505050565b80516001600160a01b03811681146200029b57600080fd5b919050565b600080600080600080600060e0888a031215620002bc57600080fd5b87516001600160401b0380821115620002d457600080fd5b620002e28b838c016200016e565b985060208a0151915080821115620002f957600080fd5b620003078b838c016200016e565b975060408a01519150808211156200031e57600080fd5b6200032c8b838c016200016e565b965060608a01519150808211156200034357600080fd5b620003518b838c016200016e565b955060808a01519150808211156200036857600080fd5b50620003778a828b01620001fb565b93505060a088015191506200038f60c0890162000283565b905092959891949750929550565b600181811c90821680620003b257607f821691505b602082108103620003d357634e487b7160e01b600052602260045260246000fd5b50919050565b601f8211156200042757600081815260208120601f850160051c81016020861015620004025750805b601f850160051c820191505b8181101562000423578281556001016200040e565b5050505b505050565b81516001600160401b0381111562000448576200044862000125565b62000460816200045984546200039d565b84620003d9565b602080601f8311600181146200049857600084156200047f5750858301515b600019600386901b1c1916600185901b17855562000423565b600085815260208120601f198616915b82811015620004c957888601518255948401946001909101908401620004a8565b5085821015620004e85787850151600019600388901b60f8161c191681555b5050505050600190811b01905550565b611f7580620005086000396000f3fe608060405234801561001057600080fd5b50600436106101b95760003560e01c806370a08231116100f9578063b325d85d11610097578063dbacc23711610071578063dbacc237146103cd578063de16017a146103e0578063e7d931e4146103f3578063e985e9c5146103fb57600080fd5b8063b325d85d14610387578063b88d4fde146103a7578063c87b56dd146103ba57600080fd5b8063a22cb465116100d3578063a22cb4651461033d578063a45885eb14610350578063a7a38f0b14610363578063b0fa84441461037657600080fd5b806370a08231146102ff578063816949b51461032057806395d89b411461033557600080fd5b806342842e0e116101665780635221c1f0116101405780635221c1f0146102be57806355f804b3146102d15780635aef7de6146102e45780636352211e146102ec57600080fd5b806342842e0e1461025b57806342966c681461026e57806345facd8e1461028157600080fd5b8063081812fc11610197578063081812fc14610220578063095ea7b31461023357806323b872dd1461024857600080fd5b806301ffc9a7146101be57806302d05d3f146101e657806306fdde031461020b575b600080fd5b6101d16101cc3660046118a0565b610437565b60405190151581526020015b60405180910390f35b6006546001600160a01b03165b6040516001600160a01b0390911681526020016101dd565b6102136104d4565b6040516101dd9190611914565b6101f361022e366004611927565b610566565b61024661024136600461195c565b61058d565b005b610246610256366004611986565b6106e1565b610246610269366004611986565b610768565b61024661027c366004611927565b610783565b61024661028f3660046119c2565b600d805473ffffffffffffffffffffffffffffffffffffffff19166001600160a01b0392909216919091179055565b6101d16102cc366004611927565b61078f565b6102466102df366004611a9c565b6107f7565b610213610861565b6101f36102fa366004611927565b610870565b61031261030d3660046119c2565b6108d5565b6040519081526020016101dd565b61032861096f565b6040516101dd9190611ad1565b6102136109c6565b61024661034b366004611b15565b6109d5565b61031261035e366004611b51565b6109e0565b610328610371366004611927565b610a6e565b600d546001600160a01b03166101f3565b610312610395366004611927565b60106020526000908152604090205481565b6102466103b5366004611c33565b610ad0565b6102136103c8366004611927565b610b5e565b6101f36103db366004611927565b610cc7565b6103126103ee366004611caf565b610ce4565b610213610d15565b6101d1610409366004611cd1565b6001600160a01b03918216600090815260056020908152604080832093909416825291909152205460ff1690565b60006001600160e01b031982167f80ac58cd00000000000000000000000000000000000000000000000000000000148061049a57506001600160e01b031982167f5b5e139f00000000000000000000000000000000000000000000000000000000145b806104ce57507f01ffc9a7000000000000000000000000000000000000000000000000000000006001600160e01b03198316145b92915050565b6060600080546104e390611d04565b80601f016020809104026020016040519081016040528092919081815260200182805461050f90611d04565b801561055c5780601f106105315761010080835404028352916020019161055c565b820191906000526020600020905b81548152906001019060200180831161053f57829003601f168201915b5050505050905090565b600061057182610d24565b506000908152600460205260409020546001600160a01b031690565b600061059882610870565b9050806001600160a01b0316836001600160a01b0316036106265760405162461bcd60e51b815260206004820152602160248201527f4552433732313a20617070726f76616c20746f2063757272656e74206f776e6560448201527f720000000000000000000000000000000000000000000000000000000000000060648201526084015b60405180910390fd5b336001600160a01b038216148061066057506001600160a01b038116600090815260056020908152604080832033845290915290205460ff165b6106d25760405162461bcd60e51b815260206004820152603d60248201527f4552433732313a20617070726f76652063616c6c6572206973206e6f7420746f60448201527f6b656e206f776e6572206f7220617070726f76656420666f7220616c6c000000606482015260840161061d565b6106dc8383610d88565b505050565b6106eb3382610e03565b61075d5760405162461bcd60e51b815260206004820152602d60248201527f4552433732313a2063616c6c6572206973206e6f7420746f6b656e206f776e6560448201527f72206f7220617070726f76656400000000000000000000000000000000000000606482015260840161061d565b6106dc838383610e81565b6106dc83838360405180602001604052806000815250610ad0565b61078c81611094565b50565b600081600c54036107a257506001919050565b60005b600e548110156107ee5782600e82815481106107c3576107c3611d3e565b9060005260206000200154036107dc5750600192915050565b806107e681611d6a565b9150506107a5565b50600092915050565b6006546001600160a01b031633146108515760405162461bcd60e51b815260206004820152601f60248201527f6f6e6c79206f776e65722063616e2063616c6c2074686973206d6574686f6400604482015260640161061d565b600961085d8282611dd1565b5050565b6060600b80546104e390611d04565b6000818152600260205260408120546001600160a01b0316806104ce5760405162461bcd60e51b815260206004820152601860248201527f4552433732313a20696e76616c696420746f6b656e2049440000000000000000604482015260640161061d565b60006001600160a01b0382166109535760405162461bcd60e51b815260206004820152602960248201527f4552433732313a2061646472657373207a65726f206973206e6f74206120766160448201527f6c6964206f776e65720000000000000000000000000000000000000000000000606482015260840161061d565b506001600160a01b031660009081526003602052604090205490565b6060600e80548060200260200160405190810160405280929190818152602001828054801561055c57602002820191906000526020600020905b8154815260200190600101908083116109a9575050505050905090565b6060600180546104e390611d04565b61085d338383611144565b60008083600003610a0a57600780549060006109fb83611d6a565b91905055506007549050610a0d565b50825b6000818152600f602090815260409091208451610a2c9286019061182a565b50610a378582611212565b610a4181876113b8565b6000818152600f60209081526040822080546001810182559083529120600591015590505b949350505050565b6000818152600f6020908152604091829020805483518184028101840190945280845260609392830182828015610ac457602002820191906000526020600020905b815481526020019060010190808311610ab0575b50505050509050919050565b610ada3383610e03565b610b4c5760405162461bcd60e51b815260206004820152602d60248201527f4552433732313a2063616c6c6572206973206e6f7420746f6b656e206f776e6560448201527f72206f7220617070726f76656400000000000000000000000000000000000000606482015260840161061d565b610b5884848484611434565b50505050565b6000818152600260205260409020546060906001600160a01b0316610bc55760405162461bcd60e51b815260206004820152601560248201527f746f6b656e20646f6573206e6f74206578697374730000000000000000000000604482015260640161061d565b60008281526008602052604081208054610bde90611d04565b80601f0160208091040260200160405190810160405280929190818152602001828054610c0a90611d04565b8015610c575780601f10610c2c57610100808354040283529160200191610c57565b820191906000526020600020905b815481529060010190602001808311610c3a57829003601f168201915b505050505090506000610c686114bd565b90508051600003610c7a575092915050565b815115610cac578082604051602001610c94929190611e91565b60405160208183030381529060405292505050919050565b80610cb6856114cc565b604051602001610c94929190611e91565b6000818152600260205260408120546001600160a01b03166104ce565b600f6020528160005260406000208181548110610d0057600080fd5b90600052602060002001600091509150505481565b6060600a80546104e390611d04565b6000818152600260205260409020546001600160a01b031661078c5760405162461bcd60e51b815260206004820152601860248201527f4552433732313a20696e76616c696420746f6b656e2049440000000000000000604482015260640161061d565b6000818152600460205260409020805473ffffffffffffffffffffffffffffffffffffffff19166001600160a01b0384169081179091558190610dca82610870565b6001600160a01b03167f8c5be1e5ebec7d5bd14f71427d1e84f3dd0314c0f7b2291e5b200ac8c7c3b92560405160405180910390a45050565b600080610e0f83610870565b9050806001600160a01b0316846001600160a01b03161480610e5657506001600160a01b0380821660009081526005602090815260408083209388168352929052205460ff165b80610a665750836001600160a01b0316610e6f84610566565b6001600160a01b031614949350505050565b826001600160a01b0316610e9482610870565b6001600160a01b031614610ef85760405162461bcd60e51b815260206004820152602560248201527f4552433732313a207472616e736665722066726f6d20696e636f72726563742060448201526437bbb732b960d91b606482015260840161061d565b6001600160a01b038216610f735760405162461bcd60e51b8152602060048201526024808201527f4552433732313a207472616e7366657220746f20746865207a65726f2061646460448201527f7265737300000000000000000000000000000000000000000000000000000000606482015260840161061d565b610f80838383600161156c565b826001600160a01b0316610f9382610870565b6001600160a01b031614610ff75760405162461bcd60e51b815260206004820152602560248201527f4552433732313a207472616e736665722066726f6d20696e636f72726563742060448201526437bbb732b960d91b606482015260840161061d565b6000818152600460209081526040808320805473ffffffffffffffffffffffffffffffffffffffff199081169091556001600160a01b0387811680865260038552838620805460001901905590871680865283862080546001019055868652600290945282852080549092168417909155905184937fddf252ad1be2c89b69c2b068fc378daa952ba7f163c4a11628f55a4df523b3ef91a4505050565b600061109f82610870565b90506110af81600084600161156c565b6110b882610870565b6000838152600460209081526040808320805473ffffffffffffffffffffffffffffffffffffffff199081169091556001600160a01b0385168085526003845282852080546000190190558785526002909352818420805490911690555192935084927fddf252ad1be2c89b69c2b068fc378daa952ba7f163c4a11628f55a4df523b3ef908390a45050565b816001600160a01b0316836001600160a01b0316036111a55760405162461bcd60e51b815260206004820152601960248201527f4552433732313a20617070726f766520746f2063616c6c657200000000000000604482015260640161061d565b6001600160a01b03838116600081815260056020908152604080832094871680845294825291829020805460ff191686151590811790915591519182527f17307eab39ab6107e8899845ad3d59bd9653f200f220920489ca2b5937696c31910160405180910390a3505050565b6001600160a01b0382166112685760405162461bcd60e51b815260206004820181905260248201527f4552433732313a206d696e7420746f20746865207a65726f2061646472657373604482015260640161061d565b6000818152600260205260409020546001600160a01b0316156112cd5760405162461bcd60e51b815260206004820152601c60248201527f4552433732313a20746f6b656e20616c7265616479206d696e74656400000000604482015260640161061d565b6112db60008383600161156c565b6000818152600260205260409020546001600160a01b0316156113405760405162461bcd60e51b815260206004820152601c60248201527f4552433732313a20746f6b656e20616c7265616479206d696e74656400000000604482015260640161061d565b6001600160a01b0382166000818152600360209081526040808320805460010190558483526002909152808220805473ffffffffffffffffffffffffffffffffffffffff19168417905551839291907fddf252ad1be2c89b69c2b068fc378daa952ba7f163c4a11628f55a4df523b3ef908290a45050565b6000828152600260205260409020546001600160a01b031661141c5760405162461bcd60e51b815260206004820152601560248201527f746f6b656e20646f6573206e6f74206578697374730000000000000000000000604482015260640161061d565b60008281526008602052604090206106dc8282611dd1565b61143f848484610e81565b61144b848484846115f4565b610b585760405162461bcd60e51b815260206004820152603260248201527f4552433732313a207472616e7366657220746f206e6f6e20455243373231526560448201527f63656976657220696d706c656d656e7465720000000000000000000000000000606482015260840161061d565b6060600980546104e390611d04565b606060006114d983611748565b600101905060008167ffffffffffffffff8111156114f9576114f96119dd565b6040519080825280601f01601f191660200182016040528015611523576020820181803683370190505b5090508181016020015b600019017f3031323334353637383961626364656600000000000000000000000000000000600a86061a8153600a850494508461152d57509392505050565b6001811115610b58576001600160a01b038416156115b2576001600160a01b038416600090815260036020526040812080548392906115ac908490611ec0565b90915550505b6001600160a01b03831615610b58576001600160a01b038316600090815260036020526040812080548392906115e9908490611ed3565b909155505050505050565b60006001600160a01b0384163b1561174057604051630a85bd0160e11b81526001600160a01b0385169063150b7a0290611638903390899088908890600401611ee6565b6020604051808303816000875af1925050508015611673575060408051601f3d908101601f1916820190925261167091810190611f22565b60015b611726573d8080156116a1576040519150601f19603f3d011682016040523d82523d6000602084013e6116a6565b606091505b50805160000361171e5760405162461bcd60e51b815260206004820152603260248201527f4552433732313a207472616e7366657220746f206e6f6e20455243373231526560448201527f63656976657220696d706c656d656e7465720000000000000000000000000000606482015260840161061d565b805181602001fd5b6001600160e01b031916630a85bd0160e11b149050610a66565b506001610a66565b6000807a184f03e93ff9f4daa797ed6e38ed64bf6a1f0100000000000000008310611791577a184f03e93ff9f4daa797ed6e38ed64bf6a1f010000000000000000830492506040015b6d04ee2d6d415b85acef810000000083106117bd576d04ee2d6d415b85acef8100000000830492506020015b662386f26fc1000083106117db57662386f26fc10000830492506010015b6305f5e10083106117f3576305f5e100830492506008015b612710831061180757612710830492506004015b60648310611819576064830492506002015b600a83106104ce5760010192915050565b828054828255906000526020600020908101928215611865579160200282015b8281111561186557825182559160200191906001019061184a565b50611871929150611875565b5090565b5b808211156118715760008155600101611876565b6001600160e01b03198116811461078c57600080fd5b6000602082840312156118b257600080fd5b81356118bd8161188a565b9392505050565b60005b838110156118df5781810151838201526020016118c7565b50506000910152565b600081518084526119008160208601602086016118c4565b601f01601f19169290920160200192915050565b6020815260006118bd60208301846118e8565b60006020828403121561193957600080fd5b5035919050565b80356001600160a01b038116811461195757600080fd5b919050565b6000806040838503121561196f57600080fd5b61197883611940565b946020939093013593505050565b60008060006060848603121561199b57600080fd5b6119a484611940565b92506119b260208501611940565b9150604084013590509250925092565b6000602082840312156119d457600080fd5b6118bd82611940565b634e487b7160e01b600052604160045260246000fd5b604051601f8201601f1916810167ffffffffffffffff81118282101715611a1c57611a1c6119dd565b604052919050565b600067ffffffffffffffff831115611a3e57611a3e6119dd565b611a51601f8401601f19166020016119f3565b9050828152838383011115611a6557600080fd5b828260208301376000602084830101529392505050565b600082601f830112611a8d57600080fd5b6118bd83833560208501611a24565b600060208284031215611aae57600080fd5b813567ffffffffffffffff811115611ac557600080fd5b610a6684828501611a7c565b6020808252825182820181905260009190848201906040850190845b81811015611b0957835183529284019291840191600101611aed565b50909695505050505050565b60008060408385031215611b2857600080fd5b611b3183611940565b915060208301358015158114611b4657600080fd5b809150509250929050565b60008060008060808587031215611b6757600080fd5b843567ffffffffffffffff80821115611b7f57600080fd5b611b8b88838901611a7c565b955060209150611b9c828801611940565b945060408701359350606087013581811115611bb757600080fd5b8701601f81018913611bc857600080fd5b803582811115611bda57611bda6119dd565b8060051b9250611beb8484016119f3565b818152928201840192848101908b851115611c0557600080fd5b928501925b84841015611c2357833582529285019290850190611c0a565b989b979a50959850505050505050565b60008060008060808587031215611c4957600080fd5b611c5285611940565b9350611c6060208601611940565b925060408501359150606085013567ffffffffffffffff811115611c8357600080fd5b8501601f81018713611c9457600080fd5b611ca387823560208401611a24565b91505092959194509250565b60008060408385031215611cc257600080fd5b50508035926020909101359150565b60008060408385031215611ce457600080fd5b611ced83611940565b9150611cfb60208401611940565b90509250929050565b600181811c90821680611d1857607f821691505b602082108103611d3857634e487b7160e01b600052602260045260246000fd5b50919050565b634e487b7160e01b600052603260045260246000fd5b634e487b7160e01b600052601160045260246000fd5b600060018201611d7c57611d7c611d54565b5060010190565b601f8211156106dc57600081815260208120601f850160051c81016020861015611daa5750805b601f850160051c820191505b81811015611dc957828155600101611db6565b505050505050565b815167ffffffffffffffff811115611deb57611deb6119dd565b611dff81611df98454611d04565b84611d83565b602080601f831160018114611e345760008415611e1c5750858301515b600019600386901b1c1916600185901b178555611dc9565b600085815260208120601f198616915b82811015611e6357888601518255948401946001909101908401611e44565b5085821015611e815787850151600019600388901b60f8161c191681555b5050505050600190811b01905550565b60008351611ea38184602088016118c4565b835190830190611eb78183602088016118c4565b01949350505050565b818103818111156104ce576104ce611d54565b808201808211156104ce576104ce611d54565b60006001600160a01b03808716835280861660208401525083604083015260806060830152611f1860808301846118e8565b9695505050505050565b600060208284031215611f3457600080fd5b81516118bd8161188a56fea26469706673582212209def4404d6fac2d0386d0e6a20444b25bf95e6b0a2d96c1bc82cb1744043301c64736f6c63430008100033",
  "immutableReferences": {},
  "source": "// SPDX-License-Identifier: GPL-3.0\npragma solidity >=0.7.0 <0.9.0;\n\nimport \"@openzeppelin/contracts/access/Ownable.sol\";\nimport \"@openzeppelin/contracts/token/ERC721/ERC721.sol\";\n\ncontract MultiERC721 is ERC721 {\n    address private _creator;\n\n    uint256 tokenID = 0;\n    using Strings for uint256;\n\n    mapping(uint256 => string) private tokenURIs;\n    string private baseURIextended;\n\n    // collection metadata\n    string private _cover;\n    string private _avatar;\n\n    uint private _primaryChain;\n    address private _primaryAddress;\n    uint[] private _supportedChains;\n\n    // tokenId => record of bridges\n    mapping(uint256 => uint[]) public histories;\n\n    // keeps track of each nft current chain\n    mapping(uint => uint) public currentChains;\n\n    constructor(\n        string memory name,\n        string memory symbol,\n        string memory cover_,\n        string memory avatar_,\n        uint[] memory supportedChains_,\n        uint primaryChain_,\n        address creator_\n    ) ERC721(name, symbol) {\n        _cover = cover_;\n        _avatar = avatar_;\n        _creator = creator_;\n        _primaryChain = primaryChain_;\n        _supportedChains = supportedChains_;\n    }\n\n    function cover() public view returns (string memory) {\n        return _cover;\n    }\n\n    function avatar() public view returns (string memory) {\n        return _avatar;\n    }\n\n    function creator() public view returns (address) {\n        return _creator;\n    }\n\n    function sourceAddress() public view returns (address) {\n        return _primaryAddress;\n    }\n\n    function supportedChains() public view returns (uint[] memory) {\n        return _supportedChains;\n    }\n\n    function history(uint _tokenID) public view returns (uint[] memory) {\n        return histories[_tokenID];\n    }\n\n    function setSourceAddress(address sourceAddress_) public {\n        _primaryAddress = sourceAddress_;\n    }\n\n    function mint(\n        string memory uri,\n        address to,\n        uint256 _tokenID,\n        uint[] memory _history\n    ) public returns (uint) {\n        uint _id;\n\n        if (_tokenID == 0) {\n            // new token to be minted\n            tokenID++;\n            _id = tokenID;\n        } else {\n            // burnt token to be minted\n            _id = _tokenID;\n        }\n\n        // update nft history\n        histories[_id] = _history;\n\n        // mint the token\n        _mint(to, _id);\n\n        // attach metadata uri to token\n        _setTokenURI(_id, uri);\n\n        // add this chain to nft history\n        histories[_id].push(5);\n\n        return _id;\n    }\n\n    function burn(uint256 _tokenID) public {\n        _burn(_tokenID);\n    }\n\n    function holderOf(uint256 tokenId) public view returns (address) {\n        return _ownerOf(tokenId);\n    }\n\n    function isChainSupported(uint destChain) public view returns (bool) {\n        if (_primaryChain == destChain) {\n            return true;\n        }\n\n        for (uint index = 0; index < _supportedChains.length; index++) {\n            if (_supportedChains[index] == destChain) {\n                return true;\n            }\n        }\n\n        return false;\n    }\n\n    function setBaseURI(string memory baseURI) external onlyCreator {\n        baseURIextended = baseURI;\n    }\n\n    function _setTokenURI(\n        uint256 tokenId,\n        string memory _tokenURI\n    ) internal virtual {\n        require(_exists(tokenId), \"token does not exists\");\n        tokenURIs[tokenId] = _tokenURI;\n    }\n\n    function _baseURI() internal view virtual override returns (string memory) {\n        return baseURIextended;\n    }\n\n    function tokenURI(\n        uint256 tokenId\n    ) public view virtual override returns (string memory) {\n        require(_exists(tokenId), \"token does not exists\");\n\n        string memory _tokenURI = tokenURIs[tokenId];\n        string memory base = _baseURI();\n\n        // if there is no base URI, return the token URI.\n        if (bytes(base).length == 0) {\n            return _tokenURI;\n        }\n\n        // if both are set, concatenate the baseURI and tokenURI (via abi.encodePacked).\n        if (bytes(_tokenURI).length > 0) {\n            return string(abi.encodePacked(base, _tokenURI));\n        }\n\n        // if there is a baseURI but no tokenURI, concatenate the tokenID to the baseURI.\n        return string(abi.encodePacked(base, tokenId.toString()));\n    }\n\n    modifier onlyCreator() {\n        require(msg.sender == _creator, \"only owner can call this method\");\n        _;\n    }\n}\n",
  "sourcePath": "C:\\Users\\Arogundade Ibrahim\\documents\\web3\\crossart\\contracts\\MultiERC721.sol",
  "compiler": {
    "name": "solc",
    "version": "0.8.16+commit.07a7930e.Emscripten.clang"
  },
  "schemaVersion": "3.4.10",
  "updatedAt": "2022-12-16T20:50:54.771Z",
  "devdoc": {
    "kind": "dev",
    "methods": {
      "approve(address,uint256)": {
        "details": "See {IERC721-approve}."
      },
      "balanceOf(address)": {
        "details": "See {IERC721-balanceOf}."
      },
      "getApproved(uint256)": {
        "details": "See {IERC721-getApproved}."
      },
      "isApprovedForAll(address,address)": {
        "details": "See {IERC721-isApprovedForAll}."
      },
      "name()": {
        "details": "See {IERC721Metadata-name}."
      },
      "ownerOf(uint256)": {
        "details": "See {IERC721-ownerOf}."
      },
      "safeTransferFrom(address,address,uint256)": {
        "details": "See {IERC721-safeTransferFrom}."
      },
      "safeTransferFrom(address,address,uint256,bytes)": {
        "details": "See {IERC721-safeTransferFrom}."
      },
      "setApprovalForAll(address,bool)": {
        "details": "See {IERC721-setApprovalForAll}."
      },
      "supportsInterface(bytes4)": {
        "details": "See {IERC165-supportsInterface}."
      },
      "symbol()": {
        "details": "See {IERC721Metadata-symbol}."
      },
      "tokenURI(uint256)": {
        "details": "See {IERC721Metadata-tokenURI}."
      },
      "transferFrom(address,address,uint256)": {
        "details": "See {IERC721-transferFrom}."
      }
    },
    "version": 1
  },
  "userdoc": {
    "kind": "user",
    "methods": {},
    "version": 1
  }
}