{
  "contractName": "MultiERC721",
  "abi": [
    {
      "inputs": [
        {
          "internalType": "string",
          "name": "name",
          "type": "string"
        },
        {
          "internalType": "string",
          "name": "symbol",
          "type": "string"
        },
        {
          "internalType": "string",
          "name": "cover_",
          "type": "string"
        },
        {
          "internalType": "string",
          "name": "avatar_",
          "type": "string"
        },
        {
          "internalType": "uint256[]",
          "name": "supportedChains_",
          "type": "uint256[]"
        },
        {
          "internalType": "uint256",
          "name": "primaryChain_",
          "type": "uint256"
        },
        {
          "internalType": "address",
          "name": "creator_",
          "type": "address"
        }
      ],
      "stateMutability": "nonpayable",
      "type": "constructor"
    },
    {
      "anonymous": false,
      "inputs": [
        {
          "indexed": true,
          "internalType": "address",
          "name": "owner",
          "type": "address"
        },
        {
          "indexed": true,
          "internalType": "address",
          "name": "approved",
          "type": "address"
        },
        {
          "indexed": true,
          "internalType": "uint256",
          "name": "tokenId",
          "type": "uint256"
        }
      ],
      "name": "Approval",
      "type": "event"
    },
    {
      "anonymous": false,
      "inputs": [
        {
          "indexed": true,
          "internalType": "address",
          "name": "owner",
          "type": "address"
        },
        {
          "indexed": true,
          "internalType": "address",
          "name": "operator",
          "type": "address"
        },
        {
          "indexed": false,
          "internalType": "bool",
          "name": "approved",
          "type": "bool"
        }
      ],
      "name": "ApprovalForAll",
      "type": "event"
    },
    {
      "anonymous": false,
      "inputs": [
        {
          "indexed": true,
          "internalType": "address",
          "name": "from",
          "type": "address"
        },
        {
          "indexed": true,
          "internalType": "address",
          "name": "to",
          "type": "address"
        },
        {
          "indexed": true,
          "internalType": "uint256",
          "name": "tokenId",
          "type": "uint256"
        }
      ],
      "name": "Transfer",
      "type": "event"
    },
    {
      "inputs": [
        {
          "internalType": "uint256",
          "name": "",
          "type": "uint256"
        }
      ],
      "name": "_supportedChains",
      "outputs": [
        {
          "internalType": "uint256",
          "name": "",
          "type": "uint256"
        }
      ],
      "stateMutability": "view",
      "type": "function"
    },
    {
      "inputs": [
        {
          "internalType": "address",
          "name": "to",
          "type": "address"
        },
        {
          "internalType": "uint256",
          "name": "tokenId",
          "type": "uint256"
        }
      ],
      "name": "approve",
      "outputs": [],
      "stateMutability": "nonpayable",
      "type": "function"
    },
    {
      "inputs": [
        {
          "internalType": "address",
          "name": "owner",
          "type": "address"
        }
      ],
      "name": "balanceOf",
      "outputs": [
        {
          "internalType": "uint256",
          "name": "",
          "type": "uint256"
        }
      ],
      "stateMutability": "view",
      "type": "function"
    },
    {
      "inputs": [
        {
          "internalType": "uint256",
          "name": "",
          "type": "uint256"
        }
      ],
      "name": "currentChains",
      "outputs": [
        {
          "internalType": "uint256",
          "name": "",
          "type": "uint256"
        }
      ],
      "stateMutability": "view",
      "type": "function"
    },
    {
      "inputs": [
        {
          "internalType": "uint256",
          "name": "tokenId",
          "type": "uint256"
        }
      ],
      "name": "getApproved",
      "outputs": [
        {
          "internalType": "address",
          "name": "",
          "type": "address"
        }
      ],
      "stateMutability": "view",
      "type": "function"
    },
    {
      "inputs": [
        {
          "internalType": "address",
          "name": "owner",
          "type": "address"
        },
        {
          "internalType": "address",
          "name": "operator",
          "type": "address"
        }
      ],
      "name": "isApprovedForAll",
      "outputs": [
        {
          "internalType": "bool",
          "name": "",
          "type": "bool"
        }
      ],
      "stateMutability": "view",
      "type": "function"
    },
    {
      "inputs": [],
      "name": "name",
      "outputs": [
        {
          "internalType": "string",
          "name": "",
          "type": "string"
        }
      ],
      "stateMutability": "view",
      "type": "function"
    },
    {
      "inputs": [
        {
          "internalType": "uint256",
          "name": "tokenId",
          "type": "uint256"
        }
      ],
      "name": "ownerOf",
      "outputs": [
        {
          "internalType": "address",
          "name": "",
          "type": "address"
        }
      ],
      "stateMutability": "view",
      "type": "function"
    },
    {
      "inputs": [
        {
          "internalType": "address",
          "name": "from",
          "type": "address"
        },
        {
          "internalType": "address",
          "name": "to",
          "type": "address"
        },
        {
          "internalType": "uint256",
          "name": "tokenId",
          "type": "uint256"
        }
      ],
      "name": "safeTransferFrom",
      "outputs": [],
      "stateMutability": "nonpayable",
      "type": "function"
    },
    {
      "inputs": [
        {
          "internalType": "address",
          "name": "from",
          "type": "address"
        },
        {
          "internalType": "address",
          "name": "to",
          "type": "address"
        },
        {
          "internalType": "uint256",
          "name": "tokenId",
          "type": "uint256"
        },
        {
          "internalType": "bytes",
          "name": "data",
          "type": "bytes"
        }
      ],
      "name": "safeTransferFrom",
      "outputs": [],
      "stateMutability": "nonpayable",
      "type": "function"
    },
    {
      "inputs": [
        {
          "internalType": "address",
          "name": "operator",
          "type": "address"
        },
        {
          "internalType": "bool",
          "name": "approved",
          "type": "bool"
        }
      ],
      "name": "setApprovalForAll",
      "outputs": [],
      "stateMutability": "nonpayable",
      "type": "function"
    },
    {
      "inputs": [
        {
          "internalType": "bytes4",
          "name": "interfaceId",
          "type": "bytes4"
        }
      ],
      "name": "supportsInterface",
      "outputs": [
        {
          "internalType": "bool",
          "name": "",
          "type": "bool"
        }
      ],
      "stateMutability": "view",
      "type": "function"
    },
    {
      "inputs": [],
      "name": "symbol",
      "outputs": [
        {
          "internalType": "string",
          "name": "",
          "type": "string"
        }
      ],
      "stateMutability": "view",
      "type": "function"
    },
    {
      "inputs": [
        {
          "internalType": "address",
          "name": "from",
          "type": "address"
        },
        {
          "internalType": "address",
          "name": "to",
          "type": "address"
        },
        {
          "internalType": "uint256",
          "name": "tokenId",
          "type": "uint256"
        }
      ],
      "name": "transferFrom",
      "outputs": [],
      "stateMutability": "nonpayable",
      "type": "function"
    },
    {
      "inputs": [],
      "name": "cover",
      "outputs": [
        {
          "internalType": "string",
          "name": "",
          "type": "string"
        }
      ],
      "stateMutability": "view",
      "type": "function"
    },
    {
      "inputs": [],
      "name": "avatar",
      "outputs": [
        {
          "internalType": "string",
          "name": "",
          "type": "string"
        }
      ],
      "stateMutability": "view",
      "type": "function"
    },
    {
      "inputs": [],
      "name": "creator",
      "outputs": [
        {
          "internalType": "address",
          "name": "",
          "type": "address"
        }
      ],
      "stateMutability": "view",
      "type": "function"
    },
    {
      "inputs": [],
      "name": "sourceAddress",
      "outputs": [
        {
          "internalType": "address",
          "name": "",
          "type": "address"
        }
      ],
      "stateMutability": "view",
      "type": "function"
    },
    {
      "inputs": [],
      "name": "supportedChains",
      "outputs": [
        {
          "internalType": "uint256[]",
          "name": "",
          "type": "uint256[]"
        }
      ],
      "stateMutability": "view",
      "type": "function"
    },
    {
      "inputs": [
        {
          "internalType": "address",
          "name": "sourceAddress_",
          "type": "address"
        }
      ],
      "name": "setSourceAddress",
      "outputs": [],
      "stateMutability": "nonpayable",
      "type": "function"
    },
    {
      "inputs": [
        {
          "internalType": "string",
          "name": "uri",
          "type": "string"
        },
        {
          "internalType": "address",
          "name": "to",
          "type": "address"
        },
        {
          "internalType": "uint256",
          "name": "_tokenID",
          "type": "uint256"
        }
      ],
      "name": "mint",
      "outputs": [
        {
          "internalType": "uint256",
          "name": "",
          "type": "uint256"
        }
      ],
      "stateMutability": "nonpayable",
      "type": "function"
    },
    {
      "inputs": [
        {
          "internalType": "uint256",
          "name": "_tokenID",
          "type": "uint256"
        }
      ],
      "name": "burn",
      "outputs": [],
      "stateMutability": "nonpayable",
      "type": "function"
    },
    {
      "inputs": [
        {
          "internalType": "uint256",
          "name": "tokenId",
          "type": "uint256"
        }
      ],
      "name": "holderOf",
      "outputs": [
        {
          "internalType": "address",
          "name": "",
          "type": "address"
        }
      ],
      "stateMutability": "view",
      "type": "function"
    },
    {
      "inputs": [
        {
          "internalType": "uint256",
          "name": "destChain",
          "type": "uint256"
        }
      ],
      "name": "isChainSupported",
      "outputs": [
        {
          "internalType": "bool",
          "name": "",
          "type": "bool"
        }
      ],
      "stateMutability": "view",
      "type": "function"
    },
    {
      "inputs": [
        {
          "internalType": "string",
          "name": "baseURI",
          "type": "string"
        }
      ],
      "name": "setBaseURI",
      "outputs": [],
      "stateMutability": "nonpayable",
      "type": "function"
    },
    {
      "inputs": [
        {
          "internalType": "uint256",
          "name": "tokenId",
          "type": "uint256"
        }
      ],
      "name": "tokenURI",
      "outputs": [
        {
          "internalType": "string",
          "name": "",
          "type": "string"
        }
      ],
      "stateMutability": "view",
      "type": "function"
    }
  ],
  "bytecode": "0x608060405260006007553480156200001657600080fd5b506040516200224d3803806200224d8339810160408190526200003991620002a0565b868660006200004983826200042c565b5060016200005882826200042c565b50600a91506200006b905086826200042c565b50600b6200007a85826200042c565b50600680546001600160a01b0319166001600160a01b038316179055600c8290558251620000b090600e906020860190620000be565b5050505050505050620004f8565b828054828255906000526020600020908101928215620000fc579160200282015b82811115620000fc578251825591602001919060010190620000df565b506200010a9291506200010e565b5090565b5b808211156200010a57600081556001016200010f565b634e487b7160e01b600052604160045260246000fd5b604051601f8201601f191681016001600160401b038111828210171562000166576200016662000125565b604052919050565b600082601f8301126200018057600080fd5b81516001600160401b038111156200019c576200019c62000125565b6020620001b2601f8301601f191682016200013b565b8281528582848701011115620001c757600080fd5b60005b83811015620001e7578581018301518282018401528201620001ca565b506000928101909101919091529392505050565b600082601f8301126200020d57600080fd5b815160206001600160401b038211156200022b576200022b62000125565b8160051b6200023c8282016200013b565b92835284810182019282810190878511156200025757600080fd5b83870192505b8483101562000278578251825291830191908301906200025d565b979650505050505050565b80516001600160a01b03811681146200029b57600080fd5b919050565b600080600080600080600060e0888a031215620002bc57600080fd5b87516001600160401b0380821115620002d457600080fd5b620002e28b838c016200016e565b985060208a0151915080821115620002f957600080fd5b620003078b838c016200016e565b975060408a01519150808211156200031e57600080fd5b6200032c8b838c016200016e565b965060608a01519150808211156200034357600080fd5b620003518b838c016200016e565b955060808a01519150808211156200036857600080fd5b50620003778a828b01620001fb565b93505060a088015191506200038f60c0890162000283565b905092959891949750929550565b600181811c90821680620003b257607f821691505b602082108103620003d357634e487b7160e01b600052602260045260246000fd5b50919050565b601f8211156200042757600081815260208120601f850160051c81016020861015620004025750805b601f850160051c820191505b8181101562000423578281556001016200040e565b5050505b505050565b81516001600160401b0381111562000448576200044862000125565b62000460816200045984546200039d565b84620003d9565b602080601f8311600181146200049857600084156200047f5750858301515b600019600386901b1c1916600185901b17855562000423565b600085815260208120601f198616915b82811015620004c957888601518255948401946001909101908401620004a8565b5085821015620004e85787850151600019600388901b60f8161c191681555b5050505050600190811b01905550565b611d4580620005086000396000f3fe608060405234801561001057600080fd5b50600436106101ae5760003560e01c80636352211e116100ee578063b0fa844411610097578063c87b56dd11610071578063c87b56dd146103af578063dbacc237146103c2578063e7d931e4146103d5578063e985e9c5146103dd57600080fd5b8063b0fa84441461036b578063b325d85d1461037c578063b88d4fde1461039c57600080fd5b8063816949b5116100c8578063816949b51461033b57806395d89b4114610350578063a22cb4651461035857600080fd5b80636352211e1461030257806370a08231146103155780637e8816b91461032857600080fd5b806323b872dd1161015b57806345facd8e1161013557806345facd8e146102975780635221c1f0146102d457806355f804b3146102e75780635aef7de6146102fa57600080fd5b806323b872dd1461025e57806342842e0e1461027157806342966c681461028457600080fd5b806306fdde031161018c57806306fdde0314610221578063081812fc14610236578063095ea7b31461024957600080fd5b806301ffc9a7146101b357806302d05d3f146101db5780630444ce0a14610200575b600080fd5b6101c66101c1366004611740565b610419565b60405190151581526020015b60405180910390f35b6006546001600160a01b03165b6040516001600160a01b0390911681526020016101d2565b61021361020e366004611764565b6104b6565b6040519081526020016101d2565b6102296104d7565b6040516101d291906117cd565b6101e8610244366004611764565b610569565b61025c6102573660046117fc565b610590565b005b61025c61026c366004611826565b6106e4565b61025c61027f366004611826565b61076b565b61025c610292366004611764565b610786565b61025c6102a5366004611862565b600d805473ffffffffffffffffffffffffffffffffffffffff19166001600160a01b0392909216919091179055565b6101c66102e2366004611764565b610792565b61025c6102f5366004611929565b6107fa565b610229610864565b6101e8610310366004611764565b610873565b610213610323366004611862565b6108d8565b61021361033636600461195e565b610972565b6103436109bb565b6040516101d291906119a5565b610229610a12565b61025c6103663660046119e9565b610a21565b600d546001600160a01b03166101e8565b61021361038a366004611764565b600f6020526000908152604090205481565b61025c6103aa366004611a25565b610a2c565b6102296103bd366004611764565b610aba565b6101e86103d0366004611764565b610c0c565b610229610c29565b6101c66103eb366004611aa1565b6001600160a01b03918216600090815260056020908152604080832093909416825291909152205460ff1690565b60006001600160e01b031982167f80ac58cd00000000000000000000000000000000000000000000000000000000148061047c57506001600160e01b031982167f5b5e139f00000000000000000000000000000000000000000000000000000000145b806104b057507f01ffc9a7000000000000000000000000000000000000000000000000000000006001600160e01b03198316145b92915050565b600e81815481106104c657600080fd5b600091825260209091200154905081565b6060600080546104e690611ad4565b80601f016020809104026020016040519081016040528092919081815260200182805461051290611ad4565b801561055f5780601f106105345761010080835404028352916020019161055f565b820191906000526020600020905b81548152906001019060200180831161054257829003601f168201915b5050505050905090565b600061057482610c38565b506000908152600460205260409020546001600160a01b031690565b600061059b82610873565b9050806001600160a01b0316836001600160a01b0316036106295760405162461bcd60e51b815260206004820152602160248201527f4552433732313a20617070726f76616c20746f2063757272656e74206f776e6560448201527f720000000000000000000000000000000000000000000000000000000000000060648201526084015b60405180910390fd5b336001600160a01b038216148061066357506001600160a01b038116600090815260056020908152604080832033845290915290205460ff165b6106d55760405162461bcd60e51b815260206004820152603d60248201527f4552433732313a20617070726f76652063616c6c6572206973206e6f7420746f60448201527f6b656e206f776e6572206f7220617070726f76656420666f7220616c6c0000006064820152608401610620565b6106df8383610c9c565b505050565b6106ee3382610d17565b6107605760405162461bcd60e51b815260206004820152602d60248201527f4552433732313a2063616c6c6572206973206e6f7420746f6b656e206f776e6560448201527f72206f7220617070726f766564000000000000000000000000000000000000006064820152608401610620565b6106df838383610d95565b6106df83838360405180602001604052806000815250610a2c565b61078f81610fa8565b50565b600081600c54036107a557506001919050565b60005b600e548110156107f15782600e82815481106107c6576107c6611b0e565b9060005260206000200154036107df5750600192915050565b806107e981611b3a565b9150506107a8565b50600092915050565b6006546001600160a01b031633146108545760405162461bcd60e51b815260206004820152601f60248201527f6f6e6c79206f776e65722063616e2063616c6c2074686973206d6574686f64006044820152606401610620565b60096108608282611ba1565b5050565b6060600b80546104e690611ad4565b6000818152600260205260408120546001600160a01b0316806104b05760405162461bcd60e51b815260206004820152601860248201527f4552433732313a20696e76616c696420746f6b656e20494400000000000000006044820152606401610620565b60006001600160a01b0382166109565760405162461bcd60e51b815260206004820152602960248201527f4552433732313a2061646472657373207a65726f206973206e6f74206120766160448201527f6c6964206f776e657200000000000000000000000000000000000000000000006064820152608401610620565b506001600160a01b031660009081526003602052604090205490565b6000808260000361099c576007805490600061098d83611b3a565b9190505550600754905061099f565b50815b6109a98482611058565b6109b381866111fe565b949350505050565b6060600e80548060200260200160405190810160405280929190818152602001828054801561055f57602002820191906000526020600020905b8154815260200190600101908083116109f5575050505050905090565b6060600180546104e690611ad4565b610860338383611263565b610a363383610d17565b610aa85760405162461bcd60e51b815260206004820152602d60248201527f4552433732313a2063616c6c6572206973206e6f7420746f6b656e206f776e6560448201527f72206f7220617070726f766564000000000000000000000000000000000000006064820152608401610620565b610ab484848484611331565b50505050565b6000818152600260205260409020546060906001600160a01b0316610b0a5760405162461bcd60e51b815260206004820152600660248201526508595e1a5cdd60d21b6044820152606401610620565b60008281526008602052604081208054610b2390611ad4565b80601f0160208091040260200160405190810160405280929190818152602001828054610b4f90611ad4565b8015610b9c5780601f10610b7157610100808354040283529160200191610b9c565b820191906000526020600020905b815481529060010190602001808311610b7f57829003601f168201915b505050505090506000610bad6113ba565b90508051600003610bbf575092915050565b815115610bf1578082604051602001610bd9929190611c61565b60405160208183030381529060405292505050919050565b80610bfb856113c9565b604051602001610bd9929190611c61565b6000818152600260205260408120546001600160a01b03166104b0565b6060600a80546104e690611ad4565b6000818152600260205260409020546001600160a01b031661078f5760405162461bcd60e51b815260206004820152601860248201527f4552433732313a20696e76616c696420746f6b656e20494400000000000000006044820152606401610620565b6000818152600460205260409020805473ffffffffffffffffffffffffffffffffffffffff19166001600160a01b0384169081179091558190610cde82610873565b6001600160a01b03167f8c5be1e5ebec7d5bd14f71427d1e84f3dd0314c0f7b2291e5b200ac8c7c3b92560405160405180910390a45050565b600080610d2383610873565b9050806001600160a01b0316846001600160a01b03161480610d6a57506001600160a01b0380821660009081526005602090815260408083209388168352929052205460ff165b806109b35750836001600160a01b0316610d8384610569565b6001600160a01b031614949350505050565b826001600160a01b0316610da882610873565b6001600160a01b031614610e0c5760405162461bcd60e51b815260206004820152602560248201527f4552433732313a207472616e736665722066726f6d20696e636f72726563742060448201526437bbb732b960d91b6064820152608401610620565b6001600160a01b038216610e875760405162461bcd60e51b8152602060048201526024808201527f4552433732313a207472616e7366657220746f20746865207a65726f2061646460448201527f72657373000000000000000000000000000000000000000000000000000000006064820152608401610620565b610e948383836001611469565b826001600160a01b0316610ea782610873565b6001600160a01b031614610f0b5760405162461bcd60e51b815260206004820152602560248201527f4552433732313a207472616e736665722066726f6d20696e636f72726563742060448201526437bbb732b960d91b6064820152608401610620565b6000818152600460209081526040808320805473ffffffffffffffffffffffffffffffffffffffff199081169091556001600160a01b0387811680865260038552838620805460001901905590871680865283862080546001019055868652600290945282852080549092168417909155905184937fddf252ad1be2c89b69c2b068fc378daa952ba7f163c4a11628f55a4df523b3ef91a4505050565b6000610fb382610873565b9050610fc3816000846001611469565b610fcc82610873565b6000838152600460209081526040808320805473ffffffffffffffffffffffffffffffffffffffff199081169091556001600160a01b0385168085526003845282852080546000190190558785526002909352818420805490911690555192935084927fddf252ad1be2c89b69c2b068fc378daa952ba7f163c4a11628f55a4df523b3ef908390a45050565b6001600160a01b0382166110ae5760405162461bcd60e51b815260206004820181905260248201527f4552433732313a206d696e7420746f20746865207a65726f20616464726573736044820152606401610620565b6000818152600260205260409020546001600160a01b0316156111135760405162461bcd60e51b815260206004820152601c60248201527f4552433732313a20746f6b656e20616c7265616479206d696e746564000000006044820152606401610620565b611121600083836001611469565b6000818152600260205260409020546001600160a01b0316156111865760405162461bcd60e51b815260206004820152601c60248201527f4552433732313a20746f6b656e20616c7265616479206d696e746564000000006044820152606401610620565b6001600160a01b0382166000818152600360209081526040808320805460010190558483526002909152808220805473ffffffffffffffffffffffffffffffffffffffff19168417905551839291907fddf252ad1be2c89b69c2b068fc378daa952ba7f163c4a11628f55a4df523b3ef908290a45050565b6000828152600260205260409020546001600160a01b031661124b5760405162461bcd60e51b815260206004820152600660248201526508595e1a5cdd60d21b6044820152606401610620565b60008281526008602052604090206106df8282611ba1565b816001600160a01b0316836001600160a01b0316036112c45760405162461bcd60e51b815260206004820152601960248201527f4552433732313a20617070726f766520746f2063616c6c6572000000000000006044820152606401610620565b6001600160a01b03838116600081815260056020908152604080832094871680845294825291829020805460ff191686151590811790915591519182527f17307eab39ab6107e8899845ad3d59bd9653f200f220920489ca2b5937696c31910160405180910390a3505050565b61133c848484610d95565b611348848484846114f1565b610ab45760405162461bcd60e51b815260206004820152603260248201527f4552433732313a207472616e7366657220746f206e6f6e20455243373231526560448201527f63656976657220696d706c656d656e74657200000000000000000000000000006064820152608401610620565b6060600980546104e690611ad4565b606060006113d683611648565b600101905060008167ffffffffffffffff8111156113f6576113f661187d565b6040519080825280601f01601f191660200182016040528015611420576020820181803683370190505b5090508181016020015b600019017f3031323334353637383961626364656600000000000000000000000000000000600a86061a8153600a850494508461142a57509392505050565b6001811115610ab4576001600160a01b038416156114af576001600160a01b038416600090815260036020526040812080548392906114a9908490611c90565b90915550505b6001600160a01b03831615610ab4576001600160a01b038316600090815260036020526040812080548392906114e6908490611ca3565b909155505050505050565b60006001600160a01b0384163b1561163d57604051630a85bd0160e11b81526001600160a01b0385169063150b7a0290611535903390899088908890600401611cb6565b6020604051808303816000875af1925050508015611570575060408051601f3d908101601f1916820190925261156d91810190611cf2565b60015b611623573d80801561159e576040519150601f19603f3d011682016040523d82523d6000602084013e6115a3565b606091505b50805160000361161b5760405162461bcd60e51b815260206004820152603260248201527f4552433732313a207472616e7366657220746f206e6f6e20455243373231526560448201527f63656976657220696d706c656d656e74657200000000000000000000000000006064820152608401610620565b805181602001fd5b6001600160e01b031916630a85bd0160e11b1490506109b3565b506001949350505050565b6000807a184f03e93ff9f4daa797ed6e38ed64bf6a1f0100000000000000008310611691577a184f03e93ff9f4daa797ed6e38ed64bf6a1f010000000000000000830492506040015b6d04ee2d6d415b85acef810000000083106116bd576d04ee2d6d415b85acef8100000000830492506020015b662386f26fc1000083106116db57662386f26fc10000830492506010015b6305f5e10083106116f3576305f5e100830492506008015b612710831061170757612710830492506004015b60648310611719576064830492506002015b600a83106104b05760010192915050565b6001600160e01b03198116811461078f57600080fd5b60006020828403121561175257600080fd5b813561175d8161172a565b9392505050565b60006020828403121561177657600080fd5b5035919050565b60005b83811015611798578181015183820152602001611780565b50506000910152565b600081518084526117b981602086016020860161177d565b601f01601f19169290920160200192915050565b60208152600061175d60208301846117a1565b80356001600160a01b03811681146117f757600080fd5b919050565b6000806040838503121561180f57600080fd5b611818836117e0565b946020939093013593505050565b60008060006060848603121561183b57600080fd5b611844846117e0565b9250611852602085016117e0565b9150604084013590509250925092565b60006020828403121561187457600080fd5b61175d826117e0565b634e487b7160e01b600052604160045260246000fd5b600067ffffffffffffffff808411156118ae576118ae61187d565b604051601f8501601f19908116603f011681019082821181831017156118d6576118d661187d565b816040528093508581528686860111156118ef57600080fd5b858560208301376000602087830101525050509392505050565b600082601f83011261191a57600080fd5b61175d83833560208501611893565b60006020828403121561193b57600080fd5b813567ffffffffffffffff81111561195257600080fd5b6109b384828501611909565b60008060006060848603121561197357600080fd5b833567ffffffffffffffff81111561198a57600080fd5b61199686828701611909565b935050611852602085016117e0565b6020808252825182820181905260009190848201906040850190845b818110156119dd578351835292840192918401916001016119c1565b50909695505050505050565b600080604083850312156119fc57600080fd5b611a05836117e0565b915060208301358015158114611a1a57600080fd5b809150509250929050565b60008060008060808587031215611a3b57600080fd5b611a44856117e0565b9350611a52602086016117e0565b925060408501359150606085013567ffffffffffffffff811115611a7557600080fd5b8501601f81018713611a8657600080fd5b611a9587823560208401611893565b91505092959194509250565b60008060408385031215611ab457600080fd5b611abd836117e0565b9150611acb602084016117e0565b90509250929050565b600181811c90821680611ae857607f821691505b602082108103611b0857634e487b7160e01b600052602260045260246000fd5b50919050565b634e487b7160e01b600052603260045260246000fd5b634e487b7160e01b600052601160045260246000fd5b600060018201611b4c57611b4c611b24565b5060010190565b601f8211156106df57600081815260208120601f850160051c81016020861015611b7a5750805b601f850160051c820191505b81811015611b9957828155600101611b86565b505050505050565b815167ffffffffffffffff811115611bbb57611bbb61187d565b611bcf81611bc98454611ad4565b84611b53565b602080601f831160018114611c045760008415611bec5750858301515b600019600386901b1c1916600185901b178555611b99565b600085815260208120601f198616915b82811015611c3357888601518255948401946001909101908401611c14565b5085821015611c515787850151600019600388901b60f8161c191681555b5050505050600190811b01905550565b60008351611c7381846020880161177d565b835190830190611c8781836020880161177d565b01949350505050565b818103818111156104b0576104b0611b24565b808201808211156104b0576104b0611b24565b60006001600160a01b03808716835280861660208401525083604083015260806060830152611ce860808301846117a1565b9695505050505050565b600060208284031215611d0457600080fd5b815161175d8161172a56fea264697066735822122092f8c810762158dc25b488c39092c88cfc8be23507b18349ce27759747ffdf7c64736f6c63430008100033",
  "immutableReferences": {},
  "source": "// SPDX-License-Identifier: GPL-3.0\npragma solidity >=0.7.0 <0.9.0;\n\nimport \"@openzeppelin/contracts/access/Ownable.sol\";\nimport \"@openzeppelin/contracts/token/ERC721/ERC721.sol\";\n\ncontract MultiERC721 is ERC721 {\n    address private _creator;\n\n    uint256 tokenID = 0;\n    using Strings for uint256;\n\n    mapping(uint256 => string) private tokenURIs;\n    string private baseURIextended;\n\n    string private _cover;\n    string private _avatar;\n\n    uint private _primaryChain;\n    address private _primaryAddress;\n    uint[] public _supportedChains;\n\n    // keeps track of each nft current chain\n    mapping(uint => uint) public currentChains;\n\n    constructor(\n        string memory name,\n        string memory symbol,\n        string memory cover_,\n        string memory avatar_,\n        uint[] memory supportedChains_,\n        uint primaryChain_,\n        address creator_\n    ) ERC721(name, symbol) {\n        _cover = cover_;\n        _avatar = avatar_;\n        _creator = creator_;\n        _primaryChain = primaryChain_;\n        _supportedChains = supportedChains_;\n    }\n\n    function cover() public view returns (string memory) {\n        return _cover;\n    }\n\n    function avatar() public view returns (string memory) {\n        return _avatar;\n    }\n\n    function creator() public view returns (address) {\n        return _creator;\n    }\n\n    function sourceAddress() public view returns (address) {\n        return _primaryAddress;\n    }\n\n    function supportedChains() public view returns (uint[] memory) {\n        return _supportedChains;\n    }\n\n    function setSourceAddress(address sourceAddress_) public {\n        _primaryAddress = sourceAddress_;\n    }\n\n    function mint(\n        string memory uri,\n        address to,\n        uint256 _tokenID\n    ) public returns (uint) {\n        uint _id;\n\n        if (_tokenID == 0) {\n            tokenID++;\n            _id = tokenID;\n        } else {\n            _id = _tokenID;\n        }\n\n        _mint(to, _id);\n        _setTokenURI(_id, uri);\n        return _id;\n    }\n\n    function burn(uint256 _tokenID) public {\n        _burn(_tokenID);\n    }\n\n    function holderOf(uint256 tokenId) public view returns (address) {\n        return _ownerOf(tokenId);\n    }\n\n    function isChainSupported(uint destChain) public view returns (bool) {\n        if (_primaryChain == destChain) {\n            return true;\n        }\n\n        for (uint index = 0; index < _supportedChains.length; index++) {\n            if (_supportedChains[index] == destChain) {\n                return true;\n            }\n        }\n\n        return false;\n    }\n\n    function setBaseURI(string memory baseURI) external onlyCreator {\n        baseURIextended = baseURI;\n    }\n\n    function _setTokenURI(\n        uint256 tokenId,\n        string memory _tokenURI\n    ) internal virtual {\n        require(_exists(tokenId), \"!exist\");\n        tokenURIs[tokenId] = _tokenURI;\n    }\n\n    function _baseURI() internal view virtual override returns (string memory) {\n        return baseURIextended;\n    }\n\n    function tokenURI(\n        uint256 tokenId\n    ) public view virtual override returns (string memory) {\n        require(_exists(tokenId), \"!exist\");\n\n        string memory _tokenURI = tokenURIs[tokenId];\n        string memory base = _baseURI();\n\n        // if there is no base URI, return the token URI.\n        if (bytes(base).length == 0) {\n            return _tokenURI;\n        }\n\n        // if both are set, concatenate the baseURI and tokenURI (via abi.encodePacked).\n        if (bytes(_tokenURI).length > 0) {\n            return string(abi.encodePacked(base, _tokenURI));\n        }\n\n        // if there is a baseURI but no tokenURI, concatenate the tokenID to the baseURI.\n        return string(abi.encodePacked(base, tokenId.toString()));\n    }\n\n    modifier onlyCreator() {\n        require(msg.sender == _creator, \"only owner can call this method\");\n        _;\n    }\n}\n",
  "sourcePath": "C:\\Users\\Arogundade Ibrahim\\documents\\web3\\crossart\\contracts\\MultiERC721.sol",
  "compiler": {
    "name": "solc",
    "version": "0.8.16+commit.07a7930e.Emscripten.clang"
  },
  "schemaVersion": "3.4.10",
  "updatedAt": "2022-12-16T18:16:24.212Z",
  "devdoc": {
    "kind": "dev",
    "methods": {
      "approve(address,uint256)": {
        "details": "See {IERC721-approve}."
      },
      "balanceOf(address)": {
        "details": "See {IERC721-balanceOf}."
      },
      "getApproved(uint256)": {
        "details": "See {IERC721-getApproved}."
      },
      "isApprovedForAll(address,address)": {
        "details": "See {IERC721-isApprovedForAll}."
      },
      "name()": {
        "details": "See {IERC721Metadata-name}."
      },
      "ownerOf(uint256)": {
        "details": "See {IERC721-ownerOf}."
      },
      "safeTransferFrom(address,address,uint256)": {
        "details": "See {IERC721-safeTransferFrom}."
      },
      "safeTransferFrom(address,address,uint256,bytes)": {
        "details": "See {IERC721-safeTransferFrom}."
      },
      "setApprovalForAll(address,bool)": {
        "details": "See {IERC721-setApprovalForAll}."
      },
      "supportsInterface(bytes4)": {
        "details": "See {IERC165-supportsInterface}."
      },
      "symbol()": {
        "details": "See {IERC721Metadata-symbol}."
      },
      "tokenURI(uint256)": {
        "details": "See {IERC721Metadata-tokenURI}."
      },
      "transferFrom(address,address,uint256)": {
        "details": "See {IERC721-transferFrom}."
      }
    },
    "version": 1
  },
  "userdoc": {
    "kind": "user",
    "methods": {},
    "version": 1
  }
}